:020000040800F2
:100000000000022049290008211F0008291F0008BC
:10001000311F0008391F0008411F000800000000C0
:10002000000000000000000000000000212F010877
:10003000491F000800000000713101085102010849
:100040009929000899290008992900089929000888
:100050009929000899290008571F0008651F000802
:10006000731F0008811F00089929000899290008BA
:1000700099290008911F000899290008A51F000868
:100080009929000899290008992900089929000848
:10009000B91F000899290008992900089929000822
:1000A0009929000899290008992900089929000828
:1000B0009929000899290008992900089929000818
:1000C0009929000899290008992900089929000808
:1000D000992900089929000899290008CD1F0008CE
:1000E00099290008992900089929000899290008E8
:1000F00099290008992900089929000899290008D8
:1001000099290008E11F0008992900089929000889
:10011000F51F000899290008092000081D20000883
:1001200031200008992900084520000859200008BE
:10013000992900080000000000000000992900082B
:100140009929000899290008992900086D200008BC
:100150009929000881200008992900089929000898
:100160009929000899290008992900089929000867
:1001700099290008992900080000000000000000EB
:080180009929000899290008E3
:1001900010B5054C237833B9044B13B10448AFF3C1
:1001A00000800123237010BDF80100200000000032
:1001B000B483010808B5034B1BB103490348AFF3EF
:1001C000008008BD00000000FC010020B48301088D
:1001D00001F0FF01102A2BDB10F0070F08D010F8F8
:1001E000013B013A8B422DD010F0070F42B3F6D1FC
:1001F000F0B441EA012141EA014122F007047FF015
:1002000000070023F0E80256083C85EA010586EA6B
:10021000010685FA47F5A3FA87F586FA47F6A5FAA7
:1002200087F68EB9EED1F0BC01F0FF0102F00702B3
:1002300032B110F8013B013A83EA010313B1F8D15E
:100240000020704701387047002D06BF354603383F
:10025000073815F0010F07D1013015F4807F02BF78
:10026000013015F4C03F0130F0BC0138704700BFC9
:10027000034613F8012B002AFBD1181A01387047E6
:1002800081F0004102E000BF83F0004330B54FEA47
:1002900041044FEA430594EA050F08BF90EA020FB4
:1002A0001FBF54EA000C55EA020C7FEA645C7FEA47
:1002B000655C00F0E2804FEA5454D4EB5555B8BF6A
:1002C0006D420CDD2C4480EA020281EA030382EADB
:1002D000000083EA010180EA020281EA0303362D6D
:1002E00088BF30BD11F0004F4FEA01314FF4801C40
:1002F0004CEA113102D0404261EB410113F0004F52
:100300004FEA03334CEA133302D0524263EB430308
:1003100094EA050F00F0A780A4F10104D5F1200EA6
:100320000DDB02FA0EFC22FA05F2801841F1000101
:1003300003FA0EF2801843FA05F359410EE0A5F1D5
:1003400020050EF1200E012A03FA0EFC28BF4CF006
:10035000020C43FA05F3C01851EBE37101F00045BC
:1003600007D54FF0000EDCF1000C7EEB00006EEBC9
:100370000101B1F5801F1BD3B1F5001F0CD3490853
:100380005FEA30004FEA3C0C04F101044FEA4452AA
:1003900012F5800F80F09A80BCF1004F08BF5FEA31
:1003A000500C50F1000041EB045141EA050130BD11
:1003B0005FEA4C0C404141EB0101013C28BFB1F523
:1003C000801FE9D291F0000F04BF01460020B1FA6E
:1003D00081F308BF2033A3F10B03B3F120020CDA41
:1003E0000C3208DD02F1140CC2F10C0201FA0CF01F
:1003F00021FA02F10CE002F11402D8BFC2F1200C84
:1004000001FA02F120FA0CFCDCBF41EA0C01904039
:10041000E41AA2BF01EB0451294330BD6FEA040482
:100420001F3C1CDA0C340EDC04F11404C4F120026D
:1004300020FA04F001FA02F340EA030021FA04F37F
:1004400045EA030130BDC4F10C04C4F1200220FAD6
:1004500002F001FA04F340EA0300294630BD21FA14
:1004600004F0294630BD94F0000F83F4801306BFDA
:1004700081F480110134013D4EE77FEA645C18BFCE
:100480007FEA655C29D094EA050F08BF90EA020F65
:1004900005D054EA000C04BF1946104630BD91EA5D
:1004A000030F1EBF0021002030BD5FEA545C05D160
:1004B0004000494128BF41F0004130BD14F580049F
:1004C0003CBF01F5801130BD01F0004545F0FE4113
:1004D00041F470014FF0000030BD7FEA645C1ABF48
:1004E000194610467FEA655C1CBF0B46024650EA7F
:1004F000013406BF52EA033591EA030F41F40021AB
:1005000030BD00BF90F0000F04BF0021704730B530
:100510004FF4806404F132044FF000054FF0000105
:1005200050E700BF90F0000F04BF0021704730B5C6
:100530004FF4806404F1320410F0004548BF40429B
:100540004FF000013EE700BF42004FEAE2014FEAF0
:1005500031014FEA02701FBF12F07F4393F07F4FCB
:1005600081F06051704732F07F4208BF704793F0CE
:100570007F4F04BF41F40021704730B54FF46074E1
:1005800001F0004521F000411CE700BF50EA0102E4
:1005900008BF704730B54FF000050AE050EA01028D
:1005A00008BF704730B511F0004502D5404261EBFD
:1005B00041014FF4806404F132045FEA915C3FF43E
:1005C000D8AE4FF003025FEADC0C18BF03325FEADB
:1005D000DC0C18BF033202EBDC02C2F1200300FA8C
:1005E00003FC20FA02F001FA03FE40EA0E0021FAB1
:1005F00002F11444BDE600BF70B54FF0FF0C4CF49F
:10060000E06C1CEA11541DBF1CEA135594EA0C0F50
:1006100095EA0C0F00F0DEF82C4481EA030621EA8B
:100620004C5123EA4C5350EA013518BF52EA0335C6
:1006300041F4801143F4801338D0A0FB02CE4FF078
:100640000005E1FB02E506F00042E0FB03E54FF0A8
:100650000006E1FB03569CF0000F18BF4EF0010EA0
:10066000A4F1FF04B6F5007F64F5407404D25FEA9C
:100670004E0E6D4146EB060642EAC62141EA55514F
:100680004FEAC52040EA5E504FEACE2EB4F1FD0C91
:1006900088BFBCF5E06F1ED8BEF1004F08BF5FEA0F
:1006A000500E50F1000041EB045170BD06F00046C1
:1006B00046EA010140EA020081EA0301B4EB5C046E
:1006C000C2BFD4EB0C0541EA045170BD41F4801166
:1006D0004FF0000E013C00F3AB8014F1360FDEBF8B
:1006E000002001F0004170BDC4F10004203C35DA67
:1006F0000C341BDC04F11404C4F1200500FA05F3EA
:1007000020FA04F001FA05F240EA020001F000428A
:1007100021F0004110EBD37021FA04F642EB060100
:100720005EEA430E08BF20EAD37070BDC4F10C042A
:10073000C4F1200500FA04F320FA05F001FA04F2EE
:1007400040EA020001F0004110EBD37041F10001DA
:100750005EEA430E08BF20EAD37070BDC4F12005E5
:1007600000FA05F24EEA020E20FA04F301FA05F24D
:1007700043EA020321FA04F001F0004121FA04F2F5
:1007800020EA020000EBD3705EEA430E08BF20EAC5
:10079000D37070BD94F0000F0FD101F000464000FF
:1007A00041EB010111F4801F08BF013CF7D041EA81
:1007B000060195F0000F18BF704703F00046520085
:1007C00043EB030313F4801F08BF013DF7D043EA56
:1007D0000603704794EA0C0F0CEA135518BF95EA0C
:1007E0000C0F0CD050EA410618BF52EA4306D1D193
:1007F00081EA030101F000414FF0000070BD50EAB2
:10080000410606BF1046194652EA430619D094EA3B
:100810000C0F02D150EA013613D195EA0C0F05D125
:1008200052EA03361CBF104619460AD181EA030179
:1008300001F0004141F0FE4141F470014FF0000031
:1008400070BD41F0FE4141F4780170BD70B54FF0CC
:10085000FF0C4CF4E06C1CEA11541DBF1CEA13554C
:1008600094EA0C0F95EA0C0F00F0A7F8A4EB05042E
:1008700081EA030E52EA03354FEA013100F0888025
:100880004FEA03334FF0805545EA131343EA1263EE
:100890004FEA022245EA111545EA10654FEA0026A3
:1008A0000EF000419D4208BF964244F1FD0404F55C
:1008B000407402D25B084FEA3202B61A65EB0305B8
:1008C0005B084FEA32024FF480104FF4002CB6EB75
:1008D000020E75EB030E22BFB61A754640EA0C00F5
:1008E0005B084FEA3202B6EB020E75EB030E22BF35
:1008F000B61A754640EA5C005B084FEA3202B6EB76
:10090000020E75EB030E22BFB61A754640EA9C0034
:100910005B084FEA3202B6EB020E75EB030E22BF04
:10092000B61A754640EADC0055EA060E18D04FEAC2
:10093000051545EA16754FEA06164FEAC30343EA62
:1009400052734FEAC2025FEA1C1CC0D111F4801F2F
:100950000BD141EA00014FF000004FF0004CB6E728
:1009600011F4801F04BF01430020B4F1FD0C88BFC7
:10097000BCF5E06F3FF6AFAEB5EB030C04BFB6EBD2
:10098000020C5FEA500C50F1000041EB045170BDC5
:100990000EF0004E4EEA113114EB5C04C2BFD4EBF2
:1009A0000C0541EA045170BD41F480114FF0000E76
:1009B000013C90E645EA060E8DE60CEA135594EAF2
:1009C0000C0F08BF95EA0C0F3FF43BAF94EA0C0FF5
:1009D0000AD150EA01347FF434AF95EA0C0F7FF46A
:1009E00025AF104619462CE795EA0C0F06D152EABE
:1009F00003353FF4FDAE1046194622E750EA4106A2
:100A000018BF52EA43067FF4C5AE50EA41047FF4B2
:100A10000DAF52EA43057FF4EBAE12E74FF0FF3C17
:100A200006E000BF4FF0010C02E000BF4FF0010CE8
:100A30004DF804CD4FEA410C7FEA6C5C4FEA430C61
:100A400018BF7FEA6C5C1BD001B050EA410C0CBFB0
:100A500052EA430C91EA030F02BF90EA020F002012
:100A6000704710F1000F91EA030F58BF994208BF79
:100A700090422CBFD8176FEAE37040F00100704736
:100A80004FEA410C7FEA6C5C02D150EA013C07D18D
:100A90004FEA430C7FEA6C5CD6D152EA033CD3D0D8
:100AA0005DF8040B704700BF8446104662468C46D2
:100AB0001946634600E000BF01B5FFF7B7FF002805
:100AC00048BF10F1000F01BD4DF808EDFFF7F4FF2E
:100AD0000CBF012000205DF808FB00BF4DF808EDB9
:100AE000FFF7EAFF34BF012000205DF808FB00BFDC
:100AF0004DF808EDFFF7E0FF94BF012000205DF8FE
:100B000008FB00BF4DF808EDFFF7CEFF94BF0120B2
:100B100000205DF808FB00BF4DF808EDFFF7C4FFAB
:100B200034BF012000205DF808FB00BF4FEA410CF4
:100B30007FEA6C5C02D150EA013C0AD14FEA430CD7
:100B40007FEA6C5C02D152EA033C02D14FF0000014
:100B500070474FF0010070474FEA410212F5001252
:100B600015D211D56FF47873B3EB625212D94FEAF4
:100B7000C12343F0004343EA505311F0004F23FADE
:100B800002F018BF404270474FF00000704750EA33
:100B9000013005D111F0004008BF6FF000407047F0
:100BA0004FF00000704700BF4A0011D212F500124A
:100BB00011D20DD56FF47873B3EB62520ED44FEAB5
:100BC000C12343F0004343EA505323FA02F0704735
:100BD0004FF00000704750EA013002D14FF0FF3073
:100BE00070474FF0000070474FEA4102B2F1E04316
:100BF00024BFB3F5001CDCF1FE5C0DD901F0004C04
:100C00004FEAC0024CEA5070B2F1004F40EB830053
:100C100008BF20F00100704711F0804F21D113F17F
:100C20003872BCBF01F00040704741F480114FEAB8
:100C30005252C2F11802C2F1200C10FA0CF320FA41
:100C400002F018BF40F001004FEAC1234FEAD3235E
:100C500003FA0CFC40EA0C0023FA02F34FEA4303C8
:100C6000CCE77FEA625307D150EA01331EBF4FF051
:100C7000FE4040F44000704701F0004040F0FE406C
:100C800040F40000704700BF53B94AB9002908BFBB
:100C900000281CBF4FF0FF314FF0FF3000F0BEB90D
:100CA000ADF1080C6DE904CE00F03CF8DDF804E08D
:100CB000DDE9022304B0704738B500220023044662
:100CC0000D46FFF70BFF28B920462946BDE83840FE
:100CD00000F00AB8204605F1004100F005F8404256
:100CE00061EB410138BD00BFD0B50C4B0022064678
:100CF0000F46FFF781FCFFF757FF0446FFF702FCA2
:100D0000074B0022FFF778FC02460B463046394677
:100D1000FFF7BAFAFFF748FF2146D0BD0000F03DCB
:100D20000000F0412DE9F047089D8E4604468846B4
:100D3000002B4AD18A42174662D9B2FA82F64EB1E6
:100D4000C6F1200301FA06F820FA03F3B74043EA9C
:100D50000808B4404FEA174E1FFA87FCB8FBFEF1B3
:100D6000230C0EFB118843EA084301FB0CF29A4264
:100D700009D9FB1801F1FF3080F0EA809A4240F275
:100D8000E78002393B449A1AA3B2B2FBFEF00EFB95
:100D9000102243EA024300FB0CFC9C4509D9FB18D6
:100DA00000F1FF3280F0D6809C4540F2D3803B4476
:100DB000023840EA0140A3EB0C0300211DB1F340CF
:100DC0000022C5E90032BDE8F0878B4205D90DB19C
:100DD000C5E9000100210846F5E7B3FA83F10029CF
:100DE00046D1734502D3824200F20581841A6EEB2C
:100DF000030201209046002DE5D0C5E90048E2E756
:100E0000002A00F09080B2FA82F6002E40F0A48012
:100E10008A1A030C4FEA174E80B2BCB20121B2FB12
:100E2000FEFC0EFB1C2243EA024304FB0CF29A4236
:100E300007D9FB180CF1FF3802D29A4200F2E08089
:100E4000C4469B1AB3FBFEF20EFB123340EA034387
:100E500002FB04F49C4207D9FB1802F1FF3002D2D6
:100E60009C4200F2CA8002461B1B42EA0C40A5E7E6
:100E7000C1F120068B4022FA06F71F430EFA01F457
:100E800020FA06F32EFA06FE4FEA1749234300FA2A
:100E900001F81FFA87FCBEFBF9F01C0C09FB10EEF1
:100EA00044EA0E4400FB0CFEA64502FA01F209D901
:100EB0003C1900F1FF3A80F09C80A64540F29980F1
:100EC00002383C44A4EB0E041FFA83FEB4FBF9F392
:100ED00009FB13444EEA044403FB0CFCA44508D967
:100EE0003C1903F1FF3E80F08280A4457FD9023B8C
:100EF0003C4443EA0040A4EB0C04A0FB02EC644534
:100F00007346E14662D35FD05DB1B8EB030264EB98
:100F1000090404FA06F622FA01F31E43CC40C5E99F
:100F2000006400214FE7B1FBF2FC010C41EA0E41E5
:100F300080B240EA01423B4638463C46B846BE468F
:100F40002026B1FBF7F1A2EB080241EA0C4166E76B
:100F5000014618E710462CE7C6F120022EFA02F3EC
:100F6000B740B14020FA02F24FEA174E0A43B3FBF2
:100F7000FEF8BCB20EFB1833110C41EA034108FB2A
:100F800004F9B04089454FEA104380B23ED9791840
:100F900008F1FF3C01D289451FD8A1EB0901B1FB43
:100FA000FEF909FB04F80EFB191192B242EA014264
:100FB000424529D2BA1809F1FF31C4D24245C2D202
:100FC000A9F102013A44BEE7F0459DD2BEEB02030F
:100FD0006CEB070C0138E14696E7A7EB0909494499
:100FE000A8F1020CB1FBFEF909FB04F8DBE773463C
:100FF0007FE7504666E70846FDE63B44023A33E7A2
:10100000ACF1020C3B441CE749469CE7A1EB09010B
:10101000C446B1FBFEF909FB04F8C4E7704700BF02
:1010200080B584B000AF3B4600221A605A609A60D7
:10103000DA602F4B2F4A1A602D4B4FF480325A60E2
:101040002B4B00229A602A4B01221A61284B012265
:101050001A76274B002283F82020254B0022DA62E3
:10106000234B254A9A62224B0022DA60204B03224E
:10107000DA611F4B012283F830201D4B01225A6197
:101080001B4801F0F1FC0346002B01D000F002FDEB
:1010900002233B6001237B600423BB603B4619466F
:1010A000134801F025FD0346002B01D000F0F2FCAF
:1010B00003233B6002237B603B4619460C4801F04A
:1010C00017FD0346002B01D000F0E4FC04233B6035
:1010D00003237B603B461946054801F009FD0346A2
:1010E000002B01D000F0D6FC00BF1037BD4680BDFC
:1010F00014020020002001400100000F80B584B0E0
:1011000000AF3B4600221A605A609A60DA60214BB9
:10111000214A1A601F4B4FF480325A601D4B002247
:101120009A601C4B00221A611A4B01221A76194B45
:10113000002283F82020174B0022DA62154B174A51
:101140009A62144B0022DA60124B0122DA61114BD1
:10115000012283F830200F4B01225A610D4801F023
:1011600083FC0346002B01D000F094FC0E233B606F
:1011700001237B600423BB603B461946054801F010
:10118000B7FC0346002B01D000F084FC00BF1037F1
:10119000BD4680BD5C020020002101400100000F1F
:1011A00080B58CB000AF786007F11C0300221A6094
:1011B0005A609A60DA601A617B681B685E4A9342E3
:1011C00058D10023BB615D4B5B6C5C4A43F4807378
:1011D00053645A4B5B6C03F48073BB61BB6900239F
:1011E0007B61564B1B6B554A43F001031363534B12
:1011F0001B6B03F001037B617B691C23FB610323F1
:101200003B6200237B6207F11C0319464C4802F045
:10121000B1FE4C4B4C4A1A604A4B00225A60494B73
:1012200000229A60474B0022DA60464B4FF48062FE
:101230001A61444B4FF400625A61424B4FF4005222
:101240009A61404B4FF48072DA613E4B00221A6281
:101250003C4B00225A623B4802F07EFA0346002BC8
:1012600001D000F017FC7B68364A9A63354A7B68E8
:1012700093635CE07B681B68344A934257D1002338
:101280003B612E4B5B6C2D4A43F4007353642B4B34
:101290005B6C03F400733B613B690023FB60274BED
:1012A0001B6B264A43F004031363244B1B6B03F0B0
:1012B0000403FB60FB681023FB6103233B620023F4
:1012C0007B6207F11C031946214802F053FE214BB3
:1012D000214A1A601F4B4FF000725A601D4B0022CA
:1012E0009A601C4B0022DA601A4B00221A61194BDB
:1012F0004FF400625A61174B4FF400529A61154B3C
:101300004FF48072DA61134B00221A62114B0022F3
:101310005A62104802F020FA0346002B01D000F078
:10132000B9FB7B680B4A9A630A4A7B68936300BFE8
:101330003037BD4680BD00BF00200140003802406C
:1013400000000240A402002010640240002101407D
:1013500000080240040300204064024080B500AF52
:10136000174B184A1A60164B06225A60144B00227B
:101370009A60134B0022DA60114B4FF420221A615D
:101380000F4B4FF480125A610D4B00221A760C4B12
:1013900000225A760A4B00229A76094B0022DA760E
:1013A000074B00221A77064B00225A77044801F0B7
:1013B000BDFD0346002B01D000F06CFB00BF80BDDB
:1013C000640300200064004080B58AB000AF7860FC
:1013D00007F1140300221A605A609A60DA601A61F9
:1013E0007B681B68194A93422BD100233B61184B41
:1013F0001B6C174A43F000731364154B1B6C03F00E
:1014000000733B613B690023FB60114B1B6B104A6F
:1014100043F0080313630E4B1B6B03F00803FB60E0
:10142000FB6803237B610223BB610023FB61032371
:101430003B6209237B6207F114031946054802F059
:1014400099FD00BF2837BD4680BD00BF0064004045
:1014500000380240000C024080B582B000AF00238B
:101460007B60274B1B6B264A43F480031363244B9A
:101470001B6B03F480037B607B6800233B60204B85
:101480001B6B1F4A43F4001313631D4B1B6B03F4C8
:1014900000133B603B68002205210D2002F032F969
:1014A0000D2002F04BF9002205210F2002F02AF94D
:1014B0000F2002F043F900220521382002F022F922
:1014C000382002F03BF9002205213A2002F01AF9F7
:1014D0003A2002F033F9002205213B2002F012F9F4
:1014E0003B2002F02BF900220521452002F00AF9E9
:1014F000452002F023F900BF0837BD4680BD00BF7C
:101500000038024080B584B000AFF860B9607A60FE
:101510007B689AB20A23B968034808F08BF97B68A4
:1015200018461037BD4680BD3C07002080B500AF8F
:101530000022002101200EF0D3FF0346094A136068
:10154000094A002109480EF01EFF0346084A1360AD
:10155000084A002108480EF016FF0346074A1360A8
:1015600000BF80BD8C030020108401088115000895
:101570009003002034840108A5150008940300207E
:1015800080B582B000AF786012F0A6F82021044840
:1015900002F0A5FE4FF4FA700EF087FF00BFF5E7EA
:1015A0000004024080B582B000AF7860102104488A
:1015B00002F095FE4FF47A700EF077FF00BFF5E76A
:1015C0000004024080B582B000AF0346FB80FB8878
:1015D000012B08D1064B1B68002B04D0044B1B6861
:1015E00018460FF007F800BF0837BD4680BD00BFA2
:1015F0008C03002080B58CB000AF07F11C030022E3
:101600001A605A609A60DA601A610023BB616D4B00
:101610001B6B6C4A43F0800313636A4B1B6B03F034
:101620008003BB61BB6900237B61664B1B6B654A12
:1016300043F004031363634B1B6B03F004037B61F0
:101640007B6900233B615F4B1B6B5E4A43F00103E8
:1016500013635C4B1B6B03F001033B613B6900238D
:10166000FB60584B1B6B574A43F002031363554B07
:101670001B6B03F00203FB60FB680023BB60514B54
:101680001B6B504A43F0100313634E4B1B6B03F06C
:101690001003BB60BB6800237B604A4B1B6B494A4D
:1016A00043F008031363474B1B6B03F008037B6095
:1016B0007B6800223521444802F0F8FD00224FF4F7
:1016C0005051424802F0F2FD00224FF47C41404864
:1016D00002F0ECFD00224FF480713E4802F0E6FD7E
:1016E0000723FB614FF404133B6200237B6207F185
:1016F0001C031946384802F03DFC0823FB614FF4F7
:1017000088133B6200237B6207F11C0319463248B1
:1017100002F030FC3523FB6101233B6200237B6236
:101720000023BB6207F11C031946274802F022FC84
:101730004FF45053FB6101233B6200237B62002383
:10174000BB6207F11C031946204802F013FC4FF45A
:101750000063FB6100233B6200237B6207F11C03F3
:1017600019461A4802F006FC4FF47C43FB61012342
:101770003B6200237B620023BB6207F11C03194616
:10178000134802F0F7FBC023FB6100233B620023F8
:101790007B6207F11C0319460F4802F0EBFB4FF484
:1017A0008073FB6101233B6200237B620023BB62E9
:1017B00007F11C031946074802F0DCFB00BF303775
:1017C000BD4680BD003802400004024000100240C7
:1017D000000C0240000002400008024080B500AF4B
:1017E000124B134A1A60114B124A5A600F4B0022D7
:1017F0009A600E4B0022DA600C4B4FF480421A6163
:101800000A4B00225A61094B00229A61074B0022C1
:10181000DA61064B00221A62044804F0A5FE034672
:10182000002B01D000F036F900BF80BD98030020E6
:1018300000540040801A060080B58AB000AF78607E
:1018400007F1140300221A605A609A60DA601A6184
:101850007B681B68194A93422BD100233B61184BCC
:101860001B6B174A43F002031363154B1B6B03F00A
:1018700002033B613B69C0237B611223BB610023F0
:10188000FB6103233B6204237B6207F114031946C7
:101890000C4802F06FFB0023FB60094B1B6C084AED
:1018A00043F400131364064B1B6C03F40013FB603A
:1018B000FB6800BF2837BD4680BD00BF0054004014
:1018C000003802400004024080B500AF01F066F825
:1018D00000F028F8FFF78EFEFFF7BEFD00F01EFFB8
:1018E00000F0ACFDFFF79CFBFFF708FC00F08EFC5E
:1018F00000F0F2FD00F02CFD0AF04CFE00F0DAF8EA
:1019000000F0E8F9FFF76AFFFFF728FD00F0DCFEC2
:1019100000F072F80EF0B6FCFFF708FE0EF0F8FCCF
:1019200000BFFDE780B594B000AF07F1200330227F
:101930000021184614F0A0F807F10C0300221A60E9
:101940005A609A60DA601A610023BB60284B1B6CF6
:10195000274A43F080531364254B1B6C03F08053DC
:10196000BB60BB6800237B60224B1B68214A43F4A9
:10197000804313601F4B1B6803F480437B607B68CC
:1019800001233B624FF480337B620223BB634FF43D
:101990008003FB6306233B64A8237B640223BB64B0
:1019A0000723FB6407F12003184604F021FF0346D8
:1019B000002B01D000F06EF80F23FB6002233B6187
:1019C00000237B614FF4A053BB614FF48053FB6154
:1019D00007F10C030521184605F082F90346002B98
:1019E00001D000F057F800BF5037BD4680BD00BFA2
:1019F000003802400070004080B500AF0022052191
:101A0000062001F07FFE062001F098FE002205214D
:101A1000072001F077FE072001F090FE002205214B
:101A2000082001F06FFE082001F088FE0022052149
:101A3000272001F067FE272001F080FE002205210B
:101A4000362001F05FFE362001F078FE00220521ED
:101A5000092001F057FE092001F070FE0022052147
:101A6000142001F04FFE142001F068FE00BF80BD7D
:101A700080B582B000AF78607B681B68044A9342EF
:101A800001D100F0ADFF00BF0837BD4680BD00BFEB
:101A90000014004080B500AF72B600BF10210448AA
:101AA00002F01DFC4FF47A7000F0BAFF00BFF5E7BA
:101AB0000004024080B400AF0C4B0D4A1A600B4B7F
:101AC00000225A60094B00229A60084B0022DA601B
:101AD000064B00221A61054B00225A61034B00227B
:101AE0009A6100BFBD465DF8047B7047EC0300209F
:101AF000002C014080B58AB000AF786007F1140374
:101B000000221A605A609A60DA601A617B681B686A
:101B1000684A934240F0C98000233B61664B5B6C8E
:101B2000654A43F400635364634B5B6C03F40063E6
:101B30003B613B690023FB605F4B1B6B5E4A43F0DC
:101B4000040313635C4B1B6B03F00403FB60FB6833
:101B50000023BB60584B1B6B574A43F008031363C9
:101B6000554B1B6B03F00803BB60BB684FF4F85385
:101B70007B610223BB610023FB6103233B620C23D7
:101B80007B6207F1140319464C4802F0F3F9042371
:101B90007B610223BB610023FB6103233B620C23B7
:101BA0007B6207F114031946454802F0E3F9454BFF
:101BB000454A1A60434B4FF000625A60414B002285
:101BC0009A60404B0022DA603E4B4FF480621A610B
:101BD0003C4B4FF480525A613A4B4FF480429A6129
:101BE000384B2022DA61374B00221A62354B04222F
:101BF0005A62344B03229A62324B4FF40002DA628B
:101C0000304B4FF400121A632E4801F0A5FD034635
:101C1000002B01D0FFF73EFF7B682A4A1A64294A4D
:101C20007B689363294B2A4A1A60284B4FF0006265
:101C30005A60264B40229A60244B0022DA60234BE4
:101C40004FF480621A61214B4FF480525A611F4B4E
:101C50004FF480429A611D4B2022DA611B4B002217
:101C60001A621A4B04225A62184B03229A62174BCB
:101C70004FF40002DA62154B4FF400121A63134856
:101C800001F06AFD0346002B01D0FFF703FF7B68DC
:101C90000E4ADA630D4A7B689363002205213120E6
:101CA00001F030FD312001F049FD00BF2837BD466D
:101CB00080BD00BF002C01400038024000080240F7
:101CC000000C02407004002058640240D004002040
:101CD000A064024080B500AF174B184A1A60164B3B
:101CE0004FF482725A60144B00229A60124B002209
:101CF000DA60114B00221A610F4B00225A610E4B21
:101D00004FF400729A610C4B1822DA610A4B0022E0
:101D10001A62094B00225A62074B00229A62064B54
:101D20000A22DA62044806F01FFD0346002B01D0A8
:101D3000FFF7B0FE00BF80BD30050020003001403D
:101D400080B58AB000AF786007F1140300221A60F2
:101D50005A609A60DA601A617B681B68194A93427C
:101D60002BD100233B61184B5B6C174A43F4805323
:101D70005364154B5B6C03F480533B613B69002358
:101D8000FB60114B1B6B104A43F0010313630E4BB6
:101D90001B6B03F00103FB60FB68E0237B61022304
:101DA000BB610023FB6103233B6205237B6207F1D8
:101DB00014031946054802F0DDF800BF2837BD4678
:101DC00080BD00BF003001400038024000000240EA
:101DD00080B582B000AF00237B60124B5B6C114A70
:101DE00043F4804353640F4B5B6C03F480437B608C
:101DF0007B6800233B600B4B1B6C0A4A43F080530B
:101E00001364084B1B6C03F080533B603B6800225B
:101E10000F216FF0010001F075FC00BF0837BD46CF
:101E200080BD00BF0038024080B58EB000AF786042
:101E30000023FB620023BB620023FB60334B1B6C5F
:101E4000324A43F020031364304B1B6C03F0200331
:101E5000FB60FB6807F1100207F1140311461846F6
:101E600005F01EF93B6AFB62FB6A002B03D105F00B
:101E7000EFF8786304E005F0EBF803465B007B6362
:101E80007B6B234AA2FB03239B0C013BBB62214BD0
:101E9000214A1A601F4B40F2E732DA601D4ABB6AE2
:101EA00053601C4B00221A611A4B00229A60194B96
:101EB00000229A61174806F0E0FC034687F83330A9
:101EC00097F83330002B1BD1124806F025FD03464E
:101ED00087F8333097F83330002B11D1372001F0D9
:101EE0002DFC7B680F2B08D800227968372001F081
:101EF00009FC0A4A7B68136002E0012387F833304B
:101F000097F8333018463837BD4680BD0038024058
:101F100083DE1B43880500200014004004000020DD
:101F200080B400AF00BFFDE780B400AF00BFFDE7A5
:101F300080B400AF00BFFDE780B400AF00BFFDE795
:101F400080B400AF00BFFDE780B400AF00BFBD4666
:101F50005DF8047B704780B500AF012002F0DAF92C
:101F600000BF80BD80B500AF022002F0D3F900BFF2
:101F700080BD80B500AF042002F0CCF900BF80BD69
:101F800080B500AF082002F0C5F900BF80BD000099
:101F900080B500AF024801F077FD00BF80BD00BFF3
:101FA0008407002080B500AF024801F06DFD00BF3E
:101FB00080BD00BFE407002080B500AF024801F0FB
:101FC000B0F800BF80BD00BF6403002080B500AF43
:101FD000024807F0BBFC00BF80BD00BF3C070020EB
:101FE00080B500AF024805F0FDFA00BF80BD00BF1C
:101FF000EC03002080B500AF024807F0A7FC00BF4B
:1020000080BD00BFF406002080B500AF024806F096
:102010004CFD00BF80BD00BFAC06002080B500AF06
:10202000024806F042FD00BF80BD00BF88050020C9
:1020300080B500AF024801F027FD00BF80BD00BFA2
:10204000A402002080B500AF024801F01DFD00BFD2
:1020500080BD00BF0403002080B500AF024801F03E
:1020600013FD00BF80BD00BF7004002080B500AF2D
:10207000024802F025FC00BF80BD00BFC85500200B
:1020800080B500AF024801F0FFFC00BF80BD00BF7B
:10209000D004002080B400AF01231846BD465DF88F
:1020A000047B704780B582B000AF7860396013F070
:1020B00043FD034616221A604FF0FF3318460837D7
:1020C000BD4680BD80B582B000AF78604FF0FF3173
:1020D0007868FFF7E7FF00BFFDE780B586B000AF87
:1020E000F860B9607A6000237B610AE0AFF300809A
:1020F0000146BB685A1CBA60CAB21A707B690133C8
:102100007B617A697B689A42F0DB7B6818461837F6
:10211000BD4680BD80B483B000AF78604FF0FF3320
:1021200018460C37BD465DF8047B704780B483B019
:1021300000AF786039603B684FF400525A6000236A
:1021400018460C37BD465DF8047B704780B483B0F9
:1021500000AF7860012318460C37BD465DF8047B5C
:10216000704780B485B000AFF860B9607A60002332
:1021700018461437BD465DF8047B704780B586B0BD
:1021800000AF7860144A154BD31A7B617B693B61C1
:10219000134B1B68002B02D1114B124A1A60104BD3
:1021A0001A687B6813443A699A4207D213F0C4FC58
:1021B00003460C221A604FF0FF3309E0084B1B68FE
:1021C000FB60074B1A687B681344054A1360FB6881
:1021D00018461837BD4680BD0000022000040000EC
:1021E000D0050020F85A002080B400AF064BD3F889
:1021F0008830054A43F47003C2F8883000BFBD46FA
:102200005DF8047B704700BF00ED00E080B596B03C
:1022100000AF07F1480300221A605A609A60DA6042
:1022200007F1400300221A605A6007F124030022DC
:102230001A605A609A60DA601A615A619A613B1DAD
:1022400020220021184613F017FC3F4B3F4A1A602A
:102250003D4BA7225A603C4B00229A603A4B40F219
:10226000E732DA60384B00221A61374B00225A619C
:10227000354B00229A61344806F0FFFA0346002BE2
:1022800001D0FFF707FC4FF48053BB6407F148030C
:1022900019462D4806F0BCFD0346002B01D0FFF780
:1022A000F9FB294806F0A8FB0346002B01D0FFF7F5
:1022B000F1FB00233B6400237B6407F140031946D4
:1022C000214807F085F90346002B01D0FFF7E2FB18
:1022D00060237B624FF4FA73BB620023FB6200232E
:1022E0003B6300237B630023BB630023FB6307F195
:1022F000240300221946144806F0C8FC0346002BAC
:1023000001D0FFF7C7FB00237B600023BB600023E5
:10231000FB6000233B6100237B614FF40053BB61F2
:1023200000233B623B1D1946074807F0CDF90346E1
:10233000002B01D0FFF7AEFB034800F065F900BFAA
:102340005837BD4680BD00BFD405002000000140C5
:1023500080B58EB000AF07F1280300221A605A60E2
:102360009A60DA6007F1200300221A605A603B1D70
:1023700000221A605A609A60DA601A615A619A61A2
:102380002D4B4FF080421A602B4BA7225A602A4BEC
:1023900000229A60284B42F20F72DA60264B00222C
:1023A0001A61254B00229A61234806F066FA03461B
:1023B000002B01D0FFF76EFB4FF48053BB6207F197
:1023C000280319461C4806F023FD0346002B01D0C4
:1023D000FFF760FB184806F00FFB0346002B01D007
:1023E000FFF758FB00233B6200237B6207F12003C9
:1023F0001946114807F0ECF80346002B01D0FFF70F
:1024000049FB60237B606423BB600023FB600023E7
:102410007B613B1D04221946074806F037FC034642
:10242000002B01D0FFF736FB034800F0EDF800BFAA
:102430003837BD4680BD00BF1C06002080B586B081
:1024400000AF07F1080300221A605A609A60DA6050
:102450003B4600221A605A601D4B1E4A1A601C4BF4
:1024600053225A601A4B00229A60194B4FF6FF72A2
:10247000DA60174B00221A61154B00229A6114484A
:1024800006F0FBF90346002B01D0FFF703FB4FF4E6
:102490008053BB6007F1080319460D4806F0B8FCED
:1024A0000346002B01D0FFF7F5FA00233B60002321
:1024B0007B603B461946064807F08AF80346002B26
:1024C00001D0FFF7E7FA00BF1837BD4680BD00BF57
:1024D000640600200008004080B582B000AF3B4693
:1024E00000221A605A60154B154A1A60134B42F2CB
:1024F000CF025A60114B00229A60104B42F20F72C9
:10250000DA600E4B00229A610C4806F0B6F90346D9
:10251000002B01D0FFF7BEFA00233B6000237B6055
:102520003B461946054807F053F80346002B01D0F7
:10253000FFF7B0FA00BF0837BD4680BDAC060020EB
:102540000010004080B487B000AF78607B681B68E3
:10255000294A93420ED100237B61284B5B6C274AAA
:1025600043F001035364254B5B6C03F001037B6173
:102570007B693AE07B681B68B3F1804F0ED1002382
:102580003B611E4B1B6C1D4A43F0010313641B4B44
:102590001B6C03F001033B613B6926E07B681B6811
:1025A000174A93420ED10023FB60144B1B6C134A55
:1025B00043F004031364114B1B6C03F00403FB6032
:1025C000FB6812E07B681B680E4A93420DD1002322
:1025D000BB600A4B1B6C094A43F010031364074BA2
:1025E0001B6C03F01003BB60BB6800BF1C37BD460B
:1025F0005DF8047B704700BF0000014000380240D6
:10260000000800400010004080B58AB000AF78603C
:1026100007F1140300221A605A609A60DA601A61A6
:102620007B681B68244A93421FD100233B61234BE4
:102630001B6B224A43F010031363204B1B6B03F008
:1026400010033B613B694FF400737B610223BB6164
:102650000023FB6100233B6201237B6207F114032B
:102660001946174801F086FC22E07B681B68B3F12D
:10267000804F1DD10023FB60104B1B6B0F4A43F0B2
:10268000020313630D4B1B6B03F00203FB60FB683B
:1026900008237B610223BB610023FB6100233B62B3
:1026A00001237B6207F114031946064801F062FC1E
:1026B00000BF2837BD4680BD000001400038024001
:1026C000001002400004024080B500AF114B124AD6
:1026D0001A60104B4FF461225A600E4B00229A6030
:1026E0000C4B0022DA600B4B00221A61094B0C22C2
:1026F0005A61084B00229A61064B0022DA610548B4
:1027000007F048F80346002B01D0FFF7C3F900BFDC
:1027100080BD00BFF4060020004C004080B500AF33
:10272000114B124A1A60104B4FF4E1325A600E4BB3
:1027300000229A600C4B0022DA600B4B00221A61D7
:10274000094B0C225A61084B00229A61064B002269
:10275000DA61054807F01EF80346002B01D0FFF7A9
:1027600099F900BF80BD00BF3C0700200048004031
:1027700080B58CB000AF786007F11C0300221A60AE
:102780005A609A60DA601A617B681B68654A9342F6
:1027900040F092800023BB61634B1B6C624A43F4A0
:1027A00000231364604B1B6C03F40023BB61BB6903
:1027B00000237B615C4B1B6B5B4A43F0010313639B
:1027C000594B1B6B03F001037B617B690323FB61A6
:1027D00002233B6200237B620323BB620823FB626C
:1027E00007F11C031946514801F0C4FB504B514AF4
:1027F0001A604F4B4FF000625A604D4B00229A60B6
:102800004B4B0022DA604A4B4FF480621A61484B0E
:1028100000225A61464B00229A61454B0022DA6140
:10282000434B4FF400321A62414B00225A62404837
:1028300000F092FF0346002B01D0FFF72BF97B68D5
:102840003B4ADA633A4A7B6893633B4B3B4A1A60E4
:10285000394B4FF000625A60374B40229A60364B3A
:102860000022DA60344B4FF480621A61324B00224E
:102870005A61314B00229A612F4B0022DA612E4BB4
:1028800000221A622C4B00225A622B4800F064FF8F
:102890000346002B01D0FFF7FDF87B68264A9A63B8
:1028A000254A7B68936300220521342000F02AFF2B
:1028B000342000F043FF31E07B681B68204A9342DC
:1028C0002CD100233B61184B1B6C174A43F4802327
:1028D0001364154B1B6C03F480233B613B6900239D
:1028E000FB60114B1B6B104A43F0020313630E4B4A
:1028F0001B6B03F00203FB60FB684FF44063FB615A
:1029000002233B6200237B620323BB620723FB623B
:1029100007F11C0319460B4801F02CFB00BF3037B0
:10292000BD4680BD004C004000380240000002401F
:102930008407002040600240E407002070600240ED
:102940000048004000040240DFF834D0FFF74CFCA0
:102950000C480D490D4A002302E0D458C4500433FA
:10296000C4188C42F9D30A4A0A4C002301E01360D0
:102970000432A242FBD313F0E5F8FEF7A5FF70473F
:102980000000022000000020F8010020D888010883
:10299000F8010020F45A0020FEE7000080B500AFE7
:1029A0000E4B1B680D4A43F4007313600B4B1B68FE
:1029B0000A4A43F480631360084B1B68074A43F4D8
:1029C00080731360032000F092FE0F20FFF72CFAB3
:1029D000FFF7FEF90023184680BD00BF003C02400F
:1029E00080B400AF064B1B781A46064B1B68134495
:1029F000044A136000BFBD465DF8047B704700BF0A
:102A0000080000204408002080B400AF034B1B687E
:102A10001846BD465DF8047B704700BF440800209F
:102A200080B584B000AF7860FFF7EEFFB8607B68D8
:102A3000FB60FB68B3F1FF3F05D00A4B1B781A46D9
:102A4000FB681344FB6000BFFFF7DEFF0246BB6874
:102A5000D31AFA689A42F7D800BF00BF1037BD46B4
:102A600080BD00BF0800002080B584B000AF786052
:102A70000023FB737B68002B01D1012333E07B68CB
:102A80001B6C002B09D17868FEF78AFB7B6800225B
:102A90005A647B68002283F83C207B681B6C03F03F
:102AA0001003002B18D17B681B6C23F4885323F090
:102AB000020343F002027B681A64786800F03AF976
:102AC0007B6800225A647B681B6C23F0030343F08D
:102AD00001027B681A6401E00123FB737B6800221A
:102AE00083F83C20FB7B18461037BD4680BD0000B4
:102AF00080B485B000AF786039600023BB607B682C
:102B000093F83C30012B01D1022305E17B680122BF
:102B100083F83C203B681B68092B25D97B681B6820
:102B2000D9683B681B689BB21A4613465B00134486
:102B30001E3B072202FA03F3DA437B681B680A4054
:102B4000DA607B681B68D9683B689A683B681B68D9
:102B50009BB2184603465B0003441E3B9A407B68C9
:102B60001B680A43DA6022E07B681B6819693B68CE
:102B70001B689BB21A4613465B001344072202FAF5
:102B800003F3DA437B681B680A401A617B681B68A1
:102B900019693B689A683B681B689BB218460346F4
:102BA0005B0003449A407B681B680A431A613B68D8
:102BB0005B68062B24D87B681B68596B3B685A6896
:102BC00013469B001344053B1F2202FA03F3DA432A
:102BD0007B681B680A405A637B681B68596B3B68BB
:102BE0001B689BB218463B685A6813469B00134407
:102BF000053B00FA03F27B681B680A435A634CE00A
:102C00003B685B680C2B24D87B681B68196B3B689E
:102C10005A6813469B001344233B1F2202FA03F316
:102C2000DA437B681B680A401A637B681B68196B70
:102C30003B681B689BB218463B685A6813469B006A
:102C40001344233B00FA03F27B681B680A431A63B0
:102C500023E07B681B68D96A3B685A6813469B006F
:102C60001344413B1F2202FA03F3DA437B681B68DB
:102C70000A40DA627B681B68D96A3B681B689BB2B2
:102C800018463B685A6813469B001344413B00FAC0
:102C900003F27B681B680A43DA62224BFB607B68A5
:102CA0001B68214A934209D13B681B68122B05D14E
:102CB000FB685B6843F48002FB685A607B681B68B2
:102CC000194A934223D13B681B68102B03D03B6801
:102CD0001B68112B1BD1FB685B6843F40002FB6887
:102CE0005A603B681B68102B11D1104B1B68104AAF
:102CF000A2FB03239A0C13469B0013445B00BB60AA
:102D000002E0BB68013BBB60BB68002BF9D17B686C
:102D1000002283F83C20002318461437BD465DF896
:102D2000047B704700230140002001400000002088
:102D300083DE1B4380B485B000AF7860794BFB60C5
:102D4000FB685B6823F44032FB685A60FB685A6892
:102D50007B685B681A43FB685A607B681B685A682B
:102D60007B681B6822F480725A607B681B68596814
:102D70007B681B691A027B681B680A435A607B6880
:102D80001B685A687B681B6822F040725A607B6837
:102D90001B6859687B689A687B681B680A435A609D
:102DA0007B681B689A687B681B6822F400629A60E3
:102DB0007B681B6899687B68DA687B681B680A43D4
:102DC0009A607B689B6A584A934222D07B681B6852
:102DD0009A687B681B6822F070629A607B681B6847
:102DE00099687B689A6A7B681B680A439A607B686B
:102DF0001B689A687B681B6822F040529A607B6867
:102E00001B6899687B68DA6A7B681B680A439A606A
:102E10000FE07B681B689A687B681B6822F0706211
:102E20009A607B681B689A687B681B6822F0405236
:102E30009A607B681B689A687B681B6822F00202B4
:102E40009A607B681B6899687B681B7E5A007B6868
:102E50001B680A439A607B6893F82030002B1BD0D4
:102E60007B681B685A687B681B6842F400625A6082
:102E70007B681B685A687B681B6822F460425A6052
:102E80007B681B6859687B685B6A013B5A037B68F7
:102E90001B680A435A6007E07B681B685A687B68B6
:102EA0001B6822F400625A607B681B68DA6A7B68E0
:102EB0001B6822F47002DA627B681B68D96A7B683F
:102EC000DB69013B1A057B681B680A43DA627B6891
:102ED0001B689A687B681B6822F400729A607B68A2
:102EE0001B6899687B6893F830305A027B681B68CE
:102EF0000A439A607B681B689A687B681B6822F4A7
:102F000080629A607B681B6899687B685B699A023B
:102F10007B681B680A439A6000BF1437BD465DF8A2
:102F2000047B7047002301400100000F80B584B08E
:102F300000AF78607B68002B01D10123EDE07B6856
:102F400093F82030DBB2002B02D17868FEF73CFA10
:102F50007B681B681A687B681B6842F001021A6074
:102F6000FFF752FDF86012E0FFF74EFD0246FB68E6
:102F7000D31A0A2B0BD97B685B6A43F400327B6857
:102F80005A627B68052283F820200123C5E07B6814
:102F90001B685B6803F00103002BE5D07B681B68AE
:102FA0001A687B681B6822F002021A60FFF72CFD8A
:102FB000F86012E0FFF728FD0246FB68D31A0A2BDF
:102FC0000BD97B685B6A43F400327B685A627B688A
:102FD000052283F8202001239FE07B681B685B6843
:102FE00003F00203002BE5D17B681B7E012B08D187
:102FF0007B681B681A687B681B6842F080021A6055
:1030000007E07B681B681A687B681B6822F08002F7
:103010001A607B685B7E012B08D17B681B681A688D
:103020007B681B6842F040021A6007E07B681B68FF
:103030001A687B681B6822F040021A607B689B7EDE
:10304000012B08D17B681B681A687B681B6842F0FB
:1030500020021A6007E07B681B681A687B681B689F
:1030600022F020021A607B68DB7E012B08D17B688E
:103070001B681A687B681B6822F010021A6007E060
:103080007B681B681A687B681B6842F010021A6034
:103090007B681B7F012B08D17B681B681A687B68E3
:1030A0001B6842F008021A6007E07B681B681A6818
:1030B0007B681B6822F008021A607B685B7F012B2B
:1030C00008D17B681B681A687B681B6842F00402A1
:1030D0001A6007E07B681B681A687B681B6822F02F
:1030E00004021A607B689A687B68DB681A437B6815
:1030F0001B691A437B685B6942EA03017B685B6872
:103100005A1E7B681B680A43DA617B6800225A6298
:103110007B68012283F82020002318461037BD4623
:1031200080BD80B58AB000AF786000237B627B6889
:103130001B685B693B627B681B685B68FB617B6843
:103140001B689B68BB617B681B68DB687B617B6875
:103150001B681B693B617B681B689B69FB603B6A62
:1031600003F00103002B7CD0BB6903F00103002BAB
:1031700023D07B681B6801229A60BB6903F00203BD
:10318000002B03D0786800F083F916E0BB6903F0E8
:103190000403002B04D07B6A43F400637B620CE0E1
:1031A000BB6903F00803002B04D07B6A43F480530F
:1031B0007B6202E0786800F089F9BB6903F48073F0
:1031C000002B24D07B681B684FF480729A60BB6927
:1031D00003F40073002B03D0786800F063F916E065
:1031E000BB6903F48063002B04D07B6A43F4005373
:1031F0007B620CE0BB6903F40063002B04D07B6AA4
:1032000043F480437B6202E0786800F069F9BB69AF
:1032100003F48033002B24D07B681B684FF480328A
:103220009A60BB6903F40033002B03D0786800F088
:1032300043F916E0BB6903F48023002B04D07B6ABA
:1032400043F400437B620CE0BB6903F40023002BD2
:1032500004D07B6A43F480337B6202E0786800F03C
:1032600049F93B6A03F00803002B0CD07B6903F09B
:103270001003002B07D07B6A43F400737B627B68EA
:103280001B681022DA603B6A03F00403002B0BD0AA
:103290007B6903F00803002B06D07B681B680822BB
:1032A000DA60786800F03AF93B6A03F00203002B19
:1032B00009D07B681B68DB6803F00303002B02D096
:1032C000786800F021F93B6A03F04003002B0CD032
:1032D0003B6903F01003002B07D07B6A43F4806343
:1032E0007B627B681B6810221A613B6A03F0200333
:1032F000002B0BD03B6903F00803002B06D07B6842
:103300001B6808221A61786800F01CF93B6A03F018
:103310001003002B09D07B681B681B6903F00303B3
:10332000002B02D0786800F003F93B6A03F4003305
:10333000002B0BD0FB6903F01003002B06D07B6839
:103340001B6810225A60786800F006F93B6A03F4A3
:103350008033002B0BD0FB6903F00803002B06D051
:103360007B681B6808225A60786800F0FFF83B6AA7
:1033700003F40043002B7BD0FB6903F00403002B14
:1033800072D03B6A03F48073002B08D0FB6803F013
:103390000103002B03D07B6A43F001037B623B6A8D
:1033A00003F40073002B08D0FB6803F00203002B2A
:1033B00003D07B6A43F002037B623B6A03F48063C1
:1033C000002B08D0FB6803F00403002B03D07B6ABA
:1033D00043F004037B623B6A03F40063002B43D099
:1033E000FB6803F07003002B3ED0FB6803F0700312
:1033F000602B2BD0602B2ED8502B22D0502B2AD8CC
:10340000402B19D0402B26D8302B10D0302B22D86F
:10341000102B02D0202B05D01DE07B6A43F008035F
:103420007B6219E07B6A43F010037B6214E07B6AE5
:1034300043F020037B620FE07B6A43F040037B6232
:103440000AE07B6A43F080037B6205E07B6A43F419
:1034500080737B6200E000BF7B681B689A697B68B1
:103460001B6822F070029A617B681B6804225A6014
:103470007B6A002B08D07B685A6A7B6A1A437B6898
:103480005A62786800F07CF800BF2837BD4680BDDE
:1034900080B483B000AF786000BF0C37BD465DF8E4
:1034A000047B704780B483B000AF786000BF0C37F6
:1034B000BD465DF8047B704780B483B000AF786090
:1034C00000BF0C37BD465DF8047B704780B483B005
:1034D00000AF786000BF0C37BD465DF8047B7047D5
:1034E00080B483B000AF786000BF0C37BD465DF894
:1034F000047B704780B483B000AF786000BF0C37A6
:10350000BD465DF8047B704780B483B000AF78603F
:1035100000BF0C37BD465DF8047B704780B483B0B4
:1035200000AF786000BF0C37BD465DF8047B704784
:1035300080B483B000AF786000BF0C37BD465DF843
:10354000047B704780B483B000AF786000BF0C3755
:10355000BD465DF8047B704780B483B000AF7860EF
:1035600000BF0C37BD465DF8047B704780B483B064
:1035700000AF786000BF0C37BD465DF8047B704734
:1035800080B483B000AF786000BF0C37BD465DF8F3
:10359000047B704780B485B000AF78607B6803F02F
:1035A0000703FB600C4BDB68BB60BA684FF6FF0398
:1035B0001340BB60FB681A02BB68134343F0BF6350
:1035C00043F40033BB60044ABB68D36000BF1437C8
:1035D000BD465DF8047B704700ED00E080B400AFAD
:1035E000044BDB681B0A03F007031846BD465DF871
:1035F000047B704700ED00E080B483B000AF034669
:10360000FB7197F90730002B0BDBFB7903F01F02EE
:10361000074997F907305B09012000FA02F241F8E7
:10362000232000BF0C37BD465DF8047B704700BF08
:1036300000E100E080B483B000AF03463960FB7165
:1036400097F90730002B0ADB3B68DAB20C4997F98F
:1036500007301201D2B20B4483F800230AE03B6822
:10366000DAB20849FB7903F00F03043B1201D2B22E
:103670000B441A7600BF0C37BD465DF8047B7047DB
:1036800000E100E000ED00E080B489B000AFF86038
:10369000B9607A60FB6803F00703FB61FB69C3F163
:1036A0000703042B28BF0423BB61FB690433062BEB
:1036B00002D9FB69033B00E000237B614FF0FF323E
:1036C000BB6902FA03F3DA43BB681A407B699A408C
:1036D0004FF0FF317B6901FA03F3D9437B680B405C
:1036E000134318462437BD465DF8047B704780B508
:1036F00082B000AF78607868FFF74CFF00BF0837F2
:10370000BD4680BD80B586B000AF0346B9607A6023
:10371000FB7300237B61FFF761FF78617A68B9680A
:103720007869FFF7B1FF024697F90F301146184646
:10373000FFF780FF00BF1837BD4680BD80B582B05F
:1037400000AF0346FB7197F907301846FFF754FFA7
:1037500000BF0837BD4680BD80B586B000AF786039
:1037600000237B61FFF750F938617B68002B01D1A2
:10377000012399E07B68022283F835207B680022D0
:1037800083F834207B681B681A687B681B6822F00A
:1037900001021A600FE0FFF737F902463B69D31ABE
:1037A000052B08D97B6820225A657B68032283F8A1
:1037B0003520032378E07B681B681B6803F0010356
:1037C000002BE8D17B681B681B687B617A69384BEA
:1037D00013407B617B685A687B689B681A437B68EF
:1037E000DB681A437B681B691A437B685B691A4371
:1037F0007B689B691A437B68DB691A437B681B6A99
:1038000013437A6913437B617B685B6A042B07D19E
:103810007B68DA6A7B681B6B13437A6913437B61AD
:103820007B681B687A691A607B681B685B697B61CF
:103830007B6923F007037B617B685B6A7A691343CA
:103840007B617B685B6A042B17D17B689B6A7A6912
:1038500013437B617B68DB6A002B0ED0786800F035
:103860000DFB0346002B08D07B6840225A657B681D
:10387000012283F83520012316E07B681B687A69F2
:103880005A61786800F0C4FA0346FB607B68DB6D20
:103890003F229A40FB689A607B6800225A657B68E9
:1038A000012283F83520002318461837BD4680BD15
:1038B0003F8010F080B586B000AFF860B9607A60E4
:1038C0003B600023FB75FB689B6D3B61FB6893F8D5
:1038D0003430012B01D1022340E0FB68012283F840
:1038E0003420FB6893F83530DBB2012B2FD1FB6815
:1038F000022283F83520FB6800225A653B687A680B
:10390000B968F86800F056FAFB68DB6D3F229A4010
:103910003B699A60FB681B681A68FB681B6842F089
:1039200016021A60FB681B6C002B07D0FB681B6833
:103930001A68FB681B6842F008021A60FB681B6883
:103940001A68FB681B6842F001021A6005E0FB6818
:10395000002283F834200223FB75FB7D18461837BC
:10396000BD4680BD80B584B000AF78607B689B6D3C
:10397000FB60FFF749F8B8607B6893F83530DBB23D
:10398000022B08D07B6880225A657B68002283F86E
:103990003420012352E07B681B681A687B681B682F
:1039A00022F016021A607B681B685A697B681B68E4
:1039B00022F080025A617B681B6C002B03D17B686C
:1039C0009B6C002B07D07B681B681A687B681B68A0
:1039D00022F008021A607B681B681A687B681B6803
:1039E00022F001021A6013E0FFF70EF80246BB68EE
:1039F000D31A052B0CD97B6820225A657B680322D9
:103A000083F835207B68002283F83420032315E0F7
:103A10007B681B681B6803F00103002BE4D17B6803
:103A2000DB6D3F229A40FB689A607B68012283F835
:103A300035207B68002283F8342000231846103795
:103A4000BD4680BD80B483B000AF78607B6893F8DA
:103A50003530DBB2022B04D07B6880225A6501230B
:103A60000CE07B68052283F835207B681B681A68A8
:103A70007B681B6822F001021A60002318460C378D
:103A8000BD465DF8047B704780B586B000AF7860B6
:103A90000023BB608E4B1B688E4AA2FB03239B0A4C
:103AA0007B617B689B6D3B613B691B68FB607B684E
:103AB000DB6D08229A40FB681340002B1AD07B680C
:103AC0001B681B6803F00403002B13D07B681B6882
:103AD0001A687B681B6822F004021A607B68DB6D41
:103AE00008229A403B699A607B685B6D43F0010253
:103AF0007B685A657B68DB6D01229A40FB68134046
:103B0000002B12D07B681B685B6903F08003002BDD
:103B10000BD07B68DB6D01229A403B699A607B6821
:103B20005B6D43F002027B685A657B68DB6D0422A3
:103B30009A40FB681340002B12D07B681B681B68FF
:103B400003F00203002B0BD07B68DB6D04229A404C
:103B50003B699A607B685B6D43F004027B685A6541
:103B60007B68DB6D10229A40FB681340002B43D02A
:103B70007B681B681B6803F00803002B3CD07B6844
:103B8000DB6D10229A403B699A607B681B681B685A
:103B900003F48023002B18D07B681B681B6803F498
:103BA0000023002B08D17B681B6C002B24D07B6882
:103BB0001B6C786898471FE07B689B6C002B1BD0C0
:103BC0007B689B6C7868984716E07B681B681B686D
:103BD00003F48073002B07D17B681B681A687B682D
:103BE0001B6822F008021A607B681B6C002B03D054
:103BF0007B681B6C786898477B68DB6D20229A4055
:103C0000FB681340002B00F08F807B681B681B68EB
:103C100003F01003002B00F087807B68DB6D20220F
:103C20009A403B699A607B6893F83530DBB2052B8C
:103C300036D17B681B681A687B681B6822F0160205
:103C40001A607B681B685A697B681B6822F08002D7
:103C50005A617B681B6C002B03D17B689B6C002B2B
:103C600007D07B681B681A687B681B6822F0080213
:103C70001A607B68DB6D3F229A403B699A607B68E3
:103C8000012283F835207B68002283F834207B688A
:103C90001B6D002B7ED07B681B6D7868984779E0A0
:103CA0007B681B681B6803F48023002B1DD07B6896
:103CB0001B681B6803F40023002B0DD17B685B6C31
:103CC000002B31D07B685B6C786898472CE000BF94
:103CD00000000020B5814E1B7B68DB6B002B23D0DE
:103CE0007B68DB6B786898471EE07B681B681B6805
:103CF00003F48073002B0FD17B681B681A687B6804
:103D00001B6822F010021A607B68012283F83520BC
:103D10007B68002283F834207B68DB6B002B03D0A8
:103D20007B68DB6B786898477B685B6D002B32D0D3
:103D30007B685B6D03F00103002B22D07B680522BA
:103D400083F835207B681B681A687B681B6822F043
:103D500001021A60BB680133BB607A699A4207D3DB
:103D60007B681B681B6803F00103002BF2D100E0A5
:103D700000BF7B68012283F835207B68002283F82E
:103D800034207B68DB6C002B05D07B68DB6C7868AB
:103D9000984700E000BF1837BD4680BD80B483B0AF
:103DA00000AF78607B685B6D18460C37BD465DF8E8
:103DB000047B704780B485B000AFF860B9607A606A
:103DC0003B60FB681B681A68FB681B6822F4802252
:103DD0001A60FB681B683A685A60FB689B68402B56
:103DE00008D1FB681B687A689A60FB681B68BA6830
:103DF000DA6007E0FB681B68BA689A60FB681B68BA
:103E00007A68DA6000BF1437BD465DF8047B7047FE
:103E100080B485B000AF78607B681B68DBB2103B74
:103E2000144AA2FB03231B09FB60134AFB681344DB
:103E30001B781A467B68DA65FB68032B09D97B6817
:103E40001B6823F47F7323F003031A1D7B689A65B4
:103E500007E07B681B6823F47F7323F003037A6811
:103E600093657B689B6D18461437BD465DF8047BEF
:103E7000704700BFABAAAAAA7084010880B485B0BD
:103E800000AF78600023FB737B689B6ABB607B6834
:103E90009B69002B1FD1BB68032B56D801A252F897
:103EA00023F000BFB53E0008C73E0008B53E00083D
:103EB0004B3F00087B68DB6A03F08073002B46D021
:103EC0000123FB7343E07B68DB6AB3F1C07F40D121
:103ED0000123FB733DE07B689B69B3F5005F21D153
:103EE000BB68032B37D801A252F823F0FD3E00082F
:103EF000033F0008FD3E0008153F00080123FB7347
:103F000030E07B68DB6A03F08073002B25D001234F
:103F1000FB7322E07B68DB6AB3F1C07F1FD1012312
:103F2000FB731CE0BB68022B03D9BB68032B03D0D7
:103F300018E00123FB7315E07B68DB6A03F08073F4
:103F4000002B0ED00123FB730BE000BF0AE000BF83
:103F500008E000BF06E000BF04E000BF02E000BFD1
:103F600000E000BFFB7B18461437BD465DF8047BBC
:103F7000704700BF80B489B000AF7860396000231B
:103F80007B6100233B610023BB610023FB616BE18C
:103F90000122FB6902FA03F37B613B681B687A69C3
:103FA00013403B613A697B699A4240F05A813B6811
:103FB0005B6803F00303012B05D03B685B6803F0EB
:103FC0000303022B30D17B689B68BB61FB695B00FC
:103FD000032202FA03F3DB43BA691340BB613B6877
:103FE000DA68FB695B0002FA03F3BA691343BB6149
:103FF0007B68BA699A607B685B68BB610122FB6978
:1040000002FA03F3DB43BA691340BB613B685B68A8
:104010001B0903F00102FB6902FA03F3BA691343B7
:10402000BB617B68BA695A603B685B6803F0030355
:10403000032B17D07B68DB68BB61FB695B00032245
:1040400002FA03F3DB43BA691340BB613B689A6829
:10405000FB695B0002FA03F3BA691343BB617B6837
:10406000BA69DA603B685B6803F00303022B23D173
:10407000FB69DA087B68083253F82230BB61FB69C0
:1040800003F007039B000F2202FA03F3DB43BA6934
:104090001340BB613B681A69FB6903F007039B008F
:1040A00002FA03F3BA691343BB61FB69DA087B6860
:1040B0000832B96943F822107B681B68BB61FB6951
:1040C0005B00032202FA03F3DB43BA691340BB61CE
:1040D0003B685B6803F00302FB695B0002FA03F3D1
:1040E000BA691343BB617B68BA691A603B685B6855
:1040F00003F44033002B00F0B4800023FB60604BDE
:104100005B6C5F4A43F4804353645D4B5B6C03F428
:104110008043FB60FB685B4AFB699B08023352F8F3
:104120002330BB61FB6903F003039B000F2202FAFB
:1041300003F3DB43BA691340BB617B68524A934285
:104140002BD07B68514A934225D07B68504A9342DA
:104150001FD07B684F4A934219D07B684E4A9342E6
:1041600013D07B684D4A93420DD07B684C4A9342F2
:1041700007D07B684B4A934201D107230EE0082306
:104180000CE006230AE0052308E0042306E00323ED
:1041900004E0022302E0012300E00023FA6902F0B8
:1041A000030292009340BA691343BB613549FB692E
:1041B0009B080233BA6941F823203B4B9B68BB61E3
:1041C0003B69DB43BA691340BB613B685B6803F43E
:1041D0008013002B03D0BA693B691343BB61324A99
:1041E000BB699360304BDB68BB613B69DB43BA69F9
:1041F0001340BB613B685B6803F40013002B03D0E2
:10420000BA693B691343BB61274ABB69D360264B3C
:104210005B68BB613B69DB43BA691340BB613B68C8
:104220005B6803F40033002B03D0BA693B69134386
:10423000BB611D4ABB6953601B4B1B68BB613B697B
:10424000DB43BA691340BB613B685B6803F48033AE
:10425000002B03D0BA693B691343BB61124ABB69A7
:104260001360FB690133FB61FB690F2B7FF690AE96
:1042700000BF00BF2437BD465DF8047B704700BF18
:1042800000380240003801400000024000040240B3
:1042900000080240000C02400010024000140240DE
:1042A00000180240001C0240003C014080B483B072
:1042B00000AF78600B467B8013467B707B78002BC9
:1042C00003D07A887B689A6103E07B881A047B6854
:1042D0009A6100BF0C37BD465DF8047B704780B41F
:1042E00085B000AF78600B467B807B685B69FB60C4
:1042F0007A88FB6813401A04FB68D9437B880B401B
:104300001A437B689A6100BF1437BD465DF8047B91
:104310007047000080B582B000AF0346FB80084BB9
:104320005A69FB881340002B06D0054AFB8853616D
:10433000FB881846FDF746F900BF0837BD4680BD2B
:10434000003C014080B586B002AF78607B68002BEE
:1043500001D1012359E07B681B68FB607B6893F8FF
:10436000D533DBB2002B06D17B68002283F8D4233F
:1043700078680FF005FA7B68032283F8D523FB6881
:10438000B3F1A04F02D17B6800229A717B681B6851
:10439000184607F000F87B6818687B681A7C8DF86F
:1043A000002004330ECB06F081FF0346002B05D01E
:1043B0007B68022283F8D523012326E07B681B68F3
:1043C0000121184606F0F8FF0346002B05D07B6854
:1043D000022283F8D523012317E07B6818687B68E5
:1043E0001A7C8DF8002004330ECB07F0A1F90346A8
:1043F000002B05D07B68022283F8D523012304E03B
:104400007B68012283F8D523002318461037BD4668
:1044100080BD90B58BB004AF7860084611461A464F
:104420000346FB700B46BB7013467B703B8E7B6173
:104430007B6893F8D433012B01D102239DE07B6884
:10444000012283F8D423FA78796813461B019B1A5A
:104450009B000B44193300221A70FA7879681346CE
:104460001B019B1A9B000B4414337A781A70FA785C
:10447000796813461B019B1A9B000B441533FA788D
:104480001A70FA78796813461B019B1A9B000B443B
:10449000263397F82C201A70FA78BB7803F07F0344
:1044A000D8B2796813461B019B1A9B000B44163344
:1044B00002461A70FB781946786800F0A5FB97F958
:1044C0000230002B0ADAFA78796813461B019B1A2E
:1044D0009B000B44173301221A7009E0FA787968BF
:1044E00013461B019B1A9B000B44173300221A70C2
:1044F0007B681B68184607F07FFA386197F82C3004
:10450000012B0BD197F82830012B07D13B69002BE9
:1045100004D17B69BC2B01D9BC237B61FA78796813
:1045200013461B019B1A9B000B44183397F8282055
:104530001A70FA787B6998B2796813461B019B1A46
:104540009B000B44283302461A807B6818687B69FD
:104550009BB27C78BA78F978029397F82C30019363
:1045600097F828300093234607F06EFA0346FB7352
:104570007B68002283F8D423FB7B18461C37BD469A
:1045800090BD000080B582B000AF7860084611464B
:104590001A460346FB700B46BB7013467B70FA78D5
:1045A000796813461B019B1A9B000B441733BA789A
:1045B0001A70FA78796813461B019B1A9B000B440A
:1045C00026337A781A703B7C002B14D1FA787968FC
:1045D00013461B019B1A9B000B442A3303221A70BB
:1045E000FA78796813461B019B1A9B000B44193318
:1045F0003A7F1A7009E0FA78796813461B019B1A12
:104600009B000B442A3302221A707B78032B00F2A2
:10461000028101A252F823F029460008014800084F
:10462000ED460008774700083B7C012B40F0F58001
:10463000BB78002B2DD13B8B002B09D1FA78796800
:1046400013461B019B1A9B000B443D3301221A7039
:10465000FA78796813461B019B1A9B000B443D3383
:104660001B78002B0AD1FA78796813461B019B1A34
:104670009B000B442A3300221A70CEE0FA78796846
:1046800013461B019B1A9B000B442A3302221A700B
:10469000C3E0FA78796813461B019B1A9B000B4410
:1046A0001A331B78012B40F0B880FA7879681346EA
:1046B0001B019B1A9B000B443C331B78002B0AD137
:1046C000FA78796813461B019B1A9B000B442A3326
:1046D00000221A70A1E0FA78796813461B019B1A30
:1046E0009B000B442A3302221A7096E0BB78002B01
:1046F00020D1FA78796813461B019B1A9B000B4462
:104700003D331B78002B0AD1FA78796813461B01D8
:104710009B1A9B000B442A3300221A707EE0FA7821
:10472000796813461B019B1A9B000B442A33022213
:104730001A7073E0FA78796813461B019B1A9B0084
:104740000B443C331B78002B0AD1FA787968134666
:104750001B019B1A9B000B442A3300221A705DE058
:10476000FA78796813461B019B1A9B000B442A3385
:1047700002221A7052E0BB78002B20D1FA787968B7
:1047800013461B019B1A9B000B443D331B78002BE7
:104790000AD1FA78796813461B019B1A9B000B44D7
:1047A0002A3300221A7039E0FA78796813461B011F
:1047B0009B1A9B000B442A3302221A702EE0FA78CF
:1047C000796813461B019B1A9B000B443C331B78F2
:1047D000002B0AD1FA78796813461B019B1A9B00BB
:1047E0000B442A3300221A7018E0FA7879681346CD
:1047F0001B019B1A9B000B442A3302221A700DE006
:10480000FA78796813461B019B1A9B000B442A33E4
:1048100000221A7002E000BF00E000BFFA78796859
:1048200013461B019B1A9B000B442C337A691A60B8
:10483000FA78398B786813461B019B1A9B00034456
:1048400034331960FA78796813461B019B1A9B0070
:104850000B444C3300221A70FA78796813461B0116
:104860009B1A9B000B44383300221A60FA7879684F
:1048700013461B019B1A9B000B441533FA781A70E0
:10488000FA78796813461B019B1A9B000B444D3341
:1048900000221A707B681868FA7813461B019B1A6D
:1048A0009B0010337A681344191D7B689B791A4664
:1048B00007F0F6F9034618460837BD4680BD00BF2D
:1048C00080B586B000AF78607B681B683B613B6950
:1048D000FB607B681B68184606F0E4FE0346012B6C
:1048E00040F0FB807B681B68184606F0A7FE034675
:1048F000002B00F0F1807B681B68184606F09EFED6
:10490000034603F40013B3F5001F04D17B681B6852
:104910004FF400125A617B681B68184606F08EFE41
:10492000034603F48013B3F5801F04D17B681B6832
:104930004FF480125A617B681B68184606F07EFEB1
:10494000034603F08063B3F1806F04D17B681B687A
:104950004FF080625A617B681B68184606F06EFE55
:10496000034603F00203022B03D17B681B6802227B
:104970005A617B681B68184606F060FE034603F028
:104980000053B3F1005F20D17B681B684FF00052E9
:104990005A61FB6803F588631B6803F00103002B71
:1049A00013D11021386906F053FD386906F082FDF5
:1049B0007B685B7A022B05D17B681B680121184656
:1049C00006F07AFF78680EF059FF7B681B6818467E
:1049D00006F034FE034603F08073B3F1807F02D10A
:1049E000786801F04DFD7B681B68184606F026FECE
:1049F000034603F00803082B06D178680EF022FF67
:104A00007B681B6808225A617B681B68184606F0A1
:104A100015FE034603F00073B3F1007F39D17B68C4
:104A20001B68184607F0B6FBB86000237B6125E0E1
:104A30007B6903F00F03BA6822FA03F303F0010362
:104A4000002B18D07B695A01FB68134403F5A0635F
:104A50001B6803F40043B3F5004F06D17B69DBB25A
:104A60001946786800F005F905E07B69DBB2194664
:104A7000786800F067FF7B6901337B617B685B7955
:104A80001A467B699342D3D37B681B684FF0007250
:104A90005A617B681B68184606F0D0FD034603F098
:104AA0001003102B01D1012300E00023002B14D0B0
:104AB0007B681B689A697B681B6822F010029A6108
:104AC000786801F0FEFB7B681B689A697B681B684D
:104AD00042F010029A6100E000BF1837BD4680BD69
:104AE00080B582B000AF78607B6893F8D433012B37
:104AF00001D1022313E07B68012283F8D4237B6871
:104B00001B680121184606F03EFF7B681B681846AB
:104B100006F030FC7B68002283F8D423002318467B
:104B20000837BD4680BD80B582B000AF78607B6835
:104B300093F8D433012B01D102230DE07B680122CD
:104B400083F8D4237B681B68184607F091FC7B68C8
:104B5000002283F8D423002318460837BD4680BDC1
:104B600080B582B000AF78607B681B68184606F09D
:104B7000E0FE034618460837BD4680BD80B483B0CA
:104B800000AF78600B46FB70FA78796813461B011A
:104B90009B1A9B000B444C331B7818460C37BD46C0
:104BA0005DF8047B704780B483B000AF78600B463B
:104BB000FB70FA78796813461B019B1A9B000B4423
:104BC00038331B6818460C37BD465DF8047B7047C8
:104BD00080B582B000AF78607B681B68184606F02D
:104BE00022FF034618460837BD4680BD80B582B017
:104BF00000AF78607B681B68184606F0FDFE034630
:104C000018460837BD4680BD80B483B000AF7860D9
:104C10000B46FB70FA78796813461B019B1A9B00C0
:104C20000B441A3300221A70FA78796813461B0174
:104C30009B1A9B000B441B3300221A70FA78796888
:104C400013461B019B1A9B000B44253300221A704C
:104C5000FA78796813461B019B1A9B000B44243396
:104C600000221A70002318460C37BD465DF8047BFD
:104C7000704780B586B000AF78600B46FB707B68EC
:104C80001B687B617B693B617B681B68FA78114616
:104C9000184606F0E6FC034603F00403042B1AD181
:104CA000FB785A013B69134403F5A0631A460423B9
:104CB0009360FA78796813461B019B1A9B000B449A
:104CC0004D3307221A707B681B68FA781146184624
:104CD00007F071FA9EE07B681B68FA781146184667
:104CE00006F0BFFC034603F48073B3F5807F1BD14D
:104CF000FB785A013B69134403F5A0631A464FF44D
:104D000080739360FA78796813461B019B1A9B00A5
:104D10000B444D3308221A707B681B68FA781146E1
:104D2000184607F048FA75E07B681B68FA78114668
:104D3000184606F096FC034603F00803082B1AD128
:104D4000FB785A013B69134403F5A0631A46082314
:104D50009360FA78796813461B019B1A9B000B44F9
:104D60004D3306221A707B681B68FA781146184684
:104D700007F021FA4EE07B681B68FA781146184666
:104D800006F06FFC034603F48063B3F5806F1BD11C
:104D9000FB785A013B69134403F5A0631A464FF4AC
:104DA00080639360FA78796813461B019B1A9B0015
:104DB0000B444D3309221A707B681B68FA78114640
:104DC000184607F0F8F925E07B681B68FA78114669
:104DD000184606F046FC034603F08003802B19D1E9
:104DE000FB785A013B69134403F5A0631A468023FC
:104DF0009360FA78796813461B019B1A9B000B4459
:104E00004D3307221A707B681B68FA7811461846E2
:104E100007F0D1F97B681B68FA781146184606F04E
:104E200020FC034603F40073B3F5007F12D17B68C6
:104E30001B68FA781146184607F0BDF9FB785A014D
:104E40003B69134403F5A0631A464FF40073936063
:104E500000F075BD7B681B68FA781146184606F0AD
:104E600000FC034603F00103012B40F02881FB788E
:104E70005A013B69134403F5A0631A46202393604B
:104E8000FA78796813461B019B1A9B000B441B336D
:104E90001B78012B19D1FA78796813461B019B1AEC
:104EA0009B000B441B3300221A70FB785A013B69AC
:104EB000134403F5A0635B68FA7851013A690A4428
:104EC00002F5A06223F4803353607B689B79002B4A
:104ED0001BD0FA78796813461B019B1A9B000B4480
:104EE00030331968FB785A013B69134403F5A0631A
:104EF0001B69C3F31203FA78C91A786813461B01B9
:104F00009B1A9B00034438331960FA78796813467A
:104F10001B019B1A9B000B444D3301221A70FA7837
:104F2000796813461B019B1A9B000B4444330022F3
:104F30001A60FB785A013B69134403F5A0631A46D3
:104F400001239360FA78796813461B019B1A9B0032
:104F50000B4426331B78002B0AD0FA787968134665
:104F60001B019B1A9B000B4426331B78022B10D18C
:104F70007B681B68FA781146184607F01CF9FB7825
:104F80005A013B69134403F5A0631A46102393604A
:104F90003DE0FA78796813461B019B1A9B000B448D
:104FA00026331B78032B0AD0FA78796813461B0145
:104FB0009B1A9B000B4426331B78012B27D1FB78CF
:104FC0005A013B69134403F5A0631B68FA78510149
:104FD0003A690A4402F5A06243F000531360FA787C
:104FE000796813461B019B1A9B000B444C3301222A
:104FF0001A70FA78796813461B019B1A9B000B44C0
:105000004C331A78FB78194678680EF045FC7B68BB
:105010009B79012B3BD1FA78796813461B019B1AC7
:105020009B000B4438331968FA78786813461B01E3
:105030009B1A9B00034428331B880B44591EFA78A3
:10504000786813461B019B1A9B00034428331B8876
:10505000B1FBF3F303F00103002B00F07084FA7846
:10506000796813461B019B1A9B000B443C331B7849
:10507000FA7883F00103D8B2796813461B019B1AB2
:105080009B000B443C3302461A7000F058BCFA787F
:10509000796813461B019B1A9B000B443C331B7819
:1050A000FA7883F00103D8B2796813461B019B1A82
:1050B0009B000B443C3302461A7000F040BC7B68F6
:1050C0001B68FA781146184606F0CBFA034603F03F
:1050D0002003202B31D1FB785A013B69134403F59F
:1050E000A0631A4620239360FA78796813461B015F
:1050F0009B1A9B000B441A331B78012B40F01F8432
:10510000FA78796813461B019B1A9B000B441B33EA
:1051100001221A70FA78796813461B019B1A9B00CA
:105120000B444D3303221A707B681B68FA781146D2
:10513000184607F040F800F002BC7B681B68FA785C
:105140001146184606F08DFA034603F00203022BBF
:1051500040F00583FB785A013B69134403F5A063D3
:105160001A4602239360FA78796813461B019B1A4A
:105170009B000B444D331B78012B14D1FA787968CE
:1051800013461B019B1A9B000B444D3302221A70DD
:10519000FA78796813461B019B1A9B000B444C3329
:1051A00001221A70CCE2FA78796813461B019B1A27
:1051B0009B000B444D331B78062B14D1FA78796889
:1051C00013461B019B1A9B000B444D3302221A709D
:1051D000FA78796813461B019B1A9B000B444C33E9
:1051E00005221A70ACE2FA78796813461B019B1A03
:1051F0009B000B444D331B78072B0BD0FA78796852
:1052000013461B019B1A9B000B444D331B78092B43
:1052100040F0A680FA78796813461B019B1A9B0020
:105220000B444D3302221A70FA78796813461B0139
:105230009B1A9B000B4444331B68591C7868134627
:105240001B019B1A9B00034444331960FA78796868
:1052500013461B019B1A9B000B4444331B68022B13
:1052600043D9FA78796813461B019B1A9B000B44BB
:10527000443300221A60FA78796813461B019B1A9E
:105280009B000B441A331B78012B23D1FA787968E1
:1052900013461B019B1A9B000B441B3300221A7000
:1052A000FA78796813461B019B1A9B000B441C3348
:1052B00000221A70FB785A013B69134403F5A0637E
:1052C0005B68FA7851013A690A4402F5A06223F456
:1052D00080335360FA78796813461B019B1A9B0050
:1052E0000B444C3304221A7029E2FA787968134689
:1052F0001B019B1A9B000B444C3302221A70FA7854
:10530000796813461B019B1A9B000B4426331B78BC
:10531000002B0BD0FA78796813461B019B1A9B006F
:105320000B4426331B78022B40F00982FB785A018C
:105330003B69134403F5A0631B68FB60FB6823F023
:105340008043FB60FB6843F00043FB60FB785A013D
:105350003B69134403F5A0631A46FB681360EEE152
:10536000FA78796813461B019B1A9B000B444D3356
:105370001B78052B40F0C880FA78796813461B012A
:105380009B1A9B000B444D3302221A70FA787968FD
:1053900013461B019B1A9B000B441B331B78012BEC
:1053A00040F0CE81FA78796813461B019B1A9B0066
:1053B0000B4426331B78032B6BD1FA78796813469C
:1053C0001B019B1A9B000B4448331B68591C7868CF
:1053D00013461B019B1A9B00034448331960FA785B
:1053E000796813461B019B1A9B000B4448331B68CA
:1053F000022B43D9FA78796813461B019B1A9B004C
:105400000B44483300221A60FA78796813461B016E
:105410009B1A9B000B441B3300221A70FA787968A0
:1054200013461B019B1A9B000B4444331B68022B41
:1054300009D8FA78796813461B019B1A9B000B4424
:105440001C3301221A70FB785A013B69134403F59F
:10545000A0635B68FA7851013A690A4402F5A062D8
:1054600023F480335360FA78796813461B019B1A42
:105470009B000B444C3304221A7014E0FA787968CC
:1054800013461B019B1A9B000B444C3302221A70DB
:1054900009E0FA78796813461B019B1A9B000B44BC
:1054A0004C3302221A70FA78796813461B019B1A52
:1054B0009B000B4426331B78002B0BD0FA787968BD
:1054C00013461B019B1A9B000B4426331B78022BAF
:1054D00040F03681FB785A013B69134403F5A06321
:1054E0001B68FB60FB6823F08043FB60FB6843F0B4
:1054F0000043FB60FB785A013B69134403F5A0634A
:105500001A46FB6813601BE1FA78796813461B01A1
:105510009B1A9B000B444D331B78032B40F081807A
:10552000FA78796813461B019B1A9B000B444D3394
:1055300002221A70FA78796813461B019B1A9B00A5
:105540000B441B331B78012B40F0FA80FA78796802
:1055500013461B019B1A9B000B444C3302221A700A
:10556000FB785A013B69134403F5A0635B68FA7842
:1055700051013A690A4402F5A06243F48033536052
:10558000FB785A013B69134403F5A063DB68FA78A2
:1055900051013A690A4402F5A06243F04003D36026
:1055A000FB785A013B69134403F5A063DB68FA7882
:1055B00051013A690A4402F5A06223F02003D36046
:1055C000FA78796813461B019B1A9B000B4426331B
:1055D0001B78002B0BD0FA78796813461B019B1AB5
:1055E0009B000B4426331B78022B40F0A980FB78EC
:1055F0005A013B69134403F5A0631B68FB60FB6819
:1056000023F08043FB60FB6843F00043FB60FB78C2
:105610005A013B69134403F5A0631A46FB68136003
:105620008EE0FA78796813461B019B1A9B000B44A5
:105630004D331B78042B43D1FA78796813461B014C
:105640009B1A9B000B444D3302221A70FA7879683A
:1056500013461B019B1A9B000B444C3302221A7009
:10566000FA78796813461B019B1A9B000B4426337A
:105670001B78002B0AD0FA78796813461B019B1A15
:105680009B000B4426331B78022B59D1FB785A011F
:105690003B69134403F5A0631B68FB60FB6823F0C0
:1056A0008043FB60FB6843F00043FB60FB785A01DA
:1056B0003B69134403F5A0631A46FB6813603FE09F
:1056C000FA78796813461B019B1A9B000B444D33F3
:1056D0001B78082B26D1FA78796813461B019B1A90
:1056E0009B000B444D3302221A70FA7879681346F6
:1056F0001B019B1A9B000B4444331B68591C7868A0
:1057000013461B019B1A9B00034444331960FA782B
:10571000796813461B019B1A9B000B444C330422EF
:105720001A700DE0FA78796813461B019B1A9B00EA
:105730000B444D331B78022B00F0008100E000BFCA
:10574000FA78796813461B019B1A9B000B444C3373
:105750001A78FB78194678680EF09EF8EFE07B68BF
:105760001B68FA781146184605F07BFF034603F0E4
:105770004003402B2FD1FB785A013B69134403F5BA
:10578000A0631A4640239360FA78796813461B0198
:105790009B1A9B000B444D3305221A70FA787968E6
:1057A00013461B019B1A9B000B441A331B78002BDA
:1057B00009D1FA78796813461B019B1A9B000B44A8
:1057C000443300221A607B681B68FA781146184639
:1057D00006F0F1FCB3E07B681B68FA7811461846C6
:1057E00005F03FFF034603F01003102B40F0A780A5
:1057F000FA78796813461B019B1A9B000B442633E9
:105800001B78032B1BD1FA78796813461B019B1A6E
:105810009B000B44443300221A60FA7879681346DF
:105820001B019B1A9B000B444D3304221A707B68AA
:105830001B68FA781146184606F0BDFC3FE0FA787E
:10584000796813461B019B1A9B000B4426331B7877
:10585000002B0AD0FA78796813461B019B1A9B002B
:105860000B4426331B78022B29D1FA78796813462A
:105870001B019B1A9B000B44443300221A607B6877
:105880009B79002B0AD0FA78796813461B019B1A82
:105890009B000B441B331B78012B10D1FA787968DD
:1058A00013461B019B1A9B000B444D3304221A70B4
:1058B0007B681B68FA781146184606F07CFCFA787B
:1058C000796813461B019B1A9B000B441B331B7802
:1058D000012B29D1FA78796813461B019B1A9B008A
:1058E0000B441B3300221A70FB785A013B691344A6
:1058F00003F5A0635B68FA7851013A690A4402F53E
:10590000A06223F480335360FB785A013B6913444F
:1059100003F5A063DB68FA7851013A690A4402F59D
:10592000A06243F02003D360FB785A013B69134423
:1059300003F5A0631A461023936000E000BF1837F8
:10594000BD4680BD80B586B000AF78600B46FB7069
:105950007B681B687B617B693B617B681B68FA78AD
:105960001146184605F07DFE034603F00403042BA0
:105970001BD1FB785A013B69134403F5A0631A4617
:1059800004239360FA78796813461B019B1A9B00E5
:105990000B444D3307221A707B681B68FA78114656
:1059A000184606F008FC00F089BC7B681B68FA7892
:1059B0001146184605F055FE034603F02003202B40
:1059C00040F08280FB785A013B69134403F5A063E1
:1059D0001A4620239360FA78796813461B019B1AB4
:1059E0009B000B4419331B78012B24D1FA7879687A
:1059F00013461B019B1A9B000B44193300221A709B
:105A0000FA78796813461B019B1A9B000B444C33B0
:105A100002221A70FA78796813461B019B1A9B00C0
:105A20000B444D3303221A707B681B68FA781146C9
:105A3000184606F0C0FBFA78796813461B019B1ADA
:105A40009B000B441A331B78012B40F03784FA7803
:105A5000796813461B019B1A9B000B441B331B7870
:105A6000002B40F02B84FA78796813461B019B1AAF
:105A70009B000B4426331B78012B09D0FA787968F8
:105A800013461B019B1A9B000B441B3301221A7007
:105A9000FA78796813461B019B1A9B000B444D331F
:105AA00003221A707B681B68FA781146184606F0C4
:105AB00082FBFA78796813461B019B1A9B000B4402
:105AC000443300221A60F9E37B681B68FA781146B8
:105AD000184605F0C6FD034603F40073B3F5007FD6
