:020000040800F2
:10000000000002207D190008A5150008AD150008A4
:10001000B5150008BD150008C51500080000000052
:10002000000000000000000000000000CD150008E6
:10003000DB15000800000000E9150008F7150008AE
:10004000CD190008CD190008CD190008CD190008F8
:10005000CD190008CD190008031600081116000874
:100060001F160008CD190008CD190008CD19000889
:10007000CD190008CD190008CD190008CD190008C8
:10008000CD190008CD190008CD190008CD190008B8
:10009000CD190008CD190008CD190008CD190008A8
:1000A000CD190008CD190008CD190008CD19000898
:1000B000CD190008CD190008CD190008CD19000888
:1000C000CD190008CD190008CD190008CD19000878
:1000D000CD190008CD190008CD1900082D1600080B
:1000E000CD190008CD190008CD190008CD19000858
:1000F000CD190008CD190008CD190008CD19000848
:10010000CD190008CD190008CD190008CD19000837
:10011000CD190008CD190008CD190008CD19000827
:10012000CD190008CD190008CD190008CD19000817
:10013000CD1900080000000000000000CD190008E3
:10014000CD190008CD190008CD190008CD190008F7
:10015000CD190008CD190008CD190008CD190008E7
:10016000CD190008CD190008CD190008CD190008D7
:10017000CD190008CD1900080000000000000000A3
:08018000CD190008CD1900089B
:1001900010B5054C237833B9044B13B10448AFF3C1
:1001A00000800123237010BDEC010020000000003E
:1001B000746E000808B5034B1BB103490348AFF345
:1001C000008008BD00000000F0010020746E0008EF
:1001D00001F0FF01102A2BDB10F0070F08D010F8F8
:1001E000013B013A8B422DD010F0070F42B3F6D1FC
:1001F000F0B441EA012141EA014122F007047FF015
:1002000000070023F0E80256083C85EA010586EA6B
:10021000010685FA47F5A3FA87F586FA47F6A5FAA7
:1002200087F68EB9EED1F0BC01F0FF0102F00702B3
:1002300032B110F8013B013A83EA010313B1F8D15E
:100240000020704701387047002D06BF354603383F
:10025000073815F0010F07D1013015F4807F02BF78
:10026000013015F4C03F0130F0BC0138704700BFC9
:10027000034613F8012B002AFBD1181A01387047E6
:1002800081F0004102E000BF83F0004330B54FEA47
:1002900041044FEA430594EA050F08BF90EA020FB4
:1002A0001FBF54EA000C55EA020C7FEA645C7FEA47
:1002B000655C00F0E2804FEA5454D4EB5555B8BF6A
:1002C0006D420CDD2C4480EA020281EA030382EADB
:1002D000000083EA010180EA020281EA0303362D6D
:1002E00088BF30BD11F0004F4FEA01314FF4801C40
:1002F0004CEA113102D0404261EB410113F0004F52
:100300004FEA03334CEA133302D0524263EB430308
:1003100094EA050F00F0A780A4F10104D5F1200EA6
:100320000DDB02FA0EFC22FA05F2801841F1000101
:1003300003FA0EF2801843FA05F359410EE0A5F1D5
:1003400020050EF1200E012A03FA0EFC28BF4CF006
:10035000020C43FA05F3C01851EBE37101F00045BC
:1003600007D54FF0000EDCF1000C7EEB00006EEBC9
:100370000101B1F5801F1BD3B1F5001F0CD3490853
:100380005FEA30004FEA3C0C04F101044FEA4452AA
:1003900012F5800F80F09A80BCF1004F08BF5FEA31
:1003A000500C50F1000041EB045141EA050130BD11
:1003B0005FEA4C0C404141EB0101013C28BFB1F523
:1003C000801FE9D291F0000F04BF01460020B1FA6E
:1003D00081F308BF2033A3F10B03B3F120020CDA41
:1003E0000C3208DD02F1140CC2F10C0201FA0CF01F
:1003F00021FA02F10CE002F11402D8BFC2F1200C84
:1004000001FA02F120FA0CFCDCBF41EA0C01904039
:10041000E41AA2BF01EB0451294330BD6FEA040482
:100420001F3C1CDA0C340EDC04F11404C4F120026D
:1004300020FA04F001FA02F340EA030021FA04F37F
:1004400045EA030130BDC4F10C04C4F1200220FAD6
:1004500002F001FA04F340EA0300294630BD21FA14
:1004600004F0294630BD94F0000F83F4801306BFDA
:1004700081F480110134013D4EE77FEA645C18BFCE
:100480007FEA655C29D094EA050F08BF90EA020F65
:1004900005D054EA000C04BF1946104630BD91EA5D
:1004A000030F1EBF0021002030BD5FEA545C05D160
:1004B0004000494128BF41F0004130BD14F580049F
:1004C0003CBF01F5801130BD01F0004545F0FE4113
:1004D00041F470014FF0000030BD7FEA645C1ABF48
:1004E000194610467FEA655C1CBF0B46024650EA7F
:1004F000013406BF52EA033591EA030F41F40021AB
:1005000030BD00BF90F0000F04BF0021704730B530
:100510004FF4806404F132044FF000054FF0000105
:1005200050E700BF90F0000F04BF0021704730B5C6
:100530004FF4806404F1320410F0004548BF40429B
:100540004FF000013EE700BF42004FEAE2014FEAF0
:1005500031014FEA02701FBF12F07F4393F07F4FCB
:1005600081F06051704732F07F4208BF704793F0CE
:100570007F4F04BF41F40021704730B54FF46074E1
:1005800001F0004521F000411CE700BF50EA0102E4
:1005900008BF704730B54FF000050AE050EA01028D
:1005A00008BF704730B511F0004502D5404261EBFD
:1005B00041014FF4806404F132045FEA915C3FF43E
:1005C000D8AE4FF003025FEADC0C18BF03325FEADB
:1005D000DC0C18BF033202EBDC02C2F1200300FA8C
:1005E00003FC20FA02F001FA03FE40EA0E0021FAB1
:1005F00002F11444BDE600BF70B54FF0FF0C4CF49F
:10060000E06C1CEA11541DBF1CEA135594EA0C0F50
:1006100095EA0C0F00F0DEF82C4481EA030621EA8B
:100620004C5123EA4C5350EA013518BF52EA0335C6
:1006300041F4801143F4801338D0A0FB02CE4FF078
:100640000005E1FB02E506F00042E0FB03E54FF0A8
:100650000006E1FB03569CF0000F18BF4EF0010EA0
:10066000A4F1FF04B6F5007F64F5407404D25FEA9C
:100670004E0E6D4146EB060642EAC62141EA55514F
:100680004FEAC52040EA5E504FEACE2EB4F1FD0C91
:1006900088BFBCF5E06F1ED8BEF1004F08BF5FEA0F
:1006A000500E50F1000041EB045170BD06F00046C1
:1006B00046EA010140EA020081EA0301B4EB5C046E
:1006C000C2BFD4EB0C0541EA045170BD41F4801166
:1006D0004FF0000E013C00F3AB8014F1360FDEBF8B
:1006E000002001F0004170BDC4F10004203C35DA67
:1006F0000C341BDC04F11404C4F1200500FA05F3EA
:1007000020FA04F001FA05F240EA020001F000428A
:1007100021F0004110EBD37021FA04F642EB060100
:100720005EEA430E08BF20EAD37070BDC4F10C042A
:10073000C4F1200500FA04F320FA05F001FA04F2EE
:1007400040EA020001F0004110EBD37041F10001DA
:100750005EEA430E08BF20EAD37070BDC4F12005E5
:1007600000FA05F24EEA020E20FA04F301FA05F24D
:1007700043EA020321FA04F001F0004121FA04F2F5
:1007800020EA020000EBD3705EEA430E08BF20EAC5
:10079000D37070BD94F0000F0FD101F000464000FF
:1007A00041EB010111F4801F08BF013CF7D041EA81
:1007B000060195F0000F18BF704703F00046520085
:1007C00043EB030313F4801F08BF013DF7D043EA56
:1007D0000603704794EA0C0F0CEA135518BF95EA0C
:1007E0000C0F0CD050EA410618BF52EA4306D1D193
:1007F00081EA030101F000414FF0000070BD50EAB2
:10080000410606BF1046194652EA430619D094EA3B
:100810000C0F02D150EA013613D195EA0C0F05D125
:1008200052EA03361CBF104619460AD181EA030179
:1008300001F0004141F0FE4141F470014FF0000031
:1008400070BD41F0FE4141F4780170BD70B54FF0CC
:10085000FF0C4CF4E06C1CEA11541DBF1CEA13554C
:1008600094EA0C0F95EA0C0F00F0A7F8A4EB05042E
:1008700081EA030E52EA03354FEA013100F0888025
:100880004FEA03334FF0805545EA131343EA1263EE
:100890004FEA022245EA111545EA10654FEA0026A3
:1008A0000EF000419D4208BF964244F1FD0404F55C
:1008B000407402D25B084FEA3202B61A65EB0305B8
:1008C0005B084FEA32024FF480104FF4002CB6EB75
:1008D000020E75EB030E22BFB61A754640EA0C00F5
:1008E0005B084FEA3202B6EB020E75EB030E22BF35
:1008F000B61A754640EA5C005B084FEA3202B6EB76
:10090000020E75EB030E22BFB61A754640EA9C0034
:100910005B084FEA3202B6EB020E75EB030E22BF04
:10092000B61A754640EADC0055EA060E18D04FEAC2
:10093000051545EA16754FEA06164FEAC30343EA62
:1009400052734FEAC2025FEA1C1CC0D111F4801F2F
:100950000BD141EA00014FF000004FF0004CB6E728
:1009600011F4801F04BF01430020B4F1FD0C88BFC7
:10097000BCF5E06F3FF6AFAEB5EB030C04BFB6EBD2
:10098000020C5FEA500C50F1000041EB045170BDC5
:100990000EF0004E4EEA113114EB5C04C2BFD4EBF2
:1009A0000C0541EA045170BD41F480114FF0000E76
:1009B000013C90E645EA060E8DE60CEA135594EAF2
:1009C0000C0F08BF95EA0C0F3FF43BAF94EA0C0FF5
:1009D0000AD150EA01347FF434AF95EA0C0F7FF46A
:1009E00025AF104619462CE795EA0C0F06D152EABE
:1009F00003353FF4FDAE1046194622E750EA4106A2
:100A000018BF52EA43067FF4C5AE50EA41047FF4B2
:100A10000DAF52EA43057FF4EBAE12E74FF0FF3C17
:100A200006E000BF4FF0010C02E000BF4FF0010CE8
:100A30004DF804CD4FEA410C7FEA6C5C4FEA430C61
:100A400018BF7FEA6C5C1BD001B050EA410C0CBFB0
:100A500052EA430C91EA030F02BF90EA020F002012
:100A6000704710F1000F91EA030F58BF994208BF79
:100A700090422CBFD8176FEAE37040F00100704736
:100A80004FEA410C7FEA6C5C02D150EA013C07D18D
:100A90004FEA430C7FEA6C5CD6D152EA033CD3D0D8
:100AA0005DF8040B704700BF8446104662468C46D2
:100AB0001946634600E000BF01B5FFF7B7FF002805
:100AC00048BF10F1000F01BD4DF808EDFFF7F4FF2E
:100AD0000CBF012000205DF808FB00BF4DF808EDB9
:100AE000FFF7EAFF34BF012000205DF808FB00BFDC
:100AF0004DF808EDFFF7E0FF94BF012000205DF8FE
:100B000008FB00BF4DF808EDFFF7CEFF94BF0120B2
:100B100000205DF808FB00BF4DF808EDFFF7C4FFAB
:100B200034BF012000205DF808FB00BF4FEA410CF4
:100B30007FEA6C5C02D150EA013C0AD14FEA430CD7
:100B40007FEA6C5C02D152EA033C02D14FF0000014
:100B500070474FF0010070474FEA410212F5001252
:100B600015D211D56FF47873B3EB625212D94FEAF4
:100B7000C12343F0004343EA505311F0004F23FADE
:100B800002F018BF404270474FF00000704750EA33
:100B9000013005D111F0004008BF6FF000407047F0
:100BA0004FF00000704700BF53B94AB9002908BF91
:100BB00000281CBF4FF0FF314FF0FF3000F088B924
:100BC000ADF1080C6DE904CE00F006F8DDF804E0A4
:100BD000DDE9022304B070472DE9F047089D8E46F9
:100BE00004468846002B4AD18A42174662D9B2FA97
:100BF00082F64EB1C6F1200301FA06F820FA03F39B
:100C0000B74043EA0808B4404FEA174E1FFA87FC82
:100C1000B8FBFEF1230C0EFB118843EA084301FBED
:100C20000CF29A4209D9FB1801F1FF3080F0EA80FA
:100C30009A4240F2E78002393B449A1AA3B2B2FBCF
:100C4000FEF00EFB102243EA024300FB0CFC9C4525
:100C500009D9FB1800F1FF3280F0D6809C4540F2A4
:100C6000D3803B44023840EA0140A3EB0C0300214F
:100C70001DB1F3400022C5E90032BDE8F0878B4288
:100C800005D90DB1C5E9000100210846F5E7B3FA21
:100C900083F1002946D1734502D3824200F20581D7
:100CA000841A6EEB030201209046002DE5D0C5E9C1
:100CB0000048E2E7002A00F09080B2FA82F6002EA7
:100CC00040F0A4808A1A030C4FEA174E80B2BCB2DF
:100CD0000121B2FBFEFC0EFB1C2243EA024304FB93
:100CE0000CF29A4207D9FB180CF1FF3802D29A4253
:100CF00000F2E080C4469B1AB3FBFEF20EFB1233F7
:100D000040EA034302FB04F49C4207D9FB1802F1BA
:100D1000FF3002D29C4200F2CA8002461B1B42EA0C
:100D20000C40A5E7C1F120068B4022FA06F71F43CD
:100D30000EFA01F420FA06F32EFA06FE4FEA1749DE
:100D4000234300FA01F81FFA87FCBEFBF9F01C0CE4
:100D500009FB10EE44EA0E4400FB0CFEA64502FA25
:100D600001F209D93C1900F1FF3A80F09C80A645B8
:100D700040F2998002383C44A4EB0E041FFA83FE33
:100D8000B4FBF9F309FB13444EEA044403FB0CFCE7
:100D9000A44508D93C1903F1FF3E80F08280A445A8
:100DA0007FD9023B3C4443EA0040A4EB0C04A0FB87
:100DB00002EC64457346E14662D35FD05DB1B8EBA7
:100DC000030264EB090404FA06F622FA01F31E4357
:100DD000CC40C5E9006400214FE7B1FBF2FC010CF7
:100DE00041EA0E4180B240EA01423B4638463C4669
:100DF000B846BE462026B1FBF7F1A2EB080241EA55
:100E00000C4166E7014618E710462CE7C6F12002C0
:100E10002EFA02F3B740B14020FA02F24FEA174E21
:100E20000A43B3FBFEF8BCB20EFB1833110C41EAC7
:100E3000034108FB04F9B04089454FEA104380B2F2
:100E40003ED9791808F1FF3C01D289451FD8A1EBA2
:100E50000901B1FBFEF909FB04F80EFB191192B26E
:100E600042EA0142424529D2BA1809F1FF31C4D2FF
:100E70004245C2D2A9F102013A44BEE7F0459DD2F3
:100E8000BEEB02036CEB070C0138E14696E7A7EBDB
:100E900009094944A8F1020CB1FBFEF909FB04F869
:100EA000DBE773467FE7504666E70846FDE63B44CE
:100EB000023A33E7ACF1020C3B441CE749469CE79D
:100EC000A1EB0901C446B1FBFEF909FB04F8C4E734
:100ED000704700BF80B582B000AF03460A46FB7181
:100EE0001346BB71344801F023FE344B344A1A6078
:100EF000324B344A5A60314B00221A72BB79012BB3
:100F000006D92E4B1B7A43F00803DAB22B4B1A7228
:100F10002A4ABB79D372322000F0CCFD00224FF474
:100F20000041294801F02AF900224FF48041264867
:100F300001F024F9032000F039F9042000F0BAFD93
:100F4000032000F033F9642000F0D4F8032000F00F
:100F50002DF9962000F0CEF8022000F027F9642049
:100F600000F0C8F8154B1B7A43F02003DBB218469B
:100F700000F0A2F8114B00225A72104B5B7A43F03A
:100F80000803DBB2184600F097F800F01FF80320C2
:100F900000F090FD094B02229A72084B9B7A43F0B5
:100FA0000403DBB2184600F087F800F045F800BFF4
:100FB0000837BD4680BD00BF1C020020080200208B
:100FC0000000002010000020000C024080B500AF9F
:100FD000012000F071F8022000F06CFD00BF80BD20
:100FE00080B584B000AF03460A46FB711346BB715F
:100FF0000F4BFB600F4BDB7ABA799A4203D90D4B4A
:10100000DB7A013BBB71BB7910333B4413F8042CF2
:10101000FB791344DBB25BB263F07F035BB2DBB2FC
:10102000184600F049F800BF1037BD4680BD00BF2C
:10103000004014540802002080B500AF084B5B7AD2
:1010400043F00403DAB2064B5A72054B5B7A43F065
:101050000803DBB2184600F02FF800BF80BD00BFC8
:101060000802002080B582B000AF786006E07B689F
:101070005A1C7A601B78184600F02CF87B681B78A5
:10108000002BF4D100BF00BF0837BD4680BD80B53E
:1010900082B000AF03463A60FB710B46BB71BA7970
:1010A000FB7911461846FFF79BFF3868FFF7DAFF18
:1010B00000BF0837BD4680BD80B582B000AF034693
:1010C000FB71FB790021184600F02EF800BF0837AD
:1010D000BD4680BD80B582B000AF0346FB71FB7991
:1010E0000121184600F020F8012318460837BD46B4
:1010F00080BD000080B483B000AF0346FB80094B85
:101100001B6800225A6200BF064B1B685A6AFB88A4
:101110009A42F9D300BF00BF0C37BD465DF8047B8F
:10112000704700BF1C02002080B582B000AF0346AC
:101130000A46FB711346BB71BB791A464FF4004156
:10114000084801F01BF8FB791B09DBB2184600F0D8
:101150002DF8FB79184600F029F800BF0837BD4686
:1011600080BD00BF000C024080B500AF00224FF4EC
:1011700080410D4801F002F80120FFF7BBFF01227A
:101180004FF48041084800F0F9FF0120FFF7B2FF5B
:1011900000224FF48041044800F0F0FF3220FFF7B6
:1011A000A9FF00BF80BD00BF000C024080B584B025
:1011B00000AF0346FB710023FB7319E0114B1A6863
:1011C000FB7B9B00134418680E4B5A68FB7B5B004B
:1011D00013441988FA79FB7B42FA03F3DBB203F07C
:1011E0000103DBB21A4600F0C9FFFB7B0133FB733E
:1011F000FB7B032BE2D9FFF7B7FF00BF1037BD46DB
:1012000080BD00BF0802002080B58AB000AF07F1A2
:10121000140300221A605A609A60DA601A6100238F
:101220003B613D4B1B6B3C4A43F0800313633A4BDD
:101230001B6B03F080033B613B690023FB60364B73
:101240001B6B354A43F004031363334B1B6B03F0F2
:101250000403FB60FB680023BB602F4B1B6B2E4A13
:1012600043F0020313632C4B1B6B03F00203BB60C0
:10127000BB6800237B60284B1B6B274A43F00803A5
:101280001363254B1B6B03F008037B607B68002214
:101290004FF47C41214800F071FF002230212048AA
:1012A00000F06CFF07237B614FF40413BB61002344
:1012B000FB6107F1140319461A4800F0C3FD082327
:1012C0007B610023BB610023FB6107F11403194616
:1012D000144800F0B7FD4FF47C437B610123BB61F0
:1012E0000023FB6100233B6207F1140319460B48FE
:1012F00000F0A8FD30237B610123BB610023FB616B
:1013000000233B6207F114031946054800F09AFDDB
:1013100000BF2837BD4680BD00380240000C0240A7
:10132000000402400008024080B584B000AFF860BD
:10133000B9607A607B689AB20A23B968034801F001
:1013400033FF7B6818461037BD4680BD640200201D
:1013500080B588B000AF00F03BFB00F03BF8FFF732
:1013600053FF00F099FA00F027FA00F09DF81421DD
:101370000420FFF7AFFD0023FB77134BBB61FA7F1F
:101380003B461249184603F081FB3B461A460021B2
:101390000020FFF77CFEFB7F0133FB77B869FFF786
:1013A000D3F802460B463846094903F06FFB3B462B
:1013B0001A4601210020FFF76AFE4FF47A7000F010
:1013C00079FB00BFDBE700BFC3F54840906E000823
:1013D0009C6E000880B594B000AF07F12003302266
:1013E0000021184603F036FC07F10C0300221A60B6
:1013F0005A609A60DA601A610023BB60284B1B6C4C
:10140000274A43F080531364254B1B6C03F0805331
:10141000BB60BB6800237B60224B1B68214A43F4FE
:10142000804313601F4B1B6803F480437B607B6821
:1014300001233B624FF480337B620223BB634FF492
:101440008003FB6306233B64A8237B640223BB6405
:101450000423FB6407F12003184600F0C1FE034695
:10146000002B01D000F070F80F23FB6002233B61DA
:1014700000237B614FF4A053BB614FF48053FB61A9
:1014800007F10C030521184601F022F90346002B51
:1014900001D000F059F800BF5037BD4680BD00BFF5
:1014A000003802400070004080B500AF00220021EB
:1014B000062000F0FEFB062000F017FC00220021B1
:1014C000072000F0F6FB072000F00FFC00220021AF
:1014D000082000F0EEFB082000F007FC00220021AD
:1014E000272000F0E6FB272000F0FFFB00BF80BDB7
:1014F00080B483B000AF0346FB8000BF0C37BD460D
:101500005DF8047B7047000080B582B000AF786062
:101510007B681B68094A93420BD10122084909489C
:1015200001F0CDFE4FF47A7301220549054801F020
:101530003BFE00BF0837BD4680BD00BF00480040ED
:10154000140200206402002080B400AF72B600BF15
:1015500000BFFDE780B483B000AF00237B60104B79
:101560005B6C0F4A43F4804353640D4B5B6C03F494
:1015700080437B607B6800233B60094B1B6C084AFF
:1015800043F080531364064B1B6C03F080533B60A5
:101590003B6800BF0C37BD465DF8047B704700BF59
:1015A0000038024080B400AF00BFFDE780B400AF58
:1015B00000BFFDE780B400AF00BFFDE780B400AF1F
:1015C00000BFFDE780B400AF00BFFDE780B400AF0F
:1015D00000BFBD465DF8047B704780B400AF00BF1C
:1015E000BD465DF8047B704780B400AF00BFBD46C8
:1015F0005DF8047B704780B500AF00F03BFA00BF98
:1016000080BD80B500AF012000F0D2FD00BF80BDDD
:1016100080B500AF022000F0CBFD00BF80BD80B5DB
:1016200000AF042000F0C4FD00BF80BD80B500AF56
:10163000024801F069FE00BF80BD00BF64020020C7
:1016400080B400AF01231846BD465DF8047B7047A7
:1016500080B582B000AF7860396003F003FB0346C9
:1016600016221A604FF0FF3318460837BD4680BD7A
:1016700080B582B000AF78604FF0FF317868FFF737
:10168000E7FF00BFFDE780B586B000AFF860B96046
:101690007A6000237B610AE0AFF300800146BB68FB
:1016A0005A1CBA60CAB21A707B6901337B617A69CD
:1016B0007B689A42F0DB7B6818461837BD4680BDD0
:1016C00080B483B000AF78604FF0FF3318460C371A
:1016D000BD465DF8047B704780B483B000AF78608E
:1016E00039603B684FF400525A60002318460C37AB
:1016F000BD465DF8047B704780B483B000AF78606E
:10170000012318460C37BD465DF8047B704780B452
:1017100085B000AFF860B9607A60002318461437CE
:10172000BD465DF8047B704780B586B000AF786039
:10173000144A154BD31A7B617B693B61134B1B68C1
:10174000002B02D1114B124A1A60104B1A687B68A9
:1017500013443A699A4207D203F084FA03460C22F2
:101760001A604FF0FF3309E0084B1B68FB60074B22
:101770001A687B681344054A1360FB6818461837DB
:10178000BD4680BD000002200004000018020020B9
:101790000004002080B400AF064BD3F88830054A1F
:1017A00043F47003C2F8883000BFBD465DF8047B87
:1017B000704700BF00ED00E080B586B000AF07F1D4
:1017C000080300221A605A609A60DA603B460022E1
:1017D0001A605A601D4B1E4A1A601C4B53225A60F5
:1017E0001A4B00229A60194B4FF6FF72DA60174BC2
:1017F00000221A61154B00229A61144801F048F941
:101800000346002B01D0FFF79FFE4FF48053BB60CF
:1018100007F1080319460D4801F0F2F90346002BC1
:1018200001D0FFF791FE00233B6000237B603B4625
:101830001946064801F0ECFB0346002B01D0FFF7E8
:1018400083FE00BF1837BD4680BD00BF1C020020CC
:101850000008004080B485B000AF78607B681B68EA
:101860000B4A93420DD10023FB600A4B1B6C094AC3
:1018700043F004031364074B1B6C03F00403FB6089
:10188000FB6800BF1437BD465DF8047B704700BF9E
:10189000000800400038024080B500AF114B124AEA
:1018A0001A60104B4FF4E1325A600E4B00229A60DE
:1018B0000C4B0022DA600B4B00221A61094B0C2200
:1018C0005A61084B00229A61064B0022DA610548F2
:1018D00001F01AFC0346002B01D0FFF735FE00BFD4
:1018E00080BD00BF640200200048004080B58AB07F
:1018F00000AF786007F1140300221A605A609A6002
:10190000DA601A617B681B68194A93422CD1002364
:101910003B61184B1B6C174A43F480231364154B2F
:101920001B6C03F480233B613B690023FB60114B7C
:101930001B6B104A43F0020313630E4B1B6B03F047
:101940000203FB60FB684FF440637B610223BB61D1
:101950000023FB6103233B6207237B6207F114032F
:101960001946054800F06EFA00BF2837BD4680BD15
:10197000004800400038024000040240DFF834D044
:10198000FFF708FF0C480D490D4A002302E0D45828
:10199000C4500433C4188C42F9D30A4A0A4C0023B9
:1019A00001E013600432A242FBD303F061F9FFF7B8
:1019B000CFFC70470000022000000020EC01002056
:1019C00044720008EC010020FC030020FEE7000048
:1019D00080B500AF0E4B1B680D4A43F400731360D3
:1019E0000B4B1B680A4A43F480631360084B1B6867
:1019F000074A43F480731360032000F04FF90F206F
:101A000000F008F8FFF7A6FD0023184680BD00BFD0
:101A1000003C024080B582B000AF7860124B1A687B
:101A2000124B1B7819464FF47A73B3FBF1F3B2FBF8
:101A3000F3F3184600F067F90346002B01D00123A9
:101A40000EE07B680F2B0AD8002279684FF0FF3038
:101A500000F02FF9064A7B681360002300E00123A1
:101A600018460837BD4680BD180000202000002021
:101A70001C00002080B400AF064B1B781A46064BB2
:101A80001B681344044A136000BFBD465DF8047B25
:101A9000704700BF20000020AC02002080B400AFDF
:101AA000034B1B681846BD465DF8047B704700BFBA
:101AB000AC02002080B584B000AF7860FFF7EEFF85
:101AC000B8607B68FB60FB68B3F1FF3F05D00A4B51
:101AD0001B781A46FB681344FB6000BFFFF7DEFF6C
:101AE0000246BB68D31AFA689A42F7D800BF00BF13
:101AF0001037BD4680BD00BF2000002080B485B0F7
:101B000000AF78607B6803F00703FB600C4BDB6879
:101B1000BB60BA684FF6FF031340BB60FB681A0254
:101B2000BB68134343F0BF6343F40033BB60044A14
:101B3000BB68D36000BF1437BD465DF8047B7047B7
:101B400000ED00E080B400AF044BDB681B0A03F03B
:101B500007031846BD465DF8047B704700ED00E0C2
:101B600080B483B000AF0346FB7197F90730002BB8
:101B70000BDBFB7903F01F02074997F907305B097C
:101B8000012000FA02F241F8232000BF0C37BD46C5
:101B90005DF8047B704700BF00E100E080B483B0D3
:101BA00000AF03463960FB7197F90730002B0ADB61
:101BB0003B68DAB20C4997F907301201D2B20B44F4
:101BC00083F800230AE03B68DAB20849FB7903F0A6
:101BD0000F03043B1201D2B20B441A7600BF0C373C
:101BE000BD465DF8047B704700E100E000ED00E0D9
:101BF00080B489B000AFF860B9607A60FB6803F028
:101C00000703FB61FB69C3F10703042B28BF04230F
:101C1000BB61FB690433062B02D9FB69033B00E07F
:101C200000237B614FF0FF32BB6902FA03F3DA4312
:101C3000BB681A407B699A404FF0FF317B6901FA1B
:101C400003F3D9437B680B40134318462437BD4642
:101C50005DF8047B7047000080B582B000AF78600B
:101C60007B68013BB3F1807F01D301230FE00A4A77
:101C70007B68013B53600F214FF0FF30FFF78EFF71
:101C8000054B00229A60044B07221A600023184675
:101C90000837BD4680BD00BF10E000E080B582B0CF
:101CA00000AF78607868FFF729FF00BF0837BD46AE
:101CB00080BD80B586B000AF0346B9607A60FB7323
:101CC00000237B61FFF73EFF78617A68B968786925
:101CD000FFF78EFF024697F90F3011461846FFF7BF
:101CE0005DFF00BF1837BD4680BD80B582B000AF34
:101CF0000346FB7197F907301846FFF731FF00BF25
:101D00000837BD4680BD80B582B000AF7860786886
:101D1000FFF7A2FF034618460837BD4680BD80B5D1
:101D200084B000AF78607B689B6DFB60FFF7B6FE08
:101D3000B8607B6893F83530DBB2022B08D07B6843
:101D400080225A657B68002283F83420012352E008
:101D50007B681B681A687B681B6822F016021A6091
:101D60007B681B685A697B681B6822F080025A6195
:101D70007B681B6C002B03D17B689B6C002B07D00E
:101D80007B681B681A687B681B6822F008021A606F
:101D90007B681B681A687B681B6822F001021A6066
:101DA00013E0FFF77BFE0246BB68D31A052B0CD964
:101DB0007B6820225A657B68032283F835207B6884
:101DC000002283F83420032315E07B681B681B681E
:101DD00003F00103002BE4D17B68DB6D3F229A40C6
:101DE000FB689A607B68012283F835207B680022BB
:101DF00083F83420002318461037BD4680BD80B4D8
:101E000083B000AF78607B6893F83530DBB2022B8B
:101E100004D07B6880225A6501230CE07B68052290
:101E200083F835207B681B681A687B681B6822F082
:101E300001021A60002318460C37BD465DF8047B8A
:101E40007047000080B489B000AF7860396000232B
:101E50007B6100233B610023BB610023FB616BE1DD
:101E60000122FB6902FA03F37B613B681B687A6914
:101E700013403B613A697B699A4240F05A813B6862
:101E80005B6803F00303012B05D03B685B6803F03C
:101E90000303022B30D17B689B68BB61FB695B004D
:101EA000032202FA03F3DB43BA691340BB613B68C8
:101EB000DA68FB695B0002FA03F3BA691343BB619A
:101EC0007B68BA699A607B685B68BB610122FB69C9
:101ED00002FA03F3DB43BA691340BB613B685B68FA
:101EE0001B0903F00102FB6902FA03F3BA69134309
:101EF000BB617B68BA695A603B685B6803F00303A7
:101F0000032B17D07B68DB68BB61FB695B00032296
:101F100002FA03F3DB43BA691340BB613B689A687A
:101F2000FB695B0002FA03F3BA691343BB617B6888
:101F3000BA69DA603B685B6803F00303022B23D1C4
:101F4000FB69DA087B68083253F82230BB61FB6911
:101F500003F007039B000F2202FA03F3DB43BA6985
:101F60001340BB613B681A69FB6903F007039B00E0
:101F700002FA03F3BA691343BB61FB69DA087B68B1
:101F80000832B96943F822107B681B68BB61FB69A2
:101F90005B00032202FA03F3DB43BA691340BB611F
:101FA0003B685B6803F00302FB695B0002FA03F322
:101FB000BA691343BB617B68BA691A603B685B68A6
:101FC00003F44033002B00F0B4800023FB60604B2F
:101FD0005B6C5F4A43F4804353645D4B5B6C03F47A
:101FE0008043FB60FB685B4AFB699B08023352F845
:101FF0002330BB61FB6903F003039B000F2202FA4D
:1020000003F3DB43BA691340BB617B68524A9342D6
:102010002BD07B68514A934225D07B68504A93422B
:102020001FD07B684F4A934219D07B684E4A934237
:1020300013D07B684D4A93420DD07B684C4A934243
:1020400007D07B684B4A934201D107230EE0082357
:102050000CE006230AE0052308E0042306E003233E
:1020600004E0022302E0012300E00023FA6902F009
:10207000030292009340BA691343BB613549FB697F
:102080009B080233BA6941F823203B4B9B68BB6134
:102090003B69DB43BA691340BB613B685B6803F48F
:1020A0008013002B03D0BA693B691343BB61324AEA
:1020B000BB699360304BDB68BB613B69DB43BA694A
:1020C0001340BB613B685B6803F40013002B03D033
:1020D000BA693B691343BB61274ABB69D360264B8E
:1020E0005B68BB613B69DB43BA691340BB613B681A
:1020F0005B6803F40033002B03D0BA693B691343D8
:10210000BB611D4ABB6953601B4B1B68BB613B69CC
:10211000DB43BA691340BB613B685B6803F48033FF
:10212000002B03D0BA693B691343BB61124ABB69F8
:102130001360FB690133FB61FB690F2B7FF690AEE7
:1021400000BF00BF2437BD465DF8047B704700BF69
:102150000038024000380140000002400004024004
:1021600000080240000C024000100240001402402F
:1021700000180240001C0240003C014080B483B0C3
:1021800000AF78600B467B8013467B707B78002B1A
:1021900003D07A887B689A6103E07B881A047B68A5
:1021A0009A6100BF0C37BD465DF8047B70470000A4
:1021B00080B582B000AF0346FB80084B5A69FB88AC
:1021C0001340002B06D0054AFB885361FB88184654
:1021D000FFF78EF900BF0837BD4680BD003C0140C7
:1021E00080B586B000AF78607B68002B01D10123F9
:1021F00067E27B681B6803F00103002B75D0884BF6
:102200009B6803F00C03042B0CD0854B9B6803F0F8
:102210000C03082B12D1824B5B6803F48003B3F5E7
:10222000800F0BD17E4B1B6803F40033002B5BD077
:102230007B685B68002B57D1012342E27B685B68B7
:10224000B3F5803F06D1764B1B68754A43F4803363
:1022500013601DE07B685B68B3F5A02F0CD1704B59
:102260001B686F4A43F4802313606D4B1B686C4AF4
:1022700043F4803313600BE0694B1B68684A23F416
:1022800080331360664B1B68654A23F48023136018
:102290007B685B68002B13D0FFF700FC386108E017
:1022A000FFF7FCFB02463B69D31A642B01D90323D9
:1022B00007E25B4B1B6803F40033002BF0D014E003
:1022C000FFF7ECFB386108E0FFF7E8FB02463B69EB
:1022D000D31A642B01D90323F3E1514B1B6803F498
:1022E0000033002BF0D100E000BF7B681B6803F0D7
:1022F0000203002B63D04A4B9B6803F00C03002BB6
:102300000BD0474B9B6803F00C03082B1CD1444BAC
:102310005B6803F48003002B16D1414B1B6803F06C
:102320000203002B05D07B68DB68012B01D0012361
:10233000C7E13B4B1B6823F0F8027B681B69DB009D
:10234000374913430B603AE07B68DB68002B20D0F1
:10235000344B01221A60FFF7A1FB386108E0FFF758
:102360009DFB02463B69D31A022B01D90323A8E146
:102370002B4B1B6803F00203002BF0D0284B1B688B
:1023800023F0F8027B681B69DB00254913430B60CF
:1023900015E0244B00221A60FFF780FB386108E04B
:1023A000FFF77CFB02463B69D31A022B01D90323BA
:1023B00087E11B4B1B6803F00203002BF0D17B6805
:1023C0001B6803F00803002B36D07B685B69002B89
:1023D00016D0154B01221A60FFF760FB386108E048
:1023E000FFF75CFB02463B69D31A022B01D903239A
:1023F00067E10B4B5B6F03F00203002BF0D01BE097
:10240000094B00221A60FFF749FB38610EE0FFF725
:1024100045FB02463B69D31A022B07D9032350E13F
:102420000038024000004742800E4742884B5B6FF5
:1024300003F00203002BEAD17B681B6803F004035E
:10244000002B00F097800023FB75814B1B6C03F081
:102450008053002B0FD10023BB607D4B1B6C7C4A4B
:1024600043F0805313647A4B1B6C03F08053BB60C2
:10247000BB680123FB75774B1B6803F48073002B4B
:1024800018D1744B1B68734A43F480731360FFF7D1
:1024900005FB386108E0FFF701FB02463B69D31AF0
:1024A000022B01D903230CE16A4B1B6803F48073F0
:1024B000002BF0D07B689B68012B06D1644B1B6F0F
:1024C000634A43F0010313671CE07B689B68052B9C
:1024D0000CD15F4B1B6F5E4A43F0040313675C4BE8
:1024E0001B6F5B4A43F0010313670BE0584B1B6FF4
:1024F000574A23F001031367554B1B6F544A23F0CF
:10250000040313677B689B68002B15D0FFF7C6FA9E
:1025100038610AE0FFF7C2FA02463B69D31A41F27A
:102520008832934201D90323CBE0494B1B6F03F060
:102530000203002BEED014E0FFF7B0FA38610AE096
:10254000FFF7ACFA02463B69D31A41F28832934254
:1025500001D90323B5E03E4B1B6F03F00203002BB0
:10256000EED1FB7D012B05D1394B1B6C384A23F092
:10257000805313647B689B69002B00F0A180344B6F
:102580009B6803F00C03082B5CD07B689B69022BD3
:1025900041D1314B00221A60FFF780FA386108E020
:1025A000FFF77CFA02463B69D31A022B01D90323B9
:1025B00087E0274B1B6803F00073002BF0D17B688A
:1025C000DA697B681B6A1A437B685B6A9B011A4362
:1025D0007B689B6A5B08013B1B041A437B68DB6AD0
:1025E0001B061B4913434B601B4B01221A60FFF76C
:1025F00055FA386108E0FFF751FA02463B69D31AF1
:10260000022B01D903235CE0114B1B6803F000731C
:10261000002BF0D054E0104B00221A60FFF73EFA76
:10262000386108E0FFF73AFA02463B69D31A022BF9
:1026300001D9032345E0064B1B6803F00073002B10
:10264000F0D13DE07B689B69012B07D1012338E085
:102650000038024000700040600047421B4B5B683E
:10266000FB607B689B69012B28D0FB6803F4800228
:102670007B68DB699A4221D1FB6803F03F027B68EB
:102680001B6A9A421AD1FA6847F6C07313407A68F7
:10269000526A9201934211D1FB6803F440327B6885
:1026A0009B6A5B08013B1B049A4207D1FB6803F05D
:1026B00070627B68DB6A1B069A4201D0012300E04E
:1026C000002318461837BD4680BD00BF00380240C1
:1026D00080B584B000AF786039607B68002B01D191
:1026E0000123CCE0684B1B6803F007033A689A4269
:1026F0000CD9654B3A68D2B21A70634B1B6803F071
:1027000007033A689A4201D00123B8E07B681B684E
:1027100003F00203002B20D07B681B6803F0040346
:10272000002B05D0594B9B68584A43F4E053936003
:102730007B681B6803F00803002B05D0534B9B6894
:10274000524A43F460439360504B9B6823F0F0027D
:102750007B689B684D4913438B607B681B6803F063
:102760000103002B44D07B685B68012B07D1474BEA
:102770001B6803F40033002B19D101237FE07B6831
:102780005B68022B03D07B685B68032B07D13F4B50
:102790001B6803F00073002B09D101236FE03B4B52
:1027A0001B6803F00203002B01D1012367E0374BC4
:1027B0009B6823F003027B685B68344913438B609A
:1027C000FFF76CF9F8600AE0FFF768F90246FB686A
:1027D000D31A41F28832934201D903234FE02B4BA5
:1027E0009B6803F00C027B685B689B009A42EBD10C
:1027F000254B1B6803F007033A689A420CD2224B20
:102800003A68D2B21A70204B1B6803F007033A688B
:102810009A4201D0012332E07B681B6803F0040375
:10282000002B08D0194B9B6823F4E0527B68DB68CF
:10283000164913438B607B681B6803F00803002B69
:1028400009D0124B9B6823F460427B681B69DB0054
:102850000E4913438B6000F021F802460B4B9B6836
:102860001B0903F00F030A49CB5C22FA03F3094A60
:102870001360094B1B681846FFF7CCF80023184675
:102880001037BD4680BD00BF003C0240003802400A
:10289000A86E0008180000201C0000202DE9B04F91
:1028A00090B000AF00237B630023FB6300233B63F6
:1028B0000023BB63594B9B6803F00C03082B0DD01E
:1028C000082B00F2A180002B02D0042B03D09BE048
:1028D000534BBB639BE0534BBB6398E04F4B5B6830
:1028E00003F03F037B634D4B5B6803F48003002BD5
:1028F00028D04A4B5B689B0900223B627A623B6AA4
:10290000C3F308000021474B03FB01F2002300FB47
:1029100003F31344434AA0FB0212FA620A46BA6266
:10292000FA6A1344FB627B6B0022BB61FA61D7E950
:102930000623D7E90A01FEF737F902460B4613468C
:10294000FB6353E0354B5B689B0900223B617A6176
:102950003B69C3F3080A4FF0000B52465B464FF049
:1029600000004FF00001590141EAD26150010246D6
:102970000B46B2EB0A0863EB0B094FF000024FF075
:1029800000034FEA891343EA98634FEA8812B2EBD7
:10299000080463EB09054FF000024FF00003EB0061
:1029A00043EA5473E20014461D4614EB0A033B60ED
:1029B00045EB0B037B604FF000024FF00003D7E9BB
:1029C000004529468B02214643EA915321468A025B
:1029D000104619467B6B0022BB60FA60D7E90223E0
:1029E000FEF7E2F802460B461346FB630B4B5B68AF
:1029F0001B0C03F0030301335B003B63FA6B3B6B7F
:102A0000B2FBF3F3BB6302E0054BBB6300BFBB6BE0
:102A100018464037BD46BDE8B08F00BF00380240C1
:102A20000024F400001BB70080B400AF034B1B6808
:102A30001846BD465DF8047B704700BF18000020B3
:102A400080B500AFFFF7F0FF0246054B9B689B0A7D
:102A500003F007030349CB5C22FA03F3184680BD59
:102A600000380240B86E000880B500AFFFF7DCFF09
:102A70000246054B9B685B0B03F007030349CB5CE5
:102A800022FA03F3184680BD00380240B86E0008F1
:102A900080B582B000AF78607B68002B01D1012344
:102AA00041E07B6893F83D30DBB2002B06D17B68B8
:102AB000002283F83C207868FEF7CCFE7B68022277
:102AC00083F83D207B681A687B68043319461046FA
:102AD00000F05EF97B68012283F846207B680122C2
:102AE00083F83E207B68012283F83F207B68012227
:102AF00083F840207B68012283F841207B68012213
:102B000083F842207B68012283F843207B680122FE
:102B100083F844207B68012283F845207B680122EA
:102B200083F83D20002318460837BD4680BD0000CD
:102B300080B485B000AF78607B6893F83D30DBB23D
:102B4000012B01D0012346E07B68022283F83D205F
:102B50007B681B68234A934222D07B681B68B3F1D1
:102B6000804F1DD07B681B681F4A934218D07B683A
:102B70001B681E4A934213D07B681B681C4A934211
:102B80000ED07B681B681B4A934209D07B681B6888
:102B9000194A934204D07B681B68184A934211D1AA
:102BA0007B681B689B6803F00703FB60FB68062BD0
:102BB00010D07B681B681A687B681B6842F00102B2
:102BC0001A6007E07B681B681A687B681B6842F024
:102BD00001021A60002318461437BD465DF8047BD5
:102BE000704700BF000001400004004000080040A2
:102BF000000C00400004014000400140001800406B
:102C000080B584B000AF786039600023FB737B68C7
:102C100093F83C30012B01D10223B4E07B68012200
:102C200083F83C207B68022283F83D207B681B6888
:102C30009B68BB60BB6823F07703BB60BB6823F471
:102C40007F43BB607B681B68BA689A603B681B68FF
:102C5000B3F5005F3ED0B3F5005F00F28780B3F5B7
:102C6000805F00F08680B3F5805F7FD8702B1AD02C
:102C7000702B7BD8602B50D0602B77D8502B3CD05A
:102C8000502B73D8402B58D0402B6FD8302B64D0AA
:102C9000302B6BD8202B60D0202B67D8002B5CD03A
:102CA000102B5AD062E07B6818683B6899683B68D3
:102CB0005A683B68DB6800F08BF97B681B689B688F
:102CC000BB60BB6843F07703BB607B681B68BA6876
:102CD0009A604FE07B6818683B6899683B685A685F
:102CE0003B68DB6800F074F97B681B689A687B6856
:102CF0001B6842F480429A603CE07B6818683B683D
:102D000059683B68DB681A4600F0E8F87B681B6886
:102D10005021184600F041F92CE07B6818683B68A8
:102D200059683B68DB681A4600F007F97B681B6846
:102D30006021184600F031F91CE07B6818683B6898
:102D400059683B68DB681A4600F0C8F87B681B6866
:102D50004021184600F021F90CE07B681A683B68B6
:102D60001B681946104600F018F903E00123FB73B5
:102D700000E000BF7B68012283F83D207B680022D1
:102D800083F83C20FB7B18461037BD4680BD000011
:102D900080B485B000AF786039607B681B68FB60E9
:102DA0007B68434A934213D07B68B3F1804F0FD0C6
:102DB0007B68404A93420BD07B683F4A934207D0DE
:102DC0007B683E4A934203D07B683D4A934208D1D8
:102DD000FB6823F07003FB603B685B68FA68134391
:102DE000FB607B68324A93422BD07B68B3F1804F03
:102DF00027D07B682F4A934223D07B682E4A934288
:102E00001FD07B682D4A93421BD07B682C4A93428B
:102E100017D07B682B4A934213D07B682A4A93428F
:102E20000FD07B68294A93420BD07B68284A934293
:102E300007D07B68274A934203D07B68264A934297
:102E400008D1FB6823F44073FB603B68DB68FA68D9
:102E50001343FB60FB6823F080023B685B6913430C
:102E6000FB603B689A687B68DA623B681A687B683B
:102E70009A627B680E4A934203D07B68104A934261
:102E800003D13B681A697B681A637B681B6843F04F
:102E900004027B681A607B6801225A617B68FA68C9
:102EA0001A6000BF1437BD465DF8047B704700BF51
:102EB000000001400004004000080040000C0040F9
:102EC000000401400040014000440140004801402E
:102ED00000180040001C00400020004080B487B073
:102EE00000AFF860B9607A60FB681B6A7B61FB68C1
:102EF0001B6A23F00102FB681A62FB689B693B6155
:102F00003B6923F0F0033B617B681B013A69134383
:102F10003B617B6923F00A037B617A69BB681343D9
:102F20007B61FB683A699A61FB687A691A6200BF43
:102F30001C37BD465DF8047B704780B487B000AF96
:102F4000F860B9607A60FB681B6A7B61FB681B6A8A
:102F500023F01002FB681A62FB689B693B613B69C6
:102F600023F470433B617B681B033A6913433B6165
:102F70007B6923F0A0037B61BB681B017A69134363
:102F80007B61FB683A699A61FB687A691A6200BFE3
:102F90001C37BD465DF8047B704780B485B000AF38
:102FA000786039607B689B68FB60FB6823F0700386
:102FB000FB603A68FB68134343F00703FB607B68E0
:102FC000FA689A6000BF1437BD465DF8047B70470D
:102FD00080B487B000AFF860B9607A603B60FB688E
:102FE0009B687B617B6923F47F437B613B681A02AA
:102FF0007B681A43BB6813437A6913437B61FB68A0
:103000007A699A6000BF1C37BD465DF8047B704743
:1030100080B485B000AF786039607B6893F83C304D
:10302000012B01D102235AE07B68012283F83C2066
:103030007B68022283F83D207B681B685B68FB602D
:103040007B681B689B68BB60FB6823F07003FB60B8
:103050003B681B68FA681343FB607B681B68FA686F
:103060005A607B681B68214A934222D07B681B68A8
:10307000B3F1804F1DD07B681B681D4A934218D066
:103080007B681B681B4A934213D07B681B681A4AF3
:1030900093420ED07B681B68184A934209D07B6824
:1030A0001B68174A934204D07B681B68154A9342F9
:1030B0000CD1BB6823F08003BB603B685B68BA68D7
:1030C0001343BB607B681B68BA689A607B68012207
:1030D00083F83D207B68002283F83C2000231846BB
:1030E0001437BD465DF8047B704700BF0000014007
:1030F0000004004000080040000C004000040140B3
:10310000004001400018004080B582B000AF7860F8
:103110007B68002B01D1012342E07B6893F84130AA
:10312000DBB2002B06D17B68002283F84020786850
:10313000FEF7DCFB7B68242283F841207B681B6858
:10314000DA687B681B6822F40052DA60786800F065
:10315000D3FD7B681B681A697B681B6822F4904268
:103160001A617B681B685A697B681B6822F02A0217
:103170005A617B681B68DA687B681B6842F40052FE
:10318000DA607B6800225A647B68202283F8412041
:103190007B68202283F842207B6800225A63002348
:1031A00018460837BD4680BD80B58AB002AFF860CA
:1031B000B9603B601346FB8000237B61FB6893F89A
:1031C0004130DBB2202B75D1BB68002B02D0FB88CD
:1031D000002B01D101236EE0FB6800225A64FB68DA
:1031E000212283F84120FEF759FC7861FB68FA88B8
:1031F0009A84FB68FA88DA84FB689B68B3F5805F81
:1032000008D1FB681B69002B04D10023FB61BB685C
:10321000BB6103E0BB68FB610023BB612EE03B6840
:1032200000937B6900228021F86800F037FB034699
:10323000002B05D0FB68202283F8412003233AE0CD
:10324000FB69002B0BD1BB691B881A46FB681B6806
:10325000C2F308025A60BB690233BB6107E0FB6935
:103260001A78FB681B685A60FB690133FB61FB68D5
:10327000DB8C9BB2013B9AB2FB68DA84FB68DB8C87
:103280009BB2002BCBD13B6800937B69002240218D
:10329000F86800F003FB0346002B05D0FB682022F2
:1032A00083F84120032306E0FB68202283F84120B5
:1032B000002300E0022318462037BD4680BD80B5BC
:1032C00084B000AFF860B9601346FB80FB6893F8E8
:1032D0004230DBB2202B12D1BB68002B02D0FB881E
:1032E000002B01D101230BE0FB6800221A63FB884D
:1032F0001A46B968F86800F02AFB034600E002238A
:1033000018461037BD4680BD80B5BAB000AF7860B2
:103310007B681B681B68C7F8E4307B681B68DB6848
:10332000C7F8E0307B681B685B69C7F8DC300023B6
:10333000C7F8D8300023C7F8D430D7F8E43003F00A
:103340000F03C7F8D830D7F8D830002B0FD1D7F8F3
:10335000E43003F02003002B09D0D7F8E03003F06D
:103360002003002B03D0786800F007FC73E2D7F845
:10337000D830002B00F0DE80D7F8DC3003F00103FA
:10338000002B06D1D7F8E03003F49073002B00F047
:10339000D180D7F8E43003F00103002B0BD0D7F82D
:1033A000E03003F48073002B05D07B685B6C43F046
:1033B00001027B685A64D7F8E43003F00403002B61
:1033C0000BD0D7F8DC3003F00103002B05D07B686D
:1033D0005B6C43F002027B685A64D7F8E43003F078
:1033E0000203002B0BD0D7F8DC3003F00103002BD5
:1033F00005D07B685B6C43F004027B685A64D7F8A5
:10340000E43003F00803002B11D0D7F8E03003F0CC
:103410002003002B05D1D7F8DC3003F00103002B8B
:1034200005D07B685B6C43F008027B685A647B685C
:103430005B6C002B00F00A82D7F8E43003F0200325
:10344000002B08D0D7F8E03003F02003002B02D087
:10345000786800F092FB7B681B685B6903F04003AF
:10346000402B0CBF01230023DBB2C7F8D4307B68AC
:103470005B6C03F00803002B03D1D7F8D430002B8A
:103480004FD0786800F09DFA7B681B685B6903F099
:103490004003402B41D17B681B681433C7F89C3034
:1034A000D7F89C3053E8003FC7F89830D7F89830E9
:1034B00023F04003C7F8D0307B681B681433D7F87B
:1034C000D020C7F8A820C7F8A430D7F8A410D7F8A0
:1034D000A82041E80023C7F8A030D7F8A030002B7F
:1034E000D9D17B68DB6B002B13D07B68DB6B8A4AFE
:1034F0001A657B68DB6B1846FEF781FC0346002BE0
:1035000016D07B68DB6B1B6D7A68D26B10469847D0
:103510000EE0786800F0ACF90AE0786800F0A8F9ED
:1035200006E0786800F0A4F97B6800225A648DE117
:1035300000BF8BE17B681B6B012B40F06781D7F8E4
:10354000E43003F01003002B00F06081D7F8E03086
:1035500003F01003002B00F059810023BB607B684F
:103560001B681B68BB607B681B685B68BB60BB68D3
:103570007B681B685B6903F04003402B40F0CE8002
:103580007B68DB6B1B685B68A7F8BE30B7F8BE30A2
:10359000002B00F0A9807B689B8DB7F8BE209A4273
:1035A00080F0A2807B68B7F8BE20DA857B68DB6B91
:1035B000DB69B3F5807F00F088807B681B680C3383
:1035C000C7F88830D7F8883053E8003FC7F8843010
:1035D000D7F8843023F48073C7F8B8307B681B6851
:1035E0000C33D7F8B820C7F89420C7F89030D7F834
:1035F0009010D7F8942041E80023C7F88C30D7F812
:103600008C30002BD9D17B681B6814337B677B6FB0
:1036100053E8003F3B673B6F23F00103C7F8B4302A
:103620007B681B681433D7F8B420C7F88020FB6789
:10363000F96FD7F8802041E80023BB67BB6F002BF0
:10364000E1D17B681B6814333B663B6E53E8003F57
:10365000FB65FB6D23F04003C7F8B0307B681B6847
:103660001433D7F8B020FA66BB66B96EFA6E41E83B
:1036700000237B667B6E002BE3D17B68202283F8DE
:1036800042207B6800221A637B681B680C33FB6452
:10369000FB6C53E8003FBB64BB6C23F01003C7F81E
:1036A000AC307B681B680C33D7F8AC20BA657B65FF
:1036B000796DBA6D41E800233B653B6D002BE3D18A
:1036C0007B68DB6B1846FEF72AFB7B6802225A6395
:1036D0007B689A8D7B68DB8D9BB2D31A9BB21946AF
:1036E000786800F0CFF8B3E07B689B8DB7F8BE2018
:1036F0009A4240F0AD807B68DB6BDB69B3F5807F7D
:1037000040F0A6807B6802225A637B689B8D194635
:10371000786800F0B7F89BE0893A00087B689A8DDA
:103720007B68DB8D9BB2D31AA7F8CE307B68DB8D2C
:103730009BB2002B00F08E80B7F8CE30002B00F04B
:1037400089807B681B680C33BB63BB6B53E8003F0D
:103750007B637B6B23F49073C7F8C8307B681B686E
:103760000C33D7F8C8207A643B64396C7A6C41E832
:103770000023FB63FB6B002BE3D17B681B681433D6
:103780007B627B6A53E8003F3B623B6A23F00103A4
:10379000C7F8C4307B681B681433D7F8C4203A6379
:1037A000FB62F96A3A6B41E80023BB62BB6A002BFB
:1037B000E3D17B68202283F842207B6800221A63D1
:1037C0007B681B680C333B613B6953E8003FFB603F
:1037D000FB6823F01003C7F8C0307B681B680C330C
:1037E000D7F8C020FA61BB61B969FA6941E80023E2
:1037F0007B617B69002BE3D17B6802225A63B7F8B7
:10380000CE301946786800F03DF823E0D7F8E43070
:1038100003F08003002B09D0D7F8E03003F08003D9
:10382000002B03D0786800F040F914E0D7F8E430BA
:1038300003F04003002B0ED0D7F8E03003F0400334
:10384000002B08D0786800F080F904E000BF02E0A7
:1038500000BF00E000BFE837BD4680BD80B483B044
:1038600000AF786000BF0C37BD465DF8047B704741
:1038700080B483B000AF786000BF0C37BD465DF800
:10388000047B704780B483B000AF78600B467B80C8
:1038900000BF0C37BD465DF8047B704780B586B02D
:1038A00000AFF860B9603B601346FB713BE03B6AD8
:1038B000B3F1FF3F37D0FEF7F1F802463B68D31A69
:1038C0003A6A9A4202D33B6A002B01D103233AE0C1
:1038D000FB681B68DB6803F00403002B23D0BB6884
:1038E000802B20D0BB68402B1DD0FB681B681B6859
:1038F00003F00803082B16D100237B61FB681B68CB
:103900001B687B61FB681B685B687B617B69F8688F
:1039100000F057F8FB6808225A64FB68002283F81D
:10392000402001230FE0FB681B681A68BB68134046
:10393000BA689A420CBF01230023DBB21A46FB7916
:103940009A42B4D0002318461837BD4680BD80B4D3
:1039500085B000AFF860B9601346FB80FB68BA68B9
:103960009A62FB68FA889A85FB68FA88DA85FB68B0
:1039700000225A64FB68222283F84220FB681B69FC
:10398000002B07D0FB681B68DA68FB681B6842F4F1
:103990008072DA60FB681B685A69FB681B6842F03A
:1039A00001025A61FB681B68DA68FB681B6842F019
:1039B0002002DA60002318461437BD465DF8047B08
:1039C000704780B495B000AF78607B681B680C339B
:1039D0007B637B6B53E8003F3B633B6B23F490734B
:1039E000FB647B681B680C33FA6C3A64FB63F96B0D
:1039F0003A6C41E80023BB63BB6B002BE5D17B68CD
:103A00001B6814333B623B6A53E8003FFB61FB6970
:103A100023F00103BB647B681B681433BA6CFA6241
:103A2000BB62B96AFA6A41E800237B627B6A002BB9
:103A3000E5D17B681B6B012B19D17B681B680C33AC
:103A4000FB60FB6853E8003FBB60BB6823F01003DA
:103A50007B647B681B680C337A6CBA617B61796923
:103A6000BA6941E800233B613B69002BE5D17B68E3
:103A7000202283F842207B6800221A6300BF54375B
:103A8000BD465DF8047B704780B584B000AF7860B8
:103A90007B689B6BFB60FB680022DA85F868FFF7A8
:103AA000E7FE00BF1037BD4680BD80B485B000AFD3
:103AB00078607B6893F84130DBB2212B3ED17B6884
:103AC0009B68B3F5805F14D17B681B69002B10D114
:103AD0007B681B6AFB60FB681B881A467B681B6857
:103AE000C2F308025A607B681B6A9A1C7B681A62E0
:103AF00008E07B681B6A591C7A6811621A787B6837
:103B00001B685A607B68DB8C9BB2013B9BB27A6876
:103B10001946D184002B0FD17B681B68DA687B685B
:103B20001B6822F08002DA607B681B68DA687B68B9
:103B30001B6842F04002DA60002300E002231846CE
:103B40001437BD465DF8047B704780B582B000AF86
:103B500078607B681B68DA687B681B6822F040022B
:103B6000DA607B68202283F841207868FFF776FED0
:103B7000002318460837BD4680BD80B58CB000AF25
:103B800078600023FB620023BB627B6893F84230BD
:103B9000DBB2222B40F0AA807B689B68B3F5805F84
:103BA00015D17B681B69002B11D17B689B6ABB62B6
:103BB0007B681B685B689BB2C3F308039AB2BB6A5D
:103BC0001A807B689B6A9A1C7B689A6224E07B68F7
:103BD0009B6AFB627B689B68B3F5805F07D07B685C
:103BE0009B68002B0AD17B681B69002B06D17B6880
:103BF0001B685B68DAB2FB6A1A7008E07B681B68B6
:103C00005B68DBB203F07F03DAB2FB6A1A707B6891
:103C10009B6A5A1C7B689A627B68DB8D9BB2013B76
:103C20009BB27A681946D185002B5DD17B681B68F1
:103C3000DA687B681B6822F02002DA607B681B6808
:103C4000DA687B681B6822F48072DA607B681B6824
:103C50005A697B681B6822F001025A617B68202246
:103C600083F842207B6800225A637B681B6B012B20
:103C700035D17B6800221A637B681B680C337B613B
:103C80007B6953E8003F3B613B6923F010037B6293
:103C90007B681B680C337A6A3A62FB61F9693A6A9D
:103CA00041E80023BB61BB69002BE5D17B681B6841
:103CB0001B6803F01003102B0AD10023FB607B6804
:103CC0001B681B68FB607B681B685B68FB60FB68AC
:103CD0007B689B8D19467868FFF7D4FD02E0786811
:103CE000FDF712FC002302E0002300E00223184647
:103CF0003037BD4680BD00002DE9B04FC0B000AFE9
:103D0000C7F8F400D7F8F4301B681B6923F440505F
:103D1000D7F8F430D968D7F8F4301A6840EA0103CC
:103D20001361D7F8F4309A68D7F8F4301B691A4356
:103D3000D7F8F4305B691A43D7F8F430DB691343E2
:103D4000C7F8F830D7F8F4301B68DB6823F4164165
:103D500021F00C01D7F8F4301A68D7F8F8300B438B
:103D6000D360D7F8F4301B685B6923F44070D7F850
:103D7000F4309969D7F8F4301A6840EA01035361C6
:103D8000D7F8F4301A688F4B9A4205D0D7F8F43040
:103D90001A688D4B9A4204D1FEF766FEC7F8FC0004
:103DA00003E0FEF74DFEC7F8FC00D7F8F430DB69FE
:103DB000B3F5004F40F00C81D7F8FC300022C7F873
:103DC000E830C7F8EC20D7E93A4522462B4691184F
:103DD000B9655B41FB65D7E91623214612EB010863
:103DE000294643EB01094FF000024FF000034FEA70
:103DF000C90343EA58734FEAC802904699462346DE
:103E000018EB0303C7F8E0302B4649EB0303C7F870
:103E1000E430D7F8F4305B680022C7F8D830C7F830
:103E2000DC20D7E936120B46DB183B65134642EB24
:103E300003037B65D7E91423D7E93801FCF7B4FE07
:103E400002460B46614BA3FB02235B091C01D7F81A
:103E5000FC300022C7F8D030C7F8D420D7E9348925
:103E600042464B469118B9645B41FB64D7E9122383
:103E7000414612EB010A494643EB010B4FF00002A9
:103E80004FF000034FEACB0343EA5A734FEACA02EA
:103E900092469B4643461AEB0303C7F8C8304B468D
:103EA0004BEB0303C7F8CC30D7F8F4305B68002243
:103EB000C7F8C030C7F8C420D7E930120B46DB186A
:103EC0003B64134642EB03037B64D7E91023D7E935
:103ED0003201FCF769FE02460B4611463B4BA3FB41
:103EE00001235B09642202FB03F3CB1ADB0003F11D
:103EF0003202364BA3FB02235B095B0003F4F87329
:103F00001C44D7F8FC300022C7F8B830C7F8BC20F2
:103F1000D7E92E8942464B469118B9635B41FB6352
:103F2000D7E90E2341465118396349464B417B631B
:103F30004FF000024FF00003D7E90CAB5946CB001D
:103F4000514643EA51735146CA001046194603468A
:103F500042469B18C7F8B0304B460A4642EB030373
:103F6000C7F8B430D7F8F4305B680022C7F8A8303F
:103F7000C7F8AC20D7E92A120B46DB18BB62134600
:103F800042EB0303FB62D7E90A23D7E92C01FCF7D4
:103F90000BFE02460B460D4BA3FB02135B0964218B
:103FA00001FB03F3D31ADB003233084AA2FB0323DD
:103FB0005B0903F00702D7F8F4301B6822449A60CB
:103FC00006E100BF00100140001401401F85EB51C5
:103FD000D7F8FC300022C7F8A030C7F8A420D7E9F2
:103FE000288942464B46911839625B417B62D7E98A
:103FF000082341465418494643EB01054FF000029F
:104000004FF00003EB0043EA5473E20014461D46F0
:104010004346E318C7F898304B4645EB0303C7F80F
:104020009C30D7F8F4305B680022C7F89030C7F8AE
:1040300094204FF000024FF00003D7E924452946B1
:104040008B00214643EA917321468A00D7E9260175
:10405000FCF7AAFD02460B46604BA3FB02235B095B
:104060001C01D7F8FC300022C7F88830C7F88C2034
:10407000D7E9228942464B469118B9615B41FB6101
:10408000D7E9062341465118396149464B417B61C6
:104090004FF000024FF00003D7E904AB5946CB00C4
:1040A000514643EA51735146CA0010461946034629
:1040B00042469B18C7F880304B460A4642EB030342
:1040C000C7F88430D7F8F4305B680022BB67FA6722
:1040D0004FF000024FF00003D7E91E8949468B00DC
:1040E000414643EA917341468A00D7E92001FCF733
:1040F0005BFD02460B461146384BA3FB01235B09CF
:10410000642202FB03F3CB1A1B013233334AA2FBB6
:1041100003235B0903F0F0031C44D7F8FC300022B2
:104120003B677A67D7E91C8942464B469118B960CC
:104130005B41FB60D7E9022341465118396049468B
:104140004B417B604FF000024FF00003D7E900AB1A
:104150005946CB00514643EA51735146CA001046B6
:104160001946034642469B18BB664B460A4642EB3D
:104170000303FB66D7F8F4305B6800223B667A667F
:104180004FF000024FF00003D7E9188949468B0031
:10419000414643EA917341468A00D7E91A01FCF788
:1041A00003FD02460B460D4BA3FB02135B09642182
:1041B00001FB03F3D31A1B013233084AA2FB03238A
:1041C0005B0903F00F02D7F8F4301B6822449A60B1
:1041D00000BF07F58077BD46BDE8B08F1F85EB5166
:1041E0002DE9FF4757EC106B002F0C4619463B4654
:1041F000BBBF07F100431F4600232D230B700D9B0F
:10420000DDF830A0914623F02008BCBF32461646A8
:10421000B8F1460F05D0B8F1450F00D101340221A5
:1042200000E0032103AB019302AB009347EC106B5A
:104230005346224600F0D0FDB8F1470F054619D18C
:1042400019F0010F0ED000EB0409002200233046C4
:104250003946FCF739FC08B1CDF80C903022039BAD
:104260004B451ED3039B0E9A5B1B2846136004B07C
:10427000BDE8F087B8F1460F00EB0409E5D10378FB
:10428000302B0AD10022002330463946FCF71CFCB3
:1042900018B9C4F10104CAF80040DAF800309944B2
:1042A000D3E7591C03911A70D9E7F7B50029BABFB3
:1042B00049422D232B2309290270437029DD0DF17A
:1042C00007031D460A271A46B1FBF7F607FB16142B
:1042D000303402F8014C0C46632C03F1FF333146B5
:1042E000F1DC3031941E03F8011C411C2346AB4223
:1042F0000AD30DF109039B1AAC4288BF0023023395
:104300000344181A03B0F0BD13F8016B01F8016FF4
:10431000EDE7302330318370C170031DF1E70000F9
:104320002DE9F04F8DB00C46DDF8588016461F463B
:10433000054600F0C5FC036804931846FBF798FF98
:1043400000230A93D8F800300590073323F00703C1
:1043500003F1080294F818A0D4F800B0C8F80020BF
:10436000D3E9008929F000430793CDF81880C4E908
:104370001289DDE906019C4B4FF0FF32FCF7D6FBBA
:1043800070BBDDE90601984B4FF0FF32FCF7B0FB44
:1043900030BB0022002340464946FCF79FFB10B18A
:1043A0002D2384F84330914A914BBAF1470F8CBFCB
:1043B00090469846032323612BF0040323604FF0BB
:1043C0000009009733460BAA2146284600F0D2F98F
:1043D000013040F08D804FF0FF300DB0BDE8F08F20
:1043E00042464B4640464946FCF7A0FB40B14B468F
:1043F000002BBCBF2D2384F843307E4A7E4BD4E78C
:1044000063680AF0DF0206925A1C3BD10623636000
:104410004BF480620023226003930AABCDE901A331
:1044200009AB0093616849EC108B0DF1230328461A
:10443000FFF7D6FE069B0999472B804629D1C81C59
:1044400002DB6368994241DDAAF1020A5FFA8AFA47
:104450000139524604F150000991FFF726FF0A9AEC
:104460001318012A8146236102DC2268D20701D594
:10447000013323619DF82330002BA2D02D2384F833
:1044800043309EE7069A472AC2D1002BC0D10123B0
:10449000BDE7BAF1650FDBD9BAF1660F18D1002973
:1044A00063680BDD216113B92268D00702D501339F
:1044B0000B442361A1654FF00009DBE713B92268C3
:1044C000D20701D50233F4E70123F2E74FF0670A80
:1044D0000A9B994205DB23682161D807EAD54B1C6A
:1044E000E7E70029D4BFC1F1020201221344E0E74B
:1044F00023685A0507D42369424631462846B847FF
:1045000001302BD167E7BAF1650F40F2DD80D4E9C5
:10451000120100220023FCF7D7FA002833D0374AD3
:10452000012331462846B84701303FF454AFDDE956
:104530000938434502DB2368D8070FD5DDE904239A
:1045400031462846B84701303FF445AF4FF00009E7
:1045500008F1FF3804F11A0AC84509DC23689B07F3
:1045600000F10381E0680B9B9842B8BF184634E71E
:104570000123524631462846B84701303FF42BAF5D
:1045800009F10109E8E7099B002B39DC1B4A0123EB
:1045900031462846B84701303FF41DAFDDE90939FF
:1045A00059EA030302D12368D907D7D5DDE90423EB
:1045B00031462846B84701303FF40DAF4FF0000AAE
:1045C00004F11A0B099B5B42534501DC4B4693E710
:1045D00001235A4631462846B84701303FF4FBAE26
:1045E0000AF1010AEEE700BFFFFFEF7FC46E00088B
:1045F000C06E0008CC6E0008C86E0008D06E0008BF
:10460000A36DDDF828A05345A8BF5346002B99465B
:1046100036DC4FF0000B29EAE97904F11A02A36DA8
:104620000693A3EB09035B4531DC099B9A453ADC11
:104630002368DA0737D4099BAAEB0309069BAAEB88
:1046400003039945A8BF9946B9F1000F33DC4FF039
:10465000000829EAE97904F11A0B099BAAEB030384
:10466000A3EB090343457FF779AF01235A4631464F
:104670002846B84701303FF4AEAE08F10108ECE738
:10468000424631462846B8470130C2D1A3E601234D
:10469000314628460692B84701303FF49CAE069A50
:1046A0000BF1010BBBE7DDE9042331462846B8478F
:1046B0000130C0D18FE6069A4B4642443146284627
:1046C000B8470130C3D186E6DDF828A0BAF1010F62
:1046D00001DCDB0736D50123424631462846B84780
:1046E00001303FF478AEDDE9042331462846B8476F
:1046F00001303FF470AED4E91201002200230AF128
:10470000FF3AFCF7E1F9C0B9534608F1010231461E
:104710002846B84701300CD15DE601235A463146A0
:104720002846B84701303FF456AE08F10108D0459D
:10473000F3DB4B4604F15002DFE64FF0000804F1D2
:104740001A0BF4E701234246E1E701234A463146CA
:104750002846B84701303FF43EAE08F10108E3684F
:104760000B995B1A4345F0DCFCE64FF0000804F1BE
:104770001909F4E72DE9F047164698468A680B694F
:10478000DDF820909342B8BF1346336091F8432080
:1047900007460C460AB1013333602368990642BFCD
:1047A000336802333360256815F0060506D104F13D
:1047B000190AE36832689B1AAB4226DC94F843304E
:1047C0002268003B18BF012392062BD404F1430258
:1047D00041463846C84701301ED02368226903F09D
:1047E0000603042B02BFE5683368ED1AA3680CBF0B
:1047F00025EAE57500259342C4BF9B1AED180026F3
:104800001A34B5421AD1002008E00123524641462D
:104810003846C847013003D14FF0FF30BDE8F0877C
:104820000135C6E7E1185A1C302081F843002244C4
:1048300094F8451082F843100233C7E7012322465B
:1048400041463846C8470130E6D00136D9E7000076
:104850002DE9FF470F7E0C9E782F914680460C462F
:104860009A4601F1430207D8622F0AD8002F00F0C0
:10487000D180582F00F0B88004F1420684F84270CD
:104880003AE0A7F16303152BF6D801A151F823F004
:10489000E9480008FD480008794800087948000800
:1048A0007948000879480008FD4800087948000860
:1048B000794800087948000879480008FB49000851
:1048C00027490008B54900087948000879480008D8
:1048D0001D4A00087948000827490008794800085F
:1048E00079480008BD49000833681A1D1B6832600A
:1048F00004F1420684F8423001239CE033682068CA
:10490000191D3160060601D51D6803E04506FBD57B
:10491000B3F90050002D03DA2D236D4284F84330A3
:1049200058480A2311E021683368080653F8045BED
:1049300002D4490648BFADB26F2F5248336014BF4E
:104940000A230823002184F843106668A660002E1D
:1049500005DB21682E4321F0040121604BD016466F
:10496000B5FBF3F103FB1157C75D06F8017D2F4638
:10497000BB420D46F4D9082B0BD12368DF0708D5BD
:10498000236961689942DEBF302306F8013C06F1D5
:10499000FF36921B2261CDF800A04B4603AA2146A8
:1049A0004046FFF7E7FE01304AD14FF0FF3004B038
:1049B000BDE8F087236843F020032360324878275E
:1049C00084F84570236831681F0651F8045B02D4EF
:1049D0005F0648BFADB23160D90744BF43F0200342
:1049E00023601DB11023ADE72648E9E7236823F0D3
:1049F00020032360F6E71646BDE733682568616942
:104A0000181D30602E061B6801D5196002E068068B
:104A1000FBD51980002323611646BCE733681A1DB5
:104A200032601E68626800213046FBF7D1FB08B196
:104A3000801B606063682361002384F84330AAE729
:104A40002369324649464046D0470130ADD02368FD
:104A50009B0713D4E068039B9842B8BF1846A6E7AB
:104A60000123324649464046D04701309DD00135AA
:104A7000E36803995B1AAB42F2DCEBE7002504F133
:104A80001906F5E7D26E0008E36E00080EB410B503
:104A90009DB01FAB029006906FF000410A4807914D
:104AA00004910A4953F8042B0591002402A90068D7
:104AB00001931B9400F0BCFF029B1C701DB0BDE86D
:104AC000104003B0704700BF300000200802FFFF15
:104AD000002310B50446C0E90033C0E90433836005
:104AE00081814366C2818361194608225C3000F0EF
:104AF000B1F80D4B63620D4BA3620D4BE3620D4B9E
:104B000023630D4B24629C4206D003F16802944259
:104B100002D0D0339C4205D104F15800BDE81040CA
:104B200000F0CAB810BD00BFE165000803660008C8
:104B30003B6600085F660008B0020020024A034995
:104B4000034800F069B800BF24000020855E00081B
:104B50003400002041680C4B994210B5044601D046
:104B600001F090F9A168094B994202D0204601F06A
:104B700089F9E168064B994204D02046BDE810400F
:104B800001F080B910BD00BFB00200201803002062
:104B90008003002010B50B4B0B4C0C4A1A602046CA
:104BA00000220421FFF794FF04F16800012209218B
:104BB000FFF78EFF04F1D0000222BDE81040122161
:104BC000FFF786BFE8030020B00200203D4B00083D
:104BD000014800F072B800BFED030020014800F06A
:104BE0006DB800BFED03002010B50446FFF7F0FFDD
:104BF000236A1BB1BDE81040FFF7F0BF044B2362EE
:104C0000044B1B68002BF5D1FFF7C4FFF2E700BF90
:104C1000554B0008E80300202DE9F8430746884675
:104C200014460026D4E90195B9F1010905D5246897
:104C3000002CF7D13046BDE8F883AB89012B07D9AA
:104C4000B5F90E30013303D029463846C047064334
:104C50006835E9E702440346934200D1704703F800
:104C6000011BF9E7014B1868704700BF30000020B6
:104C700070B50D4D0D4C641BA4100026A64209D141
:104C80000B4D0C4C02F0F6F8641BA4100026A64253
:104C900005D170BD55F8043B98470136EEE755F84D
:104CA000043B98470136F2E73C7200083C7200086A
:104CB0003C7200084072000870477047704700005F
:104CC00000487047700100202DE9F74F03690C6917
:104CD000A34207467EDB013C01F11408A30000F16A
:104CE0001405009305EB8403019358F8243055F81C
:104CF000242001339A4208EB8409B2FBF3F62ED349
:104D00004FF0000AC446AE46D3465CF8043B98B266
:104D100006FB00A0020C1B0C06FB0323DEF80020A0
:104D200080B292B2121A5A44DEF800004FEA134AD7
:104D30009BB2C3EB224303EB104392B242EA03421D
:104D4000E1454EF8042B4FEA234BDED2009BEB5893
:104D50002BB9019B043B9D421A462FD33C61384638
:104D600001F036FB002825DB2946002058F8042BEB
:104D7000D1F800C01FFA82FE1FFA8CF3A3EB0E03DA
:104D80000344120CC2EB234202EB1C429BB243EAE7
:104D90000243C14541F8043B4FEA2240E6D255F8B0
:104DA000242005EB840322B9043B9D421A460BD311
:104DB0003C610136304603B0BDE8F08F1268043B19
:104DC000002ACBD1013CC6E71268043B002AEFD190
:104DD000013CEAE70020EEE72DE9F04FC76997B004
:104DE0008DED040B55EC104B209E079181460C92E3
:104DF00011937FB9102000F017FF0246C9F81C007C
:104E000020B9A94BEF21A94801F0DAFCC0E90177EC
:104E10000760C760D9F81C30196859B15A684A60F0
:104E2000012393408B60484601F0A0F8D9F81C306C
:104E300000221A602B1EB9BF23F000430593002304
:104E40003360059F9A4BBCBF01223260BB4312D135
:104E5000119A42F20F731360C7F31303234300F058
:104E60005A85219BDFF85CA2002B00F05C850AF1DB
:104E7000030300F056BD9DED047B002251EC170B9F
:104E800000238DED0A7BFBF71FFE804658B1119A77
:104E900001231360219B13B1219A864B1360DFF825
:104EA00028A200F040BD9DED0A0B14AA15A94846A2
:104EB00001F03EFBC7F30A560290002E78D00B9B00
:104EC000CDF84880C3F31303DDE90A0143F07F53B3
:104ED00043F44013A6F2FF3619460022764BFBF747
:104EE000D3F96BA3D3E90023FBF786FB6AA3D3E9CD
:104EF0000023FBF7CBF9044630460D46FBF712FBC7
:104F000067A3D3E90023FBF777FB02460B46204655
:104F10002946FBF7BBF904460D46FBF71DFE0022B0
:104F20000746002320462946FBF7D8FD40B1384606
:104F3000FBF7F8FA22462B46FBF7C6FD00B9013F06
:104F4000162F52D85D4B03EBC703D3E90023DDE9ED
:104F50000A01FBF7C3FD002849D0013F002310934D
:104F6000149B9B1B5A1E45BFC3F1010300930023F2
:104F70000023069254BF00930693002F39DB069B53
:104F80000D973B44069300230893079B092B63D896
:104F9000052BC4BF043B0793079BA3F10203CCBFBF
:104FA00000240124032B63D8DFE803F05254372B8D
:104FB000DDE914631E4406F23243202BC1BFC3F166
:104FC00040039F4006F2124324FA03F3D6BFC3F115
:104FD000200347EA030004FA03F0FBF793FA0122E7
:104FE000A1F1F873013E129276E70123B7E7109022
:104FF000B6E7009BDB1B00937B42089300230D93D5
:10500000C3E7012309930C9B07EB030B0BF101038F
:10501000012B0393B8BF012306E0012309930C9BE6
:10502000002B28DD9B460393D9F81C0000210422A5
:1050300002F114059D4226D94160484600F056FF12
:105040008246002842D11E4B024640F2AF11DAE6FA
:105050000023E3E70023D5E7012400230793099405
:105060004FF0FF3B0022CDF80CB012230C92DBE78F
:1050700001230993F4E74FF0010BCDF80CB05B4628
:10508000CDF830B0D0E701315200D1E7AFF3008066
:1050900061436F63A787D23FB3C8608B288AC63F3E
:1050A000FB799F501344D33F016F0008186F00082D
:1050B0000000F07FD16E00080000F83F6870000823
:1050C000706F0008FD6E0008D06E0008D9F81C3023
:1050D0001860039B0E2B00F2A180002C00F09E8034
:1050E000002F33DD9C4B07F00F0203EBC20393ED5F
:1050F000007BF8058DED0E7B4FEA271416D5974BF4
:10510000DDE90A01D3E90823FBF7A0FBCDE904019F
:1051100004F00F040326914D54B9DDE90E23DDE9B7
:105120000401FBF793FBCDE9040128E00226F2E736
:10513000E10708D5DDE90E01D5E90023FBF75CFAAC
:10514000CDE90E01013664100835E5E700F0AF80C7
:105150007C42814B814D04F00F0203EBC203D3E983
:105160000023DDE90A01FBF747FACDE90401241128
:1051700000230226002C40F08F80002BD3D1109BFF
:10518000DDE90445002B00F09480754B0022204699
:105190002946FBF7A3FC002800F08B80039B002B23
:1051A00000F08780BBF1000F34DD20466D4B0022FC
:1051B0002946FBF721FACDE9040107F1FF38013652
:1051C0005C463046FBF7AEF9DDE90423FBF714FA41
:1051D000654B0022FBF75AF80546A1F15076002CEA
:1051E0006AD1DDE90401614B0022FBF74DF802466C
:1051F0000B46CDE904232A463346FBF78DFC0028F5
:1052000040F09882DDE904012A4606F10043FBF7ED
:1052100065FC38BBDDE90A34CDE90434159B002B6D
:10522000C0F257810E2F00F354814B4B03EBC703A1
:1052300093ED007B0C9B002B8DED007B80F2E580D5
:10524000039B002B00F3E1800CD1484B002251EC72
:10525000170BFBF7D1F9DDE90423FBF753FC00281A
:1052600000F06682002425460C9B56466FEA030830
:1052700000272146484600F079FE002D00F0BD8051
:105280002FB1AF4203D03946484600F06FFE2946A1
:10529000484600F06BFEB0E0E20705D5D5E90023F3
:1052A000FBF7AAF9013601236410083562E70226EC
:1052B00065E7039CB84684E7274B099903EBC403D1
:1052C00053E902235444002954D029490020FBF714
:1052D000BDFA33462A46FAF7D7FFCDE90E01564606
:1052E000DDE90401FBF738FC0546FBF71BF9024634
:1052F0000B46DDE90401FAF7C7FF303502460B46DD
:10530000CDE9042306F8015BDDE90E23FBF7E6FB9C
:10531000002872D1DDE9042311490020FAF7B4FF17
:10532000DDE90E23FBF7DAFB002840F0B480A6424B
:105330003FF470AFDDE90E010A4B0022FBF75CF988
:10534000084BCDE90E010022DDE90401FBF754F919
:10535000CDE90401C4E700BF687000084070000890
:105360000000F03F0000244000001C4000001440FA
:105370000000E03F31462846FBF73EF9CDE90E013B
:1053800013945646DDE90401FBF7E6FB0546FBF7FF
:10539000C9F802460B46DDE90401FAF775FF30351E
:1053A00006F8015B02460B46A642CDE904234FF006
:1053B000000224D1AF4BDDE90E01FAF767FF024688
:1053C0000B46DDE90401FBF7A7FB002863D1DDE90B
:1053D0000E23A8490020FAF757FF02460B46DDE9E5
:1053E0000401FBF77BFB00283FF414AF139E731EF0
:1053F000139316F8013C302BF8D047463BE09E4B08
:10540000FBF7FAF8CDE90401BCE7DDE904455646AF
:10541000DDE9002320462946FBF718FAFBF79CFB41
:105420008046FBF77FF8DDE90023FBF7E5F802464D
:105430000B462046294608F13004FAF725FF06F806
:10544000014B039DA6EB0A04A54202460B4633D14D
:10545000FAF71CFFDDE9002304460D46FBF75CFB71
:10546000C0B9DDE9002320462946FBF72DFB10B12A
:1054700018F0010F0ED10299484600F077FD002385
:105480003370119B01371F60219B002B00F04B8272
:105490001E6048E2B84633461E4613F8012D392AED
:1054A00006D19A45F8D1302208F101088AF8002087
:1054B0001A7801321A70A0E76F4B0022FBF79CF8B4
:1054C0000022002304460D46FBF7FEFA00289FD079
:1054D000D1E7099A002A00F0EA80079A012A00F32E
:1054E000CD80129A002A00F0C18003F23343089C59
:1054F000009E009A1A440092069A01211A444846D6
:10550000069200F0E7FD054666B1069B002B09DD1B
:10551000B342009AA8BF3346D21A0092069AF61AEE
:10552000D31A0693089B0BB3099B002B00F0C6808F
:10553000002C00F0C08029462246484600F082FE3A
:10554000029A01460546484600F0DAFD0299804677
:10555000484600F00BFD089B1B1B089300F0B18030
:10556000089A4146484600F06DFE029001214846E7
:1055700000F0B0FD0D9B0446002B00F0D8811A46C8
:105580000146484600F05EFE079B012B044600F3EF
:105590009F80049B002B40F09780059BC3F313036F
:1055A000002B40F09380059B23F000431B0D1B054F
:1055B00033B1009B01330093069B01330693012313
:1055C00008930D9B002B00F0B881236904EB830343
:1055D000186900F033FDC0F12000069B184410F05C
:1055E0001F0000F08280C0F12003042B73DD009BBC
:1055F000C0F11C0003440093069B03440644069339
:10560000009B002B05DD02991A46484600F074FE07
:105610000290069B002B05DD21461A46484600F005
:105620006BFE0446109B002B61D00298214600F0CF
:10563000CFFE00285BDA002302990A22484600F0D8
:10564000B7FC099B029007F1FF38002B00F077812F
:10565000294600230A22484600F0AAFCBBF1000FAD
:1056600005466FDC079B022B49DC6BE0149BC3F102
:1056700036033CE70000E03F00002440039B5C1E33
:10568000089BA34209DB1C1B039B002BBFF630AF1A
:10569000009B039A9E1A00232BE7089B0D9A0894FF
:1056A000E31A1A44009E039B0D92002421E7089CF4
:1056B000009E099D28E7DDF8088051E7089A0299C5
:1056C00050E7CDF8088051E7002379E7049B77E79E
:1056D0000023089379E793D0009A1C331A44009270
:1056E000069A1A441E4406928AE70346F4E7039B8F
:1056F000002BB84620DC9B46079B022B1EDDBBF12E
:10570000000F7FF4B1AD21465B460522484600F00C
:105710004FFC01460446029800F05AFE00287FF72D
:10572000A3AD5646312306F8013B08F101089FE579
:10573000039CB8462546F4E7DDF80CB0099B002B26
:1057400000F00181002E05DD29463246484600F072
:10575000D3FD0546089B002B5CD06968484600F0E5
:10576000C5FB064628B9824B024640F2EF21FFF7FF
:105770004ABB2A690232920005F10C010C3001F09B
:1057800011F801223146484600F0B6FD0AF1010346
:1057900000930AEB0B030893049B03F001032F46CD
:1057A00006930546009B0298214603F1FF3BFFF755
:1057B0008BFA03463033039039460298099300F080
:1057C00007FE2A4604902146484600F01DFEC268A6
:1057D000099B064602BB0146029800F0F9FD099BB1
:1057E0000246314648460C92099300F0BFFB079BE6
:1057F0000C9A009E42EA0301069B1943099B0DD1B6
:10580000392B27D0049A002A01DD039B31338BF812
:1058100000302EE52846B9E70122E2E70499002985
:1058200004DB079801430698014320D1002AEEDDEE
:10583000029900930122484600F05EFD2146029045
:1058400000F0C6FD0028009B02DCE0D1DA07DED5BF
:10585000392BDAD139238BF8003033461E46013B11
:1058600016F8012C392A4ED001321A7001E5002AAF
:1058700003DD392BEED00133C9E7009A089902F80D
:10588000013C8A4228D0029900230A22484600F0AF
:105890008FFBAF4202904FF000034FF00A023946EF
:1058A000484607D100F084FB07460546009B0133BC
:1058B000009377E700F07CFB2946074600230A2285
:1058C000484600F075FB0546F0E7BBF1000FCCBF82
:1058D0005E4601265644002702990093012248465D
:1058E00000F00AFD2146029000F072FD0028B4DCB1
:1058F00002D1009BDB07B0D433461E4613F8012DBE
:10590000302AFAD0B5E49A45A8D1312308F101082C
:105910008AF80030ADE4219BDFF858A01BB10AF1F2
:105920000803219A1360504617B0BDE8F08F079B1B
:10593000012B7FF72EAE0D9B089301204DE6BBF1A6
:10594000000F7FF7D9AE564602982146FFF7BCF903
:1059500000F1300306F8013BA6EB0A029345B4DDE3
:10596000029900230A22484600F022FB0290EBE74E
:10597000706F0008F46E00082DE9F0478E681F462E
:10598000BE420B6882460C4690462DD8B1F90C20D9
:1059900012F4906F26D06569096905EB4505A3EB04
:1059A000010905EBD5757B1C4B446D109D4238BF3A
:1059B0001D46530527D5294600F060F9064660B319
:1059C00021694A4600F0EEFEA38923F4906343F078
:1059D0008003A381266165614E44A5EB090526601D
:1059E000A5603E46BE4200D93E462068324641464A
:1059F00000F067FEA3689B1BA36023683344236009
:105A00000020BDE8F0872A4600F02DFE064600285B
:105A1000E0D12169504600F005FF0C23CAF80030A0
:105A2000A38943F04003A3814FF0FF30E9E7000072
:105A30002DE9F04F98468B891B069DB007460D4611
:105A4000144610D50B6973B9402100F017F928608E
:105A5000286130B90C233B604FF0FF301DB0BDE82A
:105A6000F08F40236B610023099320238DF82930A8
:105A7000CDF80C803023DFF89C818DF82A304FF070
:105A8000010923469A4613F8012B0AB1252AF9D1B8
:105A9000BAEB040B0BD05B46224629463846FFF78B
:105AA0006BFF013000F0A780099A5A4409929AF8D6
:105AB0000030002B00F09F8000234FF0FF32CDE933
:105AC00005230AF1010A049307938DF853301A93C2
:105AD0005446052214F8011B4E48FAF779FB049A44
