:020000040800F2
:1000000000000220393300083D2A0008452A000874
:100010004D2A0008552A00085D2A0008000000004B
:10002000000000000000000000000000652A000839
:10003000732A000800000000812A00088F2A0008A7
:1000400089330008893300088933000889330008A0
:1000500089330008893300089B2A0008A92A000870
:10006000B72A0008C52A0008893300088933000828
:100070008933000889330008893300088933000870
:100080008933000889330008893300088933000860
:100090008933000889330008893300088933000850
:1000A0008933000889330008893300088933000840
:1000B0008933000889330008893300088933000830
:1000C0008933000889330008893300088933000820
:1000D000893300088933000889330008D52A0008CD
:1000E0008933000889330008893300088933000800
:1000F00089330008893300088933000889330008F0
:1001000089330008E92A0008893300088933000888
:100110008933000889330008FD2A0008112B0008E4
:10012000252B000889330008392B00084D2B0008C7
:100130008933000800000000000000008933000837
:10014000893300088933000889330008612B0008CF
:1001500089330008752B00088933000889330008AB
:10016000893300088933000889330008893300087F
:1001700089330008893300080000000000000000F7
:080180008933000889330008EF
:1001900010B5054C237833B9044B13B10448AFF3C1
:1001A00000800123237010BD100200200000000019
:1001B0005891010808B5034B1BB103490348AFF33D
:1001C000008008BD000000001402002058910108C2
:1001D00001F0FF01102A2BDB10F0070F08D010F8F8
:1001E000013B013A8B422DD010F0070F42B3F6D1FC
:1001F000F0B441EA012141EA014122F007047FF015
:1002000000070023F0E80256083C85EA010586EA6B
:10021000010685FA47F5A3FA87F586FA47F6A5FAA7
:1002200087F68EB9EED1F0BC01F0FF0102F00702B3
:1002300032B110F8013B013A83EA010313B1F8D15E
:100240000020704701387047002D06BF354603383F
:10025000073815F0010F07D1013015F4807F02BF78
:10026000013015F4C03F0130F0BC0138704700BFC9
:10027000034613F8012B002AFBD1181A01387047E6
:1002800081F0004102E000BF83F0004330B54FEA47
:1002900041044FEA430594EA050F08BF90EA020FB4
:1002A0001FBF54EA000C55EA020C7FEA645C7FEA47
:1002B000655C00F0E2804FEA5454D4EB5555B8BF6A
:1002C0006D420CDD2C4480EA020281EA030382EADB
:1002D000000083EA010180EA020281EA0303362D6D
:1002E00088BF30BD11F0004F4FEA01314FF4801C40
:1002F0004CEA113102D0404261EB410113F0004F52
:100300004FEA03334CEA133302D0524263EB430308
:1003100094EA050F00F0A780A4F10104D5F1200EA6
:100320000DDB02FA0EFC22FA05F2801841F1000101
:1003300003FA0EF2801843FA05F359410EE0A5F1D5
:1003400020050EF1200E012A03FA0EFC28BF4CF006
:10035000020C43FA05F3C01851EBE37101F00045BC
:1003600007D54FF0000EDCF1000C7EEB00006EEBC9
:100370000101B1F5801F1BD3B1F5001F0CD3490853
:100380005FEA30004FEA3C0C04F101044FEA4452AA
:1003900012F5800F80F09A80BCF1004F08BF5FEA31
:1003A000500C50F1000041EB045141EA050130BD11
:1003B0005FEA4C0C404141EB0101013C28BFB1F523
:1003C000801FE9D291F0000F04BF01460020B1FA6E
:1003D00081F308BF2033A3F10B03B3F120020CDA41
:1003E0000C3208DD02F1140CC2F10C0201FA0CF01F
:1003F00021FA02F10CE002F11402D8BFC2F1200C84
:1004000001FA02F120FA0CFCDCBF41EA0C01904039
:10041000E41AA2BF01EB0451294330BD6FEA040482
:100420001F3C1CDA0C340EDC04F11404C4F120026D
:1004300020FA04F001FA02F340EA030021FA04F37F
:1004400045EA030130BDC4F10C04C4F1200220FAD6
:1004500002F001FA04F340EA0300294630BD21FA14
:1004600004F0294630BD94F0000F83F4801306BFDA
:1004700081F480110134013D4EE77FEA645C18BFCE
:100480007FEA655C29D094EA050F08BF90EA020F65
:1004900005D054EA000C04BF1946104630BD91EA5D
:1004A000030F1EBF0021002030BD5FEA545C05D160
:1004B0004000494128BF41F0004130BD14F580049F
:1004C0003CBF01F5801130BD01F0004545F0FE4113
:1004D00041F470014FF0000030BD7FEA645C1ABF48
:1004E000194610467FEA655C1CBF0B46024650EA7F
:1004F000013406BF52EA033591EA030F41F40021AB
:1005000030BD00BF90F0000F04BF0021704730B530
:100510004FF4806404F132044FF000054FF0000105
:1005200050E700BF90F0000F04BF0021704730B5C6
:100530004FF4806404F1320410F0004548BF40429B
:100540004FF000013EE700BF42004FEAE2014FEAF0
:1005500031014FEA02701FBF12F07F4393F07F4FCB
:1005600081F06051704732F07F4208BF704793F0CE
:100570007F4F04BF41F40021704730B54FF46074E1
:1005800001F0004521F000411CE700BF50EA0102E4
:1005900008BF704730B54FF000050AE050EA01028D
:1005A00008BF704730B511F0004502D5404261EBFD
:1005B00041014FF4806404F132045FEA915C3FF43E
:1005C000D8AE4FF003025FEADC0C18BF03325FEADB
:1005D000DC0C18BF033202EBDC02C2F1200300FA8C
:1005E00003FC20FA02F001FA03FE40EA0E0021FAB1
:1005F00002F11444BDE600BF70B54FF0FF0C4CF49F
:10060000E06C1CEA11541DBF1CEA135594EA0C0F50
:1006100095EA0C0F00F0DEF82C4481EA030621EA8B
:100620004C5123EA4C5350EA013518BF52EA0335C6
:1006300041F4801143F4801338D0A0FB02CE4FF078
:100640000005E1FB02E506F00042E0FB03E54FF0A8
:100650000006E1FB03569CF0000F18BF4EF0010EA0
:10066000A4F1FF04B6F5007F64F5407404D25FEA9C
:100670004E0E6D4146EB060642EAC62141EA55514F
:100680004FEAC52040EA5E504FEACE2EB4F1FD0C91
:1006900088BFBCF5E06F1ED8BEF1004F08BF5FEA0F
:1006A000500E50F1000041EB045170BD06F00046C1
:1006B00046EA010140EA020081EA0301B4EB5C046E
:1006C000C2BFD4EB0C0541EA045170BD41F4801166
:1006D0004FF0000E013C00F3AB8014F1360FDEBF8B
:1006E000002001F0004170BDC4F10004203C35DA67
:1006F0000C341BDC04F11404C4F1200500FA05F3EA
:1007000020FA04F001FA05F240EA020001F000428A
:1007100021F0004110EBD37021FA04F642EB060100
:100720005EEA430E08BF20EAD37070BDC4F10C042A
:10073000C4F1200500FA04F320FA05F001FA04F2EE
:1007400040EA020001F0004110EBD37041F10001DA
:100750005EEA430E08BF20EAD37070BDC4F12005E5
:1007600000FA05F24EEA020E20FA04F301FA05F24D
:1007700043EA020321FA04F001F0004121FA04F2F5
:1007800020EA020000EBD3705EEA430E08BF20EAC5
:10079000D37070BD94F0000F0FD101F000464000FF
:1007A00041EB010111F4801F08BF013CF7D041EA81
:1007B000060195F0000F18BF704703F00046520085
:1007C00043EB030313F4801F08BF013DF7D043EA56
:1007D0000603704794EA0C0F0CEA135518BF95EA0C
:1007E0000C0F0CD050EA410618BF52EA4306D1D193
:1007F00081EA030101F000414FF0000070BD50EAB2
:10080000410606BF1046194652EA430619D094EA3B
:100810000C0F02D150EA013613D195EA0C0F05D125
:1008200052EA03361CBF104619460AD181EA030179
:1008300001F0004141F0FE4141F470014FF0000031
:1008400070BD41F0FE4141F4780170BD70B54FF0CC
:10085000FF0C4CF4E06C1CEA11541DBF1CEA13554C
:1008600094EA0C0F95EA0C0F00F0A7F8A4EB05042E
:1008700081EA030E52EA03354FEA013100F0888025
:100880004FEA03334FF0805545EA131343EA1263EE
:100890004FEA022245EA111545EA10654FEA0026A3
:1008A0000EF000419D4208BF964244F1FD0404F55C
:1008B000407402D25B084FEA3202B61A65EB0305B8
:1008C0005B084FEA32024FF480104FF4002CB6EB75
:1008D000020E75EB030E22BFB61A754640EA0C00F5
:1008E0005B084FEA3202B6EB020E75EB030E22BF35
:1008F000B61A754640EA5C005B084FEA3202B6EB76
:10090000020E75EB030E22BFB61A754640EA9C0034
:100910005B084FEA3202B6EB020E75EB030E22BF04
:10092000B61A754640EADC0055EA060E18D04FEAC2
:10093000051545EA16754FEA06164FEAC30343EA62
:1009400052734FEAC2025FEA1C1CC0D111F4801F2F
:100950000BD141EA00014FF000004FF0004CB6E728
:1009600011F4801F04BF01430020B4F1FD0C88BFC7
:10097000BCF5E06F3FF6AFAEB5EB030C04BFB6EBD2
:10098000020C5FEA500C50F1000041EB045170BDC5
:100990000EF0004E4EEA113114EB5C04C2BFD4EBF2
:1009A0000C0541EA045170BD41F480114FF0000E76
:1009B000013C90E645EA060E8DE60CEA135594EAF2
:1009C0000C0F08BF95EA0C0F3FF43BAF94EA0C0FF5
:1009D0000AD150EA01347FF434AF95EA0C0F7FF46A
:1009E00025AF104619462CE795EA0C0F06D152EABE
:1009F00003353FF4FDAE1046194622E750EA4106A2
:100A000018BF52EA43067FF4C5AE50EA41047FF4B2
:100A10000DAF52EA43057FF4EBAE12E74FF0FF3C17
:100A200006E000BF4FF0010C02E000BF4FF0010CE8
:100A30004DF804CD4FEA410C7FEA6C5C4FEA430C61
:100A400018BF7FEA6C5C1BD001B050EA410C0CBFB0
:100A500052EA430C91EA030F02BF90EA020F002012
:100A6000704710F1000F91EA030F58BF994208BF79
:100A700090422CBFD8176FEAE37040F00100704736
:100A80004FEA410C7FEA6C5C02D150EA013C07D18D
:100A90004FEA430C7FEA6C5CD6D152EA033CD3D0D8
:100AA0005DF8040B704700BF8446104662468C46D2
:100AB0001946634600E000BF01B5FFF7B7FF002805
:100AC00048BF10F1000F01BD4DF808EDFFF7F4FF2E
:100AD0000CBF012000205DF808FB00BF4DF808EDB9
:100AE000FFF7EAFF34BF012000205DF808FB00BFDC
:100AF0004DF808EDFFF7E0FF94BF012000205DF8FE
:100B000008FB00BF4DF808EDFFF7CEFF94BF0120B2
:100B100000205DF808FB00BF4DF808EDFFF7C4FFAB
:100B200034BF012000205DF808FB00BF4FEA410CF4
:100B30007FEA6C5C02D150EA013C0AD14FEA430CD7
:100B40007FEA6C5C02D152EA033C02D14FF0000014
:100B500070474FF0010070474FEA410212F5001252
:100B600015D211D56FF47873B3EB625212D94FEAF4
:100B7000C12343F0004343EA505311F0004F23FADE
:100B800002F018BF404270474FF00000704750EA33
:100B9000013005D111F0004008BF6FF000407047F0
:100BA0004FF00000704700BF4A0011D212F500124A
:100BB00011D20DD56FF47873B3EB62520ED44FEAB5
:100BC000C12343F0004343EA505323FA02F0704735
:100BD0004FF00000704750EA013002D14FF0FF3073
:100BE00070474FF0000070474FEA4102B2F1E04316
:100BF00024BFB3F5001CDCF1FE5C0DD901F0004C04
:100C00004FEAC0024CEA5070B2F1004F40EB830053
:100C100008BF20F00100704711F0804F21D113F17F
:100C20003872BCBF01F00040704741F480114FEAB8
:100C30005252C2F11802C2F1200C10FA0CF320FA41
:100C400002F018BF40F001004FEAC1234FEAD3235E
:100C500003FA0CFC40EA0C0023FA02F34FEA4303C8
:100C6000CCE77FEA625307D150EA01331EBF4FF051
:100C7000FE4040F44000704701F0004040F0FE406C
:100C800040F40000704700BF53B94AB9002908BFBB
:100C900000281CBF4FF0FF314FF0FF3000F0BEB90D
:100CA000ADF1080C6DE904CE00F03CF8DDF804E08D
:100CB000DDE9022304B0704738B500220023044662
:100CC0000D46FFF70BFF28B920462946BDE83840FE
:100CD00000F00AB8204605F1004100F005F8404256
:100CE00061EB410138BD00BFD0B50C4B0022064678
:100CF0000F46FFF781FCFFF757FF0446FFF702FCA2
:100D0000074B0022FFF778FC02460B463046394677
:100D1000FFF7BAFAFFF748FF2146D0BD0000F03DCB
:100D20000000F0412DE9F047089D8E4604468846B4
:100D3000002B4AD18A42174662D9B2FA82F64EB1E6
:100D4000C6F1200301FA06F820FA03F3B74043EA9C
:100D50000808B4404FEA174E1FFA87FCB8FBFEF1B3
:100D6000230C0EFB118843EA084301FB0CF29A4264
:100D700009D9FB1801F1FF3080F0EA809A4240F275
:100D8000E78002393B449A1AA3B2B2FBFEF00EFB95
:100D9000102243EA024300FB0CFC9C4509D9FB18D6
:100DA00000F1FF3280F0D6809C4540F2D3803B4476
:100DB000023840EA0140A3EB0C0300211DB1F340CF
:100DC0000022C5E90032BDE8F0878B4205D90DB19C
:100DD000C5E9000100210846F5E7B3FA83F10029CF
:100DE00046D1734502D3824200F20581841A6EEB2C
:100DF000030201209046002DE5D0C5E90048E2E756
:100E0000002A00F09080B2FA82F6002E40F0A48012
:100E10008A1A030C4FEA174E80B2BCB20121B2FB12
:100E2000FEFC0EFB1C2243EA024304FB0CF29A4236
:100E300007D9FB180CF1FF3802D29A4200F2E08089
:100E4000C4469B1AB3FBFEF20EFB123340EA034387
:100E500002FB04F49C4207D9FB1802F1FF3002D2D6
:100E60009C4200F2CA8002461B1B42EA0C40A5E7E6
:100E7000C1F120068B4022FA06F71F430EFA01F457
:100E800020FA06F32EFA06FE4FEA1749234300FA2A
:100E900001F81FFA87FCBEFBF9F01C0C09FB10EEF1
:100EA00044EA0E4400FB0CFEA64502FA01F209D901
:100EB0003C1900F1FF3A80F09C80A64540F29980F1
:100EC00002383C44A4EB0E041FFA83FEB4FBF9F392
:100ED00009FB13444EEA044403FB0CFCA44508D967
:100EE0003C1903F1FF3E80F08280A4457FD9023B8C
:100EF0003C4443EA0040A4EB0C04A0FB02EC644534
:100F00007346E14662D35FD05DB1B8EB030264EB98
:100F1000090404FA06F622FA01F31E43CC40C5E99F
:100F2000006400214FE7B1FBF2FC010C41EA0E41E5
:100F300080B240EA01423B4638463C46B846BE468F
:100F40002026B1FBF7F1A2EB080241EA0C4166E76B
:100F5000014618E710462CE7C6F120022EFA02F3EC
:100F6000B740B14020FA02F24FEA174E0A43B3FBF2
:100F7000FEF8BCB20EFB1833110C41EA034108FB2A
:100F800004F9B04089454FEA104380B23ED9791840
:100F900008F1FF3C01D289451FD8A1EB0901B1FB43
:100FA000FEF909FB04F80EFB191192B242EA014264
:100FB000424529D2BA1809F1FF31C4D24245C2D202
:100FC000A9F102013A44BEE7F0459DD2BEEB02030F
:100FD0006CEB070C0138E14696E7A7EB0909494499
:100FE000A8F1020CB1FBFEF909FB04F8DBE773463C
:100FF0007FE7504666E70846FDE63B44023A33E7A2
:10100000ACF1020C3B441CE749469CE7A1EB09010B
:10101000C446B1FBFEF909FB04F8C4E7704700BF02
:1010200080B586B002AF0346FB800B467B7113464A
:101030007B807B793B737B881B0A9BB2DBB27B7323
:101040007B88DBB2BB7307F10C02F9886423009341
:101050000323084805F008FE0346002B04D0064B86
:1010600001221A70002300E0012318461037BD4604
:1010700080BD00BF8C0300202C02002080B588B00A
:1010800004AF03463A60FB800B467B717B799AB2D2
:10109000F988642302930223019307F10C03009360
:1010A00001230D4805F0DEFE0346002B04D00B4B58
:1010B00001221A7000230BE03B7B1BB21B021AB209
:1010C0007B7B1BB213431BB29AB23B681A8001238D
:1010D00018461037BD4680BD8C0300202C0200202E
:1010E00080B584B000AF78607B681B7CC3F30103DC
:1010F000DBB21BB29B011AB27B681B7CC3F30013EB
:10110000DBB21BB21B021BB213431AB27B681B7CFF
:10111000C3F34013DBB21BB25B021BB213431AB220
:101120007B681B7CC3F38013DBB21BB29B021BB238
:1011300013431AB27B681B7CC3F38103DBB21BB27F
:10114000DB021BB213431AB27B681B7CC3F3C013D0
:10115000DBB21BB2DB031BB213431BB2FB817B6808
:101160001B88FA8901211846FFF75AFF034683F0CE
:101170000103DBB2002B01D0022300E0002318465C
:101180001037BD4680BD80B584B000AF78607B6805
:101190001B8807F10E0200211846FFF76FFF034678
:1011A00083F00103DBB2002B08D079684FF0000216
:1011B0004FF00003C1E90223002310E0FB891BB2BA
:1011C0001846FFF7AFF94FF000024FF07E53FFF7DC
:1011D00013FA02460B467968C1E902230123184637
:1011E0001037BD4680BD000080B582B000AF034619
:1011F0000A46FB711346BB71344808F0EDFE344BD0
:10120000344A1A60324B344A5A60314B00221A7207
:10121000BB79012B06D92E4B1B7A43F00803DAB2B7
:101220002B4B1A722A4ABB79D372322002F020F972
:1012300000224FF40041294803F074FA00224FF4D1
:101240008041264803F06EFA032000F039F90420AB
:1012500002F00EF9032000F033F9642000F0D4F816
:10126000032000F02DF9962000F0CEF8022000F0C7
:1012700027F9642000F0C8F8154B1B7A43F02003CF
:10128000DBB2184600F0A2F8114B00225A72104B44
:101290005B7A43F00803DBB2184600F097F800F0E1
:1012A0001FF8032002F0E4F8094B02229A72084B5F
:1012B0009B7A43F00403DBB2184600F087F800F095
:1012C00045F800BF0837BD4680BD00BF600600205E
:1012D000300200200000002010000020000C02401E
:1012E00080B500AF012000F071F8022002F0C0F8D4
:1012F00000BF80BD80B584B000AF03460A46FB71D5
:101300001346BB710F4BFB600F4BDB7ABA799A42E5
:1013100003D90D4BDB7A013BBB71BB7910333B44E6
:1013200013F8042CFB791344DBB25BB263F07F0348
:101330005BB2DBB2184600F049F800BF1037BD467B
:1013400080BD00BF004014543002002080B500AFC3
:10135000084B5B7A43F00403DAB2064B5A72054B32
:101360005B7A43F00803DBB2184600F02FF800BFA9
:1013700080BD00BF3002002080B582B000AF786031
:1013800006E07B685A1C7A601B78184600F02CF83F
:101390007B681B78002BF4D100BF00BF0837BD4627
:1013A00080BD80B582B000AF03463A60FB710B464A
:1013B000BB71BA79FB7911461846FFF79BFF386875
:1013C000FFF7DAFF00BF0837BD4680BD80B582B0A9
:1013D00000AF0346FB71FB790021184600F02EF8A0
:1013E00000BF0837BD4680BD80B582B000AF034660
:1013F000FB71FB790121184600F020F80123184603
:101400000837BD4680BD000080B483B000AF0346FE
:10141000FB80094B1B6800225A6200BF064B1B6809
:101420005A6AFB889A42F9D300BF00BF0C37BD4609
:101430005DF8047B704700BF6006002080B582B075
:1014400000AF03460A46FB711346BB71BB791A46CF
:101450004FF40041084803F065F9FB791B09DBB242
:10146000184600F02DF8FB79184600F029F800BF67
:101470000837BD4680BD00BF000C024080B500AFFC
:1014800000224FF480410D4803F04CF90120FFF792
:10149000BBFF01224FF48041084803F043F90120CB
:1014A000FFF7B2FF00224FF48041044803F03AF9FD
:1014B0003220FFF7A9FF00BF80BD00BF000C024033
:1014C00080B584B000AF0346FB710023FB7319E0C5
:1014D000114B1A68FB7B9B00134418680E4B5A682B
:1014E000FB7B5B0013441988FA79FB7B42FA03F318
:1014F000DBB203F00103DBB21A4603F013F9FB7B06
:101500000133FB73FB7B032BE2D9FFF7B7FF00BF6F
:101510001037BD4680BD00BF3002002080B582B0CC
:1015200000AF0346FB711E4B1E4A1A601C4B4FF462
:1015300082725A601A4B00229A60194B0022DA60BC
:10154000174B02221A61164B01225A61144B4FF4B9
:1015500000729A61124B1822DA61114B00221A6252
:101560000F4B00225A620E4B00229A620C4B0A2249
:10157000DA62FB79002B03D1094B2022DA6102E009
:10158000074B1822DA61064808F0C8F90346002B19
:1015900001D001F08DF800BF0837BD4680BD00BF07
:1015A000740500200030014080B586B002AF0346CC
:1015B000FB8007F10F02B91D0A23009301230448A1
:1015C00008F035FAFB7B18461037BD4680BD00BFDA
:1015D0007405002080B500AF00224FF480510D4803
:1015E00003F0A0F8012001F043FF01224FF48051E5
:1015F000084803F097F801224FF40051054803F022
:1016000091F801224FF48061024803F08BF800BF8B
:1016100080BD00BF0010024080B582B000AF03461D
:101620000A46FB711346BB8000BF4FF400611A48A5
:1016300003F060F80346002BF7D00020FFF76EFFA1
:1016400001224FF40051144803F06CF800224FF4CB
:101650008061114803F066F80220FFF7A5FFFB79CF
:101660009BB21846FFF7A0FFBB881B0A9BB2184627
:10167000FFF79AFFBB881846FFF796FF01224FF449
:101680008061054803F04EF80120FFF747FF00BFD7
:101690000837BD4680BD00BF0010024080B584B051
:1016A00000AF0346FB7100BF4FF400611D4803F01B
:1016B00021F80346002BF7D00020FFF72FFF01226F
:1016C0004FF40051174803F02DF800224FF48061C9
:1016D000144803F027F80320FFF766FFFB799BB25D
:1016E0001846FFF761FFFF20FFF75EFF0346FB810F
:1016F000FB891B02FB81FF20FFF756FF03461A46BA
:10170000FB891343FB8101224FF48061054803F0FC
:1017100009F80120FFF702FFFB8918461037BD4684
:1017200080BD00BF0010024080B500AF0021042042
:10173000FFF772FF00210420FFF76EFF00BF80BD9E
:1017400080B582B000AF00BF4FF400613F4802F0A7
:10175000D1FF0346002BF7D0FF20FFF725FF002322
:10176000FB710CE040F604010020FFF755FF02205A
:1017700001F07EFEFB795A1CFA71642B09D8002017
:10178000FFF78CFF03461A4640F604039A42E9D15C
:1017900000E000BF00BF4FF400612C4802F0AAFF38
:1017A0000346002BF7D00023FB7109E04FF41841EA
:1017B0000320FFF731FFFB795A1CFA71642B07D81D
:1017C0000320FFF76BFF0346B3F5184FEED100E09F
:1017D00000BF0023FB7109E04BF681310520FFF7C4
:1017E0001BFFFB795A1CFA71642B09D80520FFF7FF
:1017F00055FF03461A464BF681339A42ECD100E07E
:1018000000BF00210B20FFF707FFFFF78DFF00222D
:101810004FF400510D4802F085FFFF20FFF7C4FE92
:10182000FF20FFF7C1FEFF20FFF7BEFEFF20FFF7FE
:10183000BBFE01224FF40051044802F073FF142054
:1018400001F016FE00BF0837BD4680BD0010024003
:1018500080B584B000AF78602023FB7300224FF482
:101860000051104802F05EFF06E07B685A1C7A6067
:101870001B781846FFF798FEFB7B5A1EFA73002B65
:10188000F3D101224FF40051064802F04BFF012230
:101890004FF48061034802F045FF00BF1037BD469A
:1018A00080BD00BF0010024080B584B000AF3B4651
:1018B00000221A605A609A60DA602F4B2F4A1A6031
:1018C0002D4B4FF480325A602B4B00229A602A4BEA
:1018D00001221A61284B01221A76274B002283F835
:1018E0002020254B0022DA62234B254A9A62224BA4
:1018F0000022DA60204B0322DA611F4B012283F8B9
:1019000030201D4B01225A611B4801F0D5FD0346D2
:10191000002B01D000F0CCFE02233B6001237B6052
:101920000423BB603B461946134801F009FE0346F9
:10193000002B01D000F0BCFE03233B6002237B6040
:101940003B4619460C4801F0FBFD0346002B01D035
:1019500000F0AEFE04233B6003237B603B46194648
:10196000054801F0EDFD0346002B01D000F0A0FE7C
:1019700000BF1037BD4680BD3C0200200020014062
:101980000100000F80B584B000AF3B4600221A6012
:101990005A609A60DA60214B214A1A601F4B4FF45B
:1019A00080325A601D4B00229A601C4B00221A6143
:1019B0001A4B01221A76194B002283F82020174B6C
:1019C0000022DA62154B174A9A62144B0022DA6041
:1019D000124B0122DA61114B012283F830200F4BA8
:1019E00001225A610D4801F067FD0346002B01D02A
:1019F00000F05EFE0E233B6001237B600423BB608E
:101A00003B461946054801F09BFD0346002B01D0DB
:101A100000F04EFE00BF1037BD4680BD840200209E
:101A2000002101400100000F80B58CB000AF78604C
:101A300007F11C0300221A605A609A60DA601A618A
:101A40007B681B685E4A934258D10023BB615D4BA3
:101A50005B6C5C4A43F4807353645A4B5B6C03F4D5
:101A60008073BB61BB6900237B61564B1B6B554A7E
:101A700043F001031363534B1B6B03F001037B61C2
:101A80007B691C23FB6103233B6200237B6207F11C
:101A90001C0319464C4802F091FC4C4B4C4A1A600E
:101AA0004A4B00225A60494B00229A60474B002261
:101AB000DA60464B4FF480621A61444B4FF4006287
:101AC0005A61424B4FF400529A61404B4FF480727E
:101AD000DA613E4B00221A623C4B00225A623B48BC
:101AE00002F05EF80346002B01D000F0E1FD7B68B8
:101AF000364A9A63354A7B6893635CE07B681B686F
:101B0000344A934257D100233B612E4B5B6C2D4AE4
:101B100043F4007353642B4B5B6C03F400733B6121
:101B20003B690023FB60274B1B6B264A43F00403F1
:101B30001363244B1B6B03F00403FB60FB6810234F
:101B4000FB6103233B6200237B6207F11C03194600
:101B5000214802F033FC214B214A1A601F4B4FF001
:101B600000725A601D4B00229A601C4B0022DA6002
:101B70001A4B00221A61194B4FF400625A61174B3D
:101B80004FF400529A61154B4FF48072DA61134B97
:101B900000221A62114B00225A62104802F000F82B
:101BA0000346002B01D000F083FD7B680B4A9A634B
:101BB0000A4A7B68936300BF3037BD4680BD00BFD3
:101BC000002001400038024000000240CC0200200A
:101BD0001064024000210140000802402C03002054
:101BE0004064024080B582B000AF00237B60184B98
:101BF0001B6B174A43F480031363154B1B6B03F4F1
:101C000080037B607B6800220021382001F091FF77
:101C1000382001F0AAFF002200213A2001F089FFBC
:101C20003A2001F0A2FF002200213B2001F081FFB9
:101C30003B2001F09AFF00220021452001F079FFAE
:101C4000452001F092FF00BF0837BD4680BD00BFB0
:101C50000038024080B58CB000AF07F11C030022B1
:101C60001A605A609A60DA601A610023BB616D4B9A
:101C70001B6B6C4A43F0800313636A4B1B6B03F0CE
:101C80008003BB61BB6900237B61664B1B6B654AAC
:101C900043F004031363634B1B6B03F004037B618A
:101CA0007B6900233B615F4B1B6B5E4A43F0010382
:101CB00013635C4B1B6B03F001033B613B69002327
:101CC000FB60584B1B6B574A43F010031363554B93
:101CD0001B6B03F01003FB60FB680023BB60514BE0
:101CE0001B6B504A43F0020313634E4B1B6B03F014
:101CF0000203BB60BB6800237B604A4B1B6B494AF5
:101D000043F008031363474B1B6B03F008037B602E
:101D10007B6800224FF45051434802F003FD00223B
:101D20004FF47C41414802F0FDFC00224FF48071E9
:101D30003F4802F0F7FC002230213E4802F0F2FC5E
:101D40000723FB614FF404133B6200237B6207F11E
:101D50001C031946384802F031FB0823FB614FF49D
:101D600088133B6200237B6207F11C03194632484B
:101D700002F024FB4FF45053FB6101233B6200232C
:101D80007B620023BB6207F11C031946264802F060
:101D900015FB4FF40063FB6100233B6200237B6271
:101DA00007F11C031946204802F008FB4FF47C435E
:101DB000FB6101233B6200237B620023BB6207F1CE
:101DC0001C031946194802F0F9FAC023FB610023ED
:101DD0003B6200237B6207F11C031946164802F0A0
:101DE000EDFA4FF48073FB6101233B6200237B62B9
:101DF0000023BB6207F11C0319460D4802F0DEFA0E
:101E00003023FB6101233B6200237B620023BB6222
:101E100007F11C031946074802F0D0FA00BF30371B
:101E2000BD4680BD0038024000100240000C024058
:101E300000000240000402400008024080B500AFEC
:101E4000124B134A1A60114B124A5A600F4B002270
:101E50009A600E4B0022DA600C4B4FF480421A61FC
:101E60000A4B00225A61094B00229A61074B00225B
:101E7000DA61064B00221A62044804F0B1FD034601
:101E8000002B01D000F014FC00BF80BD8C030020AB
:101E900000540040801A060080B58AB000AF786018
:101EA00007F1140300221A605A609A60DA601A611E
:101EB0007B681B68194A93422BD100233B61184B66
:101EC0001B6B174A43F002031363154B1B6B03F0A4
:101ED00002033B613B69C0237B611223BB6100238A
:101EE000FB6103233B6204237B6207F11403194661
:101EF0000C4802F063FA0023FB60094B1B6C084A94
:101F000043F400131364064B1B6C03F40013FB60D3
:101F1000FB6800BF2837BD4680BD00BF00540040AD
:101F2000003802400004024080B584B000AFF86081
:101F3000B9607A607B689AB20A23B968034809F0ED
:101F400041F87B6818461037BD4680BD3807002031
:101F5000B0B590B000AF01F019FA00F08FFAFFF7BA
:101F600079FEFFF73FFE01F075F900F0E1FFFFF7A2
:101F70009BFCFFF707FD00F0C3FE01F027F801F01E
:101F80005BF800F05FFF0BF021FF12F06FFA00F03A
:101F90009FFB00F0ADFCFFF751FF00F0D9FAB2480B
:101FA00008F082F804211420FFF71EF9FFF798F9D2
:101FB000AE4B90221A80AD4A137C43F00303137496
:101FC000AA4A137C43F00C031374A84A137C23F031
:101FD00010031374A54A137C23F020031374A34A3F
:101FE000137C23F040031374A04A137C23F0800376
:101FF00013749E4B9D4A03F1180415460FCD0FC470
:1020000095E8030084E80300984B92221A839748CE
:10201000FFF766F89648FFF763F8FFF7DBFAFFF77C
:102020008FFB01229349944811F0E8FC03461A46BD
:10203000924B1A70914B1B78002B0CD18F4B1B7855
:102040001A468F498F4813F039FC8E4A0021002030
:10205000FFF7A7F90BE0894B1B781A468A49894894
:1020600013F02CFC874A00210020FFF79AF94FF467
:102070007A7001F0FDF9FFF733F9844A3B1D07CA76
:1020800003C31A7007F10D0300221A605A60C3F8E7
:1020900007200023FB873B1D012219467C4811F0D5
:1020A000F3FC03461A46754B1A70744B1B78002BD1
:1020B0000BD13B1D1A467749724813F0FFFB714A5A
:1020C00000210020FFF76DF90BE06C4B1B781A46DE
:1020D00071496C4813F0F2FB6A4A00210020FFF7B7
:1020E00060F9002387F83D3012F0E6F96B4B1B785E
:1020F000002B20D0694B00221A705C48FFF743F890
:102100005B48FFF740F8594BD3E9022364495D4827
:1021100013F0D4FB5B4A02210020FFF742F9534B36
:10212000D3E908235F49574813F0C8FB554A0321F8
:102130000020FFF736F94FF400615B4802F0DAFA4D
:102140000346012B64D197F83D30002B60D007F196
:10215000180307F11C0120224D4811F05DFEBB69F8
:102160001F2B05D907F11C031846FFF771FB4FE041
:102170004E4B1B78002B4BD0FB8F032B03D0FB8FD8
:1021800001339BB200E00023FB87FB8F032B23D896
:1021900001A252F823F000BFA9210008B5210008D0
:1021A000C1210008CD2100083B1D414A07CA03C3D5
:1021B0001A7011E03B1D3F4A07CA03C31A700BE0B7
:1021C0003B1D3D4A07CA03C31A7005E03B1D3B4A4D
:1021D00007CA03C31A7000BF2D4811F0FAFF3B1D58
:1021E000012219462A4811F04FFC03461A46234B98
:1021F0001A70224B1B78002B0AD13B1D1A4630491E
:10220000204813F05BFB1F4A00210020FFF7C9F8AC
:102210002C4B1B78DBB2002B00F08D80294B002269
:102220001A70FB8F002B03D0FB8F013B9BB200E0A9
:102230000323FB87FB8F032B52D801A252F823F014
:10224000512200085D220008C9220008D52200089A
:102250003B1D174A07CA03C31A7041E03B1D154ACC
:1022600007CA03C31A703BE0A80600200004002040
:1022700018040020880700208C0700208407002015
:1022800070910108E8030020809101082C92010858
:10229000C417002094910108A0910108E1030020D7
:1022A000B0910108C091010800100240E60300202F
:1022B000D0910108DC910108E8910108F49101082E
:1022C00000920108E20300203B1D5F4A07CA03C3D6
:1022D0001A7005E03B1D5D4A07CA03C31A7000BFB0
:1022E0005B4811F076FF3B1D01221946584811F05A
:1022F000CBFB03461A46574B1A70564B1B78002BE4
:102300000BD13B1D1A465449544813F0D7FA534A8F
:1023100000210020FFF745F80BE04E4B1B781A46D2
:102320004F494E4813F0CAFA4C4A00210020FFF7EB
:1023300038F8FFF705FA4B4B1B78DBB2002B60D067
:102340000A2001F095F8474B00221A70FB8F032BEF
:1023500003D0FB8F01339BB200E00023FB87FB8F90
:10236000032B23D801A252F823F000BF7D230008DD
:102370008923000895230008A12300083B1D3A4A41
:1023800007CA03C31A7011E03B1D384A07CA03C3CA
:102390001A700BE03B1D2C4A07CA03C31A7005E0F4
:1023A0003B1D2A4A07CA03C31A7000BF284811F010
:1023B00010FF3B1D01221946254811F065FB03461D
:1023C0001A46244B1A70234B1B78002B0BD13B1D54
:1023D0001A462149214813F071FA204A00210020B1
:1023E000FEF7DFFF0BE01B4B1B781A461C491B480E
:1023F00013F064FA194A00210020FEF7D2FFFFF71C
:102400009FF91B4B1B78DBB2002B3FF46DAE184BD2
:1024100000221A70642001F02BF897F83D30002B51
:1024200008D0002387F83D30124A01210020FEF732
:10243000B8FF59E6012387F83D300F4A01210020FB
:10244000FEF7AFFF50E600BFE8910108F4910108E4
:10245000C41700208407002000920108E803002030
:102460000C920108E4030020D0910108DC910108DE
:10247000E30300201C9201082492010880B594B067
:1024800000AF07F1200330220021184614F080F934
:1024900007F10C0300221A605A609A60DA601A6130
:1024A0000023BB60284B1B6C274A43F08053136406
:1024B000254B1B6C03F08053BB60BB6800237B6023
:1024C000224B1B68214A43F4804313601F4B1B6857
:1024D00003F480437B607B6801233B624FF48033CD
:1024E0007B620223BB634FF48003FB6306233B64E0
:1024F000A8237B640223BB640723FB6407F120034A
:10250000184605F081FA0346002B01D000F0D0F800
:102510000F23FB6002233B6100237B614FF4A05338
:10252000BB614FF48053FB6107F10C030521184692
:1025300005F0E2FC0346002B01D000F0B9F800BF23
:102540005037BD4680BD00BF0038024000700040DB
:1025500080B500AF00220021062001F0EAFA062033
:1025600001F003FB00220021072001F0E2FA07201E
:1025700001F0FBFA00220021082001F0DAFA08201D
:1025800001F0F3FA00220021272001F0D2FA2720DF
:1025900001F0EBFA00220021362001F0CAFA3620C1
:1025A00001F0E3FA00220021372001F0C2FA3720BF
:1025B00001F0DBFA00220021092001F0BAFA09201B
:1025C00001F0D3FA00BF80BD80B582B000AF0346F2
:1025D000FB80FB88012B07D12021154802F0BBF8B6
:1025E000144B01221A701FE0FB88022B07D1124BFB
:1025F00001221A7020210E4802F0ADF814E0FB8889
:10260000042B07D10D4B01221A702021084802F03B
:10261000A2F809E0FB88082B06D1094B01221A70A9
:102620002021034802F097F800BF0837BD4680BD5F
:1026300000040240E2030020E3030020E403002042
:10264000E503002080B582B000AF78607B681B682E
:10265000094A93420BD101220849094808F03DFD7F
:102660004FF47A7301220549054808F0ABFC00BF1E
:102670000837BD4680BD00BF00480040E003002091
:102680003807002080B483B000AF78607B681B6897
:10269000054A934202D1054B01221A7000BF0C3744
:1026A000BD465DF8047B704700100040E103002048
:1026B00080B500AF72B600BF1021044802F04BF89D
:1026C0004FF47A7000F0D4FE00BFF5E7000402403A
:1026D00080B400AF0C4B0D4A1A600B4B00225A60BD
:1026E000094B00229A60084B0022DA60064B002258
:1026F0001A61054B00225A61034B00229A6100BF08
:10270000BD465DF8047B704730040020002C01407A
:1027100080B58AB000AF786007F1140300221A6018
:102720005A609A60DA601A617B681B68684A934253
:1027300040F0C98000233B61664B5B6C654A43F403
:1027400000635364634B5B6C03F400633B613B6960
:102750000023FB605F4B1B6B5E4A43F00403136373
:102760005C4B1B6B03F00403FB60FB680023BB6046
:10277000584B1B6B574A43F008031363554B1B6BB5
:1027800003F00803BB60BB684FF4F8537B6102237E
:10279000BB610023FB6103233B620C237B6207F1D7
:1027A000140319464C4801F009FE04237B610223FF
:1027B000BB610023FB6103233B620C237B6207F1B7
:1027C00014031946454801F0F9FD454B454A1A6086
:1027D000434B4FF000625A60414B00229A60404BDD
:1027E0000022DA603E4B4FF480621A613C4B4FF49A
:1027F00080525A613A4B4FF480429A61384B202202
:10280000DA61374B00221A62354B04225A62344B8C
:1028100003229A62324B4FF40002DA62304B4FF4DB
:1028200000121A632E4801F0BBF90346002B01D0B9
:10283000FFF73EFF7B682A4A1A64294A7B68936344
:10284000294B2A4A1A60284B4FF000625A60264BE7
:1028500040229A60244B0022DA60234B4FF48062BE
:102860001A61214B4FF480525A611F4B4FF4804242
:102870009A611D4B2022DA611B4B00221A621A4B0F
:1028800004225A62184B03229A62174B4FF400023B
:10289000DA62154B4FF400121A63134801F080F905
:1028A0000346002B01D0FFF703FF7B680E4ADA6373
:1028B0000D4A7B68936300220021312001F039F931
:1028C000312001F052F900BF2837BD4680BD00BF5E
:1028D000002C01400038024000080240000C024079
:1028E000B40400205864024014050020A064024093
:1028F00080B500AF174B184A1A60164B4FF482721E
:102900005A60144B00229A60124B0022DA60114B7D
:1029100000221A610F4B00225A610E4B4FF40072D5
:102920009A610C4B1822DA610A4B00221A62094B99
:1029300000225A62074B00229A62064B0A22DA6290
:10294000044806F0EBFF0346002B01D0FFF7B0FE72
:1029500000BF80BD740500200030014080B58AB002
:1029600000AF786007F1140300221A605A609A6081
:10297000DA601A617B681B68194A93422BD10023E5
:102980003B61184B5B6C174A43F480535364154BFF
:102990005B6C03F480533B613B690023FB60114B8C
:1029A0001B6B104A43F0010313630E4B1B6B03F0C8
:1029B0000103FB60FB68E0237B610223BB61002312
:1029C000FB6103233B6205237B6207F11403194675
:1029D000054801F0F3FC00BF2837BD4680BD00BFAD
:1029E00000300140003802400000024080B483B053
:1029F00000AF00237B60104B5B6C0F4A43F48043B5
:102A000053640D4B5B6C03F480437B607B68002355
:102A10003B60094B1B6C084A43F080531364064B20
:102A20001B6C03F080533B603B6800BF0C37BD4616
:102A30005DF8047B704700BF0038024080B400AFEF
:102A400000BFFDE780B400AF00BFFDE780B400AF7A
:102A500000BFFDE780B400AF00BFFDE780B400AF6A
:102A600000BFFDE780B400AF00BFBD465DF8047B4A
:102A7000704780B400AF00BFBD465DF8047B70476F
:102A800080B400AF00BFBD465DF8047B704780B5E1
:102A900000AF00F0CDFC00BF80BD80B500AF0120CD
:102AA00001F074FE00BF80BD80B500AF022001F0D0
:102AB0006DFE00BF80BD80B500AF042001F066FE52
:102AC00000BF80BD80B500AF082001F05FFE00BFF1
:102AD00080BD000080B500AF024808F023FB00BFB6
:102AE00080BD00BF3807002080B500AF024805F068
:102AF00053FE00BF80BD00BF3004002080B500AF92
:102B0000024807F09AFB00BF80BD00BFA806002066
:102B100080B500AF024807F090FB00BF80BD00BF4A
:102B2000F006002080B500AF024801F0D1F900BFE7
:102B300080BD00BFCC02002080B500AF024801F08C
:102B4000C7F900BF80BD00BF2C03002080B500AFD7
:102B5000024801F0BDF900BF80BD00BFB4040020F1
:102B600080B500AF024802F0E7F800BF80BD00BFAB
:102B70001C2E002080B500AF024801F0A9F900BF6B
:102B800080BD00BF1405002080B400AF01231846AB
:102B9000BD465DF8047B704780B582B000AF7860B9
:102BA000396013F01FFE034616221A604FF0FF3300
:102BB00018460837BD4680BD80B582B000AF78604A
:102BC0004FF0FF317868FFF7E7FF00BFFDE780B502
:102BD00086B000AFF860B9607A6000237B610AE0DC
:102BE000AFF300800146BB685A1CBA60CAB21A70C3
:102BF0007B6901337B617A697B689A42F0DB7B6891
:102C000018461837BD4680BD80B483B000AF7860E9
:102C10004FF0FF3318460C37BD465DF8047B704714
:102C200080B483B000AF786039603B684FF40052E5
:102C30005A60002318460C37BD465DF8047B704788
:102C400080B483B000AF7860012318460C37BD46CE
:102C50005DF8047B704780B485B000AFF860B96060
:102C60007A60002318461437BD465DF8047B704730
:102C700080B586B000AF7860144A154BD31A7B61DB
:102C80007B693B61134B1B68002B02D1114B124A2D
:102C90001A60104B1A687B6813443A699A4207D24B
:102CA00013F0A0FD03460C221A604FF0FF3309E039
:102CB000084B1B68FB60074B1A687B681344054A86
:102CC0001360FB6818461837BD4680BD000002201F
:102CD00000040000CC0500204833002080B400AF81
:102CE000064BD3F88830054A43F47003C2F88830A5
:102CF00000BFBD465DF8047B704700BF00ED00E0FB
:102D000080B596B000AF07F1480300221A605A6000
:102D10009A60DA6007F1400300221A605A6007F1F6
:102D2000240300221A605A609A60DA601A615A61BC
:102D30009A613B1D20220021184613F029FD3F4BCC
:102D40003F4A1A603D4BA7225A603C4B00229A60D2
:102D50003A4B40F2E732DA60384B00221A61374BC7
:102D600000225A61354B00229A61344807F0E4F89A
:102D70000346002B01D0FFF79BFC4FF48053BB644C
:102D800007F1480319462D4807F00AFC0346002BBB
:102D900001D0FFF78DFC294807F0F6F90346002B18
:102DA00001D0FFF785FC00233B6400237B6407F11F
:102DB00040031946214807F0D3FF0346002B01D0FA
:102DC000FFF776FC60237B624FF4FA73BB6200234B
:102DD000FB6200233B6300237B630023BB63002370
:102DE000FB6307F1240300221946144807F016FB81
:102DF0000346002B01D0FFF75BFC00237B60002320
:102E0000BB600023FB6000233B6100237B614FF428
:102E10000053BB6100233B623B1D1946074808F085
:102E20001BF80346002B01D0FFF742FC034800F0DB
:102E3000B1F900BF5837BD4680BD00BFD0050020A6
:102E40000000014080B58EB000AF07F128030022DA
:102E50001A605A609A60DA6007F1200300221A6053
:102E60005A603B1D00221A605A609A60DA601A614B
:102E70005A619A612D4B4FF080421A602B4BA7226A
:102E80005A602A4B00229A60284B42F20F72DA6095
:102E9000264B00221A61254B00229A61234807F035
:102EA0004BF80346002B01D0FFF702FC4FF4805390
:102EB000BB6207F1280319461C4807F071FB034663
:102EC000002B01D0FFF7F4FB184807F05DF903462B
:102ED000002B01D0FFF7ECFB00233B6200237B6259
:102EE00007F120031946114807F03AFF0346002B6B
:102EF00001D0FFF7DDFB60237B606423BB60002310
:102F0000FB6000237B613B1D04221946074807F044
:102F100085FA0346002B01D0FFF7CAFB034800F0F7
:102F200039F900BF3837BD4680BD00BF1806002004
:102F300080B586B000AF07F1080300221A605A601E
:102F40009A60DA603B4600221A605A601D4B1E4AA6
:102F50001A601C4B53225A601A4B00229A60194B7C
:102F60004FF6FF72DA60174B00221A61154B0022F0
:102F70009A61144806F0E0FF0346002B01D0FFF7EA
:102F800097FB4FF48053BB6007F1080319460D48C7
:102F900007F006FB0346002B01D0FFF789FB002357
:102FA0003B6000237B603B461946064807F0D8FE8D
:102FB0000346002B01D0FFF77BFB00BF1837BD464F
:102FC00080BD00BF600600200008004080B582B0D0
:102FD00000AF3B4600221A605A60154B154A1A6032
:102FE000134B40F633025A60114B00229A60104B8B
:102FF00042F20F72DA600E4B00229A610C4806F022
:103000009BFF0346002B01D0FFF752FB00233B60E0
:1030100000237B603B461946054807F0A1FE0346A6
:10302000002B01D0FFF744FB00BF0837BD4680BD31
:10303000A80600200010004080B582B000AF3B46DB
:1030400000221A605A60154B154A1A60134B41F260
:1030500067025A60114B00229A60104B42F20F72C5
:10306000DA600E4B00229A610C4806F065FF0346B9
:10307000002B01D0FFF71CFB00233B6000237B608B
:103080003B461946054807F06BFE0346002B01D06E
:10309000FFF70EFB00BF0837BD4680BDF0060020DD
:1030A0000014004080B489B000AF78607B681B6872
:1030B000334A93420ED10023FB61324B5B6C314AA1
:1030C00043F0010353642F4B5B6C03F00103FB617E
:1030D000FB694EE07B681B68B3F1804F0ED1002383
:1030E000BB61284B1B6C274A43F001031364254B3B
:1030F0001B6C03F00103BB61BB693AE07B681B6892
:10310000214A93420ED100237B611E4B1B6C1D4A4A
:1031100043F0040313641B4B1B6C03F004037B613B
:103120007B6926E07B681B68184A93420ED1002316
:103130003B61144B1B6C134A43F010031364114B97
:103140001B6C03F010033B613B6912E07B681B685A
:103150000F4A93420DD10023FB600A4B1B6C094AB6
:1031600043F020031364074B1B6C03F02003FB6048
:10317000FB6800BF2437BD465DF8047B704700BF85
:1031800000000140003802400008004000100040EC
:103190000014004080B58AB000AF786007F11403D6
:1031A00000221A605A609A60DA601A617B681B68B4
:1031B000244A93421FD100233B61234B1B6B224ABD
:1031C00043F010031363204B1B6B03F010033B61B0
:1031D0003B694FF400737B610223BB610023FB61F9
:1031E00000233B6201237B6207F114031946174851
:1031F00001F0E4F822E07B681B68B3F1804F1DD139
:103200000023FB60104B1B6B0F4A43F00203136358
:103210000D4B1B6B03F00203FB60FB6808237B6113
:103220000223BB610023FB6100233B6201237B621D
:1032300007F114031946064801F0C0F800BF28370B
:10324000BD4680BD00000140003802400010024031
:103250000004024080B500AF114B124A1A60104BB7
:103260004FF4E1325A600E4B00229A600C4B002260
:10327000DA600B4B00221A61094B0C225A61084B91
:1032800000229A61064B0022DA61054807F04AFEE7
:103290000346002B01D0FFF70BFA00BF80BD00BF33
:1032A000380700200048004080B58AB000AF786041
:1032B00007F1140300221A605A609A60DA601A61FA
:1032C0007B681B68194A93422CD100233B61184B41
:1032D0001B6C174A43F480231364154B1B6C03F4D7
:1032E00080233B613B690023FB60114B1B6B104A41
:1032F00043F0020313630E4B1B6B03F00203FB60EE
:10330000FB684FF440637B610223BB610023FB61D8
:1033100003233B6207237B6207F114031946054828
:1033200001F04CF800BF2837BD4680BD0048004082
:103330000038024000040240DFF834D0FFF7CEFC32
:103340000C480D490D4A002302E0D458C450043300
:10335000C4188C42F9D30A4A0A4C002301E01360D6
:103360000432A242FBD313F043FAFEF7F1FD70479B
:1033700000000220000000200C020020509B0108E9
:103380001002002048330020FEE7000080B500AFA7
:103390000E4B1B680D4A43F4007313600B4B1B6804
:1033A0000A4A43F480631360084B1B68074A43F4DE
:1033B00080731360032000F0B1FB0F2000F008F8C9
:1033C000FFF714FB0023184680BD00BF003C0240FD
:1033D00080B582B000AF7860124B1A68124B1B7830
:1033E00019464FF47A73B3FBF1F3B2FBF3F31846CB
:1033F00000F0C9FB0346002B01D001230EE07B68DF
:103400000F2B0AD8002279684FF0FF3000F091FBB3
:10341000064A7B681360002300E001231846083742
:10342000BD4680BD18000020200000201C000020A8
:1034300080B400AF064B1B781A46064B1B6813443A
:10344000044A136000BFBD465DF8047B704700BFAF
:10345000200000208007002080B400AF034B1B68D1
:103460001846BD465DF8047B704700BF800700200A
:1034700080B584B000AF7860FFF7EEFFB8607B687E
:10348000FB60FB68B3F1FF3F05D00A4B1B781A467F
:10349000FB681344FB6000BFFFF7DEFF0246BB681A
:1034A000D31AFA689A42F7D800BF00BF1037BD465A
:1034B00080BD00BF2000002080B584B000AF7860E0
:1034C0000023FB737B68002B01D1012333E07B6871
:1034D0001B6C002B09D17868FEF7A6FA7B680022E6
:1034E0005A647B68002283F83C207B681B6C03F0E5
:1034F0001003002B18D17B681B6C23F4885323F036
:10350000020343F002027B681A64786800F03AF91B
:103510007B6800225A647B681B6C23F0030343F032
:1035200001027B681A6401E00123FB737B680022BF
:1035300083F83C20FB7B18461037BD4680BD000059
:1035400080B485B000AF786039600023BB607B68D1
:1035500093F83C30012B01D1022305E17B68012265
:1035600083F83C203B681B68092B25D97B681B68C6
:10357000D9683B681B689BB21A4613465B0013442C
:103580001E3B072202FA03F3DA437B681B680A40FA
:10359000DA607B681B68D9683B689A683B681B687F
:1035A0009BB2184603465B0003441E3B9A407B686F
:1035B0001B680A43DA6022E07B681B6819693B6874
:1035C0001B689BB21A4613465B001344072202FA9B
:1035D00003F3DA437B681B680A401A617B681B6847
:1035E00019693B689A683B681B689BB2184603469A
:1035F0005B0003449A407B681B680A431A613B687E
:103600005B68062B24D87B681B68596B3B685A683B
:1036100013469B001344053B1F2202FA03F3DA43CF
:103620007B681B680A405A637B681B68596B3B6860
:103630001B689BB218463B685A6813469B001344AC
:10364000053B00FA03F27B681B680A435A634CE0AF
:103650003B685B680C2B24D87B681B68196B3B6844
:103660005A6813469B001344233B1F2202FA03F3BC
:10367000DA437B681B680A401A637B681B68196B16
:103680003B681B689BB218463B685A6813469B0010
:103690001344233B00FA03F27B681B680A431A6356
:1036A00023E07B681B68D96A3B685A6813469B0015
:1036B0001344413B1F2202FA03F3DA437B681B6881
:1036C0000A40DA627B681B68D96A3B681B689BB258
:1036D00018463B685A6813469B001344413B00FA66
:1036E00003F27B681B680A43DA62224BFB607B684B
:1036F0001B68214A934209D13B681B68122B05D1F4
:10370000FB685B6843F48002FB685A607B681B6857
:10371000194A934223D13B681B68102B03D03B68A6
:103720001B68112B1BD1FB685B6843F40002FB682C
:103730005A603B681B68102B11D1104B1B68104A54
:10374000A2FB03239A0C13469B0013445B00BB604F
:1037500002E0BB68013BBB60BB68002BF9D17B6812
:10376000002283F83C20002318461437BD465DF83C
:10377000047B704700230140002001401800002016
:1037800083DE1B4380B485B000AF7860794BFB606B
:10379000FB685B6823F44032FB685A60FB685A6838
:1037A0007B685B681A43FB685A607B681B685A68D1
:1037B0007B681B6822F480725A607B681B685968BA
:1037C0007B681B691A027B681B680A435A607B6826
:1037D0001B685A687B681B6822F040725A607B68DD
:1037E0001B6859687B689A687B681B680A435A6043
:1037F0007B681B689A687B681B6822F400629A6089
:103800007B681B6899687B68DA687B681B680A4379
:103810009A607B689B6A584A934222D07B681B68F7
:103820009A687B681B6822F070629A607B681B68EC
:1038300099687B689A6A7B681B680A439A607B6810
:103840001B689A687B681B6822F040529A607B680C
:103850001B6899687B68DA6A7B681B680A439A6010
:103860000FE07B681B689A687B681B6822F07062B7
:103870009A607B681B689A687B681B6822F04052DC
:103880009A607B681B689A687B681B6822F002025A
:103890009A607B681B6899687B681B7E5A007B680E
:1038A0001B680A439A607B6893F82030002B1BD07A
:1038B0007B681B685A687B681B6842F400625A6028
:1038C0007B681B685A687B681B6822F460425A60F8
:1038D0007B681B6859687B685B6A013B5A037B689D
:1038E0001B680A435A6007E07B681B685A687B685C
:1038F0001B6822F400625A607B681B68DA6A7B6886
:103900001B6822F47002DA627B681B68D96A7B68E4
:10391000DB69013B1A057B681B680A43DA627B6836
:103920001B689A687B681B6822F400729A607B6847
:103930001B6899687B6893F830305A027B681B6873
:103940000A439A607B681B689A687B681B6822F44C
:1039500080629A607B681B6899687B685B699A02E1
:103960007B681B680A439A6000BF1437BD465DF848
:10397000047B7047002301400100000F80B485B034
:1039800000AF78607B6803F00703FB600C4BDB68DB
:10399000BB60BA684FF6FF031340BB60FB681A02B6
:1039A000BB68134343F0BF6343F40033BB60044A76
:1039B000BB68D36000BF1437BD465DF8047B704719
:1039C00000ED00E080B400AF044BDB681B0A03F09D
:1039D00007031846BD465DF8047B704700ED00E024
:1039E00080B483B000AF0346FB7197F90730002B1A
:1039F0000BDBFB7903F01F02074997F907305B09DE
:103A0000012000FA02F241F8232000BF0C37BD4626
:103A10005DF8047B704700BF00E100E080B483B034
:103A200000AF03463960FB7197F90730002B0ADBC2
:103A30003B68DAB20C4997F907301201D2B20B4455
:103A400083F800230AE03B68DAB20849FB7903F007
:103A50000F03043B1201D2B20B441A7600BF0C379D
:103A6000BD465DF8047B704700E100E000ED00E03A
:103A700080B489B000AFF860B9607A60FB6803F089
:103A80000703FB61FB69C3F10703042B28BF042371
:103A9000BB61FB690433062B02D9FB69033B00E0E1
:103AA00000237B614FF0FF32BB6902FA03F3DA4374
:103AB000BB681A407B699A404FF0FF317B6901FA7D
:103AC00003F3D9437B680B40134318462437BD46A4
:103AD0005DF8047B7047000080B582B000AF78606D
:103AE0007B68013BB3F1807F01D301230FE00A4AD9
:103AF0007B68013B53600F214FF0FF30FFF78EFFD3
:103B0000054B00229A60044B07221A6000231846D6
:103B10000837BD4680BD00BF10E000E080B582B030
:103B200000AF78607868FFF729FF00BF0837BD460F
:103B300080BD80B586B000AF0346B9607A60FB7384
:103B400000237B61FFF73EFF78617A68B968786986
:103B5000FFF78EFF024697F90F3011461846FFF720
:103B60005DFF00BF1837BD4680BD80B582B000AF95
:103B70000346FB7197F907301846FFF731FF00BF86
:103B80000837BD4680BD80B582B000AF78607868E8
:103B9000FFF7A2FF034618460837BD4680BD000068
:103BA00080B586B000AF786000237B61FFF754FCDE
:103BB00038617B68002B01D1012399E07B680222E8
:103BC00083F835207B68002283F834207B681B68EB
:103BD0001A687B681B6822F001021A600FE0FFF789
:103BE0003BFC02463B69D31A052B08D97B6820228F
:103BF0005A657B68032283F83520032378E07B68CD
:103C00001B681B6803F00103002BE8D17B681B686D
:103C10001B687B617A69384B13407B617B685A680B
:103C20007B689B681A437B68DB681A437B681B6967
:103C30001A437B685B691A437B689B691A437B68FC
:103C4000DB691A437B681B6A13437A6913437B6100
:103C50007B685B6A042B07D17B68DA6A7B681B6B25
:103C600013437A6913437B617B681B687A691A6026
:103C70007B681B685B697B617B6923F007037B6161
:103C80007B685B6A7A6913437B617B685B6A042BA0
:103C900017D17B689B6A7A6913437B617B68DB6A17
:103CA000002B0ED0786800F00DFB0346002B08D0E7
:103CB0007B6840225A657B68012283F83520012306
:103CC00016E07B681B687A695A61786800F0C4FA6C
:103CD0000346FB607B68DB6D3F229A40FB689A607D
:103CE0007B6800225A657B68012283F83520002317
:103CF00018461837BD4680BD3F8010F080B586B0AD
:103D000000AFF860B9607A603B600023FB75FB6828
:103D10009B6D3B61FB6893F83430012B01D102238A
:103D200040E0FB68012283F83420FB6893F83530CB
:103D3000DBB2012B2FD1FB68022283F83520FB6810
:103D400000225A653B687A68B968F86800F056FA4C
:103D5000FB68DB6D3F229A403B699A60FB681B68F9
:103D60001A68FB681B6842F016021A60FB681B6C3D
:103D7000002B07D0FB681B681A68FB681B6842F0C1
:103D800008021A60FB681B681A68FB681B6842F02F
:103D900001021A6005E0FB68002283F83420022348
:103DA000FB75FB7D18461837BD4680BD80B584B0D5
:103DB00000AF78607B689B6DFB60FFF74DFBB860E0
:103DC0007B6893F83530DBB2022B08D07B68802209
:103DD0005A657B68002283F83420012352E07B6817
:103DE0001B681A687B681B6822F016021A607B68E1
:103DF0001B685A697B681B6822F080025A617B68E5
:103E00001B6C002B03D17B689B6C002B07D07B685D
:103E10001B681A687B681B6822F008021A607B68BE
:103E20001B681A687B681B6822F001021A6013E0A5
:103E3000FFF712FB0246BB68D31A052B0CD97B682F
:103E400020225A657B68032283F835207B68002294
:103E500083F83420032315E07B681B681B6803F09C
:103E60000103002BE4D17B68DB6D3F229A40FB68A5
:103E70009A607B68012283F835207B68002283F8F2
:103E80003420002318461037BD4680BD80B483B06F
:103E900000AF78607B6893F83530DBB2022B04D03A
:103EA0007B6880225A6501230CE07B68052283F839
:103EB00035207B681B681A687B681B6822F001024A
:103EC0001A60002318460C37BD465DF8047B704726
:103ED00080B586B000AF78600023BB608E4B1B6856
:103EE0008E4AA2FB03239B0A7B617B689B6D3B612F
:103EF0003B691B68FB607B68DB6D08229A40FB68AE
:103F00001340002B1AD07B681B681B6803F0040366
:103F1000002B13D07B681B681A687B681B6822F033
:103F200004021A607B68DB6D08229A403B699A6044
:103F30007B685B6D43F001027B685A657B68DB6DD3
:103F400001229A40FB681340002B12D07B681B684B
:103F50005B6903F08003002B0BD07B68DB6D0122D3
:103F60009A403B699A607B685B6D43F002027B6814
:103F70005A657B68DB6D04229A40FB681340002B76
:103F800012D07B681B681B6803F00203002B0BD068
:103F90007B68DB6D04229A403B699A607B685B6DAD
:103FA00043F004027B685A657B68DB6D10229A40FF
:103FB000FB681340002B43D07B681B681B6803F031
:103FC0000803002B3CD07B68DB6D10229A403B69D4
:103FD0009A607B681B681B6803F48023002B18D051
:103FE0007B681B681B6803F40023002B08D17B68E7
:103FF0001B6C002B24D07B681B6C786898471FE0F3
:104000007B689B6C002B1BD07B689B6C7868984707
:1040100016E07B681B681B6803F48073002B07D1D4
:104020007B681B681A687B681B6822F008021A60AC
:104030007B681B6C002B03D07B681B6C78689847EF
:104040007B68DB6D20229A40FB681340002B00F058
:104050008F807B681B681B6803F01003002B00F047
:1040600087807B68DB6D20229A403B699A607B6881
:1040700093F83530DBB2052B36D17B681B681A68A4
:104080007B681B6822F016021A607B681B685A69FD
:104090007B681B6822F080025A617B681B6C002BD6
:1040A00003D17B689B6C002B07D07B681B681A6868
:1040B0007B681B6822F008021A607B68DB6D3F2278
:1040C0009A403B699A607B68012283F835207B68BF
:1040D000002283F834207B681B6D002B7ED07B6828
:1040E0001B6D7868984779E07B681B681B6803F450
:1040F0008023002B1DD07B681B681B6803F4002302
:10410000002B0DD17B685B6C002B31D07B685B6C26
:10411000786898472CE000BF18000020B5814E1B3E
:104120007B68DB6B002B23D07B68DB6B7868984760
:104130001EE07B681B681B6803F48073002B0FD1A3
:104140007B681B681A687B681B6822F010021A6083
:104150007B68012283F835207B68002283F83420B5
:104160007B68DB6B002B03D07B68DB6B7868984740
:104170007B685B6D002B32D07B685B6D03F00103C5
:10418000002B22D07B68052283F835207B681B68D2
:104190001A687B681B6822F001021A60BB68013351
:1041A000BB607A699A4207D37B681B681B6803F07F
:1041B0000103002BF2D100E000BF7B68012283F8ED
:1041C00035207B68002283F834207B68DB6C002B71
:1041D00005D07B68DB6C7868984700E000BF183733
:1041E000BD4680BD80B483B000AF78607B685B6DF6
:1041F00018460C37BD465DF8047B704780B485B027
:1042000000AFF860B9607A603B60FB681B681A68B1
:10421000FB681B6822F480221A60FB681B683A68FE
:104220005A60FB689B68402B08D1FB681B687A6862
:104230009A60FB681B68BA68DA6007E0FB681B6875
:10424000BA689A60FB681B687A68DA6000BF143746
:10425000BD465DF8047B704780B485B000AF7860E0
:104260007B681B68DBB2103B144AA2FB03231B09CB
:10427000FB60134AFB6813441B781A467B68DA65B7
:10428000FB68032B09D97B681B6823F47F7323F039
:1042900003031A1D7B689A6507E07B681B6823F49B
:1042A0007F7323F003037A6893657B689B6D1846E0
:1042B0001437BD465DF8047B704700BFABAAAAAABD
:1042C000A492010880B485B000AF78600023FB732E
:1042D0007B689B6ABB607B689B69002B1FD1BB68B6
:1042E000032B56D801A252F823F000BFFD4200086C
:1042F0000F430008FD420008934300087B68DB6A17
:1043000003F08073002B46D00123FB7343E07B68EE
:10431000DB6AB3F1C07F40D10123FB733DE07B68D2
:104320009B69B3F5005F21D1BB68032B37D801A28D
:1043300052F823F0454300084B430008454300086A
:104340005D4300080123FB7330E07B68DB6A03F008
:104350008073002B25D00123FB7322E07B68DB6A8E
:10436000B3F1C07F1FD10123FB731CE0BB68022B9C
:1043700003D9BB68032B03D018E00123FB7315E0BE
:104380007B68DB6A03F08073002B0ED00123FB7384
:104390000BE000BF0AE000BF08E000BF06E000BF7E
:1043A00004E000BF02E000BF00E000BFFB7B184656
:1043B0001437BD465DF8047B704700BF80B489B0F8
:1043C00000AF7860396000237B6100233B610023EC
:1043D000BB610023FB616BE10122FB6902FA03F37D
:1043E0007B613B681B687A6913403B613A697B6972
:1043F0009A4240F05A813B685B6803F00303012B4B
:1044000005D03B685B6803F00303022B30D17B6867
:104410009B68BB61FB695B00032202FA03F3DB4389
:10442000BA691340BB613B68DA68FB695B0002FA5A
:1044300003F3BA691343BB617B68BA699A607B680E
:104440005B68BB610122FB6902FA03F3DB43BA69D3
:104450001340BB613B685B681B0903F00102FB6909
:1044600002FA03F3BA691343BB617B68BA695A6005
:104470003B685B6803F00303032B17D07B68DB68A2
:10448000BB61FB695B00032202FA03F3DB43BA69F9
:104490001340BB613B689A68FB695B0002FA03F357
:1044A000BA691343BB617B68BA69DA603B685B68D1
:1044B00003F00303022B23D1FB69DA087B6808327F
:1044C00053F82230BB61FB6903F007039B000F2206
:1044D00002FA03F3DB43BA691340BB613B681A6914
:1044E000FB6903F007039B0002FA03F3BA69134365
:1044F000BB61FB69DA087B680832B96943F82210AE
:104500007B681B68BB61FB695B00032202FA03F353
:10451000DB43BA691340BB613B685B6803F003028D
:10452000FB695B0002FA03F3BA691343BB617B6862
:10453000BA691A603B685B6803F44033002B00F0F3
:10454000B4800023FB60604B5B6C5F4A43F48043A4
:1045500053645D4B5B6C03F48043FB60FB685B4A18
:10456000FB699B08023352F82330BB61FB6903F0FF
:1045700003039B000F2202FA03F3DB43BA691340E3
:10458000BB617B68524A93422BD07B68514A93426D
:1045900025D07B68504A93421FD07B684F4A934294
:1045A00019D07B684E4A934213D07B684D4A9342A0
:1045B0000DD07B684C4A934207D07B684B4A9342AC
:1045C00001D107230EE008230CE006230AE00523AF
:1045D00008E0042306E0032304E0022302E00123B1
:1045E00000E00023FA6902F0030292009340BA69E6
:1045F0001343BB613549FB699B080233BA6941F833
:1046000023203B4B9B68BB613B69DB43BA6913408A
:10461000BB613B685B6803F48013002B03D0BA696D
:104620003B691343BB61324ABB699360304BDB6823
:10463000BB613B69DB43BA691340BB613B685B68A4
:1046400003F40013002B03D0BA693B691343BB6129
:10465000274ABB69D360264B5B68BB613B69DB4380
:10466000BA691340BB613B685B6803F40033002BFD
:1046700003D0BA693B691343BB611D4ABB695360F0
:104680001B4B1B68BB613B69DB43BA691340BB61D1
:104690003B685B6803F48033002B03D0BA693B6945
:1046A0001343BB61124ABB691360FB690133FB61B1
:1046B000FB690F2B7FF690AE00BF00BF2437BD46CD
:1046C0005DF8047B704700BF0038024000380140AD
:1046D000000002400004024000080240000C0240BA
:1046E000001002400014024000180240001C02406A
:1046F000003C014080B485B000AF78600B467B8001
:104700007B681A697B881340002B02D00123FB735E
:1047100001E00023FB73FB7B18461437BD465DF8B0
:10472000047B704780B483B000AF78600B467B8019
:1047300013467B707B78002B03D07A887B689A6164
:1047400003E07B881A047B689A6100BF0C37BD4682
:104750005DF8047B704780B485B000AF78600B468D
:104760007B807B685B69FB607A88FB6813401A0476
:10477000FB68D9437B880B401A437B689A6100BF72
:104780001437BD465DF8047B7047000080B582B0E9
:1047900000AF0346FB80084B5A69FB881340002B8F
:1047A00006D0054AFB885361FB881846FDF70CFFCD
:1047B00000BF0837BD4680BD003C014080B586B0D3
:1047C00002AF78607B68002B01D1012359E07B6840
:1047D0001B68FB607B6893F8D533DBB2002B06D1F6
:1047E0007B68002283F8D42378680FF09DFE7B68F5
:1047F000032283F8D523FB68B3F1A04F02D17B6875
:1048000000229A717B681B68184608F0E0F97B6803
:1048100018687B681A7C8DF8002004330ECB08F0F2
:1048200061F90346002B05D07B68022283F8D5236B
:10483000012326E07B681B680121184608F0D8F99F
:104840000346002B05D07B68022283F8D523012381
:1048500017E07B6818687B681A7C8DF800200433A9
:104860000ECB08F081FB0346002B05D07B680222AB
:1048700083F8D523012304E07B68012283F8D52344
:10488000002318461037BD4680BD90B58BB004AFED
:104890007860084611461A460346FB700B46BB700B
:1048A00013467B703B8E7B617B6893F8D433012B7E
:1048B00001D102239DE07B68012283F8D423FA789A
:1048C000796813461B019B1A9B000B441933002285
:1048D0001A70FA78796813461B019B1A9B000B44E7
:1048E00014337A781A70FA78796813461B019B1A88
:1048F0009B000B441533FA781A70FA7879681346DE
:104900001B019B1A9B000B44263397F82C201A702E
:10491000FA78BB7803F07F03D8B2796813461B019D
:104920009B1A9B000B44163302461A70FB781946FB
:10493000786800F0A5FB97F90230002B0ADAFA78C4
:10494000796813461B019B1A9B000B441733012205
:104950001A7009E0FA78796813461B019B1A9B00CC
:104960000B44173300221A707B681B68184608F046
:104970005FFC386197F82C30012B0BD197F8283069
:10498000012B07D13B69002B04D17B69BC2B01D9DA
:10499000BC237B61FA78796813461B019B1A9B0044
:1049A0000B44183397F828201A70FA787B6998B26C
:1049B000796813461B019B1A9B000B44283302465F
:1049C0001A807B6818687B699BB27C78BA78F97822
:1049D000029397F82C30019397F8283000932346E0
:1049E00008F04EFC0346FB737B68002283F8D42357
:1049F000FB7B18461C37BD4690BD000080B582B0D9
:104A000000AF7860084611461A460346FB700B4615
:104A1000BB7013467B70FA78796813461B019B1AAA
:104A20009B000B441733BA781A70FA7879681346EA
:104A30001B019B1A9B000B4426337A781A703B7C2F
:104A4000002B14D1FA78796813461B019B1A9B003E
:104A50000B442A3303221A70FA78796813461B0133
:104A60009B1A9B000B4419333A7F1A7009E0FA78BD
:104A7000796813461B019B1A9B000B442A330222C0
:104A80001A707B78032B00F2028101A252F823F006
:104A9000A14A0008794C0008654B0008EF4B00085C
:104AA0003B7C012B40F0F580BB78002B2DD13B8B5C
:104AB000002B09D1FA78796813461B019B1A9B00D9
:104AC0000B443D3301221A70FA78796813461B01B2
:104AD0009B1A9B000B443D331B78002B0AD1FA78BC
:104AE000796813461B019B1A9B000B442A33002252
:104AF0001A70CEE0FA78796813461B019B1A9B0066
:104B00000B442A3302221A70C3E0FA7879681346FC
:104B10001B019B1A9B000B441A331B78012B40F09E
:104B2000B880FA78796813461B019B1A9B000B44E6
:104B30003C331B78002B0AD1FA78796813461B01A5
:104B40009B1A9B000B442A3300221A70A1E0FA78CA
:104B5000796813461B019B1A9B000B442A330222DF
:104B60001A7096E0BB78002B20D1FA78796813464A
:104B70001B019B1A9B000B443D331B78002B0AD171
:104B8000FA78796813461B019B1A9B000B442A3361
:104B900000221A707EE0FA78796813461B019B1A8E
:104BA0009B000B442A3302221A7073E0FA7879686A
:104BB00013461B019B1A9B000B443C331B78002BB4
:104BC0000AD1FA78796813461B019B1A9B000B44A3
:104BD0002A3300221A705DE0FA78796813461B01C7
:104BE0009B1A9B000B442A3302221A7052E0BB78B6
:104BF000002B20D1FA78796813461B019B1A9B0081
:104C00000B443D331B78002B0AD1FA7879681346A0
:104C10001B019B1A9B000B442A3300221A7039E0B7
:104C2000FA78796813461B019B1A9B000B442A33C0
:104C300002221A702EE0FA78796813461B019B1A3B
:104C40009B000B443C331B78002B0AD1FA7879681F
:104C500013461B019B1A9B000B442A3300221A7037
:104C600018E0FA78796813461B019B1A9B000B44E5
:104C70002A3302221A700DE0FA78796813461B0174
:104C80009B1A9B000B442A3300221A7002E000BFDB
:104C900000E000BFFA78796813461B019B1A9B005D
:104CA0000B442C337A691A60FA78398B786813468A
:104CB0001B019B1A9B00034434331960FA7879680E
:104CC00013461B019B1A9B000B444C3300221A70A5
:104CD000FA78796813461B019B1A9B000B44383302
:104CE00000221A60FA78796813461B019B1A9B0010
:104CF0000B441533FA781A70FA78796813461B0159
:104D00009B1A9B000B444D3300221A707B68186875
:104D1000FA7813461B019B1A9B0010337A681344E0
:104D2000191D7B689B791A4608F0D6FB0346184686
:104D30000837BD4680BD00BF80B586B000AF786043
:104D40007B681B683B613B69FB607B681B6818469E
:104D500008F0C4F80346012B40F0FB807B681B6819
:104D6000184608F087F80346002B00F0F1807B68B6
:104D70001B68184608F07EF8034603F40013B3F5E9
:104D8000001F04D17B681B684FF400125A617B68D6
:104D90001B68184608F06EF8034603F48013B3F559
:104DA000801F04D17B681B684FF480125A617B68B6
:104DB0001B68184608F05EF8034603F08063B3F101
:104DC000806F04D17B681B684FF080625A617B68FA
:104DD0001B68184608F04EF8034603F00203022B46
:104DE00003D17B681B6802225A617B681B681846E6
:104DF00008F040F8034603F00053B3F1005F20D100
:104E00007B681B684FF000525A61FB6803F58863AA
:104E10001B6803F00103002B13D11021386907F040
:104E200033FF386907F062FF7B685B7A022B05D19C
:104E30007B681B680121184608F05AF978680FF062
:104E4000F1FB7B681B68184608F014F8034603F072
:104E50008073B3F1807F02D1786801F04DFD7B68EB
:104E60001B68184608F006F8034603F00803082BF1
:104E700006D178680FF0BAFB7B681B6808225A617C
:104E80007B681B68184607F0F5FF034603F00073C4
:104E9000B3F1007F39D17B681B68184608F096FD96
:104EA000B86000237B6125E07B6903F00F03BA68DB
:104EB00022FA03F303F00103002B18D07B695A0197
:104EC000FB68134403F5A0631B6803F40043B3F5C8
:104ED000004F06D17B69DBB21946786800F005F90E
:104EE00005E07B69DBB21946786800F067FF7B69F3
:104EF00001337B617B685B791A467B699342D3D32C
:104F00007B681B684FF000725A617B681B6818460B
:104F100007F0B0FF034603F01003102B01D101236B
:104F200000E00023002B14D07B681B689A697B6823
:104F30001B6822F010029A61786801F0FEFB7B6822
:104F40001B689A697B681B6842F010029A6100E056
:104F500000BF1837BD4680BD80B582B000AF786015
:104F60007B6893F8D433012B01D1022313E07B68D3
:104F7000012283F8D4237B681B680121184608F0BE
:104F80001EF97B681B68184607F010FE7B6800223C
:104F900083F8D423002318460837BD4680BD80B56A
:104FA00082B000AF78607B6893F8D433012B01D1D5
:104FB00002230DE07B68012283F8D4237B681B6801
:104FC000184608F071FE7B68002283F8D423002382
:104FD00018460837BD4680BD80B582B000AF786006
:104FE0007B681B68184608F0C0F803461846083767
:104FF000BD4680BD80B483B000AF78600B46FB70C7
:10500000FA78796813461B019B1A9B000B444C33BA
:105010001B7818460C37BD465DF8047B704780B49A
:1050200083B000AF78600B46FB70FA78796813465E
:105030001B019B1A9B000B4438331B6818460C3726
:10504000BD465DF8047B704780B582B000AF7860E4
:105050007B681B68184608F002F9034618460837B3
:10506000BD4680BD80B582B000AF78607B681B68AC
:10507000184608F0DDF8034618460837BD4680BDDF
:1050800080B483B000AF78600B46FB70FA78796823
:1050900013461B019B1A9B000B441A3300221A7003
:1050A000FA78796813461B019B1A9B000B441B334B
:1050B00000221A70FA78796813461B019B1A9B002C
:1050C0000B44253300221A70FA78796813461B01C5
:1050D0009B1A9B000B44243300221A7000231846AD
:1050E0000C37BD465DF8047B704780B586B000AFD5
:1050F00078600B46FB707B681B687B617B693B615A
:105100007B681B68FA781146184607F0C6FE03460E
:1051100003F00403042B1AD1FB785A013B691344B2
:1051200003F5A0631A4604239360FA78796813465E
:105130001B019B1A9B000B444D3307221A707B689E
:105140001B68FA781146184608F051FC9EE07B680F
:105150001B68FA781146184607F09FFE034603F4D1
:105160008073B3F5807F1BD1FB785A013B691344F0
:1051700003F5A0631A464FF480739360FA78796858
:1051800013461B019B1A9B000B444D3308221A70D7
:105190007B681B68FA781146184608F028FC75E011
:1051A0007B681B68FA781146184607F076FE0346BE
:1051B00003F00803082B1AD1FB785A013B6913440A
:1051C00003F5A0631A4608239360FA7879681346BA
:1051D0001B019B1A9B000B444D3306221A707B68FF
:1051E0001B68FA781146184608F001FC4EE07B680F
:1051F0001B68FA781146184607F04FFE034603F481
:105200008063B3F5806F1BD1FB785A013B6913446F
:1052100003F5A0631A464FF480639360FA787968C7
:1052200013461B019B1A9B000B444D3309221A7035
:105230007B681B68FA781146184608F0D8FB25E011
:105240007B681B68FA781146184607F026FE03466D
:1052500003F08003802B19D1FB785A013B6913447A
:1052600003F5A0631A4680239360FA7879681346A1
:105270001B019B1A9B000B444D3307221A707B685D
:105280001B68FA781146184608F0B1FB7B681B686A
:10529000FA781146184607F000FE034603F400733F
:1052A000B3F5007F12D17B681B68FA781146184667
:1052B00008F09DFBFB785A013B69134403F5A0639A
:1052C0001A464FF40073936000F075BD7B681B684D
:1052D000FA781146184607F0E0FD034603F0010393
:1052E000012B40F02881FB785A013B69134403F5F8
:1052F000A0631A4620239360FA78796813461B014D
:105300009B1A9B000B441B331B78012B19D1FA7895
:10531000796813461B019B1A9B000B441B33002228
:105320001A70FB785A013B69134403F5A0635B686C
:10533000FA7851013A690A4402F5A06223F48033F5
:1053400053607B689B79002B1BD0FA7879681346F1
:105350001B019B1A9B000B4430331968FB785A01E0
:105360003B69134403F5A0631B69C3F31203FA7886
:10537000C91A786813461B019B1A9B0003443833F3
:105380001960FA78796813461B019B1A9B000B443D
:105390004D3301221A70FA78796813461B019B1A63
:1053A0009B000B44443300221A60FB785A013B698E
:1053B000134403F5A0631A4601239360FA787968D1
:1053C00013461B019B1A9B000B4426331B78002BB2
:1053D0000AD0FA78796813461B019B1A9B000B448C
:1053E00026331B78022B10D17B681B68FA78114694
:1053F000184608F0FCFAFB785A013B69134403F5A0
:10540000A0631A46102393603DE0FA78796813464A
:105410001B019B1A9B000B4426331B78032B0AD0DD
:10542000FA78796813461B019B1A9B000B442633BC
:105430001B78012B27D1FB785A013B69134403F5F4
:10544000A0631B68FA7851013A690A4402F5A06228
:1054500043F000531360FA78796813461B019B1AD6
:105460009B000B444C3301221A70FA78796813467A
:105470001B019B1A9B000B444C331A78FB7819468E
:1054800078680FF0DDF87B689B79012B3BD1FA78C7
:10549000796813461B019B1A9B000B44383319682B
:1054A000FA78786813461B019B1A9B000344283343
:1054B0001B880B44591EFA78786813461B019B1A07
:1054C0009B00034428331B88B1FBF3F303F0010373
:1054D000002B00F07084FA78796813461B019B1A40
:1054E0009B000B443C331B78FA7883F00103D8B25D
:1054F000796813461B019B1A9B000B443C33024600
:105500001A7000F058BCFA78796813461B019B1A90
:105510009B000B443C331B78FA7883F00103D8B22C
:10552000796813461B019B1A9B000B443C330246CF
:105530001A7000F040BC7B681B68FA781146184668
:1055400007F0ABFC034603F02003202B31D1FB789E
:105550005A013B69134403F5A0631A462023936064
:10556000FA78796813461B019B1A9B000B441A3387
:105570001B78012B40F01F84FA78796813461B01D1
:105580009B1A9B000B441B3301221A70FA7879682E
:1055900013461B019B1A9B000B444D3303221A70C8
:1055A0007B681B68FA781146184608F020FA00F06C
:1055B00002BC7B681B68FA781146184607F06DFC40
:1055C000034603F00203022B40F00583FB785A01E7
:1055D0003B69134403F5A0631A4602239360FA78EB
:1055E000796813461B019B1A9B000B444D331B78B3
:1055F000012B14D1FA78796813461B019B1A9B0082
:105600000B444D3302221A70FA78796813461B0155
:105610009B1A9B000B444C3301221A70CCE2FA789F
:10562000796813461B019B1A9B000B444D331B7872
:10563000062B14D1FA78796813461B019B1A9B003C
:105640000B444D3302221A70FA78796813461B0115
:105650009B1A9B000B444C3305221A70ACE2FA787B
:10566000796813461B019B1A9B000B444D331B7832
:10567000072B0BD0FA78796813461B019B1A9B0005
:105680000B444D331B78092B40F0A680FA787968DB
:1056900013461B019B1A9B000B444D3302221A70C8
:1056A000FA78796813461B019B1A9B000B4444331C
:1056B0001B68591C786813461B019B1A9B00034406
:1056C00044331960FA78796813461B019B1A9B00D2
:1056D0000B4444331B68022B43D9FA78796813468C
:1056E0001B019B1A9B000B44443300221A60FA787A
:1056F000796813461B019B1A9B000B441A331B78D5
:10570000012B23D1FA78796813461B019B1A9B0061
:105710000B441B3300221A70FA78796813461B0178
:105720009B1A9B000B441C3300221A70FB785A0111
:105730003B69134403F5A0635B68FA7851013A6949
:105740000A4402F5A06223F480335360FA78796842
:1057500013461B019B1A9B000B444C3304221A7006
:1057600029E2FA78796813461B019B1A9B000B44C7
:105770004C3302221A70FA78796813461B019B1A7F
:105780009B000B4426331B78002B0BD0FA787968EA
:1057900013461B019B1A9B000B4426331B78022BDC
:1057A00040F00982FB785A013B69134403F5A0637A
:1057B0001B68FB60FB6823F08043FB60FB6843F0E1
:1057C0000043FB60FB785A013B69134403F5A06377
:1057D0001A46FB681360EEE1FA78796813461B01FC
:1057E0009B1A9B000B444D331B78052B40F0C8805F
:1057F000FA78796813461B019B1A9B000B444D33C2
:1058000002221A70FA78796813461B019B1A9B00D2
:105810000B441B331B78012B40F0CE81FA7879685A
:1058200013461B019B1A9B000B4426331B78032B4A
:105830006BD1FA78796813461B019B1A9B000B44C5
:1058400048331B68591C786813461B019B1A9B0040
:10585000034448331960FA78796813461B019B1A90
:105860009B000B4448331B68022B43D9FA787968B4
:1058700013461B019B1A9B000B44483300221A60FD
:10588000FA78796813461B019B1A9B000B441B3363
:1058900000221A70FA78796813461B019B1A9B0044
:1058A0000B4444331B68022B09D8FA7879681346F5
:1058B0001B019B1A9B000B441C3301221A70FB78BE
:1058C0005A013B69134403F5A0635B68FA78510100
:1058D0003A690A4402F5A06223F480335360FA78EF
:1058E000796813461B019B1A9B000B444C3304221E
:1058F0001A7014E0FA78796813461B019B1A9B0012
:105900000B444C3302221A7009E0FA787968134686
:105910001B019B1A9B000B444C3302221A70FA782D
:10592000796813461B019B1A9B000B4426331B7896
:10593000002B0BD0FA78796813461B019B1A9B0049
:105940000B4426331B78022B40F03681FB785A013A
:105950003B69134403F5A0631B68FB60FB6823F0FD
:105960008043FB60FB6843F00043FB60FB785A0117
:105970003B69134403F5A0631A46FB6813601BE1FF
:10598000FA78796813461B019B1A9B000B444D3330
:105990001B78032B40F08180FA78796813461B014D
:1059A0009B1A9B000B444D3302221A70FA787968D7
:1059B00013461B019B1A9B000B441B331B78012BC6
:1059C00040F0FA80FA78796813461B019B1A9B0015
:1059D0000B444C3302221A70FB785A013B69134482
:1059E00003F5A0635B68FA7851013A690A4402F54D
:1059F000A06243F480335360FB785A013B6913443F
:105A000003F5A063DB68FA7851013A690A4402F5AC
:105A1000A06243F04003D360FB785A013B69134412
:105A200003F5A063DB68FA7851013A690A4402F58C
:105A3000A06223F02003D360FA78796813461B0133
:105A40009B1A9B000B4426331B78002B0BD0FA7853
:105A5000796813461B019B1A9B000B4426331B7865
:105A6000022B40F0A980FB785A013B69134403F5EF
:105A7000A0631B68FB60FB6823F08043FB60FB684E
:105A800043F00043FB60FB785A013B69134403F584
:105A9000A0631A46FB6813608EE0FA7879681346B3
:105AA0001B019B1A9B000B444D331B78042B43D1E5
:105AB000FA78796813461B019B1A9B000B444D33FF
:105AC00002221A70FA78796813461B019B1A9B0010
:105AD0000B444C3302221A70FA78796813461B0182
