:020000040800F2
:1000000000000220793A0008912F0008992F00087B
:10001000A12F0008A92F0008B12F00080000000040
:10002000000000000000000000000000B92F0008E0
:10003000C72F000800000000D52F0008E32F00089C
:10004000C93A0008C93A0008C93A0008C93A000884
:10005000C93A0008C93A0008EF2F0008FD2F000830
:100060000B30000819300008C93A0008C93A0008E6
:10007000C93A000829300008C93A00083D30000894
:10008000C93A0008C93A0008C93A0008C93A000844
:1000900051300008C93A0008C93A0008C93A0008B6
:1000A000C93A0008C93A0008C93A0008C93A000824
:1000B000C93A0008C93A0008C93A0008C93A000814
:1000C000C93A0008C93A0008C93A0008C93A000804
:1000D000C93A0008C93A0008C93A00086530000862
:1000E000C93A0008C93A0008C93A0008C93A0008E4
:1000F000C93A0008C93A0008C93A0008C93A0008D4
:10010000C93A000879300008C93A0008C93A00081D
:100110008D300008C93A0008A1300008B530000849
:10012000C9300008C93A0008DD300008F130000885
:10013000C93A00080000000000000000C93A0008A9
:10014000C93A0008C93A0008C93A00080531000850
:10015000C93A000819310008C93A0008C93A00082C
:10016000C93A0008C93A0008C93A0008C93A000863
:10017000C93A0008C93A0008000000000000000069
:08018000C93A0008C93A000861
:1001900010B5054C237833B9044B13B10448AFF3C1
:1001A00000800123237010BD0C020020000000001D
:1001B0007872010808B5034B1BB103490348AFF33C
:1001C000008008BD000000001002002078720108C5
:1001D00001F0FF01102A2BDB10F0070F08D010F8F8
:1001E000013B013A8B422DD010F0070F42B3F6D1FC
:1001F000F0B441EA012141EA014122F007047FF015
:1002000000070023F0E80256083C85EA010586EA6B
:10021000010685FA47F5A3FA87F586FA47F6A5FAA7
:1002200087F68EB9EED1F0BC01F0FF0102F00702B3
:1002300032B110F8013B013A83EA010313B1F8D15E
:100240000020704701387047002D06BF354603383F
:10025000073815F0010F07D1013015F4807F02BF78
:10026000013015F4C03F0130F0BC0138704700BFC9
:10027000034613F8012B002AFBD1181A01387047E6
:1002800081F0004102E000BF83F0004330B54FEA47
:1002900041044FEA430594EA050F08BF90EA020FB4
:1002A0001FBF54EA000C55EA020C7FEA645C7FEA47
:1002B000655C00F0E2804FEA5454D4EB5555B8BF6A
:1002C0006D420CDD2C4480EA020281EA030382EADB
:1002D000000083EA010180EA020281EA0303362D6D
:1002E00088BF30BD11F0004F4FEA01314FF4801C40
:1002F0004CEA113102D0404261EB410113F0004F52
:100300004FEA03334CEA133302D0524263EB430308
:1003100094EA050F00F0A780A4F10104D5F1200EA6
:100320000DDB02FA0EFC22FA05F2801841F1000101
:1003300003FA0EF2801843FA05F359410EE0A5F1D5
:1003400020050EF1200E012A03FA0EFC28BF4CF006
:10035000020C43FA05F3C01851EBE37101F00045BC
:1003600007D54FF0000EDCF1000C7EEB00006EEBC9
:100370000101B1F5801F1BD3B1F5001F0CD3490853
:100380005FEA30004FEA3C0C04F101044FEA4452AA
:1003900012F5800F80F09A80BCF1004F08BF5FEA31
:1003A000500C50F1000041EB045141EA050130BD11
:1003B0005FEA4C0C404141EB0101013C28BFB1F523
:1003C000801FE9D291F0000F04BF01460020B1FA6E
:1003D00081F308BF2033A3F10B03B3F120020CDA41
:1003E0000C3208DD02F1140CC2F10C0201FA0CF01F
:1003F00021FA02F10CE002F11402D8BFC2F1200C84
:1004000001FA02F120FA0CFCDCBF41EA0C01904039
:10041000E41AA2BF01EB0451294330BD6FEA040482
:100420001F3C1CDA0C340EDC04F11404C4F120026D
:1004300020FA04F001FA02F340EA030021FA04F37F
:1004400045EA030130BDC4F10C04C4F1200220FAD6
:1004500002F001FA04F340EA0300294630BD21FA14
:1004600004F0294630BD94F0000F83F4801306BFDA
:1004700081F480110134013D4EE77FEA645C18BFCE
:100480007FEA655C29D094EA050F08BF90EA020F65
:1004900005D054EA000C04BF1946104630BD91EA5D
:1004A000030F1EBF0021002030BD5FEA545C05D160
:1004B0004000494128BF41F0004130BD14F580049F
:1004C0003CBF01F5801130BD01F0004545F0FE4113
:1004D00041F470014FF0000030BD7FEA645C1ABF48
:1004E000194610467FEA655C1CBF0B46024650EA7F
:1004F000013406BF52EA033591EA030F41F40021AB
:1005000030BD00BF90F0000F04BF0021704730B530
:100510004FF4806404F132044FF000054FF0000105
:1005200050E700BF90F0000F04BF0021704730B5C6
:100530004FF4806404F1320410F0004548BF40429B
:100540004FF000013EE700BF42004FEAE2014FEAF0
:1005500031014FEA02701FBF12F07F4393F07F4FCB
:1005600081F06051704732F07F4208BF704793F0CE
:100570007F4F04BF41F40021704730B54FF46074E1
:1005800001F0004521F000411CE700BF50EA0102E4
:1005900008BF704730B54FF000050AE050EA01028D
:1005A00008BF704730B511F0004502D5404261EBFD
:1005B00041014FF4806404F132045FEA915C3FF43E
:1005C000D8AE4FF003025FEADC0C18BF03325FEADB
:1005D000DC0C18BF033202EBDC02C2F1200300FA8C
:1005E00003FC20FA02F001FA03FE40EA0E0021FAB1
:1005F00002F11444BDE600BF70B54FF0FF0C4CF49F
:10060000E06C1CEA11541DBF1CEA135594EA0C0F50
:1006100095EA0C0F00F0DEF82C4481EA030621EA8B
:100620004C5123EA4C5350EA013518BF52EA0335C6
:1006300041F4801143F4801338D0A0FB02CE4FF078
:100640000005E1FB02E506F00042E0FB03E54FF0A8
:100650000006E1FB03569CF0000F18BF4EF0010EA0
:10066000A4F1FF04B6F5007F64F5407404D25FEA9C
:100670004E0E6D4146EB060642EAC62141EA55514F
:100680004FEAC52040EA5E504FEACE2EB4F1FD0C91
:1006900088BFBCF5E06F1ED8BEF1004F08BF5FEA0F
:1006A000500E50F1000041EB045170BD06F00046C1
:1006B00046EA010140EA020081EA0301B4EB5C046E
:1006C000C2BFD4EB0C0541EA045170BD41F4801166
:1006D0004FF0000E013C00F3AB8014F1360FDEBF8B
:1006E000002001F0004170BDC4F10004203C35DA67
:1006F0000C341BDC04F11404C4F1200500FA05F3EA
:1007000020FA04F001FA05F240EA020001F000428A
:1007100021F0004110EBD37021FA04F642EB060100
:100720005EEA430E08BF20EAD37070BDC4F10C042A
:10073000C4F1200500FA04F320FA05F001FA04F2EE
:1007400040EA020001F0004110EBD37041F10001DA
:100750005EEA430E08BF20EAD37070BDC4F12005E5
:1007600000FA05F24EEA020E20FA04F301FA05F24D
:1007700043EA020321FA04F001F0004121FA04F2F5
:1007800020EA020000EBD3705EEA430E08BF20EAC5
:10079000D37070BD94F0000F0FD101F000464000FF
:1007A00041EB010111F4801F08BF013CF7D041EA81
:1007B000060195F0000F18BF704703F00046520085
:1007C00043EB030313F4801F08BF013DF7D043EA56
:1007D0000603704794EA0C0F0CEA135518BF95EA0C
:1007E0000C0F0CD050EA410618BF52EA4306D1D193
:1007F00081EA030101F000414FF0000070BD50EAB2
:10080000410606BF1046194652EA430619D094EA3B
:100810000C0F02D150EA013613D195EA0C0F05D125
:1008200052EA03361CBF104619460AD181EA030179
:1008300001F0004141F0FE4141F470014FF0000031
:1008400070BD41F0FE4141F4780170BD70B54FF0CC
:10085000FF0C4CF4E06C1CEA11541DBF1CEA13554C
:1008600094EA0C0F95EA0C0F00F0A7F8A4EB05042E
:1008700081EA030E52EA03354FEA013100F0888025
:100880004FEA03334FF0805545EA131343EA1263EE
:100890004FEA022245EA111545EA10654FEA0026A3
:1008A0000EF000419D4208BF964244F1FD0404F55C
:1008B000407402D25B084FEA3202B61A65EB0305B8
:1008C0005B084FEA32024FF480104FF4002CB6EB75
:1008D000020E75EB030E22BFB61A754640EA0C00F5
:1008E0005B084FEA3202B6EB020E75EB030E22BF35
:1008F000B61A754640EA5C005B084FEA3202B6EB76
:10090000020E75EB030E22BFB61A754640EA9C0034
:100910005B084FEA3202B6EB020E75EB030E22BF04
:10092000B61A754640EADC0055EA060E18D04FEAC2
:10093000051545EA16754FEA06164FEAC30343EA62
:1009400052734FEAC2025FEA1C1CC0D111F4801F2F
:100950000BD141EA00014FF000004FF0004CB6E728
:1009600011F4801F04BF01430020B4F1FD0C88BFC7
:10097000BCF5E06F3FF6AFAEB5EB030C04BFB6EBD2
:10098000020C5FEA500C50F1000041EB045170BDC5
:100990000EF0004E4EEA113114EB5C04C2BFD4EBF2
:1009A0000C0541EA045170BD41F480114FF0000E76
:1009B000013C90E645EA060E8DE60CEA135594EAF2
:1009C0000C0F08BF95EA0C0F3FF43BAF94EA0C0FF5
:1009D0000AD150EA01347FF434AF95EA0C0F7FF46A
:1009E00025AF104619462CE795EA0C0F06D152EABE
:1009F00003353FF4FDAE1046194622E750EA4106A2
:100A000018BF52EA43067FF4C5AE50EA41047FF4B2
:100A10000DAF52EA43057FF4EBAE12E74FF0FF3C17
:100A200006E000BF4FF0010C02E000BF4FF0010CE8
:100A30004DF804CD4FEA410C7FEA6C5C4FEA430C61
:100A400018BF7FEA6C5C1BD001B050EA410C0CBFB0
:100A500052EA430C91EA030F02BF90EA020F002012
:100A6000704710F1000F91EA030F58BF994208BF79
:100A700090422CBFD8176FEAE37040F00100704736
:100A80004FEA410C7FEA6C5C02D150EA013C07D18D
:100A90004FEA430C7FEA6C5CD6D152EA033CD3D0D8
:100AA0005DF8040B704700BF8446104662468C46D2
:100AB0001946634600E000BF01B5FFF7B7FF002805
:100AC00048BF10F1000F01BD4DF808EDFFF7F4FF2E
:100AD0000CBF012000205DF808FB00BF4DF808EDB9
:100AE000FFF7EAFF34BF012000205DF808FB00BFDC
:100AF0004DF808EDFFF7E0FF94BF012000205DF8FE
:100B000008FB00BF4DF808EDFFF7CEFF94BF0120B2
:100B100000205DF808FB00BF4DF808EDFFF7C4FFAB
:100B200034BF012000205DF808FB00BF4FEA410CF4
:100B30007FEA6C5C02D150EA013C0AD14FEA430CD7
:100B40007FEA6C5C02D152EA033C02D14FF0000014
:100B500070474FF0010070474FEA410212F5001252
:100B600015D211D56FF47873B3EB625212D94FEAF4
:100B7000C12343F0004343EA505311F0004F23FADE
:100B800002F018BF404270474FF00000704750EA33
:100B9000013005D111F0004008BF6FF000407047F0
:100BA0004FF00000704700BF4A0011D212F500124A
:100BB00011D20DD56FF47873B3EB62520ED44FEAB5
:100BC000C12343F0004343EA505323FA02F0704735
:100BD0004FF00000704750EA013002D14FF0FF3073
:100BE00070474FF0000070474FEA4102B2F1E04316
:100BF00024BFB3F5001CDCF1FE5C0DD901F0004C04
:100C00004FEAC0024CEA5070B2F1004F40EB830053
:100C100008BF20F00100704711F0804F21D113F17F
:100C20003872BCBF01F00040704741F480114FEAB8
:100C30005252C2F11802C2F1200C10FA0CF320FA41
:100C400002F018BF40F001004FEAC1234FEAD3235E
:100C500003FA0CFC40EA0C0023FA02F34FEA4303C8
:100C6000CCE77FEA625307D150EA01331EBF4FF051
:100C7000FE4040F44000704701F0004040F0FE406C
:100C800040F40000704700BF53B94AB9002908BFBB
:100C900000281CBF4FF0FF314FF0FF3000F0BEB90D
:100CA000ADF1080C6DE904CE00F03CF8DDF804E08D
:100CB000DDE9022304B0704738B500220023044662
:100CC0000D46FFF70BFF28B920462946BDE83840FE
:100CD00000F00AB8204605F1004100F005F8404256
:100CE00061EB410138BD00BFD0B50C4B0022064678
:100CF0000F46FFF781FCFFF757FF0446FFF702FCA2
:100D0000074B0022FFF778FC02460B463046394677
:100D1000FFF7BAFAFFF748FF2146D0BD0000F03DCB
:100D20000000F0412DE9F047089D8E4604468846B4
:100D3000002B4AD18A42174662D9B2FA82F64EB1E6
:100D4000C6F1200301FA06F820FA03F3B74043EA9C
:100D50000808B4404FEA174E1FFA87FCB8FBFEF1B3
:100D6000230C0EFB118843EA084301FB0CF29A4264
:100D700009D9FB1801F1FF3080F0EA809A4240F275
:100D8000E78002393B449A1AA3B2B2FBFEF00EFB95
:100D9000102243EA024300FB0CFC9C4509D9FB18D6
:100DA00000F1FF3280F0D6809C4540F2D3803B4476
:100DB000023840EA0140A3EB0C0300211DB1F340CF
:100DC0000022C5E90032BDE8F0878B4205D90DB19C
:100DD000C5E9000100210846F5E7B3FA83F10029CF
:100DE00046D1734502D3824200F20581841A6EEB2C
:100DF000030201209046002DE5D0C5E90048E2E756
:100E0000002A00F09080B2FA82F6002E40F0A48012
:100E10008A1A030C4FEA174E80B2BCB20121B2FB12
:100E2000FEFC0EFB1C2243EA024304FB0CF29A4236
:100E300007D9FB180CF1FF3802D29A4200F2E08089
:100E4000C4469B1AB3FBFEF20EFB123340EA034387
:100E500002FB04F49C4207D9FB1802F1FF3002D2D6
:100E60009C4200F2CA8002461B1B42EA0C40A5E7E6
:100E7000C1F120068B4022FA06F71F430EFA01F457
:100E800020FA06F32EFA06FE4FEA1749234300FA2A
:100E900001F81FFA87FCBEFBF9F01C0C09FB10EEF1
:100EA00044EA0E4400FB0CFEA64502FA01F209D901
:100EB0003C1900F1FF3A80F09C80A64540F29980F1
:100EC00002383C44A4EB0E041FFA83FEB4FBF9F392
:100ED00009FB13444EEA044403FB0CFCA44508D967
:100EE0003C1903F1FF3E80F08280A4457FD9023B8C
:100EF0003C4443EA0040A4EB0C04A0FB02EC644534
:100F00007346E14662D35FD05DB1B8EB030264EB98
:100F1000090404FA06F622FA01F31E43CC40C5E99F
:100F2000006400214FE7B1FBF2FC010C41EA0E41E5
:100F300080B240EA01423B4638463C46B846BE468F
:100F40002026B1FBF7F1A2EB080241EA0C4166E76B
:100F5000014618E710462CE7C6F120022EFA02F3EC
:100F6000B740B14020FA02F24FEA174E0A43B3FBF2
:100F7000FEF8BCB20EFB1833110C41EA034108FB2A
:100F800004F9B04089454FEA104380B23ED9791840
:100F900008F1FF3C01D289451FD8A1EB0901B1FB43
:100FA000FEF909FB04F80EFB191192B242EA014264
:100FB000424529D2BA1809F1FF31C4D24245C2D202
:100FC000A9F102013A44BEE7F0459DD2BEEB02030F
:100FD0006CEB070C0138E14696E7A7EB0909494499
:100FE000A8F1020CB1FBFEF909FB04F8DBE773463C
:100FF0007FE7504666E70846FDE63B44023A33E7A2
:10100000ACF1020C3B441CE749469CE7A1EB09010B
:10101000C446B1FBFEF909FB04F8C4E7704700BF02
:1010200080B582B000AF03460A46FB711346BB7120
:10103000344808F04FFE344B344A1A60324B344A7D
:101040005A60314B00221A72BB79012B06D92E4B04
:101050001B7A43F00803DAB22B4B1A722A4ABB7987
:10106000D372322002F0A4FD00224FF4004129483F
:1010700004F02CFB00224FF48041264804F026FBAC
:10108000032000F039F9042002F092FD032000F063
:1010900033F9642000F0D4F8032000F02DF99620F5
:1010A00000F0CEF8022000F027F9642000F0C8F824
:1010B000154B1B7A43F02003DBB2184600F0A2F870
:1010C000114B00225A72104B5B7A43F00803DBB2DB
:1010D000184600F097F800F01FF8032002F068FDB2
:1010E000094B02229A72084B9B7A43F00403DBB24D
:1010F000184600F087F800F045F800BF0837BD46F5
:1011000080BD00BF980F00202802002000000020B2
:1011100010000020000C024080B500AF012000F05C
:1011200071F8022002F044FD00BF80BD80B584B09C
:1011300000AF03460A46FB711346BB710F4BFB60C1
:101140000F4BDB7ABA799A4203D90D4BDB7A013B1C
:10115000BB71BB7910333B4413F8042CFB79134467
:10116000DBB25BB263F07F035BB2DBB2184600F028
:1011700049F800BF1037BD4680BD00BF0040145481
:101180002802002080B500AF084B5B7A43F00403CF
:10119000DAB2064B5A72054B5B7A43F00803DBB2B6
:1011A000184600F02FF800BF80BD00BF28020020C5
:1011B00080B582B000AF786006E07B685A1C7A6028
:1011C0001B78184600F02CF87B681B78002BF4D1B4
:1011D00000BF00BF0837BD4680BD80B582B000AFFC
:1011E00003463A60FB710B46BB71BA79FB79114635
:1011F0001846FFF79BFF3868FFF7DAFF00BF083794
:10120000BD4680BD80B582B000AF0346FB71FB795F
:101210000021184600F02EF800BF0837BD4680BDFB
:1012200080B582B000AF0346FB71FB7901211846FF
:1012300000F020F8012318460837BD4680BD0000A5
:1012400080B483B000AF0346FB80094B1B680022CB
:101250005A6200BF064B1B685A6AFB889A42F9D350
:1012600000BF00BF0C37BD465DF8047B704700BF70
:10127000980F002080B582B000AF03460A46FB718C
:101280001346BB71BB791A464FF40041084804F07D
:101290001DFAFB791B09DBB2184600F02DF8FB792B
:1012A000184600F029F800BF0837BD4680BD00BFD2
:1012B000000C024080B500AF00224FF480410D4881
:1012C00004F004FA0120FFF7BBFF01224FF4804134
:1012D000084804F0FBF90120FFF7B2FF00224FF4A9
:1012E0008041044804F0F2F93220FFF7A9FF00BF63
:1012F00080BD00BF000C024080B584B000AF034643
:10130000FB710023FB7319E0114B1A68FB7B9B00F8
:10131000134418680E4B5A68FB7B5B001344198812
:10132000FA79FB7B42FA03F3DBB203F00103DBB291
:101330001A4604F0CBF9FB7B0133FB73FB7B032BD9
:10134000E2D9FFF7B7FF00BF1037BD4680BD00BF31
:101350002802002080B584B000AF3B4600221A600E
:101360005A609A60DA602F4B2F4A1A602D4B4FF467
:1013700080325A602B4B00229A602A4B01221A615C
:10138000284B01221A76274B002283F82020254B78
:101390000022DA62234B254A9A62224B0022DA604D
:1013A000204B0322DA611F4B012283F830201D4BB2
:1013B00001225A611B4802F01FFC0346002B01D09A
:1013C00001F020FC02233B6001237B600423BB600F
:1013D0003B461946134802F053FC0346002B01D04C
:1013E00001F010FC03233B6002237B603B4619465F
:1013F0000C4802F045FC0346002B01D001F002FC32
:1014000004233B6003237B603B461946054802F0FA
:1014100037FC0346002B01D001F0F4FB00BF10376E
:10142000BD4680BD34020020002001400100000FB5
:1014300080B584B000AF3B4600221A605A609A60C3
:10144000DA60214B214A1A601F4B4FF480325A60F8
:101450001D4B00229A601C4B00221A611A4B01227C
:101460001A76194B002283F82020174B0022DA62EB
:10147000154B174A9A62144B0022DA60124B012274
:10148000DA61114B012283F830200F4B01225A619F
:101490000D4802F0B1FB0346002B01D001F0B2FB76
:1014A0000E233B6001237B600423BB603B4619464F
:1014B000054802F0E5FB0346002B01D001F0A2FB3A
:1014C00000BF1037BD4680BD7C02002000210140D6
:1014D0000100000F80B58CB000AF786007F11C03ED
:1014E00000221A605A609A60DA601A617B681B6891
:1014F0005E4A934258D10023BB615D4B5B6C5C4AF2
:1015000043F4807353645A4B5B6C03F48073BB6188
:10151000BB6900237B61564B1B6B554A43F00103AB
:101520001363534B1B6B03F001037B617B691C232B
:10153000FB6103233B6200237B6207F11C03194616
:101540004C4803F027FF4C4B4C4A1A604A4B002290
:101550005A60494B00229A60474B0022DA60464BA2
:101560004FF480621A61444B4FF400625A61424B5F
:101570004FF400529A61404B4FF48072DA613E4B57
:1015800000221A623C4B00225A623B4803F0F4FAF4
:101590000346002B01D001F035FB7B68364A9A6385
:1015A000354A7B6893635CE07B681B68344A9342EE
:1015B00057D100233B612E4B5B6C2D4A43F40073E3
:1015C00053642B4B5B6C03F400733B613B6900235A
:1015D000FB60274B1B6B264A43F004031363244B29
:1015E0001B6B03F00403FB60FB681023FB61032308
:1015F0003B6200237B6207F11C031946214803F07C
:10160000C9FE214B214A1A601F4B4FF000725A60ED
:101610001D4B00229A601C4B0022DA601A4B0022FC
:101620001A61194B4FF400625A61174B4FF4005284
:101630009A61154B4FF48072DA61134B00221A62E3
:10164000114B00225A62104803F096FA0346002B11
:1016500001D001F0D7FA7B680B4A9A630A4A7B688B
:10166000936300BF3037BD4680BD00BF00200140FE
:101670000038024000000240C40200201064024012
:101680000021014000080240240300204064024081
:1016900080B584B000AF78600023FB60786811F0FB
:1016A000ADF80346FB60FB6818461037BD4680BDA9
:1016B00080B582B000AF78607B68002B0BD07B6870
:1016C0001B68002B07D07B681B68184611F09EF83A
:1016D0007B6800221A6000BF0837BD4680BD80B518
:1016E00082B000AF78607B6800221A847B68D86A79
:1016F0007B689B8B1A46002112F0EAFC00BF08377A
:10170000BD4680BD80B586B000AFF860B9601346B5
:10171000FB800023FB75FB68FA885A84FB681B6812
:10172000FA88B968184609F07BFB0346002B02D102
:101730000123FB7500E000BFFB7D18461837BD464E
:1017400080BD80B582B000AF78607B681B681846AA
:101750000AF018F80346212B07D07B681B6818464F
:101760000AF010F80346232B01D1012300E00023E7
:1017700018460837BD4680BD80B584B000AF78609C
:1017800039600023FB7302F007FAB860012000F013
:1017900075FB7B681B68184609F0F4FF0346222B93
:1017A00007D07B681B68184609F0ECFF0346202B26
:1017B00002D10123FB731CE07B681B68184609F00B
:1017C000E1FF0346E02B14D07B681B68184609F044
:1017D000D9FF0346A02B0CD002F0DEF90246BB680D
:1017E000D31A3A689A42D1D87B681B68184609F028
:1017F000ECFBFB7B18461037BD4680BD90B59BB017
:1018000000AF78607B681B8C002B00F0A9807B68A0
:10181000DB6ABB65002387F86730002387F86630F2
:1018200000233B6643E07B685A693B6EDB00134450
:101830001B687B65786DFEF71BFD03461A46796DC4
:10184000B86D12F04DFC0346002B2DD1786DFEF7DC
:101850000FFD0246BB6D13443B657B685A693B6EC6
:10186000DB0013445B6807F10C021146386D9847A2
:101870007B68986A7B689B8B194607F10C033A4A90
:1018800011F008FC7B689C6A7B689B6A1846FEF72F
:10189000EFFC03469BB21A4621467868FFF732FFF9
:1018A000012387F8673007E03B6E01333B667B68B6
:1018B0009B693A6E9A42B6D397F8673083F001037A
:1018C000DBB2002B24D00023FB651CE07B68DA68C8
:1018D000FB6DDB0013441B681946B86D12F025FC44
:1018E000F864FB6C002B0BD07B68DA68FB6DDB00C7
:1018F00013445B68F86C9847012387F8663007E06B
:10190000FB6D0133FB657B681B69FA6D9A42DDD381
:1019100097F8673083F00103DBB2002B1DD097F8F6
:10192000663083F00103DBB2002B16D07B68986A27
:101930007B689B8B19460D4B0B4A11F0ABFB7B6808
:101940009C6A7B689B6A1846FEF792FC03469BB232
:101950001A4621467868FFF7D5FE7868FFF7BFFE84
:1019600000BF6C37BD4690BD9072010898720108A7
:1019700080B584B000AF786039600023FB737B686A
:101980001B8C002B23D00023BB811BE07B68D86A13
:10199000BA897B680C3253F82230194612F0C5FB25
:1019A000B860BB68002B0AD03B68002B02D03B68B4
:1019B000BA681A60BB89DBB20133FB7307E0BB89ED
:1019C0000133BB817B68DB8BBA899A42DED3FB7B18
:1019D00018461037BD4680BD80B582B000AF786034
:1019E0007B681B68184609F0EBFE0346002B1ED0EF
:1019F0007B681B681B6800221A607B681B6818469E
:101A000009F04BFB7B6818687B68596A7B689B8B85
:101A10001A4609F081FA7B681B68DB6B1B681A6841
:101A20007B681B68DB6B1B6822F008021A607B680E
:101A30001B68184609F0A6FE0346222B26D07B68B9
:101A40001B68184609F09EFE0346232B1ED07B68B8
:101A50001B681B6800221A607B681B68184609F027
:101A60001CFB7B6818687B68596A7B689B8B1A46ED
:101A700009F052FA7B681B68DB6B1B681A687B688D
:101A80001B68DB6B1B6822F008021A6000BF083776
:101A9000BD4680BD80B586B000AFF860B9603B60E0
:101AA0001346FB800023FB75FB68002B74D0BB68DA
:101AB000002B71D044220021F86812F009FB3B682A
:101AC000002B06D0FB68043307223968184612F051
:101AD00019FBFB68BA681A60FB881846FFF7D8FD47
:101AE0000246FB685A62FB685B6A002B4DD0FB68BC
:101AF0005B6AFA880021184612F0EAFAFB88184659
:101B0000FFF7C6FD0246FB689A62FB689B6A002BE2
:101B10003DD0FB689B6AFA880021184612F0D8FA7B
:101B2000FB881846FFF7B4FD0246FB68DA62FB68E3
:101B3000DB6A002B2DD0FB68DB6AFA88002118468F
:101B400012F0C6FAFB68FA889A83FB681B681B6868
:101B500000221A60FB681868FB68596AFB689B8B57
:101B60001A4609F0D9F90346002B14D1FB681B680B
:101B7000DB6B1B681A68FB681B68DB6B1B6822F059
:101B800008021A600123FB7506E000BF04E000BFF5
:101B900002E000BF00E000BFFB7D83F00103DBB289
:101BA000002B16D0FB685B6A002B04D0FB68243343
:101BB0001846FFF77DFDFB68DB6A002B04D0FB684D
:101BC0002C331846FFF774FD44220021F86812F008
:101BD0007FFAFB7D18461837BD4680BD80B582B0C0
:101BE00000AF78607868FFF7F7FE7868FFF706FEC9
:101BF00000BF0837BD4680BD90B58DB000AFF8601E
:101C0000B9607A603B600023FB62F868FFF799FDDA
:101C10000346002B02D06FF00303C8E097F844306E
:101C2000052B02D96FF00403C1E0F868FFF7D4FE7A
:101C300007F148037B610023BB624BE07B691A1DFF
:101C40007A611B68BB61B869FEF712FB034601337A
:101C50001846FFF71DFD0146FB68BA6A0C3243F8CF
:101C60002210FB68BA6A0C3253F82230002B19D1CB
:101C7000002387F827300DE097F827300C339B00BE
:101C8000FA6813441846FFF713FD97F8273001331D
:101C900087F8273097F82730BA6A9A42ECDC6FF061
:101CA000020384E0FB68BA6A0C3253F82230B96947
:101CB000184612F0D9FAFB68BA6A0C3253F822407F
:101CC000B869FEF7D5FA0346234400221A70BB6AAE
:101CD0000133BB6297F84430BA6A9A42AEDBF868C7
:101CE000FFF7FDFCB868FEF7C3FA03469BB21A463D
:101CF000B968F868FFF706FD034683F00103DBB21D
:101D0000002B03D04FF0FF33FB620DE07968F868D9
:101D1000FFF732FD034683F00103DBB2002B03D053
:101D20006FF00103FB6200BF97F84430002B22D014
:101D3000FB6A002B1FD101F02FFF386297F8443067
:101D40009AB2FB68DA830EE0012000F097F8396858
:101D5000F868FFF70DFE0346FB77FB7F002B02D0F0
:101D6000FB7FFB6207E001F017FF02463B6AD31AD4
:101D70003A6C9A42E8D8FB680022DA83002387F89D
:101D800026300DE097F826300C339B00FA68134498
:101D90001846FFF78DFC97F82630013387F8263078
:101DA00097F8262097F844309A42EBD3FB6A1846FE
:101DB0003437BD4690BD80B582B000AF78600B4629
:101DC0007B807A887B689B8B19467B681B8CCB1A3F
:101DD0009A4205DD7B689A8B7B681B8CD31A7B80CB
:101DE0007B68DB6A7A68128C98187B685B6A7A88F1
:101DF000194612F041FA7B681A8C7B8813449AB218
:101E00007B681A847B6818687B68596A7B689B8B3F
:101E10001A4609F081F80346002B0CD17B681B6839
:101E2000DB6B1B681A687B681B68DB6B1B6822F026
:101E300008021A601EE07B681B681B6800221A609B
:101E40007B681B68184609F028F97B6818687B686E
:101E5000596A7B689B8B1A4609F05EF87B681B68A1
:101E6000DB6B1B681A687B681B68DB6B1B6822F0E6
:101E700008021A6000BF0837BD4680BD80B582B039
:101E800000AF7860786801F093FE00BF0837BD4668
:101E900080BD000080B500AF174B184A1A60164B82
:101EA00006225A60144B00229A60134B0022DA601B
:101EB000114B4FF420221A610F4B4FF480125A61DC
:101EC0000D4B00221A760C4B00225A760A4B002248
:101ED0009A76094B0022DA76074B00221A77064BD6
:101EE00000225A77044802F0E9F80346002B01D09B
:101EF00000F088FE00BF80BDA80300200064004001
:101F000080B58AB000AF786007F1140300221A6030
:101F10005A609A60DA601A617B681B68194A9342BA
:101F20002BD100233B61184B1B6C174A43F0007305
:101F30001364154B1B6C03F000733B613B6900237A
:101F4000FB60114B1B6B104A43F0080313630E4BED
:101F50001B6B03F00803FB60FB6803237B61022318
:101F6000BB610023FB6103233B6209237B6207F112
:101F700014031946054803F00DFA00BF2837BD4683
:101F800080BD00BF0064004000380240000C0240E9
:101F900080B582B000AF00237B60274B1B6B264AC5
:101FA00043F480031363244B1B6B03F480037B60B7
:101FB0007B6800233B60204B1B6B1F4A43F40013DC
:101FC00013631D4B1B6B03F400133B603B68002243
:101FD00000210D2002F099FD0D2002F0B2FD00223B
:101FE00000210F2002F091FD0F2002F0AAFD002237
:101FF0000021382002F089FD382002F0A2FD0022E5
:1020000000213A2002F081FD3A2002F09AFD0022E0
:1020100000213B2002F079FD3B2002F092FD0022DE
:102020000021452002F071FD452002F08AFD00BF2D
:102030000837BD4680BD00BF0038024080B584B07F
:1020400000AF786039600023FB737B68002B34D0CD
:102050003B68002B31D040F6F8020021786812F07E
:1020600037F87B683A681A60786800F02BF8034606
:1020700083F00103DBB2002B1AD10021786800F055
:1020800057F8034683F00103DBB2002B12D1012184
:10209000786800F0E9F9034683F00103DBB2002B16
:1020A0000AD17B68012283F8F4280123FB7304E042
:1020B00000BF02E000BF00E000BFFB7B1846103706
:1020C000BD4680BD80B588B004AF78600023FB7347
:1020D0007B68002B22D00023BB601BE07B68186864
:1020E000114B0293012301934FF47A730093002361
:1020F0004FF47A720D49FFF77FFD0346002B02DD96
:102100000123FB730BE04FF4FA70FFF7B7FEBB68D7
:102110000133BB60BB68022BE0DD00E000BFFB7B4E
:1021200018461037BD4680BDBC720108B472010864
:1021300080B588B004AF78600B46FB700023FB735A
:102140007B68002B1FD0FB78002B01D0124B00E0E6
:10215000124BBB607B681868114B029301230193FB
:102160004FF47A73009300234FF47A72B968FFF743
:1021700043FD0346002B08DD7B68FA7883F8F528D9
:102180000123FB7302E000BF00E000BFFB7B1846A9
:102190001037BD4680BD00BFC0720108C87201087B
:1021A000BC72010880B590B004AF78600B46FB703C
:1021B000002387F82F307B68002B24D0FB78032B7B
:1021C00021D8FB7807F10C00124A202110F062FFA1
:1021D0007B68186807F10C010F4B029301230193F0
:1021E0004FF4FA63009300234FF47A72FFF704FD73
:1021F0000346002B06DD7B68FA781A71012387F805
:102200002F3000E000BF97F82F3018463037BD461A
:1022100080BD00BFDC720108BC72010880B5CCB083
:1022200006AF07F58C73A3F58673186007F58C73FA
:10223000A3F58873196007F58C73A3F58A731A6088
:10224000002387F8173107F58C73A3F586731B6895
:10225000002B00F09E8007F58C73A3F588731B6834
:10226000002B00F0968007F58C73A3F586731B682E
:102270001B79012B15D007F58C73A3F586731B68AA
:102280001B79032B0DD007F58C73A3F58673012101
:102290001868FFF787FF034683F00103DBB2002BCA
:1022A00074D107F58C73A3F58A731B68002B1AD0C1
:1022B00007F58C73A3F58A731B681B78002B12D06B
:1022C00007F58C73A3F5887307F1100007F58C727E
:1022D000A2F58A72126800921B68314A4FF480712D
:1022E00010F0D8FE0BE007F58C73A3F5887307F1A7
:1022F00010001B682B4A4FF4807110F0CBFE07F5DD
:102300008C73A3F586731B68186807F11001264BC0
:102310000493264B0393264B02930323019343F626
:102320009823009300234FF47A72FFF765FCC7F8F7
:102330001001D7F81031002B2ADD07F58C73A3F5B7
:1023400086731B68581D07F58C73A3F588732022CC
:10235000196811F0D7FE07F58C73A3F586731B6817
:10236000002283F8252007F58C73A3F586731B687C
:10237000012283F8292007F58C73A3F5867318686A
:1023800000F018F8012387F8173102E000BF00E0E1
:1023900000BF97F81731184607F58C77BD4680BD0A
:1023A000EC7201080473010814730108207301081A
:1023B000BC72010880B58CB004AF78600023FB7755
:1023C0000023FB607B68002B3AD07B68186807F11C
:1023D0000C031F4A0292012201924FF4FA6200920A
:1023E0004FF47A721B49FFF707FC0346002B29DDE7
:1023F0007B681B68DB6ABB61BB69002B1DD016497B
:10240000B86911F092FE78617B69002B06D07B6879
:102410002A331A461149786910F0A0FE1049B869AC
:1024200011F083FE38613B69002B06D07B685D3379
:102430001A460C49386910F091FE0123FB7702E03F
:1024400000BF00E000BFFB7F18462037BD4680BDBF
:10245000BC720108E0730108EC730108FC73010809
:10246000147401082474010880B590B004AF78603A
:102470000B46FB70002387F82F307B68002B1DD0A4
:10248000FB7807F10C00124A202110F003FE7B6854
:10249000186807F10C010F4B0293012301934FF4CD
:1024A000FA63009300234FF47A72FFF7A5FB03460B
:1024B000002B05DD012387F82F3002E000BF00E08C
:1024C00000BF97F82F3018463037BD4680BD00BF9B
:1024D00024750108BC72010880B58CB000AF07F10B
:1024E0001C0300221A605A609A60DA601A610023A5
:1024F000BB616D4B1B6B6C4A43F0800313636A4BEB
:102500001B6B03F08003BB61BB6900237B61664BDF
:102510001B6B654A43F004031363634B1B6B03F0AF
:1025200004037B617B6900233B615F4B1B6B5E4A4D
:1025300043F0010313635C4B1B6B03F001033B612E
:102540003B690023FB60584B1B6B574A43F0020367
:102550001363554B1B6B03F00203FB60FB68002306
:10256000BB60514B1B6B504A43F0100313634E4B3F
:102570001B6B03F01003BB60BB6800237B604A4BFE
:102580001B6B494A43F008031363474B1B6B03F073
:1025900008037B607B6800223521444803F096F8ED
:1025A00000224FF45051424803F090F800224FF4BB
:1025B0007C41404803F08AF800224FF480713E4885
:1025C00003F084F80723FB614FF404133B620023FC
:1025D0007B6207F11C031946384802F0DBFE082332
:1025E000FB614FF488133B6200237B6207F11C03FD
:1025F0001946324802F0CEFE3523FB6101233B62CF
:1026000000237B620023BB6207F11C0319462748A5
:1026100002F0C0FE4FF45053FB6101233B620023E4
:102620007B620023BB6207F11C031946204802F0BD
:10263000B1FE4FF40063FB6100233B6200237B6229
:1026400007F11C0319461A4802F0A4FE4FF47C431C
:10265000FB6101233B6200237B620023BB6207F125
:102660001C031946134802F095FEC023FB610023AA
:102670003B6200237B6207F11C0319460F4802F0FE
:1026800089FE4FF48073FB6101233B6200237B6270
:102690000023BB6207F11C031946074802F07AFECB
:1026A00000BF3037BD4680BD003802400004024004
:1026B00000100240000C02400000024000080240EE
:1026C00080B500AF124B134A1A60114B124A5A6080
:1026D0000F4B00229A600E4B0022DA600C4B4FF435
:1026E00080421A610A4B00225A61094B00229A610A
:1026F000074B0022DA61064B00221A62044805F0FB
:1027000043F90346002B01D000F07CFA00BF80BDE6
:10271000D003002000540040801A060080B58AB023
:1027200000AF786007F1140300221A605A609A60C3
:10273000DA601A617B681B68194A93422BD1002327
:102740003B61184B1B6B174A43F002031363154B95
:102750001B6B03F002033B613B69C0237B611223C7
:10276000BB610023FB6103233B6204237B6207F10F
:10277000140319460C4802F00DFE0023FB60094BC0
:102780001B6C084A43F400131364064B1B6C03F4E0
:102790000013FB60FB6800BF2837BD4680BD00BF4B
:1027A00000540040003802400004024080B584B06C
:1027B00000AFF860B9607A607B689AB20A23B968A2
:1027C000034808F07DFA7B6818461037BD4680BD87
:1027D000B810002080B500AF01F078F900F0B8F82B
:1027E000FFF77AFEFFF7D4FB01F030F800F072FE3D
:1027F000FEF7B0FDFEF71CFE00F054FD00F0B8FE41
:1028000000F0ECFE00F0F0FD0BF096FD0FF026FA64
:1028100000F008FA00F016FBFFF752FFFFF73AFB53
:1028200000F0EAFF00F0FEF8384807F0BBFA042198
:102830001420FEF7F5FBFEF76FFC0122012134485E
:1028400002F044FF01220421314802F03FFF314BE6
:102850004FF4006230493148FFF71CF90346002B62
:1028600005D02F4A00210020FEF7B7FC04E02D4AD6
:1028700000210020FEF7B1FC28492B48FFF7DEFBC2
:102880000346002B05D0294A01210020FEF7A5FCB4
:1028900004E0274A01210020FEF79FFC4FF4FA7064
:1028A00001F086F9234A02210020FEF796FC224A15
:1028B00022491D48FFF7B2FC0346002B1AD0204ADC
:1028C00002210020FEF789FC4FF4FA7001F070F944
:1028D0001548FFF76FFD0346002B05D0194A032169
:1028E0000020FEF77AFC0AE0174A03210020FEF7D9
:1028F00074FC04E0154A02210020FEF76EFC0FF084
:10290000D3F90648FFF76AF9F9E700BFE00F0020A6
:102910000004024094760108701000202C0400206E
:102920009C760108B076010870040020C07601088A
:10293000D4760108E4760108F476010804770108EA
:10294000147701089A0400202477010834770108DD
:1029500080B594B000AF07F1200330220021184663
:1029600011F0B6FB07F10C0300221A605A609A605E
:10297000DA601A610023BB60284B1B6C274A43F0C6
:1029800080531364254B1B6C03F08053BB60BB6802
:1029900000237B60224B1B68214A43F48043136071
:1029A0001F4B1B6803F480437B607B6801233B6201
:1029B0004FF480337B620223BB634FF48003FB63DD
:1029C00006233B64A8237B640223BB640723FB64C8
:1029D00007F12003184605F01BF90346002B01D030
:1029E00000F010F90F23FB6002233B6100237B61A1
:1029F0004FF4A053BB614FF48053FB6107F10C030C
:102A00000521184605F07CFB0346002B01D000F0A1
:102A1000F9F800BF5037BD4680BD00BF0038024006
:102A20000070004080B500AF00220021062002F0B7
:102A30006CF8062002F085F800220021072002F041
:102A400064F8072002F07DF800220021082002F03F
:102A50005CF8082002F075F800220021272002F01F
:102A600054F8272002F06DF800220021362002F0F1
:102A70004CF8362002F065F800220021372002F0E1
:102A800044F8372002F05DF800220021092002F00E
:102A90003CF8092002F055F800220021142002F031
:102AA00034F8142002F04DF800BF80BD80B582B02C
:102AB00000AF0346FB80FB88012B07D1202115487E
:102AC00002F01DFE144B01221A701FE0FB88022B3E
:102AD00007D1124B01221A7020210E4802F00FFE7E
:102AE00014E0FB88042B07D10D4B01221A70202122
:102AF000084802F004FE09E0FB88082B06D1094BC8
:102B000001221A702021034802F0F9FD00BF0837A6
:102B1000BD4680BD0004024026040020270400209A
:102B2000280400202904002080B582B000AF78601E
:102B30007B681B68094A93420BD101220849094866
:102B400008F049F94FF47A7301220549054808F065
:102B5000B7F800BF0837BD4680BD00BF0048004041
:102B600024040020B810002080B483B000AF786047
:102B70007B681B68054A934202D1054B01221A70FB
:102B800000BF0C37BD465DF8047B70470010004065
:102B90002504002080B582B000AF78607B681B6898
:102BA000074A934208D1074B074A0021074801F022
:102BB00080FB074B01221A7000BF0837BD4680BD5D
:102BC00000640040A003002084030020A80300202C
:102BD0002A04002080B582B000AF78600B467B806D
:102BE0007B68064A934204D17B8819460448FFF764
:102BF000E2F800BF0837BD4680BD00BF701000205E
:102C00002C04002080B500AF72B600BF102104482C
:102C100002F075FD4FF47A7000F0CAFF00BFF5E7CF
:102C20000004024080B400AF0C4B0D4A1A600B4BFD
:102C300000225A60094B00229A60084B0022DA6099
:102C4000064B00221A61054B00225A61034B0022F9
:102C50009A6100BFBD465DF8047B7047680D002097
:102C6000002C014080B58AB000AF786007F11403F2
:102C700000221A605A609A60DA601A617B681B68E9
:102C8000684A934240F0C98000233B61664B5B6C0D
:102C9000654A43F400635364634B5B6C03F4006365
:102CA0003B613B690023FB605F4B1B6B5E4A43F05B
:102CB000040313635C4B1B6B03F00403FB60FB68B2
:102CC0000023BB60584B1B6B574A43F00803136348
:102CD000554B1B6B03F00803BB60BB684FF4F85304
:102CE0007B610223BB610023FB6103233B620C2356
:102CF0007B6207F1140319464C4802F04BFB042396
:102D00007B610223BB610023FB6103233B620C2335
:102D10007B6207F114031946454802F03BFB454B23
:102D2000454A1A60434B4FF000625A60414B002203
:102D30009A60404B0022DA603E4B4FF480621A6189
:102D40003C4B4FF480525A613A4B4FF480429A61A7
:102D5000384B2022DA61374B00221A62354B0422AD
:102D60005A62344B03229A62324B4FF40002DA6209
:102D7000304B4FF400121A632E4801F0FDFE03465B
:102D8000002B01D0FFF73EFF7B682A4A1A64294ACC
:102D90007B689363294B2A4A1A60284B4FF00062E4
:102DA0005A60264B40229A60244B0022DA60234B63
:102DB0004FF480621A61214B4FF480525A611F4BCD
:102DC0004FF480429A611D4B2022DA611B4B002296
:102DD0001A621A4B04225A62184B03229A62174B4A
:102DE0004FF40002DA62154B4FF400121A631348D5
:102DF00001F0C2FE0346002B01D0FFF703FF7B6802
:102E00000E4ADA630D4A7B68936300220021312069
:102E100001F07BFE312001F094FE00BF2837BD4653
:102E200080BD00BF002C0140003802400008024075
:102E3000000C0240EC0D0020586402404C0E0020B3
:102E4000A064024080B500AF174B184A1A60164BB9
:102E50004FF482725A60144B00229A60124B002287
:102E6000DA60114B00221A610F4B00225A610E4B9F
:102E70004FF400729A610C4B1822DA610A4B00225F
:102E80001A62094B00225A62074B00229A62064BD3
:102E90000A22DA62044806F045FE0346002B01D000
:102EA000FFF7B0FE00BF80BDAC0E00200030014037
:102EB00080B58AB000AF786007F1140300221A6071
:102EC0005A609A60DA601A617B681B68194A9342FB
:102ED0002BD100233B61184B5B6C174A43F48053A2
:102EE0005364154B5B6C03F480533B613B690023D7
:102EF000FB60114B1B6B104A43F0010313630E4B35
:102F00001B6B03F00103FB60FB68E0237B61022382
:102F1000BB610023FB6103233B6205237B6207F156
:102F200014031946054802F035FA00BF2837BD469C
:102F300080BD00BF00300140003802400000024068
:102F400080B483B000AF00237B60104B5B6C0F4AF2
:102F500043F4804353640D4B5B6C03F480437B600C
:102F60007B6800233B60094B1B6C084A43F080538D
:102F70001364064B1B6C03F080533B603B6800BF3F
:102F80000C37BD465DF8047B704700BF0038024037
:102F900080B400AF00BFFDE780B400AF00BFFDE725
:102FA00080B400AF00BFFDE780B400AF00BFFDE715
:102FB00080B400AF00BFFDE780B400AF00BFBD46E6
:102FC0005DF8047B704780B400AF00BFBD465DF87C
:102FD000047B704780B400AF00BFBD465DF8047B42
:102FE000704780B500AF00F0C3FD00BF80BD80B565
:102FF00000AF012002F09EFB00BF80BD80B500AF96
:10300000022002F097FB00BF80BD80B500AF042016
:1030100002F090FB00BF80BD80B500AF082002F039
:1030200089FB00BF80BD000080B500AF024801F001
:103030003BFF00BF80BD00BF0011002080B500AF86
:10304000024801F031FF00BF80BD00BF60110020C9
:1030500080B500AF024801F04EFA00BF80BD00BF4E
:10306000A803002080B500AF024808F0B9F800BFFF
:1030700080BD00BFB810002080B500AF024805F049
:103080008FFC00BF80BD00BF680D002080B500AF81
:10309000024808F0A5F800BF80BD00BF70100020F6
:1030A00080B500AF024806F046FF00BF80BD00BFFC
:1030B000E00F002080B500AF024806F03CFF00BFE3
:1030C00080BD00BF2810002080B500AF024801F08D
:1030D000EBFE00BF80BD00BFC402002080B500AF82
:1030E000024801F0E1FE00BF80BD00BF24030020C4
:1030F00080B500AF024801F0D7FE00BF80BD00BF21
:10310000EC0D002080B500AF024802F0E9FD00BFE1
:1031100080BD00BFC815002080B500AF024801F097
:10312000C3FE00BF80BD00BF4C0E002080B400AFC6
:1031300001231846BD465DF8047B704780B582B018
:1031400000AF7860396011F04DF8034616221A601E
:103150004FF0FF3318460837BD4680BD80B582B0BA
:1031600000AF78604FF0FF317868FFF7E7FF00BFEE
:10317000FDE780B586B000AFF860B9607A600023E3
:103180007B610AE0AFF300800146BB685A1CBA605D
:10319000CAB21A707B6901337B617A697B689A4293
:1031A000F0DB7B6818461837BD4680BD80B483B01D
:1031B00000AF78604FF0FF3318460C37BD465DF81E
:1031C000047B704780B483B000AF786039603B689F
:1031D0004FF400525A60002318460C37BD465DF884
:1031E000047B704780B483B000AF78600123184639
:1031F0000C37BD465DF8047B704780B485B000AFE6
:10320000F860B9607A60002318461437BD465DF84F
:10321000047B704780B586B000AF7860144A154BC8
:10322000D31A7B617B693B61134B1B68002B02D176
:10323000114B124A1A60104B1A687B6813443A69A2
:103240009A4207D210F0CEFF03460C221A604FF0CC
:10325000FF3309E0084B1B68FB60074B1A687B686B
:103260001344054A1360FB6818461837BD4680BDF5
:103270000000022000040000040F0020F81A0020C3
:1032800080B400AF064BD3F88830054A43F470038E
:10329000C2F8883000BFBD465DF8047B704700BFB0
:1032A00000ED00E080B596B000AF07F148030022C2
:1032B0001A605A609A60DA6007F1400300221A60CF
:1032C0005A6007F1240300221A605A609A60DA609B
:1032D0001A615A619A613B1D20220021184610F0A4
:1032E000F7FE3F4B3F4A1A603D4BA7225A603C4BCA
:1032F00000229A603A4B40F2E732DA60384B002203
:103300001A61374B00225A61354B00229A613448CA
:1033100006F091FC0346002B01D0FFF773FC4FF43D
:103320008053BB6407F1480319462D4806F0B6FFE9
:103330000346002B01D0FFF765FC294806F0A2FDEB
:103340000346002B01D0FFF75DFC00233B64002304
:103350007B6407F140031946214807F07FFB0346D1
:10336000002B01D0FFF74EFC60237B624FF4FA7311
:10337000BB620023FB6200233B6300237B630023CB
:10338000BB630023FB6307F12403002219461448A2
:1033900006F0C2FE0346002B01D0FFF733FC0023EA
:1033A0007B600023BB600023FB6000233B610023A4
:1033B0007B614FF40053BB6100233B623B1D194608
:1033C000074807F0C7FB0346002B01D0FFF71AFCA4
:1033D000034800F0B1F900BF5837BD4680BD00BFBB
:1033E000080F00200000014080B58EB000AF07F14B
:1033F000280300221A605A609A60DA6007F12003FD
:1034000000221A605A603B1D00221A605A609A60BE
:10341000DA601A615A619A612D4B4FF080421A604E
:103420002B4BA7225A602A4B00229A60284B42F26B
:103430000F72DA60264B00221A61254B00229A6136
:10344000234806F0F8FB0346002B01D0FFF7DAFB18
:103450004FF48053BB6207F1280319461C4806F05D
:103460001DFF0346002B01D0FFF7CCFB184806F0E8
:1034700009FD0346002B01D0FFF7C4FB00233B628C
:1034800000237B6207F120031946114807F0E6FA92
:103490000346002B01D0FFF7B5FB60237B6064235C
:1034A000BB600023FB6000237B613B1D04221946A7
:1034B000074806F031FE0346002B01D0FFF7A2FBC0
:1034C000034800F039F900BF3837BD4680BD00BF62
:1034D000500F002080B586B000AF07F1080300222E
:1034E0001A605A609A60DA603B4600221A605A609D
:1034F0001D4B1E4A1A601C4B53225A601A4B002265
:103500009A60194B4FF6FF72DA60174B00221A616E
:10351000154B00229A61144806F08DFB0346002BE0
:1035200001D0FFF76FFB4FF48053BB6007F1080336
:1035300019460D4806F0B2FE0346002B01D0FFF7F6
:1035400061FB00233B6000237B603B461946064835
:1035500007F084FA0346002B01D0FFF753FB00BFAE
:103560001837BD4680BD00BF980F002000080040FE
:1035700080B582B000AF3B4600221A605A60154BFE
:10358000154A1A60134B42F2CF025A60114B0022C7
:103590009A60104B42F20F72DA600E4B00229A6171
:1035A0000C4806F048FB0346002B01D0FFF72AFB2E
:1035B00000233B6000237B603B461946054807F02B
:1035C0004DFA0346002B01D0FFF71CFB00BF083764
:1035D000BD4680BDE00F00200010004080B582B0E5
:1035E00000AF3B4600221A605A60154B154A1A601C
:1035F000134B41F267025A60114B00229A60104B44
:1036000042F20F72DA600E4B00229A610C4806F00B
:1036100012FB0346002B01D0FFF7F4FA00233B60B6
:1036200000237B603B461946054807F017FA03461E
:10363000002B01D0FFF7E6FA00BF0837BD4680BD7A
:10364000281000200014004080B489B000AF7860DA
:103650007B681B68334A93420ED10023FB61324BD7
:103660005B6C314A43F0010353642F4B5B6C03F0F6
:103670000103FB61FB694EE07B681B68B3F1804F7F
:103680000ED10023BB61284B1B6C274A43F001037A
:103690001364254B1B6C03F00103BB61BB693AE06B
:1036A0007B681B68214A93420ED100237B611E4B2D
:1036B0001B6C1D4A43F0040313641B4B1B6C03F08B
:1036C00004037B617B6926E07B681B68184A934290
:1036D0000ED100233B61144B1B6C134A43F01003C3
:1036E0001364114B1B6C03F010033B613B6912E048
:1036F0007B681B680F4A93420DD10023FB600A4B85
:103700001B6C094A43F020031364074B1B6C03F046
:103710002003FB60FB6800BF2437BD465DF8047BD7
:10372000704700BF00000140003802400008004020
:10373000001000400014004080B58AB000AF7860EF
:1037400007F1140300221A605A609A60DA601A6165
:103750007B681B68244A93421FD100233B61234BA3
:103760001B6B224A43F010031363204B1B6B03F0C7
:1037700010033B613B694FF400737B610223BB6123
:103780000023FB6100233B6201237B6207F11403EA
:103790001946174801F0FEFD22E07B681B68B3F173
:1037A000804F1DD10023FB60104B1B6B0F4A43F071
:1037B000020313630D4B1B6B03F00203FB60FB68FA
:1037C00008237B610223BB610023FB6100233B6272
:1037D00001237B6207F114031946064801F0DAFD64
:1037E00000BF2837BD4680BD0000014000380240C0
:1037F000001002400004024080B500AF114B124A95
:103800001A60104B4FF461225A600E4B00229A60EE
:103810000C4B0022DA600B4B00221A61094B0C2280
:103820005A61084B00229A61064B0022DA61054872
:1038300007F0F6F90346002B01D0FFF7E3F900BFCC
:1038400080BD00BF70100020004C004080B500AF6C
:10385000114B124A1A60104B4FF4E1325A600E4B72
:1038600000229A600C4B0022DA600B4B00221A6196
:10387000094B0C225A61084B00229A61064B002228
:10388000DA61054807F0CCF90346002B01D0FFF7B9
:10389000B9F900BF80BD00BFB8100020004800404B
:1038A00080B58CB000AF786007F11C0300221A606D
:1038B0005A609A60DA601A617B681B68654A9342B5
:1038C00040F092800023BB61634B1B6C624A43F45F
:1038D00000231364604B1B6C03F40023BB61BB69C2
:1038E00000237B615C4B1B6B5B4A43F0010313635A
:1038F000594B1B6B03F001037B617B690323FB6165
:1039000002233B6200237B620323BB620823FB622A
:1039100007F11C031946514801F03CFD504B514A38
:103920001A604F4B4FF000625A604D4B00229A6074
:103930004B4B0022DA604A4B4FF480621A61484BCD
:1039400000225A61464B00229A61454B0022DA61FF
:10395000434B4FF400321A62414B00225A624048F6
:1039600001F00AF90346002B01D0FFF74BF97B6801
:103970003B4ADA633A4A7B6893633B4B3B4A1A60A3
:10398000394B4FF000625A60374B40229A60364BF9
:103990000022DA60344B4FF480621A61324B00220D
:1039A0005A61314B00229A612F4B0022DA612E4B73
:1039B00000221A622C4B00225A622B4801F0DCF8DC
:1039C0000346002B01D0FFF71DF97B68264A9A6356
:1039D000254A7B68936300220021342001F095F88A
:1039E000342001F0AEF831E07B681B68204A934236
:1039F0002CD100233B61184B1B6C174A43F48023E6
:103A00001364154B1B6C03F480233B613B6900235B
:103A1000FB60114B1B6B104A43F0020313630E4B08
:103A20001B6B03F00203FB60FB684FF44063FB6118
:103A300002233B6200237B620323BB620723FB62FA
:103A400007F11C0319460B4801F0A4FC00BF3037F6
:103A5000BD4680BD004C00400038024000000240DE
:103A600000110020406002406011002070600240A0
:103A70000048004000040240DFF834D0FFF700FCAB
:103A80000C480D490D4A002302E0D458C4500433B9
:103A9000C4188C42F9D30A4A0A4C002301E013608F
:103AA0000432A242FBD310F0A3FBFEF793FE704753
:103AB00000000220000000200C020020F07B010822
:103AC0000C020020F41A0020FEE7000080B500AFD1
:103AD0000E4B1B680D4A43F4007313600B4B1B68BD
:103AE0000A4A43F480631360084B1B68074A43F497
:103AF00080731360032000F0FDFF0F2000F008F832
:103B0000FFF71EFA0023184680BD00BF003C0240AC
:103B100080B582B000AF7860124B1A68124B1B78E8
:103B200019464FF47A73B3FBF1F3B2FBF3F3184683
:103B300001F015F80346002B01D001230EE07B684D
:103B40000F2B0AD8002279684FF0FF3000F0DDFF1C
:103B5000064A7B681360002300E0012318460837FB
:103B6000BD4680BD18000020200000201C00002061
:103B700080B400AF064B1B781A46064B1B681344F3
:103B8000044A136000BFBD465DF8047B704700BF68
:103B900020000020C011002080B400AF034B1B6840
:103BA0001846BD465DF8047B704700BFC011002079
:103BB00080B584B000AF7860FFF7EEFFB8607B6837
:103BC000FB60FB68B3F1FF3F05D00A4B1B781A4638
:103BD000FB681344FB6000BFFFF7DEFF0246BB68D3
:103BE000D31AFA689A42F7D800BF00BF1037BD4613
:103BF00080BD00BF2000002080B584B000AF786099
:103C00000023FB737B68002B01D1012333E07B6829
:103C10001B6C002B09D17868FDF75CFC7B680022E7
:103C20005A647B68002283F83C207B681B6C03F09D
:103C30001003002B18D17B681B6C23F4885323F0EE
:103C4000020343F002027B681A64786800F03AF9D4
:103C50007B6800225A647B681B6C23F0030343F0EB
:103C600001027B681A6401E00123FB737B68002278
:103C700083F83C20FB7B18461037BD4680BD000012
:103C800080B485B000AF786039600023BB607B688A
:103C900093F83C30012B01D1022305E17B6801221E
:103CA00083F83C203B681B68092B25D97B681B687F
:103CB000D9683B681B689BB21A4613465B001344E5
:103CC0001E3B072202FA03F3DA437B681B680A40B3
:103CD000DA607B681B68D9683B689A683B681B6838
:103CE0009BB2184603465B0003441E3B9A407B6828
:103CF0001B680A43DA6022E07B681B6819693B682D
:103D00001B689BB21A4613465B001344072202FA53
:103D100003F3DA437B681B680A401A617B681B68FF
:103D200019693B689A683B681B689BB21846034652
:103D30005B0003449A407B681B680A431A613B6836
:103D40005B68062B24D87B681B68596B3B685A68F4
:103D500013469B001344053B1F2202FA03F3DA4388
:103D60007B681B680A405A637B681B68596B3B6819
:103D70001B689BB218463B685A6813469B00134465
:103D8000053B00FA03F27B681B680A435A634CE068
:103D90003B685B680C2B24D87B681B68196B3B68FD
:103DA0005A6813469B001344233B1F2202FA03F375
:103DB000DA437B681B680A401A637B681B68196BCF
:103DC0003B681B689BB218463B685A6813469B00C9
:103DD0001344233B00FA03F27B681B680A431A630F
:103DE00023E07B681B68D96A3B685A6813469B00CE
:103DF0001344413B1F2202FA03F3DA437B681B683A
:103E00000A40DA627B681B68D96A3B681B689BB210
:103E100018463B685A6813469B001344413B00FA1E
:103E200003F27B681B680A43DA62224BFB607B6803
:103E30001B68214A934209D13B681B68122B05D1AC
:103E4000FB685B6843F48002FB685A607B681B6810
:103E5000194A934223D13B681B68102B03D03B685F
:103E60001B68112B1BD1FB685B6843F40002FB68E5
:103E70005A603B681B68102B11D1104B1B68104A0D
:103E8000A2FB03239A0C13469B0013445B00BB6008
:103E900002E0BB68013BBB60BB68002BF9D17B68CB
:103EA000002283F83C20002318461437BD465DF8F5
:103EB000047B7047002301400020014018000020CF
:103EC00083DE1B4380B485B000AF7860794BFB6024
:103ED000FB685B6823F44032FB685A60FB685A68F1
:103EE0007B685B681A43FB685A607B681B685A688A
:103EF0007B681B6822F480725A607B681B68596873
:103F00007B681B691A027B681B680A435A607B68DE
:103F10001B685A687B681B6822F040725A607B6895
:103F20001B6859687B689A687B681B680A435A60FB
:103F30007B681B689A687B681B6822F400629A6041
:103F40007B681B6899687B68DA687B681B680A4332
:103F50009A607B689B6A584A934222D07B681B68B0
:103F60009A687B681B6822F070629A607B681B68A5
:103F700099687B689A6A7B681B680A439A607B68C9
:103F80001B689A687B681B6822F040529A607B68C5
:103F90001B6899687B68DA6A7B681B680A439A60C9
:103FA0000FE07B681B689A687B681B6822F0706270
:103FB0009A607B681B689A687B681B6822F0405295
:103FC0009A607B681B689A687B681B6822F0020213
:103FD0009A607B681B6899687B681B7E5A007B68C7
:103FE0001B680A439A607B6893F82030002B1BD033
:103FF0007B681B685A687B681B6842F400625A60E1
:104000007B681B685A687B681B6822F460425A60B0
:104010007B681B6859687B685B6A013B5A037B6855
:104020001B680A435A6007E07B681B685A687B6814
:104030001B6822F400625A607B681B68DA6A7B683E
:104040001B6822F47002DA627B681B68D96A7B689D
:10405000DB69013B1A057B681B680A43DA627B68EF
:104060001B689A687B681B6822F400729A607B6800
:104070001B6899687B6893F830305A027B681B682C
:104080000A439A607B681B689A687B681B6822F405
:1040900080629A607B681B6899687B685B699A029A
:1040A0007B681B680A439A6000BF1437BD465DF801
:1040B000047B7047002301400100000F80B584B0ED
:1040C00000AF78607B68002B01D10123EDE07B68B5
:1040D00093F82030DBB2002B02D17868FDF710FF97
:1040E0007B681B681A687B681B6842F001021A60D3
:1040F000FFF752FDF86012E0FFF74EFD0246FB6845
:10410000D31A0A2B0BD97B685B6A43F400327B68B5
:104110005A627B68052283F820200123C5E07B6872
:104120001B685B6803F00103002BE5D07B681B680C
:104130001A687B681B6822F002021A60FFF72CFDE8
:10414000F86012E0FFF728FD0246FB68D31A0A2B3D
:104150000BD97B685B6A43F400327B685A627B68E8
:10416000052283F8202001239FE07B681B685B68A1
:1041700003F00203002BE5D17B681B7E012B08D1E5
:104180007B681B681A687B681B6842F080021A60B3
:1041900007E07B681B681A687B681B6822F0800256
:1041A0001A607B685B7E012B08D17B681B681A68EC
:1041B0007B681B6842F040021A6007E07B681B685E
:1041C0001A687B681B6822F040021A607B689B7E3D
:1041D000012B08D17B681B681A687B681B6842F05A
:1041E00020021A6007E07B681B681A687B681B68FE
:1041F00022F020021A607B68DB7E012B08D17B68ED
:104200001B681A687B681B6822F010021A6007E0BE
:104210007B681B681A687B681B6842F010021A6092
:104220007B681B7F012B08D17B681B681A687B6841
:104230001B6842F008021A6007E07B681B681A6876
:104240007B681B6822F008021A607B685B7F012B89
:1042500008D17B681B681A687B681B6842F00402FF
:104260001A6007E07B681B681A687B681B6822F08D
:1042700004021A607B689A687B68DB681A437B6873
:104280001B691A437B685B6942EA03017B685B68D0
:104290005A1E7B681B680A43DA617B6800225A62F7
:1042A0007B68012283F82020002318461037BD4682
:1042B00080BD80B487B000AFF860B9607A603B60C1
:1042C000FB6893F82030FB75FB7D012B03D0FB7D51
:1042D000022B40F00381BB68002B0ED1FB681B68EA
:1042E000DB6803F00303002B16D1FB685B6A43F421
:1042F0000012FB685A620123F7E0FB681B681B6928
:1043000003F00303002B07D1FB685B6A43F4001240
:10431000FB685A620123E8E0FB681A68BB681B333C
:104320001B0113441B6803F004027B689A607B68DE
:104330009B68002B0CD1FB681A68BB681B331B0100
:1043400013441B685B0DC3F30A027B681A600BE021
:10435000FB681A68BB681B331B0113441B68DB082E
:1043600023F060427B685A60FB681A68BB681B33A5
:104370001B0113441B6803F002027B68DA60FB68D0
:104380001A68BB681B331B01134404331B6803F01A
:104390000803002B03D07B6808221A610BE0FB683E
:1043A0001A68BB681B331B01134404331B6803F0FA
:1043B0000F027B681A61FB681A68BB681B331B011C
:1043C000134404331B681B0ADAB27B689A61FB68EA
:1043D0001A68BB681B331B01134404331B681B0C96
:1043E0009AB27B685A61FB681A68BB681B01134468
:1043F00003F5DC731B68DAB23B681A70FB681A6855
:10440000BB681B01134403F5DC731B681A0A3B6885
:104410000133D2B21A70FB681A68BB681B011344DF
:1044200003F5DC731B681A0C3B680233D2B21A70B6
:10443000FB681A68BB681B01134403F5DC731B6837
:104440001A0E3B680333D2B21A70FB681A68BB6855
:104450001B01134403F5DE731A683B680433D2B2C0
:104460001A70FB681A68BB681B01134403F5DE73FE
:104470001B681A0A3B680533D2B21A70FB681A68C7
:10448000BB681B01134403F5DE731B681A0C3B6801
:104490000633D2B21A70FB681A68BB681B0113445A
:1044A00003F5DE731B681A0E3B680733D2B21A702D
:1044B000BB68002B08D1FB681B68DA68FB681B68C7
:1044C00042F02002DA6007E0FB681B681A69FB68AB
:1044D0001B6842F020021A61002306E0FB685B6A59
:1044E00043F48022FB685A62012318461C37BD46FC
:1044F0005DF8047B704780B58AB000AF7860002318
:104500007B627B681B685B693B627B681B685B68DE
:10451000FB617B681B689B68BB617B681B68DB6811
:104520007B617B681B681B693B617B681B689B69BF
:10453000FB603B6A03F00103002B7CD0BB6903F0F6
:104540000103002B23D07B681B6801229A60BB69A2
:1045500003F00203002B03D0786800F083F916E023
:10456000BB6903F00403002B04D07B6A43F40063AF
:104570007B620CE0BB6903F00803002B04D07B6A6C
:1045800043F480537B6202E0786800F089F9BB69EC
:1045900003F48073002B24D07B681B684FF4807277
:1045A0009A60BB6903F40073002B03D0786800F0B5
:1045B00063F916E0BB6903F48063002B04D07B6AC7
:1045C00043F400537B620CE0BB6903F40063002BEF
:1045D00004D07B6A43F480437B6202E0786800F099
:1045E00069F9BB6903F48033002B24D07B681B6816
:1045F0004FF480329A60BB6903F40033002B03D080
:10460000786800F043F916E0BB6903F48023002BBF
:1046100004D07B6A43F400437B620CE0BB6903F483
:104620000023002B04D07B6A43F480337B6202E0DA
:10463000786800F049F93B6A03F00803002B0CD0BE
:104640007B6903F01003002B07D07B6A43F40073EF
:104650007B627B681B681022DA603B6A03F004030C
:10466000002B0BD07B6903F00803002B06D07B687E
:104670001B680822DA60786800F030F93B6A03F0C2
:104680000203002B09D07B681B68DB6803F003037F
:10469000002B02D07868FEF77DFA3B6A03F04003F6
:1046A000002B0CD03B6903F01003002B07D07B6A72
:1046B00043F480637B627B681B6810221A613B6A4B
:1046C00003F02003002B0BD03B6903F00803002B01
:1046D00006D07B681B6808221A61786800F012F91E
:1046E0003B6A03F01003002B09D07B681B681B6931
:1046F00003F00303002B02D0786800F0F9F83B6A5E
:1047000003F40033002B0BD0FB6903F01003002BE4
:1047100006D07B681B6810225A60786800F0FCF8AD
:104720003B6A03F48033002B0BD0FB6903F00803D2
:10473000002B06D07B681B6808225A60786800F05E
:10474000F5F83B6A03F40043002B7BD0FB6903F0D0
:104750000403002B72D03B6A03F48073002B08D053
:10476000FB6803F00103002B03D07B6A43F00103D5
:104770007B623B6A03F40073002B08D0FB6803F0F4
:104780000203002B03D07B6A43F002037B623B6A87
:1047900003F48063002B08D0FB6803F00403002BB4
:1047A00003D07B6A43F004037B623B6A03F400633B
:1047B000002B43D0FB6803F07003002B3ED0FB6856
:1047C00003F07003602B2BD0602B2ED8502B22D0FF
:1047D000502B2AD8402B19D0402B26D8302B10D064
:1047E000302B22D8102B02D0202B05D01DE07B6A65
:1047F00043F008037B6219E07B6A43F010037B629D
:1048000014E07B6A43F020037B620FE07B6A43F095
:1048100040037B620AE07B6A43F080037B6205E031
:104820007B6A43F480737B6200E000BF7B681B6897
:104830009A697B681B6822F070029A617B681B682A
:1048400004225A607B6A002B08D07B685A6A7B6A14
:104850001A437B685A62786800F072F800BF283704
:10486000BD4680BD80B483B000AF786000BF0C3718
:10487000BD465DF8047B704780B483B000AF7860BC
:1048800000BF0C37BD465DF8047B704780B483B031
:1048900000AF786000BF0C37BD465DF8047B704701
:1048A00080B483B000AF786000BF0C37BD465DF8C0
:1048B000047B704780B483B000AF786000BF0C37D2
:1048C000BD465DF8047B704780B483B000AF78606C
:1048D00000BF0C37BD465DF8047B704780B483B0E1
:1048E00000AF786000BF0C37BD465DF8047B7047B1
:1048F00080B483B000AF786000BF0C37BD465DF870
:10490000047B704780B483B000AF786000BF0C3781
:10491000BD465DF8047B704780B483B000AF78601B
:1049200000BF0C37BD465DF8047B704780B483B090
:1049300000AF786000BF0C37BD465DF8047B704760
:1049400080B483B000AF786000BF0C37BD465DF81F
:10495000047B704780B485B000AF78607B6803F05B
:104960000703FB600C4BDB68BB60BA684FF6FF03C4
:104970001340BB60FB681A02BB68134343F0BF637C
:1049800043F40033BB60044ABB68D36000BF1437F4
:10499000BD465DF8047B704700ED00E080B400AFD9
:1049A000044BDB681B0A03F007031846BD465DF89D
:1049B000047B704700ED00E080B483B000AF034695
:1049C000FB7197F90730002B0BDBFB7903F01F021B
:1049D000074997F907305B09012000FA02F241F814
:1049E000232000BF0C37BD465DF8047B704700BF35
:1049F00000E100E080B483B000AF03463960FB7192
:104A000097F90730002B0ADB3B68DAB20C4997F9BB
:104A100007301201D2B20B4483F800230AE03B684E
:104A2000DAB20849FB7903F00F03043B1201D2B25A
:104A30000B441A7600BF0C37BD465DF8047B704707
:104A400000E100E000ED00E080B489B000AFF86064
:104A5000B9607A60FB6803F00703FB61FB69C3F18F
:104A60000703042B28BF0423BB61FB690433062B17
:104A700002D9FB69033B00E000237B614FF0FF326A
:104A8000BB6902FA03F3DA43BB681A407B699A40B8
:104A90004FF0FF317B6901FA03F3D9437B680B4088
:104AA000134318462437BD465DF8047B7047000069
:104AB00080B582B000AF78607B68013BB3F1807F46
:104AC00001D301230FE00A4A7B68013B53600F21A9
:104AD0004FF0FF30FFF78EFF054B00229A60044B2A
:104AE00007221A60002318460837BD4680BD00BF64
:104AF00010E000E080B582B000AF78607868FFF722
:104B000029FF00BF0837BD4680BD80B586B000AF25
:104B10000346B9607A60FB7300237B61FFF73EFFB9
:104B200078617A68B9687869FFF78EFF024697F96D
:104B30000F3011461846FFF75DFF00BF1837BD461E
:104B400080BD80B582B000AF0346FB7197F9073096
:104B50001846FFF731FF00BF0837BD4680BD80B55E
:104B600082B000AF78607868FFF7A2FF034618466E
:104B70000837BD4680BD000080B586B000AF7860C4
:104B800000237B61FFF708F838617B68002B01D1B7
:104B9000012399E07B68022283F835207B6800229C
:104BA00083F834207B681B681A687B681B6822F0D6
:104BB00001021A600FE0FEF7EFFF02463B69D31ACD
:104BC000052B08D97B6820225A657B68032283F86D
:104BD0003520032378E07B681B681B6803F0010322
:104BE000002BE8D17B681B681B687B617A69384BB6
:104BF00013407B617B685A687B689B681A437B68BB
:104C0000DB681A437B681B691A437B685B691A433C
:104C10007B689B691A437B68DB691A437B681B6A64
:104C200013437A6913437B617B685B6A042B07D16A
:104C30007B68DA6A7B681B6B13437A6913437B6179
:104C40007B681B687A691A607B681B685B697B619B
:104C50007B6923F007037B617B685B6A7A69134396
:104C60007B617B685B6A042B17D17B689B6A7A69DE
:104C700013437B617B68DB6A002B0ED0786800F001
:104C80000DFB0346002B08D07B6840225A657B68E9
:104C9000012283F83520012316E07B681B687A69BE
:104CA0005A61786800F0C4FA0346FB607B68DB6DEC
:104CB0003F229A40FB689A607B6800225A657B68B5
:104CC000012283F83520002318461837BD4680BDE1
:104CD0003F8010F080B586B000AFF860B9607A60B0
:104CE0003B600023FB75FB689B6D3B61FB6893F8A1
:104CF0003430012B01D1022340E0FB68012283F80C
:104D00003420FB6893F83530DBB2012B2FD1FB68E0
:104D1000022283F83520FB6800225A653B687A68D6
:104D2000B968F86800F056FAFB68DB6D3F229A40DC
:104D30003B699A60FB681B681A68FB681B6842F055
:104D400016021A60FB681B6C002B07D0FB681B68FF
:104D50001A68FB681B6842F008021A60FB681B684F
:104D60001A68FB681B6842F001021A6005E0FB68E4
:104D7000002283F834200223FB75FB7D1846183788
:104D8000BD4680BD80B584B000AF78607B689B6D08
:104D9000FB60FEF701FFB8607B6893F83530DBB24B
:104DA000022B08D07B6880225A657B68002283F83A
:104DB0003420012352E07B681B681A687B681B68FB
:104DC00022F016021A607B681B685A697B681B68B0
:104DD00022F080025A617B681B6C002B03D17B6838
:104DE0009B6C002B07D07B681B681A687B681B686C
:104DF00022F008021A607B681B681A687B681B68CF
:104E000022F001021A6013E0FEF7C6FE0246BB68FC
:104E1000D31A052B0CD97B6820225A657B680322A4
:104E200083F835207B68002283F83420032315E0C3
:104E30007B681B681B6803F00103002BE4D17B68CF
:104E4000DB6D3F229A40FB689A607B68012283F801
:104E500035207B68002283F8342000231846103761
:104E6000BD4680BD80B483B000AF78607B6893F8A6
:104E70003530DBB2022B04D07B6880225A650123D7
:104E80000CE07B68052283F835207B681B681A6874
:104E90007B681B6822F001021A60002318460C3759
:104EA000BD465DF8047B704780B586B000AF786082
:104EB0000023BB608E4B1B688E4AA2FB03239B0A18
:104EC0007B617B689B6D3B613B691B68FB607B681A
:104ED000DB6D08229A40FB681340002B1AD07B68D8
:104EE0001B681B6803F00403002B13D07B681B684E
:104EF0001A687B681B6822F004021A607B68DB6D0D
:104F000008229A403B699A607B685B6D43F001021E
:104F10007B685A657B68DB6D01229A40FB68134011
:104F2000002B12D07B681B685B6903F08003002BA9
:104F30000BD07B68DB6D01229A403B699A607B68ED
:104F40005B6D43F002027B685A657B68DB6D04226F
:104F50009A40FB681340002B12D07B681B681B68CB
:104F600003F00203002B0BD07B68DB6D04229A4018
:104F70003B699A607B685B6D43F004027B685A650D
:104F80007B68DB6D10229A40FB681340002B43D0F6
:104F90007B681B681B6803F00803002B3CD07B6810
:104FA000DB6D10229A403B699A607B681B681B6826
:104FB00003F48023002B18D07B681B681B6803F464
:104FC0000023002B08D17B681B6C002B24D07B684E
:104FD0001B6C786898471FE07B689B6C002B1BD08C
:104FE0007B689B6C7868984716E07B681B681B6839
:104FF00003F48073002B07D17B681B681A687B68F9
:105000001B6822F008021A607B681B6C002B03D01F
:105010007B681B6C786898477B68DB6D20229A4020
:10502000FB681340002B00F08F807B681B681B68B7
:1050300003F01003002B00F087807B68DB6D2022DB
:105040009A403B699A607B6893F83530DBB2052B58
:1050500036D17B681B681A687B681B6822F01602D1
:105060001A607B681B685A697B681B6822F08002A3
:105070005A617B681B6C002B03D17B689B6C002BF7
:1050800007D07B681B681A687B681B6822F00802DF
:105090001A607B68DB6D3F229A403B699A607B68AF
:1050A000012283F835207B68002283F834207B6856
:1050B0001B6D002B7ED07B681B6D7868984779E06C
:1050C0007B681B681B6803F48023002B1DD07B6862
:1050D0001B681B6803F40023002B0DD17B685B6CFD
:1050E000002B31D07B685B6C786898472CE000BF60
:1050F00018000020B5814E1B7B68DB6B002B23D092
:105100007B68DB6B786898471EE07B681B681B68D0
:1051100003F48073002B0FD17B681B681A687B68CF
:105120001B6822F010021A607B68012283F8352088
:105130007B68002283F834207B68DB6B002B03D074
:105140007B68DB6B786898477B685B6D002B32D09F
:105150007B685B6D03F00103002B22D07B68052286
:1051600083F835207B681B681A687B681B6822F00F
:1051700001021A60BB680133BB607A699A4207D3A7
:105180007B681B681B6803F00103002BF2D100E071
:1051900000BF7B68012283F835207B68002283F8FA
:1051A00034207B68DB6C002B05D07B68DB6C786877
:1051B000984700E000BF1837BD4680BD80B483B07B
:1051C00000AF78607B685B6D18460C37BD465DF8B4
:1051D000047B704780B485B000AFF860B9607A6036
:1051E0003B60FB681B681A68FB681B6822F480221E
:1051F0001A60FB681B683A685A60FB689B68402B22
:1052000008D1FB681B687A689A60FB681B68BA68FB
:10521000DA6007E0FB681B68BA689A60FB681B6885
:105220007A68DA6000BF1437BD465DF8047B7047CA
:1052300080B485B000AF78607B681B68DBB2103B40
:10524000144AA2FB03231B09FB60134AFB681344A7
:105250001B781A467B68DA65FB68032B09D97B68E3
:105260001B6823F47F7323F003031A1D7B689A6580
:1052700007E07B681B6823F47F7323F003037A68DD
:1052800093657B689B6D18461437BD465DF8047BBB
:10529000704700BFABAAAAAA6C77010880B485B09A
:1052A00000AF78600023FB737B689B6ABB607B6800
:1052B0009B69002B1FD1BB68032B56D801A252F863
:1052C00023F000BFD5520008E7520008D55200086D
:1052D0006B5300087B68DB6A03F08073002B46D0B9
:1052E0000123FB7343E07B68DB6AB3F1C07F40D1ED
:1052F0000123FB733DE07B689B69B3F5005F21D11F
:10530000BB68032B37D801A252F823F01D530008C5
:10531000235300081D530008355300080123FB7375
:1053200030E07B68DB6A03F08073002B25D001231B
:10533000FB7322E07B68DB6AB3F1C07F1FD10123DE
:10534000FB731CE0BB68022B03D9BB68032B03D0A3
:1053500018E00123FB7315E07B68DB6A03F08073C0
:10536000002B0ED00123FB730BE000BF0AE000BF4F
:1053700008E000BF06E000BF04E000BF02E000BF9D
:1053800000E000BFFB7B18461437BD465DF8047B88
:10539000704700BF80B489B000AF786039600023E7
:1053A0007B6100233B610023BB610023FB616BE158
:1053B0000122FB6902FA03F37B613B681B687A698F
:1053C00013403B613A697B699A4240F05A813B68DD
:1053D0005B6803F00303012B05D03B685B6803F0B7
:1053E0000303022B30D17B689B68BB61FB695B00C8
:1053F000032202FA03F3DB43BA691340BB613B6843
:10540000DA68FB695B0002FA03F3BA691343BB6114
:105410007B68BA699A607B685B68BB610122FB6943
:1054200002FA03F3DB43BA691340BB613B685B6874
:105430001B0903F00102FB6902FA03F3BA69134383
:10544000BB617B68BA695A603B685B6803F0030321
:10545000032B17D07B68DB68BB61FB695B00032211
:1054600002FA03F3DB43BA691340BB613B689A68F5
:10547000FB695B0002FA03F3BA691343BB617B6803
:10548000BA69DA603B685B6803F00303022B23D13F
:10549000FB69DA087B68083253F82230BB61FB698C
:1054A00003F007039B000F2202FA03F3DB43BA6900
:1054B0001340BB613B681A69FB6903F007039B005B
:1054C00002FA03F3BA691343BB61FB69DA087B682C
:1054D0000832B96943F822107B681B68BB61FB691D
:1054E0005B00032202FA03F3DB43BA691340BB619A
:1054F0003B685B6803F00302FB695B0002FA03F39D
:10550000BA691343BB617B68BA691A603B685B6820
:1055100003F44033002B00F0B4800023FB60604BA9
:105520005B6C5F4A43F4804353645D4B5B6C03F4F4
:105530008043FB60FB685B4AFB699B08023352F8BF
:105540002330BB61FB6903F003039B000F2202FAC7
:1055500003F3DB43BA691340BB617B68524A934251
:105560002BD07B68514A934225D07B68504A9342A6
:105570001FD07B684F4A934219D07B684E4A9342B2
:1055800013D07B684D4A93420DD07B684C4A9342BE
:1055900007D07B684B4A934201D107230EE00823D2
:1055A0000CE006230AE0052308E0042306E00323B9
:1055B00004E0022302E0012300E00023FA6902F084
:1055C000030292009340BA691343BB613549FB69FA
:1055D0009B080233BA6941F823203B4B9B68BB61AF
:1055E0003B69DB43BA691340BB613B685B6803F40A
:1055F0008013002B03D0BA693B691343BB61324A65
:10560000BB699360304BDB68BB613B69DB43BA69C4
:105610001340BB613B685B6803F40013002B03D0AD
:10562000BA693B691343BB61274ABB69D360264B08
:105630005B68BB613B69DB43BA691340BB613B6894
:105640005B6803F40033002B03D0BA693B69134352
:10565000BB611D4ABB6953601B4B1B68BB613B6947
:10566000DB43BA691340BB613B685B6803F480337A
:10567000002B03D0BA693B691343BB61124ABB6973
:105680001360FB690133FB61FB690F2B7FF690AE62
:1056900000BF00BF2437BD465DF8047B704700BFE4
:1056A000003802400038014000000240000402407F
:1056B00000080240000C02400010024000140240AA
:1056C00000180240001C0240003C014080B483B03E
:1056D00000AF78600B467B8013467B707B78002B95
:1056E00003D07A887B689A6103E07B881A047B6820
:1056F0009A6100BF0C37BD465DF8047B704780B4EB
:1057000085B000AF78600B467B807B685B69FB608F
:105710007A88FB6813401A04FB68D9437B880B40E6
:105720001A437B689A6100BF1437BD465DF8047B5D
:105730007047000080B582B000AF0346FB80084B85
:105740005A69FB881340002B06D0054AFB88536139
:10575000FB881846FDF7AAF900BF0837BD4680BD93
:10576000003C014080B586B002AF78607B68002BBA
:1057700001D1012359E07B681B68FB607B6893F8CB
:10578000D533DBB2002B06D17B68002283F8D4230B
:1057900078680CF0C1FA7B68032283F8D523FB6894
:1057A000B3F1A04F02D17B6800229A717B681B681D
:1057B000184607F0C2FC7B6818687B681A7C8DF875
:1057C000002004330ECB07F043FC0346002B05D02A
:1057D0007B68022283F8D523012326E07B681B68BF
:1057E0000121184607F0BAFC0346002B05D07B6860
:1057F000022283F8D523012317E07B6818687B68B1
:105800001A7C8DF8002004330ECB07F063FE0346AC
:10581000002B05D07B68022283F8D523012304E006
:105820007B68012283F8D523002318461037BD4634
:1058300080BD90B58BB004AF7860084611461A461B
:105840000346FB700B46BB7013467B703B8E7B613F
:105850007B6893F8D433012B01D102239DE07B6850
:10586000012283F8D423FA78796813461B019B1A26
:105870009B000B44193300221A70FA78796813469A
:105880001B019B1A9B000B4414337A781A70FA7828
:10589000796813461B019B1A9B000B441533FA7859
:1058A0001A70FA78796813461B019B1A9B000B4407
:1058B000263397F82C201A70FA78BB7803F07F0310
:1058C000D8B2796813461B019B1A9B000B44163310
:1058D00002461A70FB781946786800F0A5FB97F924
:1058E0000230002B0ADAFA78796813461B019B1AFA
:1058F0009B000B44173301221A7009E0FA7879688B
:1059000013461B019B1A9B000B44173300221A708D
:105910007B681B68184607F041FF386197F82C3008
:10592000012B0BD197F82830012B07D13B69002BB5
:1059300004D17B69BC2B01D9BC237B61FA787968DF
:1059400013461B019B1A9B000B44183397F8282021
:105950001A70FA787B6998B2796813461B019B1A12
:105960009B000B44283302461A807B6818687B69C9
:105970009BB27C78BA78F978029397F82C3001932F
:1059800097F828300093234607F030FF0346FB7357
:105990007B68002283F8D423FB7B18461C37BD4666
:1059A00090BD000080B582B000AF78600846114617
:1059B0001A460346FB700B46BB7013467B70FA78A1
:1059C000796813461B019B1A9B000B441733BA7866
:1059D0001A70FA78796813461B019B1A9B000B44D6
:1059E00026337A781A703B7C002B14D1FA787968C8
:1059F00013461B019B1A9B000B442A3303221A7087
:105A0000FA78796813461B019B1A9B000B441933E3
:105A10003A7F1A7009E0FA78796813461B019B1ADD
:105A20009B000B442A3302221A707B78032B00F26E
:105A3000028101A252F823F0495A0008215C0008B3
:105A40000D5B0008975B00083B7C012B40F0F58064
:105A5000BB78002B2DD13B8B002B09D1FA787968CC
:105A600013461B019B1A9B000B443D3301221A7005
:105A7000FA78796813461B019B1A9B000B443D334F
:105A80001B78002B0AD1FA78796813461B019B1A00
:105A90009B000B442A3300221A70CEE0FA78796812
:105AA00013461B019B1A9B000B442A3302221A70D7
:105AB000C3E0FA78796813461B019B1A9B000B44DC
:105AC0001A331B78012B40F0B880FA7879681346B6
:105AD0001B019B1A9B000B443C331B78002B0AD103
