:020000040800F2
:1000000000000220CD530008B14A0008B94A000898
:10001000C14A0008C94A0008D14A0008000000008F
:10002000000000000000000000000000D94A0008A5
:10003000E74A000800000000F54A0008034B0008EA
:100040001D5400081D5400081D5400081D540008CC
:100050001D5400081D5400081D5400081D540008BC
:100060001D5400081D5400081D5400081D540008AC
:100070001D5400081D5400081D5400081D5400089C
:100080001D5400081D5400081D5400081D5400088C
:100090001D5400081D5400081D5400081D5400087C
:1000A0001D5400081D5400081D5400081D5400086C
:1000B0001D5400081D5400081D5400081D5400085C
:1000C0001D5400081D5400081D5400081D5400084C
:1000D0001D5400081D5400081D5400081D5400083C
:1000E0001D5400081D5400081D5400081D5400082C
:1000F0001D5400081D5400081D5400081D5400081C
:100100001D540008114B00081D5400081D54000820
:100110001D5400081D5400081D5400081D540008FB
:10012000254B00081D5400081D540008394B0008D9
:100130001D54000800000000000000001D540008CD
:100140001D5400081D5400081D5400081D540008CB
:100150001D5400084D4B00081D5400081D54000894
:100160001D5400081D5400081D5400081D540008AB
:100170001D5400081D54000800000000000000008D
:080180001D5400081D54000885
:1001900010B5054C237833B9044B13B10448AFF3C1
:1001A00000800123237010BD5402002000000000D5
:1001B0004459010808B5034B1BB103490348AFF389
:1001C000008008BD000000005802002044590108CA
:1001D00001F0FF01102A2BDB10F0070F08D010F8F8
:1001E000013B013A8B422DD010F0070F42B3F6D1FC
:1001F000F0B441EA012141EA014122F007047FF015
:1002000000070023F0E80256083C85EA010586EA6B
:10021000010685FA47F5A3FA87F586FA47F6A5FAA7
:1002200087F68EB9EED1F0BC01F0FF0102F00702B3
:1002300032B110F8013B013A83EA010313B1F8D15E
:100240000020704701387047002D06BF354603383F
:10025000073815F0010F07D1013015F4807F02BF78
:10026000013015F4C03F0130F0BC0138704700BFC9
:10027000034613F8012B002AFBD1181A01387047E6
:1002800081F0004102E000BF83F0004330B54FEA47
:1002900041044FEA430594EA050F08BF90EA020FB4
:1002A0001FBF54EA000C55EA020C7FEA645C7FEA47
:1002B000655C00F0E2804FEA5454D4EB5555B8BF6A
:1002C0006D420CDD2C4480EA020281EA030382EADB
:1002D000000083EA010180EA020281EA0303362D6D
:1002E00088BF30BD11F0004F4FEA01314FF4801C40
:1002F0004CEA113102D0404261EB410113F0004F52
:100300004FEA03334CEA133302D0524263EB430308
:1003100094EA050F00F0A780A4F10104D5F1200EA6
:100320000DDB02FA0EFC22FA05F2801841F1000101
:1003300003FA0EF2801843FA05F359410EE0A5F1D5
:1003400020050EF1200E012A03FA0EFC28BF4CF006
:10035000020C43FA05F3C01851EBE37101F00045BC
:1003600007D54FF0000EDCF1000C7EEB00006EEBC9
:100370000101B1F5801F1BD3B1F5001F0CD3490853
:100380005FEA30004FEA3C0C04F101044FEA4452AA
:1003900012F5800F80F09A80BCF1004F08BF5FEA31
:1003A000500C50F1000041EB045141EA050130BD11
:1003B0005FEA4C0C404141EB0101013C28BFB1F523
:1003C000801FE9D291F0000F04BF01460020B1FA6E
:1003D00081F308BF2033A3F10B03B3F120020CDA41
:1003E0000C3208DD02F1140CC2F10C0201FA0CF01F
:1003F00021FA02F10CE002F11402D8BFC2F1200C84
:1004000001FA02F120FA0CFCDCBF41EA0C01904039
:10041000E41AA2BF01EB0451294330BD6FEA040482
:100420001F3C1CDA0C340EDC04F11404C4F120026D
:1004300020FA04F001FA02F340EA030021FA04F37F
:1004400045EA030130BDC4F10C04C4F1200220FAD6
:1004500002F001FA04F340EA0300294630BD21FA14
:1004600004F0294630BD94F0000F83F4801306BFDA
:1004700081F480110134013D4EE77FEA645C18BFCE
:100480007FEA655C29D094EA050F08BF90EA020F65
:1004900005D054EA000C04BF1946104630BD91EA5D
:1004A000030F1EBF0021002030BD5FEA545C05D160
:1004B0004000494128BF41F0004130BD14F580049F
:1004C0003CBF01F5801130BD01F0004545F0FE4113
:1004D00041F470014FF0000030BD7FEA645C1ABF48
:1004E000194610467FEA655C1CBF0B46024650EA7F
:1004F000013406BF52EA033591EA030F41F40021AB
:1005000030BD00BF90F0000F04BF0021704730B530
:100510004FF4806404F132044FF000054FF0000105
:1005200050E700BF90F0000F04BF0021704730B5C6
:100530004FF4806404F1320410F0004548BF40429B
:100540004FF000013EE700BF42004FEAE2014FEAF0
:1005500031014FEA02701FBF12F07F4393F07F4FCB
:1005600081F06051704732F07F4208BF704793F0CE
:100570007F4F04BF41F40021704730B54FF46074E1
:1005800001F0004521F000411CE700BF50EA0102E4
:1005900008BF704730B54FF000050AE050EA01028D
:1005A00008BF704730B511F0004502D5404261EBFD
:1005B00041014FF4806404F132045FEA915C3FF43E
:1005C000D8AE4FF003025FEADC0C18BF03325FEADB
:1005D000DC0C18BF033202EBDC02C2F1200300FA8C
:1005E00003FC20FA02F001FA03FE40EA0E0021FAB1
:1005F00002F11444BDE600BF70B54FF0FF0C4CF49F
:10060000E06C1CEA11541DBF1CEA135594EA0C0F50
:1006100095EA0C0F00F0DEF82C4481EA030621EA8B
:100620004C5123EA4C5350EA013518BF52EA0335C6
:1006300041F4801143F4801338D0A0FB02CE4FF078
:100640000005E1FB02E506F00042E0FB03E54FF0A8
:100650000006E1FB03569CF0000F18BF4EF0010EA0
:10066000A4F1FF04B6F5007F64F5407404D25FEA9C
:100670004E0E6D4146EB060642EAC62141EA55514F
:100680004FEAC52040EA5E504FEACE2EB4F1FD0C91
:1006900088BFBCF5E06F1ED8BEF1004F08BF5FEA0F
:1006A000500E50F1000041EB045170BD06F00046C1
:1006B00046EA010140EA020081EA0301B4EB5C046E
:1006C000C2BFD4EB0C0541EA045170BD41F4801166
:1006D0004FF0000E013C00F3AB8014F1360FDEBF8B
:1006E000002001F0004170BDC4F10004203C35DA67
:1006F0000C341BDC04F11404C4F1200500FA05F3EA
:1007000020FA04F001FA05F240EA020001F000428A
:1007100021F0004110EBD37021FA04F642EB060100
:100720005EEA430E08BF20EAD37070BDC4F10C042A
:10073000C4F1200500FA04F320FA05F001FA04F2EE
:1007400040EA020001F0004110EBD37041F10001DA
:100750005EEA430E08BF20EAD37070BDC4F12005E5
:1007600000FA05F24EEA020E20FA04F301FA05F24D
:1007700043EA020321FA04F001F0004121FA04F2F5
:1007800020EA020000EBD3705EEA430E08BF20EAC5
:10079000D37070BD94F0000F0FD101F000464000FF
:1007A00041EB010111F4801F08BF013CF7D041EA81
:1007B000060195F0000F18BF704703F00046520085
:1007C00043EB030313F4801F08BF013DF7D043EA56
:1007D0000603704794EA0C0F0CEA135518BF95EA0C
:1007E0000C0F0CD050EA410618BF52EA4306D1D193
:1007F00081EA030101F000414FF0000070BD50EAB2
:10080000410606BF1046194652EA430619D094EA3B
:100810000C0F02D150EA013613D195EA0C0F05D125
:1008200052EA03361CBF104619460AD181EA030179
:1008300001F0004141F0FE4141F470014FF0000031
:1008400070BD41F0FE4141F4780170BD70B54FF0CC
:10085000FF0C4CF4E06C1CEA11541DBF1CEA13554C
:1008600094EA0C0F95EA0C0F00F0A7F8A4EB05042E
:1008700081EA030E52EA03354FEA013100F0888025
:100880004FEA03334FF0805545EA131343EA1263EE
:100890004FEA022245EA111545EA10654FEA0026A3
:1008A0000EF000419D4208BF964244F1FD0404F55C
:1008B000407402D25B084FEA3202B61A65EB0305B8
:1008C0005B084FEA32024FF480104FF4002CB6EB75
:1008D000020E75EB030E22BFB61A754640EA0C00F5
:1008E0005B084FEA3202B6EB020E75EB030E22BF35
:1008F000B61A754640EA5C005B084FEA3202B6EB76
:10090000020E75EB030E22BFB61A754640EA9C0034
:100910005B084FEA3202B6EB020E75EB030E22BF04
:10092000B61A754640EADC0055EA060E18D04FEAC2
:10093000051545EA16754FEA06164FEAC30343EA62
:1009400052734FEAC2025FEA1C1CC0D111F4801F2F
:100950000BD141EA00014FF000004FF0004CB6E728
:1009600011F4801F04BF01430020B4F1FD0C88BFC7
:10097000BCF5E06F3FF6AFAEB5EB030C04BFB6EBD2
:10098000020C5FEA500C50F1000041EB045170BDC5
:100990000EF0004E4EEA113114EB5C04C2BFD4EBF2
:1009A0000C0541EA045170BD41F480114FF0000E76
:1009B000013C90E645EA060E8DE60CEA135594EAF2
:1009C0000C0F08BF95EA0C0F3FF43BAF94EA0C0FF5
:1009D0000AD150EA01347FF434AF95EA0C0F7FF46A
:1009E00025AF104619462CE795EA0C0F06D152EABE
:1009F00003353FF4FDAE1046194622E750EA4106A2
:100A000018BF52EA43067FF4C5AE50EA41047FF4B2
:100A10000DAF52EA43057FF4EBAE12E74FF0FF3C17
:100A200006E000BF4FF0010C02E000BF4FF0010CE8
:100A30004DF804CD4FEA410C7FEA6C5C4FEA430C61
:100A400018BF7FEA6C5C1BD001B050EA410C0CBFB0
:100A500052EA430C91EA030F02BF90EA020F002012
:100A6000704710F1000F91EA030F58BF994208BF79
:100A700090422CBFD8176FEAE37040F00100704736
:100A80004FEA410C7FEA6C5C02D150EA013C07D18D
:100A90004FEA430C7FEA6C5CD6D152EA033CD3D0D8
:100AA0005DF8040B704700BF8446104662468C46D2
:100AB0001946634600E000BF01B5FFF7B7FF002805
:100AC00048BF10F1000F01BD4DF808EDFFF7F4FF2E
:100AD0000CBF012000205DF808FB00BF4DF808EDB9
:100AE000FFF7EAFF34BF012000205DF808FB00BFDC
:100AF0004DF808EDFFF7E0FF94BF012000205DF8FE
:100B000008FB00BF4DF808EDFFF7CEFF94BF0120B2
:100B100000205DF808FB00BF4DF808EDFFF7C4FFAB
:100B200034BF012000205DF808FB00BF4FEA410CF4
:100B30007FEA6C5C02D150EA013C0AD14FEA430CD7
:100B40007FEA6C5C02D152EA033C02D14FF0000014
:100B500070474FF0010070474FEA410212F5001252
:100B600015D211D56FF47873B3EB625212D94FEAF4
:100B7000C12343F0004343EA505311F0004F23FADE
:100B800002F018BF404270474FF00000704750EA33
:100B9000013005D111F0004008BF6FF000407047F0
:100BA0004FF00000704700BF4A0011D212F500124A
:100BB00011D20DD56FF47873B3EB62520ED44FEAB5
:100BC000C12343F0004343EA505323FA02F0704735
:100BD0004FF00000704750EA013002D14FF0FF3073
:100BE00070474FF0000070474FEA4102B2F1E04316
:100BF00024BFB3F5001CDCF1FE5C0DD901F0004C04
:100C00004FEAC0024CEA5070B2F1004F40EB830053
:100C100008BF20F00100704711F0804F21D113F17F
:100C20003872BCBF01F00040704741F480114FEAB8
:100C30005252C2F11802C2F1200C10FA0CF320FA41
:100C400002F018BF40F001004FEAC1234FEAD3235E
:100C500003FA0CFC40EA0C0023FA02F34FEA4303C8
:100C6000CCE77FEA625307D150EA01331EBF4FF051
:100C7000FE4040F44000704701F0004040F0FE406C
:100C800040F40000704700BF53B94AB9002908BFBB
:100C900000281CBF4FF0FF314FF0FF3000F0BEB90D
:100CA000ADF1080C6DE904CE00F03CF8DDF804E08D
:100CB000DDE9022304B0704738B500220023044662
:100CC0000D46FFF70BFF28B920462946BDE83840FE
:100CD00000F00AB8204605F1004100F005F8404256
:100CE00061EB410138BD00BFD0B50C4B0022064678
:100CF0000F46FFF781FCFFF757FF0446FFF702FCA2
:100D0000074B0022FFF778FC02460B463046394677
:100D1000FFF7BAFAFFF748FF2146D0BD0000F03DCB
:100D20000000F0412DE9F047089D8E4604468846B4
:100D3000002B4AD18A42174662D9B2FA82F64EB1E6
:100D4000C6F1200301FA06F820FA03F3B74043EA9C
:100D50000808B4404FEA174E1FFA87FCB8FBFEF1B3
:100D6000230C0EFB118843EA084301FB0CF29A4264
:100D700009D9FB1801F1FF3080F0EA809A4240F275
:100D8000E78002393B449A1AA3B2B2FBFEF00EFB95
:100D9000102243EA024300FB0CFC9C4509D9FB18D6
:100DA00000F1FF3280F0D6809C4540F2D3803B4476
:100DB000023840EA0140A3EB0C0300211DB1F340CF
:100DC0000022C5E90032BDE8F0878B4205D90DB19C
:100DD000C5E9000100210846F5E7B3FA83F10029CF
:100DE00046D1734502D3824200F20581841A6EEB2C
:100DF000030201209046002DE5D0C5E90048E2E756
:100E0000002A00F09080B2FA82F6002E40F0A48012
:100E10008A1A030C4FEA174E80B2BCB20121B2FB12
:100E2000FEFC0EFB1C2243EA024304FB0CF29A4236
:100E300007D9FB180CF1FF3802D29A4200F2E08089
:100E4000C4469B1AB3FBFEF20EFB123340EA034387
:100E500002FB04F49C4207D9FB1802F1FF3002D2D6
:100E60009C4200F2CA8002461B1B42EA0C40A5E7E6
:100E7000C1F120068B4022FA06F71F430EFA01F457
:100E800020FA06F32EFA06FE4FEA1749234300FA2A
:100E900001F81FFA87FCBEFBF9F01C0C09FB10EEF1
:100EA00044EA0E4400FB0CFEA64502FA01F209D901
:100EB0003C1900F1FF3A80F09C80A64540F29980F1
:100EC00002383C44A4EB0E041FFA83FEB4FBF9F392
:100ED00009FB13444EEA044403FB0CFCA44508D967
:100EE0003C1903F1FF3E80F08280A4457FD9023B8C
:100EF0003C4443EA0040A4EB0C04A0FB02EC644534
:100F00007346E14662D35FD05DB1B8EB030264EB98
:100F1000090404FA06F622FA01F31E43CC40C5E99F
:100F2000006400214FE7B1FBF2FC010C41EA0E41E5
:100F300080B240EA01423B4638463C46B846BE468F
:100F40002026B1FBF7F1A2EB080241EA0C4166E76B
:100F5000014618E710462CE7C6F120022EFA02F3EC
:100F6000B740B14020FA02F24FEA174E0A43B3FBF2
:100F7000FEF8BCB20EFB1833110C41EA034108FB2A
:100F800004F9B04089454FEA104380B23ED9791840
:100F900008F1FF3C01D289451FD8A1EB0901B1FB43
:100FA000FEF909FB04F80EFB191192B242EA014264
:100FB000424529D2BA1809F1FF31C4D24245C2D202
:100FC000A9F102013A44BEE7F0459DD2BEEB02030F
:100FD0006CEB070C0138E14696E7A7EB0909494499
:100FE000A8F1020CB1FBFEF909FB04F8DBE773463C
:100FF0007FE7504666E70846FDE63B44023A33E7A2
:10100000ACF1020C3B441CE749469CE7A1EB09010B
:10101000C446B1FBFEF909FB04F8C4E7704700BF02
:1010200080B586B002AF0346FB800B467B7113464A
:101030007B807B793B737B881B0A9BB2DBB27B7323
:101040007B88DBB2BB7307F10C02F9886423009341
:101050000323084806F052F90346002B04D0064B40
:1010600001221A70002300E0012318461037BD4604
:1010700080BD00BF2C4900207002002080B588B0E0
:1010800004AF03463A60FB800B467B717B799AB2D2
:10109000F988642302930223019307F10C03009360
:1010A00001230D4806F05AFC0346002B04D00B4BDD
:1010B00001221A7000230BE03B7B1BB21B021AB209
:1010C0007B7B1BB213431BB29AB23B681A8001238D
:1010D00018461037BD4680BD2C4900207002002004
:1010E00080B584B000AF78607B681B7CC3F30103DC
:1010F000DBB21BB29B011AB27B681B7CC3F30013EB
:10110000DBB21BB21B021BB213431AB27B681B7CFF
:10111000C3F34013DBB21BB25B021BB213431AB220
:101120007B681B7CC3F38013DBB21BB29B021BB238
:1011300013431AB27B681B7CC3F38103DBB21BB27F
:10114000DB021BB213431AB27B681B7CC3F3C013D0
:10115000DBB21BB2DB031BB213431BB2FB817B6808
:101160001B88FA8901211846FFF75AFF034683F0CE
:101170000103DBB2002B01D0022300E0002318465C
:101180001037BD4680BD80B584B000AF78607B6805
:101190001B8807F10E0200211846FFF76FFF034678
:1011A00083F00103DBB2002B08D079684FF0000216
:1011B0004FF00003C1E90223002310E0FB891BB2BA
:1011C0001846FFF7AFF94FF000024FF07E53FFF7DC
:1011D00013FA02460B467968C1E902230123184637
:1011E0001037BD4680BD000080B582B000AF034619
:1011F0000A46FB711346BB71344809F065FE344B57
:10120000344A1A60324B344A5A60314B00221A7207
:10121000BB79012B06D92E4B1B7A43F00803DAB2B7
:101220002B4B1A722A4ABB79D372322004F06AF926
:1012300000224FF40041294805F09CFE00224FF4A3
:101240008041264805F096FE032000F039F904207D
:1012500004F058F9032000F033F9642000F0D4F8CA
:10126000032000F02DF9962000F0CEF8022000F0C7
:1012700027F9642000F0C8F8154B1B7A43F02003CF
:10128000DBB2184600F0A2F8114B00225A72104B44
:101290005B7A43F00803DBB2184600F097F800F0E1
:1012A0001FF8032004F02EF9094B02229A72084B12
:1012B0009B7A43F00403DBB2184600F087F800F095
:1012C00045F800BF0837BD4680BD00BFB84B0020C1
:1012D000740200200000002010000020000C0240DA
:1012E00080B500AF012000F071F8022004F00AF987
:1012F00000BF80BD80B584B000AF03460A46FB71D5
:101300001346BB710F4BFB600F4BDB7ABA799A42E5
:1013100003D90D4BDB7A013BBB71BB7910333B44E6
:1013200013F8042CFB791344DBB25BB263F07F0348
:101330005BB2DBB2184600F049F800BF1037BD467B
:1013400080BD00BF004014547402002080B500AF7F
:10135000084B5B7A43F00403DAB2064B5A72054B32
:101360005B7A43F00803DBB2184600F02FF800BFA9
:1013700080BD00BF7402002080B582B000AF7860ED
:1013800006E07B685A1C7A601B78184600F02CF83F
:101390007B681B78002BF4D100BF00BF0837BD4627
:1013A00080BD80B582B000AF03463A60FB710B464A
:1013B000BB71BA79FB7911461846FFF79BFF386875
:1013C000FFF7DAFF00BF0837BD4680BD80B582B0A9
:1013D00000AF0346FB71FB790021184600F02EF8A0
:1013E00000BF0837BD4680BD80B582B000AF034660
:1013F000FB71FB790121184600F020F80123184603
:101400000837BD4680BD000080B483B000AF0346FE
:10141000FB80094B1B6800225A6200BF064B1B6809
:101420005A6AFB889A42F9D300BF00BF0C37BD4609
:101430005DF8047B704700BFB84B002080B582B0D8
:1014400000AF03460A46FB711346BB71BB791A46CF
:101450004FF40041084805F08DFDFB791B09DBB214
:10146000184600F02DF8FB79184600F029F800BF67
:101470000837BD4680BD00BF000C024080B500AFFC
:1014800000224FF480410D4805F074FD0120FFF764
:10149000BBFF01224FF48041084805F06BFD01209D
:1014A000FFF7B2FF00224FF48041044805F062FDCF
:1014B0003220FFF7A9FF00BF80BD00BF000C024033
:1014C00080B584B000AF0346FB710023FB7319E0C5
:1014D000114B1A68FB7B9B00134418680E4B5A682B
:1014E000FB7B5B0013441988FA79FB7B42FA03F318
:1014F000DBB203F00103DBB21A4605F03BFDFB7BD8
:101500000133FB73FB7B032BE2D9FFF7B7FF00BF6F
:101510001037BD4680BD00BF7402002080B582B088
:1015200000AF7860094A7B681360002000F0ABF8D8
:10153000002000F06EF800F0C8F800F08EF80120EE
:1015400000F046F800BF0837BD4680BD800200208D
:1015500080B586B002AF03460A46FB711346BB71E5
:10156000FB793B73BB797B73074B186807F10C025F
:101570004FF0FF3300930223D02105F0BFFE00BFE0
:101580001037BD4680BD00BF8002002080B586B008
:1015900002AF0346FB710D4B1868FA1D4FF0FF3385
:1015A00000930123D02105F0A9FE084B186807F12C
:1015B0000F024FF0FF3300930123D02105F09CFF71
:1015C000FB7B18461037BD4680BD00BF800200205F
:1015D00080B584B000AF0346FB710E20FFF7D6FF45
:1015E0000346FB7397F90F3023F004035AB297F9BF
:1015F00007309B005BB203F004035BB213435BB2A2
:10160000DBB219460E20FFF7A3FF00BF1037BD461F
:1016100080BD80B584B000AF0346FB710E20FFF79C
:10162000B5FF0346FB7397F90F3023F002035AB25C
:1016300097F907305B005BB203F002035BB2134320
:101640005BB2DBB219460E20FFF782FF0120FFF7E5
:10165000BFFF00BF1037BD4680BD80B582B000AF70
:101660000F20FFF793FF034623F00203FB71FB7982
:1016700023F00203DBB219460F20FFF769FF00BF1A
:101680000837BD4680BD80B584B000AF0346FB710E
:101690000E20FFF77BFF0346FB7397F90F3023F013
:1016A00001035AB297F9073003F001035BB2134309
:1016B0005BB2DBB219460E20FFF74AFF0120FFF7AD
:1016C00087FF00BF1037BD4680BD80B582B000AF38
:1016D0000F20FFF75BFF034623F00103FB71FB794B
:1016E00023F00103DBB219460F20FFF731FF00BFE3
:1016F0000837BD4680BD80B500AF0F20FFF746FF1D
:101700000346DB09DBB203F00103DBB2184680BD00
:1017100080B500AF0420FFF739FF0346184600F0FC
:101720005AF90346184680BD80B500AF0520FFF783
:101730002DFF034603F07F03DBB2184600F04BF9A0
:101740000346184680BD80B582B000AF0620FFF783
:101750001DFF0346184600F03EF90346FB710520C5
:10176000FFF714FF0346DB09DBB21A46920013446D
:101770001A4691001A460B4613449B009BB203F590
:10178000FA63BB80FB799AB2BB8813449BB21846BC
:101790000837BD4680BD80B500AF0220FFF7F6FEDA
:1017A0000346184600F017F90346184680BD80B579
:1017B00000AF0120FFF7EAFE0346184600F00BF9E0
:1017C0000346184680BD80B500AF0020FFF7DEFE5F
:1017D0000346184600F0FFF80346184680BD80B562
:1017E00082B000AF0346FB71FB79184600F00CF99C
:1017F000034619460320FFF7ABFE00BF0837BD467E
:1018000080BD80B582B000AF0346FB71FB791846FE
:1018100000F0FAF8034619460420FFF799FE00BFCE
:101820000837BD4680BD80B584B000AF0346FB716C
:101830000520FFF7ABFE034623F07F03FB73FB7924
:10184000184600F0E1F803461A46FB7B1343DBB26F
:1018500019460520FFF77CFE00BF1037BD4680BD4E
:1018600080B584B000AF0346FB80FB881D4AA2FB15
:1018700003235B099AB21C4BA3FB021319090B4605
:101880009B000B449B00D31A9BB2FB730520FFF710
:101890007DFE03465BB203F07F035AB297F90F3027
:1018A000DB015BB213435BB2BB73BB7B1946052004
:1018B000FFF74EFEFB880B4AA2FB0312520964217C
:1018C00001FB02F29B1A9BB2DBB2184600F09CF8B7
:1018D000034619460620FFF73BFE00BF1037BD4602
:1018E00080BD00BF1F85EB51CDCCCCCC80B582B084
:1018F00000AF0346FB71FB7903F03F03DBB21846F0
:1019000000F082F8034619460220FFF721FE00BFCF
:101910000837BD4680BD80B582B000AF0346FB717D
:10192000FB79184600F070F8034619460120FFF7CE
:101930000FFE00BF0837BD4680BD80B582B000AF46
:101940000346FB71FB79184600F05EF80346194622
:101950000020FFF7FDFD00BF0837BD4680BD80B504
:1019600082B000AF0346FB710B46BB7113467B711F
:10197000FB791846FFF7BAFFBB791846FFF7CBFF94
:101980007B791846FFF7D9FF00BF0837BD4680BDF9
:1019900090B583B000AF0446084611461A46234668
:1019A000FB710346BB710B467B7113467B80FB7951
:1019B0001846FFF726FFBB791846FFF734FF7B79FF
:1019C0001846FFF70CFF7B881846FFF749FF00BF5A
:1019D0000C37BD4690BD80B483B000AF0346FB71A9
:1019E000FB791B09DBB21A46920013445B00DAB2A2
:1019F000FB7903F00F03DBB21344DBB218460C375C
:101A0000BD465DF8047B704780B483B000AF0346E9
:101A1000FB71FA790C4BA3FB0213D9080B469B0010
:101A20000B445B00D31ADAB2FB790749A1FB03131D
:101A3000DB08DBB21B01DBB21344DBB218460C3708
:101A4000BD465DF8047B7047CDCCCCCC80B582B070
:101A500000AF00237B601F4B5B6C1E4A43F4805336
:101A600053641C4B5B6C03F480537B607B681A4BA4
:101A70001A4A1A60184B4FF482725A60164B0022B1
:101A80009A60154B0022DA60134B02221A61124B46
:101A900001225A61104B4FF400729A610E4B1822CA
:101AA000DA610D4B00221A620B4B00225A620A4B7C
:101AB00000229A62084B0A22DA62074808F0A6FE62
:101AC0000346002B01D002F037FE00BF0837BD46A9
:101AD00080BD00BF00380240CC4A002000300140E9
:101AE00080B582B000AF0346FB711E4B1E4A1A60E0
:101AF0001C4B4FF482725A601A4B00229A60194BA9
:101B00000022DA60174B02221A61164B01225A6139
:101B1000144B4FF400729A61124B1822DA61114B88
:101B200000221A620F4B00225A620E4B00229A6268
:101B30000C4B0A22DA62FB79002B03D1094B2022DD
:101B4000DA6102E0074B1822DA61064808F05EFE0F
:101B50000346002B01D002F0EFFD00BF0837BD4661
:101B600080BD00BFCC4A00200030014080B586B067
:101B700002AF0346FB8007F10F02B91D0A23009351
:101B80000123044808F0CBFEFB7B18461037BD4606
:101B900080BD00BFCC4A002080B500AF00224FF4CA
:101BA00080510E4805F0E6F9012003F0ABFC01225C
:101BB0004FF48051094805F0DDF901224FF400513E
:101BC000064805F0D7F901224FF48061034805F07B
:101BD000D1F9FFF73BFF00BF80BD00BF00100240FE
:101BE00080B582B000AF03460A46FB711346BB8046
:101BF00000BF4FF400611A4805F0A4F90346002B1A
:101C0000F7D00020FFF76CFF01224FF40051144879
:101C100005F0B0F900224FF48061114805F0AAF9EF
:101C20000220FFF7A3FFFB799BB21846FFF79EFF48
:101C3000BB881B0A9BB21846FFF798FFBB88184663
:101C4000FFF794FF01224FF48061054805F092F9F7
:101C50000120FFF745FF00BF0837BD4680BD00BF2C
:101C60000010024080B584B000AF0346FB7100BF96
:101C70004FF400611D4805F065F90346002BF7D0CD
:101C80000020FFF72DFF01224FF40051174805F007
:101C900071F900224FF48061144805F06BF90320BC
:101CA000FFF764FFFB799BB21846FFF75FFFFF2049
:101CB000FFF75CFF0346FB81FB891B02FB81FF20D2
:101CC000FFF754FF03461A46FB891343FB810122A9
:101CD0004FF48061054805F04DF90120FFF700FF42
:101CE000FB8918461037BD4680BD00BF001002407A
:101CF00080B500AF00210420FFF772FF002104200F
:101D0000FFF76EFF00BF80BD80B582B000AF00BF9F
:101D10004FF400613F4805F015F90346002BF7D05A
:101D2000FF20FFF723FF0023FB710CE040F60401C6
:101D30000020FFF755FF022003F0E4FBFB795A1C5B
:101D4000FA71642B09D80020FFF78CFF03461A466E
:101D500040F604039A42E9D100E000BF00BF4FF40F
:101D600000612C4805F0EEF80346002BF7D0002365
:101D7000FB7109E04FF418410320FFF731FFFB79B5
:101D80005A1CFA71642B07D80320FFF76BFF034638
:101D9000B3F5184FEED100E000BF0023FB7109E05E
:101DA0004BF681310520FFF71BFFFB795A1CFA71B6
:101DB000642B09D80520FFF755FF03461A464BF65A
:101DC00081339A42ECD100E000BF00210B20FFF7E5
:101DD00007FFFFF78DFF00224FF400510D4805F07B
:101DE000C9F8FF20FFF7C2FEFF20FFF7BFFEFF206C
:101DF000FFF7BCFEFF20FFF7B9FE01224FF40051B0
:101E0000044805F0B7F8142003F07CFB00BF083746
:101E1000BD4680BD0010024080B584B000AF786040
:101E20002023FB7300224FF40051104805F0A2F864
:101E300006E07B685A1C7A601B781846FFF796FE0E
:101E4000FB7B5A1EFA73002BF3D101224FF4005191
:101E5000064805F08FF801224FF48061034805F031
:101E600089F800BF1037BD4680BD00BF001002409A
:101E700080B584B000AF3B4600221A605A609A6079
:101E8000DA602F4B2F4A1A602D4B4FF480325A6084
:101E90002B4B00229A602A4B01221A61284B012207
:101EA0001A76274B002283F82020254B0022DA6285
:101EB000234B254A9A62224B0022DA60204B0322F0
:101EC000DA611F4B012283F830201D4B01225A6139
:101ED0001B4803F03BFB0346002B01D002F02CFC17
:101EE00002233B6001237B600423BB603B46194611
:101EF000134803F03FFE0346002B01D002F01CFC08
:101F000003233B6002237B603B4619460C4803F0E9
:101F100031FE0346002B01D002F00EFC04233B608F
:101F200003237B603B461946054803F023FE034626
:101F3000002B01D002F000FC00BF1037BD4680BD71
:101F400084020020002001400100000F80B584B011
:101F500000AF3B4600221A605A609A60DA60214B5B
:101F6000214A1A601F4B4FF480325A601D4B0022E9
:101F70009A601C4B01221A611A4B01221A76194BE6
:101F8000002283F82020174B0022DA62154B174AF3
:101F90009A62144B0022DA60124B0122DA61114B73
:101FA000002283F830200F4B01225A610D4803F0C4
:101FB000CDFA0346002B01D002F0BEFB0E233B609E
:101FC00001237B600423BB603B461946054803F0B0
:101FD000D1FD0346002B01D002F0AEFB00BF10374D
:101FE000BD4680BDCC020020002101400100000F51
:101FF00080B58CB000AF786007F11C0300221A6036
:102000005A609A60DA601A617B681B68464A93429C
:1020100058D10023BB61454B5B6C444A43F4807349
:102020005364424B5B6C03F48073BB61BB69002358
:102030007B613E4B1B6B3D4A43F0010313633B4BFB
:102040001B6B03F001037B617B691C23FB61032392
:102050003B6200237B6207F11C031946344804F0FD
:10206000D5FD344B344A1A60324B00225A60314B52
:1020700000229A602F4B0022DA602E4B4FF48062D0
:102080001A612C4B4FF400625A612A4B4FF40052F4
:102090009A61284B4FF48072DA61264B00221A6253
:1020A000244B00225A62234804F012FA0346002B04
:1020B00001D002F041FB7B681E4A9A631D4A7B688F
:1020C00093632CE07B681B681C4A934227D1002352
:1020D0003B61164B5B6C154A43F400735364134B1E
:1020E0005B6C03F400733B613B690023FB600F4BA7
:1020F0001B6B0E4A43F0040313630C4B1B6B03F082
:102100000403FB60FB681023FB6103233B62002395
:102110007B6207F11C031946094804F077FD00BFF4
:102120003037BD4680BD00BF00200140003802406E
:10213000000002401403002010640240002101400E
:102140000008024080B582B000AF094B1B68DB6A13
:102150007B607B685A1C064B1B6852085A6300213F
:10216000034808F073FF00BF0837BD4680BD00BFBD
:10217000284B002080B500AF0021044809F02EF85C
:10218000024B1B6800225A6300BF80BD284B002011
:1021900080B582B000AF0346FB80FFF7D3FF03F0AA
:1021A000A5F90246FB881344024A136000BF0837B2
:1021B000BD4680BD7403002080B582B000AF0A48E0
:1021C00003F008FA0A21084803F009FB064803F067
:1021D000A5FC0346FB80044803F0CEFAFB881846B2
:1021E0000837BD4680BD00BFCC020020B0B58AB024
:1021F00000AF03463960FB7107F10C031422202164
:10220000184610F0F1FD002387F820303868FEF7FB
:102210002FF878627B6A142B01D914237B6207F1B3
:102220000C037A6A3968184610F03EFEFA791346B4
:102230005B001344DA00D21A144B134407F10C016B
:102240001522184610F0C0FD0346002B1AD007F1E6
:102250000C02FB7919460020FFF7A3F8FA79134620
:102260005B001344DA00D21A084B13441D4607F1F1
:102270000C040FCC28606960AA60EB6020682861BC
:1022800023792B7500BF2837BD46B0BD44280020F8
:1022900080B582B000AF00237B600FE07A68134600
:1022A0005B001344DA00D21A084B13441522FF21B5
:1022B000184610F099FD7B6801337B607B68032B27
:1022C000ECDD00BF00BF0837BD4680BD44280020BC
:1022D00080B485B000AFF860B9607A60FA68BB6816
:1022E0009A4201DABB68FB60FA687B689A4201DDBA
:1022F0007B68FB60FB68DBB218461437BD465DF8AF
:10230000047B704780B483B000AF78607B6803F0D3
:102310000303002B0CD17A68114B83FB0213591174
:10232000D317CB1A642101FB03F3D31A002B0DD171
:102330007A680B4B83FB0213D911D317CB1A4FF4D6
:10234000C87101FB03F3D31A002B01D1012300E074
:10235000002318460C37BD465DF8047B704700BF6C
:102360001F85EB5190B583B000AF786039603B6852
:10237000022B0DD10A4B5C787868FFF7C3FF034648
:10238000002B14BF01230023DBB22344DBB203E0A4
:102390003B68013B024AD35C18460C37BD4690BDF2
:1023A000505D010880B487B000AFF860B9607A6012
:1023B000BB68022B02DCFB68013BFB60FB68002B67
:1023C00000DA03339B101A46FB681A44FB6818496D
:1023D00081FB03014911DB175B1A1A44FB6814499E
:1023E00081FB0301C911DB17CB1A1A44BB68013BFF
:1023F000104951F823301A447B681A440E4B83FB72
:10240000021313449910D317C91A0B46DB005B1A49
:10241000D31A7B617B69002B02D07B69DBB200E0C1
:10242000072318461C37BD465DF8047B704700BF84
:102430001F85EB51500000209324499280B500AFD6
:10244000FFF781F903461A46124B1A60FFF76CF941
:1024500003461A460F4B1A71FFF75AF903461A46FC
:102460000C4B5A71FFF797F903461A46094B9A71BC
:10247000FFF79DF903461A46064BDA71FFF7A3F9F9
:1024800003461A46034B1A72024B00225A7200BFCF
:1024900080BD00BF9828002080B582B000AF184BE7
:1024A0001B68174A12791146154A52791846FFF7E8
:1024B00079FF0346FB71124B5879114B1979104B78
:1024C0001B689BB2FA79FFF763FA0D4B9B790C4AB4
:1024D000D1790B4A127A1846FFF741FA0F20FFF71D
:1024E00055F80346BB71BB7903F07F03DBB2194695
:1024F0000F20FFF72DF800BF0837BD4680BD00BF95
:102500009828002080B584B000AF7860414B5B7A9A
:10251000052B7BD801A252F823F000BF3525000817
:102520005525000873250008B3250008D1250008AB
:10253000EF250008374B1A687B68134440F63302D6
:102540004FF4FA611846FFF7C3FE03461A46314BB3
:102550001A605BE02F4B1B791A467B6813440C22F0
:1025600001211846FFF7B4FE03461A46294B1A719B
:102570004CE0284B1B68274A127911461846FFF792
:10258000F1FE0346FB72234B5B791A467B681344CA
:10259000FB60FB68002B01DCFB7AFB60FB7AFA68CE
:1025A0009A4201DD0123FB60FB68DAB2194B5A71D4
:1025B0002CE0184B9B791A467B68134417220021A4
:1025C0001846FFF785FE03461A46124B9A711DE026
:1025D000104BDB791A467B6813443B2200211846D6
:1025E000FFF776FE03461A460A4BDA710EE0094BF6
:1025F0001B7A1A467B6813443B2200211846FFF7DA
:1026000067FE03461A46034B1A7200BF00BF10371D
:10261000BD4680BD9828002080B400AF0A4B5B7A8D
:102620005A1C0A4B83FB0231D317C91A0B465B00B5
:102630000B445B00D11ACAB2034B5A7200BFBD46AD
:102640005DF8047B704700BF98280020ABAAAA2A37
:1026500080B500AFFFF71CFE152200210F4810F0D7
:10266000C3FB152200210E4810F0BEFB15220021ED
:102670000C4810F0B9FB0C490020FFF7B7FD0B49DF
:102680000120FFF7B3FD0A490220FFF7AFFD08491B
:102690000320FFF7ABFD00BF80BD00BFA4280020D2
:1026A000BC280020D4280020605901087059010876
:1026B00088590108B0B592B000AF7860396007F171
:1026C000240315220021184610F08EFB7868FDF7D0
:1026D000CFFD78643868FDF7CBFD38647B6C142B34
:1026E00001D914237B643B6C142B01D914233B6464
:1026F0007A6C3B6C1344142B05D87A6C3B6C1344F6
:10270000C3F1140300E00123FB63FB6B102B01D921
:102710001023FB6307F10C0318220021184610F068
:1027200063FB07F10C037A6C7968184610F0BCFB68
:1027300007F10C027B6C1344FA6B2E21184610F043
:1027400053FB7A6CFB6B134407F10C0213443A6C95
:102750003968184610F0A8FB1F4A204B14461D4646
:102760000FCD0FC495E803002060043421701B4A8C
:102770001B4B14461D460FCD0FC495E80300206087
:102780000434217007F10C03164A152114480FF088
:102790007DFB114B1B78002B01D00F4B00E0124B3F
:1027A00019460120FFF722FD0C4B1B78002B01D0AE
:1027B0000A4B00E00C4B19460220FFF717FD0849B1
:1027C0000320FFF713FD4FF4FA7002F09BFE00BFE9
:1027D0004837BD46B0BD00BFA4280020BC2800205B
:1027E000D4280020A05901088859010880B500AFFD
:1027F00002F07CFE0346184680BD000080B489B01C
:1028000000AFF860B9607A60FB68DB43FB600023CF
:10281000FB611FE0BA68FB6913441B781A46FB682A
:102820005340FB600023BB610EE0FB6803F0010333
:102830005B427B61FB685A0879690C4B0B40534043
:10284000FB60BB690133BB61BB69072BEDDDFB6935
:102850000133FB61FA697B689A42DBD3FB68DB4397
:1028600018462437BD465DF8047B70472083B8EDD9
:1028700080B582B000AF786014220021786810F033
:10288000B3FA7B684AF25A521A807B6801229A7026
:102890007B684FF461729A807B6840F63402DA807C
:1028A0007B6819221A727B6800225A727B684FF487
:1028B00080725A817B6800229A817B6801229A7318
:1028C000102279680020FFF799FF02467B681A61A1
:1028D00000BF0837BD4680BD80B582B000AF7860CC
:1028E0007868FFF7C5FF00BF0837BD4680BD000010
:1028F0002DE9F04190B006AF06F05CFB0346324A8A
:10290000A2FB03239B0C7B6207F10C007B6A009304
:102910002E4B2F4A18210FF0B9FA07F10C03194674
:102920000020FFF763FCFEF70EFF03469846FEF714
:10293000FBFE03461C46FEF7EBFE03461D46FEF774
:102940002AFF03461E46FEF732FF03467B60FEF772
:102950003AFF034607F10C0004937B680393029649
:102960000195009443461B4A18210FF08FFA07F196
:102970000C0319460120FFF739FC174B9B691846D9
:10298000FDF7E2FD04460D46134BDB691846FDF7E3
:10299000DBFD02460B4607F10C00CDE90223CDE931
:1029A00000450E4A18210FF071FA07F10C03194681
:1029B0000220FFF71BFC0A490320FFF717FC00BFAA
:1029C0002837BD46BDE8F08183DE1B43AC590108C2
:1029D000B4590108C859010888230020E8590108A2
:1029E000005A010880B58EB002AF7B4B93F8493096
:1029F000002B01D0794B00E0794B3846794A1821F9
:102A00000FF044FA3B4619460020FFF7EFFB724BEC
:102A10005B8CFB85704B9B8CBB856F4BDB8C7B850C
:102A20006D4B93F84830002B21D1FB8D38466E4A10
:102A300018210FF02BFA3B4619460120FFF7D6FB71
:102A4000BB8D3846694A18210FF020FA3B461946DB
:102A50000220FFF7CBFB7B8D3846654A18210FF02B
:102A600015FA3B4619460320FFF7C0FBB0E05A4B6E
:102A700093F84830012B60D1FB8D07EE903AF8EEC9
:102A8000E77A9FED5C7A27EE877ADFED5B6AC7EE27
:102A9000267AC7ED087ABB8D07EE903AF8EEE77A12
:102AA0009FED547A27EE877ADFED536AC7EE267AD8
:102AB000C7ED077A7B8D07EE903AF8EEE77A9FED47
:102AC0004D7A27EE877ADFED4C6AC7EE267AC7ED9E
:102AD000067A386AFDF738FD02460B463846CDE9DE
:102AE0000023464A18210FF0D1F93B461946012030
:102AF000FFF77CFBF869FDF727FD02460B463846D9
:102B0000CDE900233E4A18210FF0C0F93B46194693
:102B10000220FFF76BFBB869FDF716FD02460B4676
:102B20003846CDE90023374A18210FF0AFF93B466C
:102B300019460320FFF75AFB4AE0FB8D642202FB93
:102B400003F3314A82FB03121A44D212DB17D31A61
:102B500087F82930BB8D642202FB03F32A4A82FBEB
:102B600003121A44D212DB17D31A87F828307B8D50
:102B7000642202FB03F3244A82FB03121A44D2129A
:102B8000DB17D31A87F8273097F8293038461F4AC1
:102B900018210FF07BF93B4619460120FFF726FB71
:102BA00097F8283038461A4A18210FF06FF93B463B
:102BB00019460220FFF71AFB97F827303846154AC6
:102BC00018210FF063F93B4619460320FFF70EFB6F
:102BD00000BF3037BD4680BD88230020145A01084D
:102BE000185A01081C5A0108305A0108385A0108BD
:102BF000405A01083333534000F07F45485A0108DA
:102C0000545A0108605A0108810008806C5A010872
:102C1000785A0108845A010880B58AB002AF7860FA
:102C20001B490020FFF7E2FA7B68002B01D07B688C
:102C300000E0184B07F10800174A18210FF026F999
:102C400007F1080319460120FFF7D0FA134B1B7B4D
:102C50001A46124B93F88132002B01D0104B00E042
:102C6000104B07F10800009313460F4A18210FF08C
:102C70000DF907F1080319460220FFF7B7FA0B49CF
:102C80000320FFF7B3FA00BF2037BD4680BD00BF69
:102C9000905A01089C5A0108A85A0108882300206C
:102CA000AC5A0108B45A0108BC5A0108C85A0108B4
:102CB00080B58AB002AF2B4B1B891A46294B5B8922
:102CC000381D00931346284A18210FF0DFF83B1DEA
:102CD00019460020FFF78AFA224B5B8CFB83214BBD
:102CE0001989204B5B891A461E4B1B89D31A1A4639
:102CF000FB8B03FB02F21D4BA3FB0203D21A52080B
:102D00001344DB0A9BB20B44BB83FA8BBB8B381D8D
:102D100000931346164A18210FF0B8F83B1D1946C8
:102D20000120FFF763FA0F4B1B8C1A460D4B93F8EB
:102D30004A30002B01D00F4B00E00F4B381D0093A1
:102D400013460E4A18210FF0A1F83B1D1946022028
:102D5000FFF74CFA0A490320FFF748FA00BF203773
:102D6000BD4680BD88230020E05A01080101100003
:102D7000EC5A0108145A0108185A0108005B0108AE
:102D8000145B010880B582B000AF0346FB711049A7
:102D90000020FFF72BFAFB79002B01D10D4B00E04F
:102DA0000D4B19460120FFF721FAFB79012B01D1C8
:102DB0000A4B00E00A4B19460220FFF717FA0949AF
:102DC0000320FFF713FA00BF0837BD4680BD00BFE0
:102DD0002C5B0108345B0108405B01084C5B010877
:102DE000585B0108645B0108B0B58AB004AF1E49A6
:102DF0000020FFF7FBF91D4B9B691846FDF7A4FB6C
:102E000004460D46194BDB691846FDF79DFB02464B
:102E10000B463846CDE90223CDE90045144A182176
:102E20000FF034F83B4619460120FFF7DFF90F4B4E
:102E30005B8C19460D4B9B8C1A460C4BDB8C384631
:102E4000019300920B460B4A18210FF01FF83B46E6
:102E500019460220FFF7CAF907490320FFF7C6F910
:102E600000BF1837BD46B0BD745B01088823002041
:102E70007C5B01088C5B01089C5B010880B588B015
:102E800002AF2E490020FFF7B1F92D4B1B682C4AE9
:102E9000127911462A4A5279384601920091294AFC
:102EA00018210EF0F3FF264B5B7A002B02D13E2354
:102EB0003B700CE0224B5B7A012B02D13E23FB716D
:102EC00005E01F4B5B7A022B01D13E23BB733B46CF
:102ED00019460120FFF78AF9194B9B791946184BBF
:102EE000DB791A46164B1B7A3846019300920B4643
:102EF000154A18210EF0CAFF114B5B7A032B02D141
:102F00003E233B700CE00E4B5B7A042B02D13E2338
:102F1000FB7105E00A4B5B7A052B01D13E23BB73A5
:102F20003B4619460220FFF761F908490320FFF7E5
:102F30005DF900BF1837BD4680BD00BFA45B010826
:102F400098280020B45B0108C85B0108E05B010819
:102F500080B586B000AF0121374803F0F3FF034688
:102F60003B710221344803F0EDFF03467B710421DD
:102F7000314803F0E7FF0346BB7108212E4803F0F8
:102F8000E1FF0346FB71FFF731FC386100237B61F1
:102F900049E03A1D7B6913441B78002B0CBF0123C9
:102FA0000023DBB2FB73FB7B002B0DD0234A7B6934
:102FB000134444331B78002B06D1204A7B690C3321
:102FC0009B0013443A695A60FB7B002B22D11B4AB9
:102FD0007B69134444331B78002B1BD0174A7B6951
:102FE0000C339B0013445B683A69D31ABB60BB681F
:102FF000B3F5966F07D37B69DBB20533DBB21846B6
:1030000000F02AFF06E07B69DBB20133DBB2184631
:1030100000F022FF094A7B6913444433FA7B1A709B
:103020007B6901337B617B69032BB2DD00BF00BF8D
:103030001837BD4680BD00BF00080240882300202D
:1030400080B500AF1C4B1B78002B02D11B48FEF74C
:103050009AF81B4B1B78002B02D11A48FEF793F805
:10306000164BD3E9022310461946FDF7BDFD034672
:10307000154A9361134BD3E9022310461946FDF715
:10308000B3FD0346104AD361104B1B889AB20E4B16
:103090005A840E4B5B889AB20B4B9A840B4B9B88DD
:1030A0009AB2094BDA84FFF787F803461A46064BB3
:1030B0001A8400BF80BD00BFE92800202000002046
:1030C000EA280020380000208823002080490020C2
:1030D00090B599B004AFFEF71BFB034687F84F305D
:1030E0002E4B93F8B434002B06D02C4B93F8B53408
:1030F00097F84F209A424DD0284B93F8B434002BC8
:1031000009D027480DF0AEFA25480DF029FB234BD6
:10311000002283F8B424FEF716FB03461C46FEF794
:1031200003FB03461A4697F84F30381D029301926D
:1031300000941C4B1C4A40210EF0A8FE19480DF0CB
:1031400018FE3B1D3222194615480CF01DFE0346A1
:10315000002B1FD1114BD3F89032002B0BD1134B06
:10316000BB64B86CFDF784F8024607F14403B96C00
:103170000B480DF002F9094B012283F8B424074AE9
:1031800097F84F3082F8B53402F0B0F90346034A9D
:10319000C2F8B83400BF5437BD4690BD8823002024
:1031A0000C260020F45B0108F85B0108105C0108A4
:1031B0002DE9F041A8B00AAF364B93F84930002B07
:1031C00061D0FFF785FF334B93F8B434002B5CD00C
:1031D000FEF7E1FA03469846FEF7E9FA03461E4673
:1031E000FEF7F1FA0346FB602A4B9B691846FDF790
:1031F000ABF904460D46274BDB691846FDF7A4F9E9
:1032000002460B462349098CB9602249498C7960F2
:103210002049898C39601F49C98C07F11400099134
:103220003968089179680791B9680691CDE9042356
:10323000CDE90245FB68019300964346164A60219A
:103240000EF024FE07F114031846FDF711F80246AC
:1032500007F1100307F1140110480DF08EF802F089
:1032600045F978670B4BD3F8B8347A6FD31A41F22B
:10327000873293420AD909480DF0F4F9054A7B6F69
:10328000C2F8B83402E000BF00E000BF7837BD46A6
:10329000BDE8F081882300203C5C01080C2600205A
:1032A00080B586B000AF78607868FCF7E1FF7861A0
:1032B0007B69032B01D800232AE07B69043B7A68F1
:1032C00013443B613B691B7843F02003FB733B696C
:1032D00001331B7843F02003BB733B6902331B7837
:1032E00043F020037B733B6903331B7843F02003D7
:1032F0003B73FB7B2E2B0AD1BB7B6D2B07D17B7BDA
:10330000702B04D13B7B332B01D1012300E0002340
:1033100018461837BD4680BD80B5D4B000AF634BAA
:103320000022A3F84C2007F58E73614918460DF072
:103330004AFC0346002B4CD13A1D07F58E7311460B
:1033400018460DF0D9FC0346002B3DD107F5A873B4
:10335000A3F5A6739B7D002B36D007F5A873A3F5C4
:10336000A6731B7A03F01003002B2AD13B1D1633E2
:103370001846FFF795FF0346002BDDD04B4BB3F803
:103380004C309B014B4A98183B1D16333F2219467F
:103390000FF044FD454BB3F84C30464A9B011344B3
:1033A0003F3300221A70414BB3F84C3001339AB2CC
:1033B0003E4BA3F84C203D4BB3F84C307F2B02D84A
:1033C000BAE700BFB8E700BF07F58E7318460DF0E7
:1033D0006DFC364BB3F84C30002B55D107F58E738E
:1033E000354918460DF0EFFB0346002B4CD13A1D32
:1033F00007F58E73114618460DF07EFC0346002B30
:103400003DD107F5A873A3F5A6739B7D002B36D09D
:1034100007F5A873A3F5A6731B7A03F01003002B1E
:103420002AD13B1D16331846FFF73AFF0346002BFF
:10343000DDD01E4BB3F84C309B011E4A98183B1D43
:1034400016333F2219460FF0E9FC184BB3F84C3005
:10345000184A9B0113443F3300221A70134BB3F8F0
:103460004C3001339AB2114BA3F84C200F4BB3F8F8
:103470004C307F2B02D8BAE700BFB8E700BF07F592
:103480008E7318460DF012FC084BB3F84E20074B14
:10349000B3F84C309A4203D3044B0022A3F84E20D9
:1034A00000BF07F5A877BD4680BD00BF8823002078
:1034B000645C0108EC2800206C5C010880B400AF5B
:1034C000084BB3F84C30002B06D0064BB3F84E3007
:1034D0009B01054A134400E0044B1846BD465DF8C5
:1034E000047B704788230020EC2800209C5A0108A8
:1034F00080B584B000AF0346FB71FB791F2B01D967
:103500001F23FB710F4AFB791373FB79C3F11F0370
:103510009BB2DB00FB81FB89FE2B01D9FE23FB81E3
:10352000B7F90E301B021AB2B7F90E3013431BB2B3
:103530009BB219460B20FEF753FB00BF1037BD4668
:1035400080BD00BF8823002080B500AF104B93F8EA
:103550008032002B06D00F480DF002F90C4B0022F0
:1035600083F880220A4B002283F881220A4B002232
:103570001A800A4B01221A80094B00221A60094B5B
:1035800000221A60084B00221A6000BF80BD00BFF5
:1035900088230020D8230020782300201800002052
:1035A0007C230020802300208423002080B584B069
:1035B00000AF03463960FB710023BB603B68B3F585
:1035C000805F02D94FF480533B60FB791B030A4AAA
:1035D000991807F108033A6808480CF08FFD034674
:1035E000FB73FB7B002B01D1BB6800E00023184676
:1035F0001037BD4680BD00BF78030020D8230020CF
:1036000080B59CB002AF0346FB802F4BB3F84C3023
:10361000002B02D1FFF798FF52E0FFF795FF2A4AEF
:10362000FB88A2F84E30FB889B01284A134407F11F
:1036300008000093264B274A60210EF027FC07F173
:1036400008030122194624480CF09EFB0346002B78
:103650002ED11D4B012283F880221B4B012283F8BF
:103660008122FEF751FB184B1B7B1846FFF740FFEA
:103670001A4B00221A801A4B01221A80194B002281
:103680001A60164B1B88DBB24FF480511846FFF7C7
:103690008DFF0346144A1360114B1B88DBB24FF4B5
:1036A00080511846FFF782FF0346104A136007E077
:1036B000054B002283F88022034B002283F88122ED
:1036C0006837BD4680BD00BF88230020EC2800205D
:1036D000645C0108705C0108D82300207823002076
:1036E000180000207C230020802300208423002059
:1036F00080B584B000AF454B93F88032002B00F0CA
:103700008180424B93F88132002B7BD010E0404BFC
:103710001B881A463F4B1B68120313443E4A13444E
:103720001846FEF779FB3B4B1B682033394A136080
:103730004FF40061394803F005FC0346012B07D123
:10374000344B1B6803F12002354B1B689A42DED9CB
:10375000304B1A68324B1B689A4234D32C4B1B886F
:1037600083F001039AB22A4B1A802E4B1B8883F0F8
:1037700001039AB22B4B1A80264B00221A602A4B67
:103780001B68274A1360284B00221A60244B1B68D1
:10379000002B18D11D4BB3F84E305A1C1B4BB3F8FD
:1037A0004C30002B03D0194BB3F84C3000E0012310
:1037B00092FBF3F101FB03F3D31AFB81FB8918465B
:1037C000FFF71EFF1FE0184B1B68002B1BD10F4B90
:1037D000DA6D0E4B9B6ED31ABB60BB68002B12D008
:1037E000BB68B3F5806F28BF4FF480637B600D4BDF
:1037F0001B88DBB279681846FFF7D8FE03460A4AF1
:10380000136000E000BF1037BD4680BD8823002054
:10381000782300207C230020780300200010024041
:1038200080230020180000208423002080B586B06B
:1038300000AF78602A4B93F88032002B4BD0284B96
:10384000DB6D7B61264B9B6E3B617B68002BB8BFB9
:103850005B4219467B69234AA2FB03235B0901FBF8
:1038600003F3FB607B68002B09DA3A69FB689A4234
:1038700003D93A69FB68D31A08E0002306E03A69E5
:10388000FB681A447B69934228BF1346BB60B96842
:1038900015480CF08FFF154B00221A80144B0122A3
:1038A0001A80144B00221A60104B1B88DBB24FF4B5
:1038B00080511846FFF77AFE03460F4A13600C4BFF
:1038C0001B88DBB24FF480511846FFF76FFE0346AA
:1038D0000A4A136000E000BF1837BD4680BD00BF34
:1038E000882300201F85EB51D82300207823002057
:1038F000180000207C230020802300208423002047
:1039000080B582B000AF0346FB711D4AFB7913708E
:10391000FEF7BEFCFB79062B2CD801A252F823F04F
:103920003D39000843390008493900085739000873
:103930005D390008653900086F390008FEF7D8FFC7
:1039400019E0FFF74FF816E0FFF7B8FD03461846F9
:10395000FFF762F90FE0FFF7ABF90CE00020FFF78B
:1039600011FA08E0FEF76AFDFFF788FA03E0FFF7B7
:103970003BFA00E000BF00BF0837BD4680BD00BF76
:103980008823002080B584B000AF0346FB71B04BA4
:103990001B78062B00F2448201A252F823F000BFEC
:1039A000BD390008213A0008BF3A0008EF3B000883
:1039B000E93C0008813D0008013E0008FB79012B2D
:1039C00008D0FB79022B05D0FB79032B02D0FB79C1
:1039D000042B02D15020FEF7DBFBFB79012B03D136
:1039E0000120FFF78DFF1DE2FB79022B03D102209E
:1039F000FFF786FF16E2FB79032B03D10320FFF7C5
:103A00007FFF0FE2FB79042B03D10420FFF778FF3F
:103A100008E2FB790B2B40F00582FEF769FF01E21B
:103A2000FB79042B06D15020FEF7B2FB0020FFF7F4
:103A300067FFF9E1FB79012B16D15020FEF7A8FBB7
:103A4000834B93F848305A1C824B83FB0231D317C7
:103A5000C91A0B465B000B44D11ACAB27C4B83F8DF
:103A60004820FEF7BFFFDFE1FB79022B0ED150208B
:103A7000FEF78EFB764B93F8493083F00103DAB200
:103A8000734B83F84920FEF7ADFFCDE1FB79032BA3
:103A90000ED15020FEF77CFB6D4B9B79012B01D1A1
:103AA000052200E001226A4B9A71FEF79BFFBBE101
:103AB000FB790B2B40F0B881FEF794FFB4E1FB7962
:103AC000042B08D15020FEF763FBFFF73DFD0020DB
:103AD000FFF716FFAAE1FB79022B12D15020FEF767
:103AE00057FB5B4B93F8813283F00103DAB2584BFA
:103AF00083F88122FFF7E2FC03461846FFF78CF8B3
:103B000094E1FB79012B25D15020FEF741FB504B6E
:103B1000B3F84C30002B00F089814D4BB3F84E3098
:103B20001A464B4BB3F84C301344013B484AB2F8A9
:103B30004C2093FBF2F101FB02F29B1A3B813B8983
:103B40001846FFF75DFDFFF7B9FC03461846FFF77F
:103B500063F86BE1FB79032B20D15020FEF718FBB3
:103B60003B4BB3F84C30002B00F06081384BB3F87E
:103B70004E300133364AB2F84C2093FBF2F101FB90
:103B800002F29B1A7B817B891846FFF739FDFFF70C
:103B900095FC03461846FFF73FF847E1FB79062BF3
:103BA0000BD12B4B1B7B1846FFF7A2FCFFF786FCC3
:103BB00003461846FFF730F838E1FB79052B04D1AE
:103BC0004FF0FF30FFF732FE30E1FB79072B03D1D6
:103BD0000120FFF72BFE29E1FB790B2B40F026811A
:103BE000FFF76CFC03461846FFF716F81EE1FB7959
:103BF000042B06D15020FEF7CBFA0020FFF780FE01
:103C000016E1FB79022B0ED15020FEF7C1FA104BC2
:103C100093F84A3083F00103DAB20D4B83F84A205F
:103C2000FFF746F804E1FB79012B15D15020FEF790
:103C3000AFFA074B1B89B3F5167F05D9044B1B89D7
:103C4000323B9AB2024B1A81FFF732F8F0E000BF24
:103C50008823002056555555FB79032B11D1502050
:103C6000FEF796FA784B5B8940F62722934205D8F7
:103C7000754B5B8932339AB2734B5A81FFF718F850
:103C8000D6E0FB79092B03D0FB790A2B40F0D080DA
:103C90006D4B93F84A30002B02D06B4B1B8C01E02C
:103CA000694B5B8CFB81684B1989674B5B891A46B2
:103CB000654B1B89D31A1A46FB8903FB02F2634B3F
:103CC000A3FB0203D21A52081344DB0A9BB20B4433
:103CD000BB815F4B1B68BA899A63FB790A2B40F062
:103CE000A780FEF7E5FFA3E0FB79042B06D1502067
:103CF000FEF74EFA0020FFF703FE9BE0FB79012B55
:103D000012D15020FEF744FA524B1B78002B05D0FD
:103D1000504B1B78013BDAB24E4B1A704D4B1B785F
:103D20001846FFF72FF885E0FB79032B12D15020BE
:103D3000FEF72EFA474B1B78002B05D1454B1B781D
:103D40000133DAB2434B1A70424B1B781846FFF727
:103D500019F86FE0FB79022B6CD15020FEF718FAAE
:103D60003C4B1B78002B03D10520FFF7C9FD61E018
:103D7000384B1B78012B5DD10620FFF7C1FD59E0C0
:103D8000FB79042B06D15020FEF702FA0420FFF73E
:103D9000B7FD51E0FB79012B09D13220FEF7F8F98C
:103DA0004FF0FF30FEF7AEFBFFF768F844E0FB7919
:103DB000032B08D13220FEF7EBF90120FEF7A2FB1E
:103DC000FFF75CF838E0FB79022B07D13220FEF7D1
:103DD000DFF9FEF721FCFFF751F82DE0FB79062B08
:103DE00008D17820FEF7D4F9FEF756FB0420FFF740
:103DF00087FD21E0FB790B2B1ED1FFF73FF81BE07D
:103E0000FB79042B06D15020FEF7C2F90420FFF7FE
:103E100077FD13E0FB790B2B10D1FEF7E5FF0DE0EA
:103E200000BF0CE000BF0AE000BF08E000BF06E0F2
:103E300000BF04E000BF02E000BF00E000BF00BF21
:103E40001037BD4680BD00BF88230020010110004F
:103E5000704B0020EC48002080B485B000AF0346D2
:103E6000FB710D4B1B780133DBB203F00F03FB73C7
:103E70000A4B1B78FA7B9A4208D0074B1B781946ED
:103E8000074AFB795354044AFB7B137000BF143775
:103E9000BD465DF8047B70470049002001490020C1
:103EA000F048002080B483B000AF0F4B1A780F4B5E
:103EB0001B789A4201D100230FE00B4B1B781A4666
:103EC0000B4B9B5CFB71084B1B780133DBB203F09F
:103ED0000F03DAB2044B1A70FB7918460C37BD4653
:103EE0005DF8047B704700BF0149002000490020B5
:103EF000F048002080B584B000AF40F2BC42002101
:103F00006F480EF071FF6F48FEF7E6FC04211420A5
:103F1000FDF76AF9FEF79CFB6B496C48FEF7CAFB9C
:103F200064230122D0216A4803F04AFF0346002B94
:103F30000CBF01230023DBB2FB60FB68002B01D028
:103F4000614B00E0634B19466348FEF7B3FB642303
:103F5000012290215E4803F033FF0346002B0CBF83
:103F600001230023DBB2BB60BB68002B01D0564BA2
:103F700000E0584B19465948FEF79CFB6423012288
:103F80009221534803F01CFF0346002B0CBF012372
:103F90000023DBB27B607B68002B01D04A4B00E042
:103FA0004C4B19464E48FEF785FB01224D494E48C1
:103FB0000BF0A4FE0346FB70FB78002B01D1424BB3
:103FC00000E0444B19464948FEF774FB4FF400618A
:103FD000474802F0B7FF0346BB70BB78012B01D105
:103FE000394B00E03B4B19464248FEF763FBFEF7B6
:103FF000E3F803463B803B88B3F5805F01D2324B48
:1040000000E0344B19463C48FEF754FB782001F0A1
:1040100079FAFEF73DF939490020FEF7E7F89620D6
:1040200001F070FA2A48FDF779FAFDF764FB0346C0
:10403000002B02D00520FFF763FC3148FDF750F854
:1040400003461A462F4B1A702F48FDF749F80346CE
:104050001A462E4B1A700122224923480BF04EFEBD
:104060000346002B07D101222021294802F082FFBC
:10407000FFF752F904E000222021254802F07AFFE0
:10408000FDF78AFDFDF740FE0D4B1B7B1846FFF741
:104090002FFAFEF7ABFB0346094A9362084B9B6A73
:1040A000074AD362064B9B6A054A1363FEF7C8FFB3
:1040B0000020FFF725FC00BF1037BD4680BD00BFC4
:1040C000882300208C230020785C0108805C010894
:1040D0002C4900208C5C0108945C0108A05C01085C
:1040E000B45C0108785000207C500020C85C0108B6
:1040F00000100240DC5C0108EC5C0108FC5C01087B
:1041000020000020E928002038000020EA280020B4
:104110000004024080B582B000AFFEF767FB786014
:10412000264B9B6A7A68D31A312B16D9234A7B68AF
:104130009362FEF70DFF224B1B68002B0AD0204B29
:104140001A687B68D31A002B04DC1D4B00221A600E
:10415000FEF710F80920FFF77FFE184BDB6A7A683C
:10416000D31AC72B07D9154A7B68D362FEF768FFBD
:104170000A20FFF771FE114B1B6B7A68D31AB3F557
:104180007A7F07D30D4A7B681363FFF711F80B2082
:10419000FFF762FEFFF7ACFAFFF784FE0346FB7001
:1041A000FB78002B04D0FB781846FFF7EBFBF3E716
:1041B00000BF00BF0837BD4680BD00BF8823002078
:1041C0007403002080B500AF164B174A1A60154BD8
:1041D00010225A60134B00229A60124B0022DA60C0
:1041E000104B00221A610F4B00225A610D4B002226
:1041F0001A760C4B00225A760A4B00229A76094B0B
:104200000022DA76074B00221A77064B00225A77F3
:10421000044801F04FFF0346002B01D000F08CFA58
:1042200000BF80BD044900200064004080B58AB012
:1042300000AF786007F1140300221A605A609A6098
:10424000DA601A617B681B68194A93422BD10023FC
:104250003B61184B1B6C174A43F000731364154BFA
:104260001B6C03F000733B613B690023FB60114B47
:104270001B6B104A43F0080313630E4B1B6B03F0D8
:104280000803FB60FB6803237B610223BB610023FF
:10429000FB6103233B6209237B6207F11403194688
:1042A000054802F0B3FC00BF2837BD4680BD00BF03
:1042B0000064004000380240000C024080B582B02B
:1042C00000AF00237B60144B1B6B134A43F4800345
:1042D0001363114B1B6B03F480037B607B6800222C
:1042E0000021382002F0BDF8382002F0D6F8002274
:1042F00000213B2002F0B5F83B2002F0CEF800226E
:104300000021452002F0ADF8452002F0C6F800BFBC
:104310000837BD4680BD00BF0038024080B58CB074
:1043200000AF07F11C0300221A605A609A60DA603D
:104330001A610023BB616E4B1B6B6D4A43F0800317
:1043400013636B4B1B6B03F08003BB61BB690023E2
:104350007B61674B1B6B664A43F004031363644B3A
:104360001B6B03F004037B617B6900233B61604BA3
:104370001B6B5F4A43F0010313635D4B1B6B03F040
:1043800001033B613B690023FB60594B1B6B584A9F
:1043900043F002031363564B1B6B03F00203FB60F5
:1043A000FB680023BB60524B1B6B514A43F0100368
:1043B00013634F4B1B6B03F01003BB60BB68002300
:1043C0007B604B4B1B6B4A4A43F008031363484B1B
:1043D0001B6B03F008037B607B68002241F237010E
:1043E000444802F0C7FD00224FF45051424802F009
:1043F000C1FD00224FF47C41404802F0BBFD002289
:104400004FF480713E4802F0B5FDCF23FB610023DD
:104410003B6200237B6207F11C031946394802F016
:10442000F5FB41F23703FB6101233B6200237B6212
:104430000023BB6207F11C0319462E4802F0E6FB7D
:104440004FF45053FB6101233B6200237B62002346
:10445000BB6207F11C031946274802F0D7FB4FF453
:104460000063FB6100233B6200237B6207F11C03B6
:104470001946214802F0CAFB4FF47C43FB6101233B
:104480003B6200237B620023BB6207F11C031946D9
:104490001A4802F0BBFB4FF48073FB6101233B62BF
:1044A00000237B620023BB6207F11C0319461448FA
:1044B00002F0ACFB4FF48063FB6100233B620023FE
:1044C0007B6207F11C0319460D4802F09FFB302365
:1044D000FB6100233B6200237B6207F11C0319464A
:1044E000064802F093FB00BF3037BD4680BD00BFD9
:1044F000003802400004024000100240000C02405C
:10450000000002400008024080B500AF124B134A81
:104510001A60114B124A5A600F4B00229A600E4BE0
:104520000022DA600C4B4FF480421A610A4B0022E1
:104530005A61094B00229A61074B0022DA61064B4F
:1045400000221A62044802F095FD0346002B01D0B8
:1045500000F0F2F800BF80BD2C490020005400405C
:10456000801A060080B58AB000AF786007F11403A6
:1045700000221A605A609A60DA601A617B681B68D0
:10458000194A93422BD100233B61184B1B6B174AEE
:1045900043F002031363154B1B6B03F002033B61F3
:1045A0003B69C0237B611223BB610023FB610323B2
:1045B0003B6204237B6207F1140319460C4802F0A6
:1045C00025FB0023FB60094B1B6C084A43F40013D6
:1045D0001364064B1B6C03F40013FB60FB6800BF05
:1045E0002837BD4680BD00BF00540040003802405F
:1045F0000004024080B500AF00F012FF00F032F876
:10460000FFF78CFEFFF75AFEFDF732FCFDF79EFC2C
:10461000FFF7D8FDFFF778FF00F094F800F0A2F95B
:1046200000F076FB00F014FC00F082FD00F0AAFD23
:1046300008F016FE00F082FC00F04CFE0322064952
:10464000064801F057F90421054806F0FFFCFFF782
:1046500051FCFFF75FFDFCE7804900208402002049
:10466000704B002080B594B000AF07F120033022DA
:10467000002118460EF0B8FB07F10C0300221A6067
:104680005A609A60DA601A610023BB60284B1B6C89
:10469000274A43F080531364254B1B6C03F080536F
:1046A000BB60BB6800237B60224B1B68214A43F43C
:1046B000804313601F4B1B6803F480437B607B685F
:1046C00001233B624FF480337B620223BB634FF4D0
:1046D0008003FB6306233B64A8237B640223BB6443
:1046E0000723FB6407F12003184604F005F903468D
:1046F000002B01D000F020F80F23FB6002233B6168
:1047000000237B614FF4A053BB614FF48053FB61E6
:1047100007F10C030521184604F066FB0346002B45
:1047200001D000F009F800BF5037BD4680BD00BF82
:10473000003802400070004080B400AF72B600BF85
:1047400000BFFDE780B400AF0C4B0D4A1A600B4B65
:1047500000225A60094B00229A60084B0022DA605E
:10476000064B00221A61054B00225A61034B0022BE
:104770009A6100BFBD465DF8047B70478849002000
:10478000002C014080B58AB000AF786007F11403B7
:1047900000221A605A609A60DA601A617B681B68AE
:1047A000684A934240F0C98000233B61664B5B6CD2
:1047B000654A43F400635364634B5B6C03F400632A
:1047C0003B613B690023FB605F4B1B6B5E4A43F020
:1047D000040313635C4B1B6B03F00403FB60FB6877
:1047E0000023BB60584B1B6B574A43F0080313630D
:1047F000554B1B6B03F00803BB60BB684FF4F853C9
:104800007B610223BB610023FB6103233B620C231A
:104810007B6207F1140319464C4802F0F7F90423B0
:104820007B610223BB610023FB6103233B620C23FA
:104830007B6207F114031946454802F0E7F9454B3E
:10484000454A1A60434B4FF000625A60414B402288
:104850009A60404B0022DA603E4B4FF480621A614E
:104860003C4B4FF480525A613A4B4FF480429A616C
:10487000384B2022DA61374B00221A62354B042272
:104880005A62344B03229A62324B4FF40002DA62CE
:10489000304B4FF400121A632E4801F019FE034604
:1048A000002B01D0FFF748FF7B682A4ADA63294AC8
:1048B0007B689363294B2A4A1A60284B4FF00062A9
:1048C0005A60264B00229A60244B0022DA60234B68
:1048D0004FF480621A61214B4FF480525A611F4B92
:1048E0004FF480429A611D4B2022DA611B4B00225B
:1048F0001A621A4B04225A62184B03229A62174B0F
:104900004FF40002DA62154B4FF400121A63134899
:1049100001F0DEFD0346002B01D0FFF70DFF7B68A1
:104920000E4A1A640D4A7B689363002200213120ED
:1049300001F097FD312001F0B0FD00BF2837BD46E2
:1049400080BD00BF002C014000380240000802403A
:10495000000C02400C4A0020586402406C4A0020BF
:10496000A064024080B500AF174B184A1A60164B7E
:104970004FF482725A60144B00229A60124B00224C
:10498000DA60114B00221A610F4B00225A610E4B64
:104990004FF400729A610C4B0022DA610A4B00223C
:1049A0001A62094B00225A62074B00229A62064B98
:1049B0000A22DA62044805F029FF0346002B01D0E1
:1049C000FFF7BAFE00BF80BDCC4A00200030014096
:1049D00080B58AB000AF786007F1140300221A6036
:1049E0005A609A60DA601A617B681B68194A9342C0
:1049F0002BD100233B61184B5B6C174A43F4805367
:104A00005364154B5B6C03F480533B613B6900239B
:104A1000FB60114B1B6B104A43F0010313630E4BF9
:104A20001B6B03F00103FB60FB68E0237B61022347
:104A3000BB610023FB6103233B6205237B6207F11B
:104A400014031946054802F0E1F800BF2837BD46B7
:104A500080BD00BF0030014000380240000002402D
:104A600080B483B000AF00237B60104B5B6C0F4AB7
:104A700043F4804353640D4B5B6C03F480437B60D1
:104A80007B6800233B60094B1B6C084A43F0805352
:104A90001364064B1B6C03F080533B603B6800BF04
:104AA0000C37BD465DF8047B704700BF00380240FC
:104AB00080B400AF00BFFDE780B400AF00BFFDE7EA
:104AC00080B400AF00BFFDE780B400AF00BFFDE7DA
:104AD00080B400AF00BFFDE780B400AF00BFBD46AB
:104AE0005DF8047B704780B400AF00BFBD465DF841
:104AF000047B704780B400AF00BFBD465DF8047B07
:104B0000704780B500AF00F0DDFC00BF80BD000045
:104B100080B500AF024804F0B7FD00BF80BD00BF04
:104B20008849002080B500AF024801F0F9FD00BFC0
:104B300080BD00BF1403002080B500AF024801F023
:104B4000EFFD00BF80BD00BF0C4A002080B500AF64
:104B5000024801F0E5FD00BF80BD00BF6C4A0020A7
:104B600080B400AF01231846BD465DF8047B704752
:104B700080B582B000AF786039600EF063F903460B
:104B800016221A604FF0FF3318460837BD4680BD25
:104B900080B582B000AF78604FF0FF317868FFF7E2
:104BA000E7FF00BFFDE780B586B000AFF860B960F1
:104BB0007A6000237B610AE0AFF300800146BB68A6
:104BC0005A1CBA60CAB21A707B6901337B617A6978
:104BD0007B689A42F0DB7B6818461837BD4680BD7B
:104BE00080B586B000AFF860B9607A6000237B6161
:104BF00009E0BB685A1CBA601B781846AFF3008006
:104C00007B6901337B617A697B689A42F1DB7B685F
:104C100018461837BD4680BD80B483B000AF7860B9
:104C20004FF0FF3318460C37BD465DF8047B7047E4
:104C300080B483B000AF786039603B684FF40052B5
:104C40005A60002318460C37BD465DF8047B704758
:104C500080B483B000AF7860012318460C37BD469E
:104C60005DF8047B704780B485B000AFF860B96030
:104C70007A60002318461437BD465DF8047B704700
:104C800080B586B000AF7860144A154BD31A7B61AB
:104C90007B693B61134B1B68002B02D1114B124AFD
:104CA0001A60104B1A687B6813443A699A4207D21B
:104CB0000EF0C8F803460C221A604FF0FF3309E0EB
:104CC000084B1B68FB60074B1A687B681344054A56
:104CD0001360FB6818461837BD4680BD00000220EF
:104CE00000040000244B00203856002080B400AFA0
:104CF000064BD3F88830054A43F47003C2F8883075
:104D000000BFBD465DF8047B704700BF00ED00E0CA
:104D100080B596B000AF07F1480300221A605A60D0
:104D20009A60DA6007F1400300221A605A6007F1C6
:104D3000240300221A605A609A60DA601A615A618C
:104D40009A613B1D2022002118460EF04DF83E4B83
:104D50003E4A1A603C4B42F2CF025A603A4B002264
:104D60009A60394B0922DA60374B00221A61364BC0
:104D700000225A61344B00229A61334806F054F8FD
:104D80000346002B01D0FFF7D7FC4FF48053BB64E0
:104D900007F1480319462C4806F052FB0346002B46
:104DA00001D0FFF7C9FC284806F0F6F80346002BAF
:104DB00001D0FFF7C1FC00233B6400237B6407F1B3
:104DC00040031946204806F019FF0346002B01D086
:104DD000FFF7B2FC60237B620523BB620023FB620A
:104DE00000233B6300237B630023BB630023FB633F
:104DF00007F1240300221946134806F05FFA034620
:104E0000002B01D0FFF798FC00237B600023BB60E0
:104E10000023FB6000233B6100237B614FF40053C0
:104E2000BB6100233B623B1D1946074806F062FF49
:104E30000346002B01D0FFF77FFC034800F018F970
:104E400000BF5837BD4680BD284B00200000014000
:104E500080B58EB000AF07F1280300221A605A60B7
:104E60009A60DA6007F1200300221A605A603B1D45
:104E700000221A605A609A60DA601A615A619A6177
:104E80002D4B4FF080421A602B4BA7225A602A4BC1
:104E900000229A60284B44F61F62DA60264B0022FB
:104EA0001A61254B00229A61234805F0BDFF034695
:104EB000002B01D0FFF740FC4FF48053BB6207F199
:104EC000280319461C4806F0BBFA0346002B01D004
:104ED000FFF732FC184806F05FF80346002B01D0BC
:104EE000FFF72AFC00233B6200237B6207F12003CB
:104EF0001946114806F082FE0346002B01D0FFF749
:104F00001BFC60237B6040F2DC53BB600023FB6032
:104F100000237B613B1D04221946074806F0CEF9A9
:104F20000346002B01D0FFF707FC034800F0A0F870
:104F300000BF3837BD4680BD704B002080B586B0BD
:104F400000AF07F1080300221A605A609A60DA6025
:104F50003B4600221A605A601D4B1E4A1A601C4BC9
:104F600053225A601A4B00229A60194B4FF6FF7277
:104F7000DA60174B00221A61154B00229A6114481F
:104F800005F052FF0346002B01D0FFF7D5FB4FF48D
:104F90008053BB6007F1080319460D4806F050FA2C
:104FA0000346002B01D0FFF7C7FB00233B60002323
:104FB0007B603B461946064806F020FE0346002B60
:104FC00001D0FFF7B9FB00BF1837BD4680BD00BF59
:104FD000B84B00200008004080B487B000AF786074
:104FE0007B681B681F4A93420ED100237B611E4BD6
:104FF0005B6C1D4A43F0010353641B4B5B6C03F075
:1050000001037B617B6926E07B681B68B3F1804FFD
:105010000ED100233B61144B1B6C134A43F0010378
:105020001364114B1B6C03F001033B613B6912E0FD
:105030007B681B680D4A93420DD10023FB600A4B2D
:105040001B6C094A43F004031364074B1B6C03F009
:105050000403FB60FB6800BF1C37BD465DF8047BA2
:10506000704700BF000001400038024000080040C7
:1050700080B58AB000AF786007F1140300221A608F
:105080005A609A60DA601A617B681B68244A93420E
:105090001FD100233B61234B1B6B224A43F01003BB
:1050A0001363204B1B6B03F010033B613B694FF410
:1050B00000737B610223BB610023FB6100233B6221
:1050C00001237B6207F114031946174801F09EFD86
:1050D00022E07B681B68B3F1804F1DD10023FB6089
:1050E000104B1B6B0F4A43F0020313630D4B1B6BFA
:1050F00003F00203FB60FB6808237B610223BB61B2
:105100000023FB6100233B6201237B6207F1140350
:105110001946064801F07AFD00BF2837BD4680BD1C
:10512000000001400038024000100240000402402C
:1051300080B500AF114B124A1A60104B4FF4E132A8
:105140005A600E4B00229A600C4B0022DA600B4B27
:1051500000221A61094B0C225A61084B00229A6105
:10516000064B0022DA61054806F016FE0346002BC6
:1051700001D0FFF7E1FA00BF80BD00BF004C002066
:10518000004C004080B500AF114B124A1A60104B22
:105190004FF4E1325A600E4B00229A600C4B002211
:1051A000DA600B4B00221A61094B0C225A61084B42
:1051B00000229A61064B0022DA61054806F0ECFDF8
:1051C0000346002B01D0FFF7B7FA00BF80BD00BF38
:1051D000484C00200048004080B58CB000AF78609B
:1051E00007F11C0300221A605A609A60DA601A61A3
:1051F0007B681B68324A93422CD10023BB61314B40
:105200001B6C304A43F4002313642E4B1B6C03F4D5
:105210000023BB61BB6900237B612A4B1B6B294ABE
:1052200043F001031363274B1B6B03F001037B6106
:105230007B690323FB6102233B6200237B62032320
:10524000BB620823FB6207F11C0319461E4801F0EC
:10525000DDFC31E07B681B681C4A93422CD10023A3
:105260003B61184B1B6C174A43F480231364154BA6
:105270001B6C03F480233B613B690023FB60114BF3
:105280001B6B104A43F0020313630E4B1B6B03F0BE
:105290000203FB60FB684FF44063FB6102233B6247
:1052A00000237B620323BB620723FB6207F11C031D
:1052B0001946074801F0AAFC00BF3037BD4680BD43
:1052C000004C00400038024000000240004800400E
:1052D0000004024080B500AF0E4B4FF0A0421A60B0
:1052E0000C4B08225A710B4B0122DA71094B002238
:1052F0009A71084B02225A72064B00229A72054894
:1053000001F051FE0346002B01D0FFF715FA00BF54
:1053100080BD00BF904C002080B58AB000AF78609F
:1053200007F1140300221A605A609A60DA601A6169
:105330007B681B68B3F1A04F3FD100233B61214B39
:105340001B6B204A43F0010313631E4B1B6B03F0DE
:1053500001033B613B694FF400737B610023BB6138
:105360000023FB6107F114031946174801F04EFCB6
:105370004FF4C0537B610223BB610023FB61032315
:105380003B620A237B6207F1140319460E4801F0C1
:105390003DFC0C4B5B6B0B4A43F0800353630023D3
:1053A000FB60084B5B6C074A43F480435364054B36
:1053B0005B6C03F48043FB60FB6800BF2837BD468D
:1053C00080BD00BF0038024000000240DFF834D04A
:1053D000FFF78CFC0C480D490D4A002302E0D4581D
:1053E000C4500433C4188C42F9D30A4A0A4C00232F
:1053F00001E013600432A242FBD30DF029FDFFF758
:10540000F9F870470000022000000020540200203C
:10541000086601085402002038560020FEE700000C
:1054200080B500AF0E4B1B680D4A43F40073136048
:105430000B4B1B680A4A43F480631360084B1B68DC
:10544000074A43F480731360032000F0FFFF0F202E
:1054500000F008F8FFF704FB0023184680BD00BFEA
:10546000003C024080B582B000AF7860124B1A68F1
:10547000124B1B7819464FF47A73B3FBF1F3B2FB6E
:10548000F3F3184601F017F80346002B01D001236F
:105490000EE07B680F2B0AD8002279684FF0FF30AE
:1054A00000F0DFFF064A7B681360002300E0012361
:1054B00018460837BD4680BD8000002088000020C7
:1054C0008400002080B400AF064B1B781A46064BC0
:1054D0001B681344044A136000BFBD465DF8047B9B
:1054E000704700BF880000207050002080B400AFDB
:1054F000034B1B681846BD465DF8047B704700BF30
:105500007050002080B584B000AF7860FFF7EEFFE8
:10551000B8607B68FB60FB68B3F1FF3F05D00A4BC6
:105520001B781A46FB681344FB6000BFFFF7DEFFE1
:105530000246BB68D31AFA689A42F7D800BF00BF88
:105540001037BD4680BD00BF8800002080B584B004
:1055500000AF78600023FB737B68002B01D101232F
:1055600033E07B681B6C002B09D17868FCF740FDA9
:105570007B6800225A647B68002283F83C207B68A9
:105580001B6C03F01003002B18D17B681B6C23F4F9
:10559000885323F0020343F002027B681A647868A0
:1055A00000F00AFC7B6800225A647B681B6C23F0C5
:1055B000030343F001027B681A6401E00123FB73DB
:1055C0007B68002283F83C20FB7B18461037BD46E1
:1055D00080BD000080B485B000AF78600023BB6060
:1055E0007B6893F83C30012B01D10223B2E07B6849
:1055F000012283F83C207B681B689B6803F0010351
:10560000012B18D07B681B689A687B681B6842F086
:1056100001029A60524B1B68524AA2FB03239A0C68
:1056200013465B001344BB6002E0BB68013BBB60F8
:10563000BB68002BF9D17B681B689B6803F00103F2
:10564000012B7AD17B681B6C23F4E06323F0010308
:1056500043F480727B681A647B681B685B6803F4A0
:105660008063002B07D07B681B6C23F4405343F40A
:1056700080527B681A647B681B6C03F48053B3F51B
:10568000805F06D17B685B6C23F006027B685A64FE
:1056900002E07B6800225A647B68002283F83C2089
:1056A000314BFB607B681B686FF022021A60FB685D
:1056B0005B6803F01F03002B2AD17B681B682B4A11
:1056C000934215D07B681B68294A934205D1264B2B
:1056D0005B6803F01F03002B0AD07B681B68254A18
:1056E000934236D1204B5B6803F01003002B30D17E
:1056F0007B681B689B6803F04053002B29D17B68B3
:105700001B689A687B681B6842F080429A6020E0C0
:105710007B681B68154A93421BD17B681B689B689A
:1057200003F04053002B14D17B681B689A687B6898
:105730001B6842F080429A600BE07B681B6C43F070
:1057400010027B681A647B685B6C43F001027B6823
:105750005A64002318461437BD465DF8047B704731
:105760008000002083DE1B43002301400020014015
:10577000002101400022014080B483B000AF786076
:105780007B6893F83C30012B01D1022321E07B6838
:10579000012283F83C207B681B689A687B681B6841
:1057A00022F001029A607B681B689B6803F001038A
:1057B000002B09D17B681B6C23F4885323F0010371
:1057C00043F001027B681A647B68002283F83C2066
:1057D000002318460C37BD465DF8047B704780B542
:1057E00084B000AF786039600023FB607B681B6881
:1057F0009B6803F48063B3F5806F13D17B681B68EB
:105800009B6803F48073B3F5807F0BD17B681B6CBE
:1058100043F020027B681A647B68002283F83C20F6
:10582000012363E0FFF762FEF86021E03B68B3F11B
:10583000FF3F1DD03B68002B07D0FFF757FE024605
:10584000FB68D31A3A689A4212D27B681B681B68BD
:1058500003F00203022B0BD07B681B6C43F00402A5
:105860007B681A647B68002283F83C2003233DE0B8
:105870007B681B681B6803F00203022BD6D17B6890
:105880001B686FF012021A607B681B6C43F4007295
:105890007B681A647B681B689B6803F04053002B8D
:1058A00023D17B681B7E002B1FD17B681B68DB6AC2
:1058B00003F47003002B06D07B681B689B6803F41D
:1058C0008063002B11D17B681B6C23F480727B6892
:1058D0001A647B681B6C03F48053002B05D17B6832
:1058E0001B6C43F001027B681A64002318461037D2
:1058F000BD4680BD80B588B000AFF860B9607A6001
:1059000000237B610023FB77FB6893F83C30012B7D
:1059100001D10223EBE0FB68012283F83C20FB6805
:105920001B689B6803F00103012B18D0FB681B6800
:105930009A68FB681B6842F001029A606E4B1B6814
:105940006E4AA2FB03239A0C13465B0013447B614F
:1059500002E07B69013B7B617B69002BF9D1FB682D
:105960001B689B6803F48073B3F5807F07D1FB68E5
:105970001B689A68FB681B6822F480729A60FB6857
:105980001B689B6803F00103012B40F0A380FB68B8
:105990001B6C23F4E06323F0010343F48072FB6883
:1059A0001A64FB681B685B6803F48063002B07D0F4
:1059B000FB681B6C23F4405343F48052FB681A6469
:1059C000FB681B6C03F48053B3F5805F06D1FB6862
:1059D0005B6C23F00602FB685A6402E0FB6800225D
:1059E0005A64FB68002283F83C20454BBB61FB688E
:1059F0009B6B444ADA63FB689B6B434A1A64FB68FF
:105A00009B6B424ADA64FB681B686FF022021A60E3
:105A1000FB681B685A68FB681B6842F080625A602A
:105A2000FB681B689A68FB681B6842F480729A6086
:105A3000FB68986BFB681B684C331946BA687B6837
:105A400000F0F4FD0346FB77BB695B6803F01F03BE
:105A5000002B2AD1FB681B682D4A934215D0FB68A6
:105A60001B682C4A934205D1254B5B6803F01F034A
:105A7000002B0AD0FB681B68274A934236D1204B83
:105A80005B6803F01003002B30D1FB681B689B6838
:105A900003F04053002B29D1FB681B689A68FB6810
:105AA0001B6842F080429A6020E0FB681B68184A3D
:105AB00093421BD1FB681B689B6803F04053002B8B
:105AC00014D1FB681B689A68FB681B6842F080422F
:105AD0009A600BE0FB681B6C43F01002FB681A64D1
