:020000040800F2
:100000000000022071220008311B0008391B000883
:10001000411B0008491B0008511B0008000000009C
:10002000000000000000000000000000591B000854
:10003000671B000800000000751B0008831B0008F8
:10004000C1220008C1220008C1220008C122000804
:10005000C1220008C12200088F1B00089D1B000858
:10006000AB1B0008C1220008C1220008C122000801
:10007000C1220008C1220008C1220008C1220008D4
:10008000C1220008C1220008C1220008C1220008C4
:10009000C1220008C1220008C1220008C1220008B4
:1000A000C1220008C1220008C1220008C1220008A4
:1000B000C1220008C1220008C1220008C122000894
:1000C000C1220008C1220008C1220008C122000884
:1000D000C1220008C1220008C1220008B91B000883
:1000E000C1220008C1220008C1220008C122000864
:1000F000C1220008C1220008C1220008C122000854
:10010000C1220008C1220008C1220008C122000843
:10011000C1220008C1220008CD1B0008E91B00080D
:10012000FD1B0008C1220008111C0008C1220008A4
:10013000C12200080000000000000000C1220008E9
:10014000C1220008C1220008C1220008C122000803
:10015000C1220008C1220008C1220008C1220008F3
:10016000C1220008C1220008C1220008C1220008E3
:10017000C1220008C12200080000000000000000A9
:08018000C1220008C1220008A1
:1001900010B5054C237833B9044B13B10448AFF3C1
:1001A00000800123237010BDEC010020000000003E
:1001B0009492000808B5034B1BB103490348AFF301
:1001C000008008BD00000000F001002094920008AB
:1001D00001F0FF01102A2BDB10F0070F08D010F8F8
:1001E000013B013A8B422DD010F0070F42B3F6D1FC
:1001F000F0B441EA012141EA014122F007047FF015
:1002000000070023F0E80256083C85EA010586EA6B
:10021000010685FA47F5A3FA87F586FA47F6A5FAA7
:1002200087F68EB9EED1F0BC01F0FF0102F00702B3
:1002300032B110F8013B013A83EA010313B1F8D15E
:100240000020704701387047002D06BF354603383F
:10025000073815F0010F07D1013015F4807F02BF78
:10026000013015F4C03F0130F0BC0138704700BFC9
:10027000034613F8012B002AFBD1181A01387047E6
:1002800081F0004102E000BF83F0004330B54FEA47
:1002900041044FEA430594EA050F08BF90EA020FB4
:1002A0001FBF54EA000C55EA020C7FEA645C7FEA47
:1002B000655C00F0E2804FEA5454D4EB5555B8BF6A
:1002C0006D420CDD2C4480EA020281EA030382EADB
:1002D000000083EA010180EA020281EA0303362D6D
:1002E00088BF30BD11F0004F4FEA01314FF4801C40
:1002F0004CEA113102D0404261EB410113F0004F52
:100300004FEA03334CEA133302D0524263EB430308
:1003100094EA050F00F0A780A4F10104D5F1200EA6
:100320000DDB02FA0EFC22FA05F2801841F1000101
:1003300003FA0EF2801843FA05F359410EE0A5F1D5
:1003400020050EF1200E012A03FA0EFC28BF4CF006
:10035000020C43FA05F3C01851EBE37101F00045BC
:1003600007D54FF0000EDCF1000C7EEB00006EEBC9
:100370000101B1F5801F1BD3B1F5001F0CD3490853
:100380005FEA30004FEA3C0C04F101044FEA4452AA
:1003900012F5800F80F09A80BCF1004F08BF5FEA31
:1003A000500C50F1000041EB045141EA050130BD11
:1003B0005FEA4C0C404141EB0101013C28BFB1F523
:1003C000801FE9D291F0000F04BF01460020B1FA6E
:1003D00081F308BF2033A3F10B03B3F120020CDA41
:1003E0000C3208DD02F1140CC2F10C0201FA0CF01F
:1003F00021FA02F10CE002F11402D8BFC2F1200C84
:1004000001FA02F120FA0CFCDCBF41EA0C01904039
:10041000E41AA2BF01EB0451294330BD6FEA040482
:100420001F3C1CDA0C340EDC04F11404C4F120026D
:1004300020FA04F001FA02F340EA030021FA04F37F
:1004400045EA030130BDC4F10C04C4F1200220FAD6
:1004500002F001FA04F340EA0300294630BD21FA14
:1004600004F0294630BD94F0000F83F4801306BFDA
:1004700081F480110134013D4EE77FEA645C18BFCE
:100480007FEA655C29D094EA050F08BF90EA020F65
:1004900005D054EA000C04BF1946104630BD91EA5D
:1004A000030F1EBF0021002030BD5FEA545C05D160
:1004B0004000494128BF41F0004130BD14F580049F
:1004C0003CBF01F5801130BD01F0004545F0FE4113
:1004D00041F470014FF0000030BD7FEA645C1ABF48
:1004E000194610467FEA655C1CBF0B46024650EA7F
:1004F000013406BF52EA033591EA030F41F40021AB
:1005000030BD00BF90F0000F04BF0021704730B530
:100510004FF4806404F132044FF000054FF0000105
:1005200050E700BF90F0000F04BF0021704730B5C6
:100530004FF4806404F1320410F0004548BF40429B
:100540004FF000013EE700BF42004FEAE2014FEAF0
:1005500031014FEA02701FBF12F07F4393F07F4FCB
:1005600081F06051704732F07F4208BF704793F0CE
:100570007F4F04BF41F40021704730B54FF46074E1
:1005800001F0004521F000411CE700BF50EA0102E4
:1005900008BF704730B54FF000050AE050EA01028D
:1005A00008BF704730B511F0004502D5404261EBFD
:1005B00041014FF4806404F132045FEA915C3FF43E
:1005C000D8AE4FF003025FEADC0C18BF03325FEADB
:1005D000DC0C18BF033202EBDC02C2F1200300FA8C
:1005E00003FC20FA02F001FA03FE40EA0E0021FAB1
:1005F00002F11444BDE600BF70B54FF0FF0C4CF49F
:10060000E06C1CEA11541DBF1CEA135594EA0C0F50
:1006100095EA0C0F00F0DEF82C4481EA030621EA8B
:100620004C5123EA4C5350EA013518BF52EA0335C6
:1006300041F4801143F4801338D0A0FB02CE4FF078
:100640000005E1FB02E506F00042E0FB03E54FF0A8
:100650000006E1FB03569CF0000F18BF4EF0010EA0
:10066000A4F1FF04B6F5007F64F5407404D25FEA9C
:100670004E0E6D4146EB060642EAC62141EA55514F
:100680004FEAC52040EA5E504FEACE2EB4F1FD0C91
:1006900088BFBCF5E06F1ED8BEF1004F08BF5FEA0F
:1006A000500E50F1000041EB045170BD06F00046C1
:1006B00046EA010140EA020081EA0301B4EB5C046E
:1006C000C2BFD4EB0C0541EA045170BD41F4801166
:1006D0004FF0000E013C00F3AB8014F1360FDEBF8B
:1006E000002001F0004170BDC4F10004203C35DA67
:1006F0000C341BDC04F11404C4F1200500FA05F3EA
:1007000020FA04F001FA05F240EA020001F000428A
:1007100021F0004110EBD37021FA04F642EB060100
:100720005EEA430E08BF20EAD37070BDC4F10C042A
:10073000C4F1200500FA04F320FA05F001FA04F2EE
:1007400040EA020001F0004110EBD37041F10001DA
:100750005EEA430E08BF20EAD37070BDC4F12005E5
:1007600000FA05F24EEA020E20FA04F301FA05F24D
:1007700043EA020321FA04F001F0004121FA04F2F5
:1007800020EA020000EBD3705EEA430E08BF20EAC5
:10079000D37070BD94F0000F0FD101F000464000FF
:1007A00041EB010111F4801F08BF013CF7D041EA81
:1007B000060195F0000F18BF704703F00046520085
:1007C00043EB030313F4801F08BF013DF7D043EA56
:1007D0000603704794EA0C0F0CEA135518BF95EA0C
:1007E0000C0F0CD050EA410618BF52EA4306D1D193
:1007F00081EA030101F000414FF0000070BD50EAB2
:10080000410606BF1046194652EA430619D094EA3B
:100810000C0F02D150EA013613D195EA0C0F05D125
:1008200052EA03361CBF104619460AD181EA030179
:1008300001F0004141F0FE4141F470014FF0000031
:1008400070BD41F0FE4141F4780170BD70B54FF0CC
:10085000FF0C4CF4E06C1CEA11541DBF1CEA13554C
:1008600094EA0C0F95EA0C0F00F0A7F8A4EB05042E
:1008700081EA030E52EA03354FEA013100F0888025
:100880004FEA03334FF0805545EA131343EA1263EE
:100890004FEA022245EA111545EA10654FEA0026A3
:1008A0000EF000419D4208BF964244F1FD0404F55C
:1008B000407402D25B084FEA3202B61A65EB0305B8
:1008C0005B084FEA32024FF480104FF4002CB6EB75
:1008D000020E75EB030E22BFB61A754640EA0C00F5
:1008E0005B084FEA3202B6EB020E75EB030E22BF35
:1008F000B61A754640EA5C005B084FEA3202B6EB76
:10090000020E75EB030E22BFB61A754640EA9C0034
:100910005B084FEA3202B6EB020E75EB030E22BF04
:10092000B61A754640EADC0055EA060E18D04FEAC2
:10093000051545EA16754FEA06164FEAC30343EA62
:1009400052734FEAC2025FEA1C1CC0D111F4801F2F
:100950000BD141EA00014FF000004FF0004CB6E728
:1009600011F4801F04BF01430020B4F1FD0C88BFC7
:10097000BCF5E06F3FF6AFAEB5EB030C04BFB6EBD2
:10098000020C5FEA500C50F1000041EB045170BDC5
:100990000EF0004E4EEA113114EB5C04C2BFD4EBF2
:1009A0000C0541EA045170BD41F480114FF0000E76
:1009B000013C90E645EA060E8DE60CEA135594EAF2
:1009C0000C0F08BF95EA0C0F3FF43BAF94EA0C0FF5
:1009D0000AD150EA01347FF434AF95EA0C0F7FF46A
:1009E00025AF104619462CE795EA0C0F06D152EABE
:1009F00003353FF4FDAE1046194622E750EA4106A2
:100A000018BF52EA43067FF4C5AE50EA41047FF4B2
:100A10000DAF52EA43057FF4EBAE12E74FF0FF3C17
:100A200006E000BF4FF0010C02E000BF4FF0010CE8
:100A30004DF804CD4FEA410C7FEA6C5C4FEA430C61
:100A400018BF7FEA6C5C1BD001B050EA410C0CBFB0
:100A500052EA430C91EA030F02BF90EA020F002012
:100A6000704710F1000F91EA030F58BF994208BF79
:100A700090422CBFD8176FEAE37040F00100704736
:100A80004FEA410C7FEA6C5C02D150EA013C07D18D
:100A90004FEA430C7FEA6C5CD6D152EA033CD3D0D8
:100AA0005DF8040B704700BF8446104662468C46D2
:100AB0001946634600E000BF01B5FFF7B7FF002805
:100AC00048BF10F1000F01BD4DF808EDFFF7F4FF2E
:100AD0000CBF012000205DF808FB00BF4DF808EDB9
:100AE000FFF7EAFF34BF012000205DF808FB00BFDC
:100AF0004DF808EDFFF7E0FF94BF012000205DF8FE
:100B000008FB00BF4DF808EDFFF7CEFF94BF0120B2
:100B100000205DF808FB00BF4DF808EDFFF7C4FFAB
:100B200034BF012000205DF808FB00BF4FEA410CF4
:100B30007FEA6C5C02D150EA013C0AD14FEA430CD7
:100B40007FEA6C5C02D152EA033C02D14FF0000014
:100B500070474FF0010070474FEA410212F5001252
:100B600015D211D56FF47873B3EB625212D94FEAF4
:100B7000C12343F0004343EA505311F0004F23FADE
:100B800002F018BF404270474FF00000704750EA33
:100B9000013005D111F0004008BF6FF000407047F0
:100BA0004FF00000704700BF53B94AB9002908BF91
:100BB00000281CBF4FF0FF314FF0FF3000F088B924
:100BC000ADF1080C6DE904CE00F006F8DDF804E0A4
:100BD000DDE9022304B070472DE9F047089D8E46F9
:100BE00004468846002B4AD18A42174662D9B2FA97
:100BF00082F64EB1C6F1200301FA06F820FA03F39B
:100C0000B74043EA0808B4404FEA174E1FFA87FC82
:100C1000B8FBFEF1230C0EFB118843EA084301FBED
:100C20000CF29A4209D9FB1801F1FF3080F0EA80FA
:100C30009A4240F2E78002393B449A1AA3B2B2FBCF
:100C4000FEF00EFB102243EA024300FB0CFC9C4525
:100C500009D9FB1800F1FF3280F0D6809C4540F2A4
:100C6000D3803B44023840EA0140A3EB0C0300214F
:100C70001DB1F3400022C5E90032BDE8F0878B4288
:100C800005D90DB1C5E9000100210846F5E7B3FA21
:100C900083F1002946D1734502D3824200F20581D7
:100CA000841A6EEB030201209046002DE5D0C5E9C1
:100CB0000048E2E7002A00F09080B2FA82F6002EA7
:100CC00040F0A4808A1A030C4FEA174E80B2BCB2DF
:100CD0000121B2FBFEFC0EFB1C2243EA024304FB93
:100CE0000CF29A4207D9FB180CF1FF3802D29A4253
:100CF00000F2E080C4469B1AB3FBFEF20EFB1233F7
:100D000040EA034302FB04F49C4207D9FB1802F1BA
:100D1000FF3002D29C4200F2CA8002461B1B42EA0C
:100D20000C40A5E7C1F120068B4022FA06F71F43CD
:100D30000EFA01F420FA06F32EFA06FE4FEA1749DE
:100D4000234300FA01F81FFA87FCBEFBF9F01C0CE4
:100D500009FB10EE44EA0E4400FB0CFEA64502FA25
:100D600001F209D93C1900F1FF3A80F09C80A645B8
:100D700040F2998002383C44A4EB0E041FFA83FE33
:100D8000B4FBF9F309FB13444EEA044403FB0CFCE7
:100D9000A44508D93C1903F1FF3E80F08280A445A8
:100DA0007FD9023B3C4443EA0040A4EB0C04A0FB87
:100DB00002EC64457346E14662D35FD05DB1B8EBA7
:100DC000030264EB090404FA06F622FA01F31E4357
:100DD000CC40C5E9006400214FE7B1FBF2FC010CF7
:100DE00041EA0E4180B240EA01423B4638463C4669
:100DF000B846BE462026B1FBF7F1A2EB080241EA55
:100E00000C4166E7014618E710462CE7C6F12002C0
:100E10002EFA02F3B740B14020FA02F24FEA174E21
:100E20000A43B3FBFEF8BCB20EFB1833110C41EAC7
:100E3000034108FB04F9B04089454FEA104380B2F2
:100E40003ED9791808F1FF3C01D289451FD8A1EBA2
:100E50000901B1FBFEF909FB04F80EFB191192B26E
:100E600042EA0142424529D2BA1809F1FF31C4D2FF
:100E70004245C2D2A9F102013A44BEE7F0459DD2F3
:100E8000BEEB02036CEB070C0138E14696E7A7EBDB
:100E900009094944A8F1020CB1FBFEF909FB04F869
:100EA000DBE773467FE7504666E70846FDE63B44CE
:100EB000023A33E7ACF1020C3B441CE749469CE79D
:100EC000A1EB0901C446B1FBFEF909FB04F8C4E734
:100ED000704700BF80B582B000AF03460A46FB7181
:100EE0001346BB71344803F079FB344B344A1A6023
:100EF000324B344A5A60314B00221A72BB79012BB3
:100F000006D92E4B1B7A43F00803DAB22B4B1A7228
:100F10002A4ABB79D372322001F046FA00224FF4FC
:100F20000041294802F066FE00224FF48041264825
:100F300002F060FE032000F039F9042001F034FAD9
:100F4000032000F033F9642000F0D4F8032000F00F
:100F50002DF9962000F0CEF8022000F027F9642049
:100F600000F0C8F8154B1B7A43F02003DBB218469B
:100F700000F0A2F8114B00225A72104B5B7A43F03A
:100F80000803DBB2184600F097F800F01FF80320C2
:100F900001F00AFA094B02229A72084B9B7A43F03D
:100FA0000403DBB2184600F087F800F045F800BFF4
:100FB0000837BD4680BD00BFD003002008020020D6
:100FC0000000002010000020000C024080B500AF9F
:100FD000012000F071F8022001F0E6F900BF80BDA9
:100FE00080B584B000AF03460A46FB711346BB715F
:100FF0000F4BFB600F4BDB7ABA799A4203D90D4B4A
:10100000DB7A013BBB71BB7910333B4413F8042CF2
:10101000FB791344DBB25BB263F07F035BB2DBB2FC
:10102000184600F049F800BF1037BD4680BD00BF2C
:10103000004014540802002080B500AF084B5B7AD2
:1010400043F00403DAB2064B5A72054B5B7A43F065
:101050000803DBB2184600F02FF800BF80BD00BFC8
:101060000802002080B582B000AF786006E07B689F
:101070005A1C7A601B78184600F02CF87B681B78A5
:10108000002BF4D100BF00BF0837BD4680BD80B53E
:1010900082B000AF03463A60FB710B46BB71BA7970
:1010A000FB7911461846FFF79BFF3868FFF7DAFF18
:1010B00000BF0837BD4680BD80B582B000AF034693
:1010C000FB71FB790021184600F02EF800BF0837AD
:1010D000BD4680BD80B582B000AF0346FB71FB7991
:1010E0000121184600F020F8012318460837BD46B4
:1010F00080BD000080B483B000AF0346FB80094B85
:101100001B6800225A6200BF064B1B685A6AFB88A4
:101110009A42F9D300BF00BF0C37BD465DF8047B8F
:10112000704700BFD003002080B582B000AF0346F7
:101130000A46FB711346BB71BB791A464FF4004156
:10114000084802F057FDFB791B09DBB2184600F096
:101150002DF8FB79184600F029F800BF0837BD4686
:1011600080BD00BF000C024080B500AF00224FF4EC
:1011700080410D4802F03EFD0120FFF7BBFF012238
:101180004FF48041084802F035FD0120FFF7B2FF1F
:1011900000224FF48041044802F02CFD3220FFF77A
:1011A000A9FF00BF80BD00BF000C024080B584B025
:1011B00000AF0346FB710023FB7319E0114B1A6863
:1011C000FB7B9B00134418680E4B5A68FB7B5B004B
:1011D00013441988FA79FB7B42FA03F3DBB203F07C
:1011E0000103DBB21A4602F005FDFB7B0133FB7302
:1011F000FB7B032BE2D9FFF7B7FF00BF1037BD46DB
:1012000080BD00BF0802002080B584B000AF3B461F
:1012100000221A605A609A60DA602F4B2F4A1A60D7
:101220002D4B4FF480325A602B4B00229A602A4B90
:1012300001221A61284B01221A76274B002283F8DB
:101240002020254B0022DA62234B254A9A62224B4A
:101250000022DA60204B0322DA611F4B012283F85F
:1012600030201D4B01225A611B4801F0C1F8034692
:10127000002B01D000F02EFC02233B6001237B6099
:101280000423BB603B461946134801F027FA034686
:10129000002B01D000F01EFC03233B6002237B6087
:1012A0003B4619460C4801F019FA0346002B01D0C1
:1012B00000F010FC04233B6003237B603B4619468F
:1012C000054801F00BFA0346002B01D000F002FCA8
:1012D00000BF1037BD4680BD140200200020014031
:1012E0000100000F80B584B000AF3B4600221A60B9
:1012F0005A609A60DA60214B214A1A601F4B4FF402
:1013000080325A601D4B00229A601C4B00221A61E9
:101310001A4B01221A76194B002283F82020174B12
:101320000022DA62154B174A9A62144B0022DA60E7
:10133000124B0122DA61114B012283F830200F4B4E
:1013400001225A610D4801F053F80346002B01D0E9
:1013500000F0C0FB0E233B6001237B600423BB60D5
:101360003B461946054801F0B9F90346002B01D068
:1013700000F0B0FB00BF1037BD4680BD5C0200200E
:10138000002101400100000F80B58CB000AF7860F3
:1013900007F11C0300221A605A609A60DA601A6131
:1013A0007B681B685E4A934258D10023BB615D4B4A
:1013B0005B6C5C4A43F4807353645A4B5B6C03F47C
:1013C0008073BB61BB6900237B61564B1B6B554A25
:1013D00043F001031363534B1B6B03F001037B6169
:1013E0007B691C23FB6103233B6200237B6207F1C3
:1013F0001C0319464C4802F061FA4C4B4C4A1A60E7
:101400004A4B00225A60494B00229A60474B002207
:10141000DA60464B4FF480621A61444B4FF400622D
:101420005A61424B4FF400529A61404B4FF4807224
:10143000DA613E4B00221A623C4B00225A623B4862
:1014400001F03AFE0346002B01D000F043FB7B681D
:10145000364A9A63354A7B6893635CE07B681B6815
:10146000344A934257D100233B612E4B5B6C2D4A8B
:1014700043F4007353642B4B5B6C03F400733B61C8
:101480003B690023FB60274B1B6B264A43F0040398
:101490001363244B1B6B03F00403FB60FB681023F6
:1014A000FB6103233B6200237B6207F11C031946A7
:1014B000214802F003FA214B214A1A601F4B4FF0DA
:1014C00000725A601D4B00229A601C4B0022DA60A9
:1014D0001A4B00221A61194B4FF400625A61174BE4
:1014E0004FF400529A61154B4FF48072DA61134B3E
:1014F00000221A62114B00225A62104801F0DCFDF2
:101500000346002B01D000F0E5FA7B680B4A9A6392
:101510000A4A7B68936300BF3037BD4680BD00BF79
:10152000002001400038024000000240A4020020D8
:101530001064024000210140000802400403002022
:101540004064024080B582B000AF3B4600221A6082
:101550005A600F4B0F4A1A600D4801F070FC0346A9
:10156000002B01D000F0B6FA00233B6000237B6023
:101570003B4610221946064801F03AFD0346002B6F
:1015800001D000F0A7FA00BF0837BD4680BD00BFFC
:10159000640300200074004080B58AB000AF78601A
:1015A00007F1140300221A605A609A60DA601A6127
:1015B0007B681B68174A934227D100233B61164B77
:1015C0001B6C154A43F000531364134B1B6C03F060
:1015D00000533B613B690023FB600F4B1B6B0E4AC2
:1015E00043F0010313630C4B1B6B03F00103FB601F
:1015F000FB6820237B610323BB610023FB6107F1B0
:1016000014031946054802F059F900BF2837BD46B2
:1016100080BD00BF0074004000380240000002405E
:1016200080B582B000AF00237B60104B1B6B0F4A6C
:1016300043F4800313630D4B1B6B03F480037B6047
:101640007B6800220021382001F0C3FB382001F024
:10165000DCFB002200213A2001F0BBFB3A2001F024
:10166000D4FB00BF0837BD4680BD00BF0038024034
:1016700080B58CB000AF07F11C0300221A605A60DD
:101680009A60DA601A610023BB614B4B1B6B4A4ABC
:1016900043F080031363484B1B6B03F08003BB6173
:1016A000BB6900237B61444B1B6B434A43F004033B
:1016B0001363414B1B6B03F004037B617B690023C5
:1016C0003B613D4B1B6B3C4A43F0010313633A4BB8
:1016D0001B6B03F001033B613B690023FB60364B4E
:1016E0001B6B354A43F010031363334B1B6B03F042
:1016F0001003FB60FB680023BB602F4B1B6B2E4A63
:1017000043F0020313632C4B1B6B03F00203BB601B
:10171000BB6800237B60284B1B6B274A43F0080300
:101720001363254B1B6B03F008037B607B6800226F
:101730004FF47C41214802F05DFA0022302120481C
:1017400002F058FA0723FB614FF404133B620023B5
:101750007B6207F11C0319461A4802F0AFF8082310
:10176000FB6100233B6200237B6207F11C031946E7
:10177000144802F0A3F84FF47C43FB6101233B6261
:1017800000237B620023BB6207F11C0319460B4850
:1017900002F094F83023FB6101233B6200237B625B
:1017A0000023BB6207F11C031946054802F086F8C6
:1017B00000BF3037BD4680BD00380240000C0240FB
:1017C000000402400008024080B584B000AFF86019
:1017D000B9607A607B689AB20A23B968034803F05B
:1017E000F3FE7B6818461037BD4680BDA804002074
:1017F00080B588B000AF00F065FD00F07BF8FFF722
:1018000037FFFFF70DFF00F0C1FC00F067FBFFF7AB
:10181000FBFCFFF797FEFFF765FD00F0BFFA00F055
:10182000ABFB00F0DFFB00F0CFF8274802F03EFFF3
:10183000264802F03BFF14210420FFF74BFB002356
:10184000FB6106222249234800F016FE01222249AC
:10185000224800F011FE1021214801F012FB214B1B
:101860001B78002B23D01F4B00221A70184B1B88AB
:101870001A46174B5B88381D1B4905F017FB3B1DAB
:101880001A4600210020FFF702FC114B9B881A46E4
:10189000114B1B88381D154905F008FB3B1D1A46E6
:1018A00001210020FFF7F3FBFB690133FB613B1DC6
:1018B000FA690F49184605F0F9FA3B1D1A4602214C
:1018C0000020FFF7E4FBCAE71804002060040020B2
:1018D0007C03002014020020820300205C02002010
:1018E0006403002079030020B0920008C49200082D
:1018F000D892000880B594B000AF07F120033022E1
:101900000021184605F0B6FB07F10C0300221A600F
:101910005A609A60DA601A610023BB60284B1B6C26
:10192000274A43F080531364254B1B6C03F080530C
:10193000BB60BB6800237B60224B1B68214A43F4D9
:10194000804313601F4B1B6803F480437B607B68FC
:1019500001233B624FF480337B620223BB634FF46D
:101960008003FB6306233B64A8237B640223BB64E0
:101970000423FB6407F12003184602F087F90346AD
:10198000002B01D000F0A6F80F23FB6002233B617F
:1019900000237B614FF4A053BB614FF48053FB6184
:1019A00007F10C030521184602F0E8FB0346002B63
:1019B00001D000F08FF800BF5037BD4680BD00BF9A
:1019C000003802400070004080B500AF00220021C6
:1019D000062001F0FEF9062001F017FA002200218E
:1019E000072001F0F6F9072001F00FFA002200218C
:1019F000082001F0EEF9082001F007FA002200218A
:101A0000272001F0E6F9272001F0FFF9002200214C
:101A1000362001F0DEF9362001F0F7F9002200212E
:101A2000372001F0D6F9372001F0EFF900BF80BD73
:101A300080B483B000AF0346FB8000BF0C37BD46C7
:101A40005DF8047B7047000080B582B000AF78601D
:101A50007B681B68094A93420BD101220849094857
:101A600003F03DFE4FF47A7301220549054803F067
:101A7000ABFD00BF0837BD4680BD00BF0048004039
:101A800078030020A804002080B582B000AF786001
:101A90007B681B680B4A934206D10B4B01221A70DC
:101AA00020210A4802F0BFF87B681B68084A93426D
:101AB00003D11021054802F0B6F800BF0837BD4633
:101AC00080BD00BF001000407903002000040240E8
:101AD0000014004080B400AF72B600BF00BFFDE745
:101AE00080B483B000AF00237B60104B5B6C0F4A67
:101AF00043F4804353640D4B5B6C03F480437B6081
:101B00007B6800233B60094B1B6C084A43F0805301
:101B10001364064B1B6C03F080533B603B6800BFB3
:101B20000C37BD465DF8047B704700BF00380240AB
:101B300080B400AF00BFFDE780B400AF00BFFDE799
:101B400080B400AF00BFFDE780B400AF00BFFDE789
:101B500080B400AF00BFFDE780B400AF00BFBD465A
:101B60005DF8047B704780B400AF00BFBD465DF8F0
:101B7000047B704780B400AF00BFBD465DF8047BB6
:101B8000704780B500AF00F0EFFB00BF80BD80B5AF
:101B900000AF012002F062F800BF80BD80B500AF49
:101BA000022002F05BF800BF80BD80B500AF0420CA
:101BB00002F054F800BF80BD80B500AF024803F0CA
:101BC000B3FD00BF80BD00BFA804002080B500AFFA
:101BD000034801F0ADF9034802F031FE00BF80BDBB
:101BE000640300201804002080B500AF024802F012
:101BF00026FE00BF80BD00BF6004002080B500AF9E
:101C0000024801F0F1FB00BF80BD00BFA40200202C
:101C100080B500AF024801F0E7FB00BF80BD00BF08
:101C20000403002080B400AF01231846BD465DF8D0
:101C3000047B704780B582B000AF7860396005F0F2
:101C400021FA034616221A604FF0FF331846083770
:101C5000BD4680BD80B582B000AF78604FF0FF31E7
:101C60007868FFF7E7FF00BFFDE780B586B000AFFB
:101C7000F860B9607A6000237B610AE0AFF300800E
:101C80000146BB685A1CBA60CAB21A707B6901333C
:101C90007B617A697B689A42F0DB7B68184618376B
:101CA000BD4680BD80B483B000AF78604FF0FF3395
:101CB00018460C37BD465DF8047B704780B483B08E
:101CC00000AF786039603B684FF400525A600023DF
:101CD00018460C37BD465DF8047B704780B483B06E
:101CE00000AF7860012318460C37BD465DF8047BD1
:101CF000704780B485B000AFF860B9607A600023A7
:101D000018461437BD465DF8047B704780B586B031
:101D100000AF7860144A154BD31A7B617B693B6135
:101D2000134B1B68002B02D1114B124A1A60104B47
:101D30001A687B6813443A699A4207D205F0A2F9FF
:101D400003460C221A604FF0FF3309E0084B1B6872
:101D5000FB60074B1A687B681344054A1360FB68F5
:101D600018461837BD4680BD000002200004000060
:101D7000840300204006002080B400AF064BD3F857
:101D80008830054A43F47003C2F8883000BFBD466E
:101D90005DF8047B704700BF00ED00E080B596B0B1
:101DA00000AF07F1480300221A605A609A60DA60B7
:101DB00007F1400300221A605A6007F12403002251
:101DC0001A605A609A60DA601A615A619A613B1D22
:101DD00020220021184605F04DF93E4B3E4A1A607C
:101DE0003C4B00225A603B4B00229A60394B4FF625
:101DF000FF72DA60374B00221A61364B00225A61BB
:101E0000344B00229A61334802F098FB0346002BC2
:101E100001D0FFF75FFE4FF48053BB6407F1480326
:101E200019462C4802F0BEFE0346002B01D0FFF7F6
:101E300051FE284802F0AAFC0346002B01D0FFF710
:101E400049FE00233B6400237B6407F140031946ED
:101E5000204803F087FA0346002B01D0FFF73AFE33
:101E600060237B620023BB620023FB6200233B6391
:101E700000237B630023BB630023FB6307F1240380
:101E800000221946134802F0CBFD0346002B01D077
:101E9000FFF720FE00237B600023BB600023FB6074
:101EA00000233B6100237B614FF40053BB6100239F
:101EB0003B623B1D1946074803F0D0FA0346002B4E
:101EC00001D0FFF707FE034800F026F900BF58379E
:101ED000BD4680BD880300200000014080B586B06B
:101EE00000AF07F1080300221A605A609A60DA60B6
:101EF0003B4600221A605A601D4B1E4A1A601C4B5A
:101F000053225A601A4B00229A60194B4FF6FF7207
:101F1000DA60174B00221A61154B00229A611448AF
:101F200002F00CFB0346002B01D0FFF7D3FD4FF46A
:101F30008053BB6007F1080319460D4802F032FEDA
:101F40000346002B01D0FFF7C5FD00233B600023B3
:101F50007B603B461946064803F004FA0346002B13
:101F600001D0FFF7B7FD00BF1837BD4680BD00BFE9
:101F7000D00300200008004080B582B000AF3B468F
:101F800000221A605A60154B154A1A60134B42F230
:101F9000CF025A60114B00229A60104B42F20F722E
:101FA000DA600E4B00229A610C4802F0C7FA034631
:101FB000002B01D0FFF78EFD00233B6000237B60E8
:101FC0003B461946054803F0CDF90346002B01D0E6
:101FD000FFF780FD00BF0837BD4680BD1804002014
:101FE0000010004080B582B000AF3B4600221A606E
:101FF0005A60154B154A1A60134B41F267025A603A
:10200000114B00229A60104B42F20F72DA600E4BB5
:1020100000229A610C4802F091FA0346002B01D08D
:10202000FFF758FD00233B6000237B603B461946C9
:10203000054803F097F90346002B01D0FFF74AFD4E
:1020400000BF0837BD4680BD60040020001400407A
:1020500080B487B000AF78607B681B68294A9342E0
:102060000ED100237B61284B5B6C274A43F00103B0
:102070005364254B5B6C03F001037B617B693AE0A1
:102080007B681B68214A93420ED100233B611E4BA3
:102090001B6C1D4A43F0040313641B4B1B6C03F0C1
:1020A00004033B613B6926E07B681B68184A934246
:1020B0000ED10023FB60144B1B6C134A43F010033A
:1020C0001364114B1B6C03F01003FB60FB6812E000
:1020D0007B681B680F4A93420DD10023BB600A4BFB
:1020E0001B6C094A43F020031364074B1B6C03F07D
:1020F0002003BB60BB6800BF1C37BD465DF8047B96
:10210000704700BF00000140003802400008004056
:10211000001000400014004080B588B000AF786027
:1021200007F10C0300221A605A609A60DA601A61A3
:102130007B681B68124A93421ED10023BB60114B7F
:102140001B6B104A43F0100313630E4B1B6B03F021
:102150001003BB60BB684FF40073FB6002233B615C
:1021600000237B610023BB610123FB6107F10C03AA
:102170001946054801F0A2FB00BF2037BD4680BDCF
:1021800000000140003802400010024080B500AF5E
:10219000114B124A1A60104B4FF4E1325A600E4B49
:1021A00000229A600C4B0022DA600B4B00221A616D
:1021B000094B0C225A61084B00229A61064B0022FF
:1021C000DA61054803F0B0F90346002B01D0FFF7B0
:1021D00081FC00BF80BD00BFA80400200048004073
:1021E00080B58AB000AF786007F1140300221A604E
:1021F0005A609A60DA601A617B681B68194A9342D8
:102200002CD100233B61184B1B6C174A43F48023ED
:102210001364154B1B6C03F480233B613B69002363
:10222000FB60114B1B6B104A43F0020313630E4B10
:102230001B6B03F00203FB60FB684FF440637B61A0
:102240000223BB610023FB6103233B6207237B6204
:1022500007F114031946054801F030FB00BF283789
:10226000BD4680BD004800400038024000040240E6
:10227000DFF834D0FFF780FD0C480D490D4A0023EC
:1022800002E0D458C4500433C4188C42F9D30A4A2B
:102290000A4C002301E013600432A242FBD304F095
:1022A000F7FEFFF7A5FA70470000022000000020AB
:1022B000EC0100208C960008EC0100204006002074
:1022C000FEE7000080B500AF0E4B1B680D4A43F4DB
:1022D000007313600B4B1B680A4A43F4806313605E
:1022E000084B1B68074A43F480731360032000F017
:1022F00065FD0F2000F008F8FFF7F2FB00231846F9
:1023000080BD00BF003C024080B582B000AF786065
:10231000124B1A68124B1B7819464FF47A73B3FBB1
:10232000F1F3B2FBF3F3184600F07DFD0346002BFA
:1023300001D001230EE07B680F2B0AD800227968B8
:102340004FF0FF3000F045FD064A7B681360002324
:1023500000E0012318460837BD4680BD1800002064
:10236000200000201C00002080B400AF064B1B782A
:102370001A46064B1B681344044A136000BFBD464F
:102380005DF8047B704700BF20000020F0040020AF
:1023900080B400AF034B1B681846BD465DF8047B54
:1023A000704700BFF004002080B584B000AF7860B3
:1023B000FFF7EEFFB8607B68FB60FB68B3F1FF3F9F
:1023C00005D00A4B1B781A46FB681344FB6000BF1C
:1023D000FFF7DEFF0246BB68D31AFA689A42F7D8C5
:1023E00000BF00BF1037BD4680BD00BF20000020E9
:1023F00080B584B000AF78600023FB737B68002B4E
:1024000001D1012333E07B681B6C002B09D1786874
:10241000FEF7BAFF7B6800225A647B68002283F8CB
:102420003C207B681B6C03F01003002B18D17B68E9
:102430001B6C23F4885323F0020343F002027B68F1
:102440001A64786800F06CFA7B6800225A647B6832
:102450001B6C23F0030343F001027B681A6401E064
:102460000123FB737B68002283F83C20FB7B18462A
:102470001037BD4680BD000080B588B000AFF86061
:10248000B9607A6000237B610023FB77FB6893F8D7
:102490003C30012B01D10223EBE0FB68012283F8E1
:1024A0003C20FB681B689B6803F00103012B18D0DC
:1024B000FB681B689A68FB681B6842F001029A601F
:1024C0006E4B1B686E4AA2FB03239A0C13465B00FB
:1024D00013447B6102E07B69013B7B617B69002BDC
:1024E000F9D1FB681B689B6803F48073B3F5807FA8
:1024F00007D1FB681B689A68FB681B6822F480722E
:102500009A60FB681B689B6803F00103012B40F095
:10251000A380FB681B6C23F4E06323F0010343F406
:102520008072FB681A64FB681B685B6803F4806355
:10253000002B07D0FB681B6C23F4405343F48052FC
:10254000FB681A64FB681B6C03F48053B3F5805F6F
:1025500006D1FB685B6C23F00602FB685A6402E05C
:10256000FB6800225A64FB68002283F83C20454B3C
:10257000BB61FB689B6B444ADA63FB689B6B434A15
:102580001A64FB689B6B424ADA64FB681B686FF055
:1025900022021A60FB681B685A68FB681B6842F0DD
:1025A00080625A60FB681B689A68FB681B6842F48B
:1025B00080729A60FB68986BFB681B684C33194605
:1025C000BA687B6800F026FE0346FB77BB695B6850
:1025D00003F01F03002B2AD1FB681B682D4A93428E
:1025E00015D0FB681B682C4A934205D1254B5B68CC
:1025F00003F01F03002B0AD0FB681B68274A934295
:1026000036D1204B5B6803F01003002B30D1FB6800
:102610001B689B6803F04053002B29D1FB681B68A3
:102620009A68FB681B6842F080429A6020E0FB6871
:102630001B68184A93421BD1FB681B689B6803F018
:102640004053002B14D1FB681B689A68FB681B6819
:1026500042F080429A600BE0FB681B6C43F0100272
:10266000FB681A64FB685B6C43F00102FB685A6408
:10267000FB7F18462037BD4680BD00BF18000020F4
:1026800083DE1B4300230140192B0008D32B0008D5
:10269000EF2B0008002001400021014000220140F2
:1026A00080B483B000AF786000BF0C37BD465DF8E2
:1026B000047B704780B483B000AF786000BF0C37F4
:1026C000BD465DF8047B704780B483B000AF78608E
:1026D00000BF0C37BD465DF8047B704780B485B001
:1026E00000AF786039600023BB607B6893F83C30B2
:1026F000012B01D1022305E17B68012283F83C20F4
:102700003B681B68092B25D97B681B68D9683B6827
:102710001B689BB21A4613465B0013441E3B0722FC
:1027200002FA03F3DA437B681B680A40DA607B68CD
:102730001B68D9683B689A683B681B689BB218465F
:1027400003465B0003441E3B9A407B681B680A43B8
:10275000DA6022E07B681B6819693B681B689BB2E2
:102760001A4613465B001344072202FA03F3DA43C6
:102770007B681B680A401A617B681B6819693B68A3
:102780009A683B681B689BB2184603465B0003448B
:102790009A407B681B680A431A613B685B68062B9A
:1027A00024D87B681B68596B3B685A6813469B00AA
:1027B0001344053B1F2202FA03F3DA437B681B68CC
:1027C0000A405A637B681B68596B3B681B689BB265
:1027D00018463B685A6813469B001344053B00FAB1
:1027E00003F27B681B680A435A634CE03B685B68F2
:1027F0000C2B24D87B681B68196B3B685A681346FE
:102800009B001344233B1F2202FA03F3DA437B6845
:102810001B680A401A637B681B68196B3B681B685E
:102820009BB218463B685A6813469B001344233BEF
:1028300000FA03F27B681B680A431A6323E07B6893
:102840001B68D96A3B685A6813469B001344413B96
:102850001F2202FA03F3DA437B681B680A40DA623C
:102860007B681B68D96A3B681B689BB218463B684B
:102870005A6813469B001344413B00FA03F27B68FD
:102880001B680A43DA62224BFB607B681B68214AA3
:10289000934209D13B681B68122B05D1FB685B682A
:1028A00043F48002FB685A607B681B68194A9342B4
:1028B00023D13B681B68102B03D03B681B68112B8E
:1028C0001BD1FB685B6843F40002FB685A603B68FD
:1028D0001B68102B11D1104B1B68104AA2FB03235D
:1028E0009A0C13469B0013445B00BB6002E0BB687C
:1028F000013BBB60BB68002BF9D17B68002283F8E9
:102900003C20002318461437BD465DF8047B704711
:1029100000230140002001401800002083DE1B43FB
:1029200080B485B000AF7860794BFB60FB685B6872
:1029300023F44032FB685A60FB685A687B685B6826
:102940001A43FB685A607B681B685A687B681B687F
:1029500022F480725A607B681B6859687B681B6927
:102960001A027B681B680A435A607B681B685A68B6
:102970007B681B6822F040725A607B681B6859684C
:102980007B689A687B681B680A435A607B681B688F
:102990009A687B681B6822F400629A607B681B68F7
:1029A00099687B68DA687B681B680A439A607B6871
:1029B0009B6A584A934222D07B681B689A687B685E
:1029C0001B6822F070629A607B681B6899687B685C
:1029D0009A6A7B681B680A439A607B681B689A68DE
:1029E0007B681B6822F040529A607B681B6899687C
:1029F0007B68DA6A7B681B680A439A600FE07B6831
:102A00001B689A687B681B6822F070629A607B681A
:102A10001B689A687B681B6822F040529A607B684A
:102A20001B689A687B681B6822F002029A607B68C8
:102A30001B6899687B681B7E5A007B681B680A4389
:102A40009A607B6893F82030002B1BD07B681B6852
:102A50005A687B681B6842F400625A607B681B6896
:102A60005A687B681B6822F460425A607B681B6866
:102A700059687B685B6A013B5A037B681B680A43A1
:102A80005A6007E07B681B685A687B681B6822F401
:102A900000625A607B681B68DA6A7B681B6822F4F4
:102AA0007002DA627B681B68D96A7B68DB69013B6C
:102AB0001A057B681B680A43DA627B681B689A68A0
:102AC0007B681B6822F400729A607B681B689968B7
:102AD0007B6893F830305A027B681B680A439A601F
:102AE0007B681B689A687B681B6822F480629A6026
:102AF0007B681B6899687B685B699A027B681B68C6
:102B00000A439A6000BF1437BD465DF8047B7047E6
:102B1000002301400100000F80B584B000AF786051
:102B20007B689B6BFB60FB681B6C03F05003002B06
:102B30003CD1FB681B6C43F40072FB681A64FB68B1
:102B40001B689B6803F04053002B2BD1FB681B7E56
:102B5000002B27D1FB681B68DB6A03F47003002B92
:102B600006D0FB681B689B6803F48063002B19D1B7
:102B7000FB681B685A68FB681B6822F020025A60D9
:102B8000FB681B6C23F48072FB681A64FB681B6C87
:102B900003F48053002B05D1FB681B6C43F001024A
:102BA000FB681A64F868FFF77BFD0EE0FB681B6C9E
:102BB00003F01003002B03D0F868FFF785FD04E055
:102BC000FB689B6BDB6C7868984700BF1037BD468D
:102BD00080BD80B584B000AF78607B689B6BFB6084
:102BE000F868FFF767FD00BF1037BD4680BD80B5B0
:102BF00084B000AF78607B689B6BFB60FB68402211
:102C00001A64FB685B6C43F00402FB685A64F86862
:102C1000FFF75AFD00BF1037BD4680BD80B485B0B8
:102C200000AF78607B6803F00703FB600C4BDB6848
:102C3000BB60BA684FF6FF031340BB60FB681A0223
:102C4000BB68134343F0BF6343F40033BB60044AE3
:102C5000BB68D36000BF1437BD465DF8047B704786
:102C600000ED00E080B400AF044BDB681B0A03F00A
:102C700007031846BD465DF8047B704700ED00E091
:102C800080B483B000AF0346FB7197F90730002B87
:102C90000BDBFB7903F01F02074997F907305B094B
:102CA000012000FA02F241F8232000BF0C37BD4694
:102CB0005DF8047B704700BF00E100E080B483B0A2
:102CC00000AF03463960FB7197F90730002B0ADB30
:102CD0003B68DAB20C4997F907301201D2B20B44C3
:102CE00083F800230AE03B68DAB20849FB7903F075
:102CF0000F03043B1201D2B20B441A7600BF0C370B
:102D0000BD465DF8047B704700E100E000ED00E0A7
:102D100080B489B000AFF860B9607A60FB6803F0F6
:102D20000703FB61FB69C3F10703042B28BF0423DE
:102D3000BB61FB690433062B02D9FB69033B00E04E
:102D400000237B614FF0FF32BB6902FA03F3DA43E1
:102D5000BB681A407B699A404FF0FF317B6901FAEA
:102D600003F3D9437B680B40134318462437BD4611
:102D70005DF8047B7047000080B582B000AF7860DA
:102D80007B68013BB3F1807F01D301230FE00A4A46
:102D90007B68013B53600F214FF0FF30FFF78EFF40
:102DA000054B00229A60044B07221A600023184644
:102DB0000837BD4680BD00BF10E000E080B582B09E
:102DC00000AF78607868FFF729FF00BF0837BD467D
:102DD00080BD80B586B000AF0346B9607A60FB73F2
:102DE00000237B61FFF73EFF78617A68B9687869F4
:102DF000FFF78EFF024697F90F3011461846FFF78E
:102E00005DFF00BF1837BD4680BD80B582B000AF02
:102E10000346FB7197F907301846FFF731FF00BFF3
:102E20000837BD4680BD80B582B000AF7860786855
:102E3000FFF7A2FF034618460837BD4680BD80B5A0
:102E400082B000AF78607B68002B01D1012314E0D1
:102E50007B681B79DBB2002B05D17B6800225A719D
:102E60007868FEF799FB7B6802221A717B68002262
:102E70001A617B6801221A71002318460837BD4683
:102E800080BD80B483B000AF786039607B68002B70
:102E900001D1012346E07B685B79012B01D102233C
:102EA00040E07B6801225A717B6802221A717B68BC
:102EB0001B6819683B6803F0100301229A407B6885
:102EC0001B680A431A603B68002B0FD17B681B68A4
:102ED0001B6803F03C033C2B1DD17B681B685A68C0
:102EE0007B681B6842F001025A6014E07B681B6833
:102EF0001B6803F470123B6803F010033C2101FAD5
:102F000003F39A4207D17B681B685A687B681B6889
:102F100042F002025A607B6801221A717B6800222B
:102F20005A71002318460C37BD465DF8047B704784
:102F300080B584B000AF78607B681B681B68FB605D
:102F40007B681B685B6BBB60FB6803F40053002B62
:102F50001DD0BB6803F40053002B18D07B680422FB
:102F60001A717B681B6943F001027B681A617B68F8
:102F70001B684FF400525A637B681B681A687B68B1
:102F80001B6822F480521A60786800F027F8FB680A
:102F900003F00053002B1DD0BB6803F00053002B3F
:102FA00018D07B6804221A717B681B6943F0020207
:102FB0007B681A617B681B684FF000525A637B681C
:102FC0001B681A687B681B6822F080521A60786858
:102FD00000F067F800BF1037BD4680BD80B483B0F5
:102FE00000AF786000BF0C37BD465DF8047B7047CA
:102FF00080B489B000AFF860B9607A600023FB77D5
:10300000FB68002B02D0BB68002B01D1012342E0FA
:10301000FB685B79012B01D102233CE0FB680122B4
:103020005A71FB6802221A71FB681B681B68BB613E
:103030007B6803F0100340F6FE7202FA03F3DB43F1
:10304000BA691340BB61BB681A68BB685B6813430D
:103050007B617B6803F010037A6902FA03F3BA69B3
:103060001343BB61FB681B68BA691A60FB681B6885
:1030700019687B6803F01003C02202FA03F3DA43F5
:10308000FB681B680A401A60FB6801221A71FB6822
:1030900000225A71FB7F18462437BD465DF8047B39
:1030A000704780B483B000AF786000BF0C37BD4676
:1030B0005DF8047B7047000080B586B000AF786093
:1030C00000237B61FFF764F938617B68002B01D135
:1030D000012399E07B68022283F835207B68002277
:1030E00083F834207B681B681A687B681B6822F0B1
:1030F00001021A600FE0FFF74BF902463B69D31A51
:10310000052B08D97B6820225A657B68032283F847
:103110003520032378E07B681B681B6803F00103FC
:10312000002BE8D17B681B681B687B617A69384B90
:1031300013407B617B685A687B689B681A437B6895
:10314000DB681A437B681B691A437B685B691A4317
:103150007B689B691A437B68DB691A437B681B6A3F
:1031600013437A6913437B617B685B6A042B07D145
:103170007B68DA6A7B681B6B13437A6913437B6154
:103180007B681B687A691A607B681B685B697B6176
:103190007B6923F007037B617B685B6A7A69134371
:1031A0007B617B685B6A042B17D17B689B6A7A69B9
:1031B00013437B617B68DB6A002B0ED0786800F0DC
:1031C00001FB0346002B08D07B6840225A657B68D0
:1031D000012283F83520012316E07B681B687A6999
:1031E0005A61786800F0B8FA0346FB607B68DB6DD3
:1031F0003F229A40FB689A607B6800225A657B6890
:10320000012283F83520002318461837BD4680BDBB
:103210003F8010F080B586B000AFF860B9607A608A
:103220003B600023FB75FB689B6D3B61FB6893F87B
:103230003430012B01D1022340E0FB68012283F8E6
:103240003420FB6893F83530DBB2012B2FD1FB68BB
:10325000022283F83520FB6800225A653B687A68B1
:10326000B968F86800F04AFAFB68DB6D3F229A40C3
:103270003B699A60FB681B681A68FB681B6842F030
:1032800016021A60FB681B6C002B07D0FB681B68DA
:103290001A68FB681B6842F008021A60FB681B682A
:1032A0001A68FB681B6842F001021A6005E0FB68BF
:1032B000002283F834200223FB75FB7D1846183763
:1032C000BD4680BD80B584B000AF78607B689B6DE3
:1032D000FB60FFF75DF8B8607B6893F83530DBB2D0
:1032E000022B08D07B6880225A657B68002283F815
:1032F0003420012352E07B681B681A687B681B68D6
:1033000022F016021A607B681B685A697B681B688A
:1033100022F080025A617B681B6C002B03D17B6812
:103320009B6C002B07D07B681B681A687B681B6846
:1033300022F008021A607B681B681A687B681B68A9
:1033400022F001021A6013E0FFF722F80246BB6880
:10335000D31A052B0CD97B6820225A657B6803227F
:1033600083F835207B68002283F83420032315E09E
:103370007B681B681B6803F00103002BE4D17B68AA
:10338000DB6D3F229A40FB689A607B68012283F8DC
:1033900035207B68002283F834200023184610373C
:1033A000BD4680BD80B483B000AF78607B6893F881
:1033B0003530DBB2022B04D07B6880225A650123B2
:1033C0000CE07B68052283F835207B681B681A684F
:1033D0007B681B6822F001021A60002318460C3734
:1033E000BD465DF8047B704780B586B000AF78605D
:1033F0000023BB608E4B1B688E4AA2FB03239B0AF3
:103400007B617B689B6D3B613B691B68FB607B68F4
:10341000DB6D08229A40FB681340002B1AD07B68B2
:103420001B681B6803F00403002B13D07B681B6828
:103430001A687B681B6822F004021A607B68DB6DE7
:1034400008229A403B699A607B685B6D43F00102F9
:103450007B685A657B68DB6D01229A40FB681340EC
:10346000002B12D07B681B685B6903F08003002B84
:103470000BD07B68DB6D01229A403B699A607B68C8
:103480005B6D43F002027B685A657B68DB6D04224A
:103490009A40FB681340002B12D07B681B681B68A6
:1034A00003F00203002B0BD07B68DB6D04229A40F3
:1034B0003B699A607B685B6D43F004027B685A65E8
:1034C0007B68DB6D10229A40FB681340002B43D0D1
:1034D0007B681B681B6803F00803002B3CD07B68EB
:1034E000DB6D10229A403B699A607B681B681B6801
:1034F00003F48023002B18D07B681B681B6803F43F
:103500000023002B08D17B681B6C002B24D07B6828
:103510001B6C786898471FE07B689B6C002B1BD066
:103520007B689B6C7868984716E07B681B681B6813
:1035300003F48073002B07D17B681B681A687B68D3
:103540001B6822F008021A607B681B6C002B03D0FA
:103550007B681B6C786898477B68DB6D20229A40FB
:10356000FB681340002B00F08F807B681B681B6892
:1035700003F01003002B00F087807B68DB6D2022B6
:103580009A403B699A607B6893F83530DBB2052B33
:1035900036D17B681B681A687B681B6822F01602AC
:1035A0001A607B681B685A697B681B6822F080027E
:1035B0005A617B681B6C002B03D17B689B6C002BD2
:1035C00007D07B681B681A687B681B6822F00802BA
:1035D0001A607B68DB6D3F229A403B699A607B688A
:1035E000012283F835207B68002283F834207B6831
:1035F0001B6D002B7ED07B681B6D7868984779E047
:103600007B681B681B6803F48023002B1DD07B683C
:103610001B681B6803F40023002B0DD17B685B6CD7
:10362000002B31D07B685B6C786898472CE000BF3A
:1036300018000020B5814E1B7B68DB6B002B23D06C
:103640007B68DB6B786898471EE07B681B681B68AB
:1036500003F48073002B0FD17B681B681A687B68AA
:103660001B6822F010021A607B68012283F8352063
:103670007B68002283F834207B68DB6B002B03D04F
:103680007B68DB6B786898477B685B6D002B32D07A
:103690007B685B6D03F00103002B22D07B68052261
:1036A00083F835207B681B681A687B681B6822F0EA
:1036B00001021A60BB680133BB607A699A4207D382
:1036C0007B681B681B6803F00103002BF2D100E04C
:1036D00000BF7B68012283F835207B68002283F8D5
:1036E00034207B68DB6C002B05D07B68DB6C786852
:1036F000984700E000BF1837BD4680BD80B485B054
:1037000000AFF860B9607A603B60FB681B681A68BC
:10371000FB681B6822F480221A60FB681B683A6809
:103720005A60FB689B68402B08D1FB681B687A686D
:103730009A60FB681B68BA68DA6007E0FB681B6880
:10374000BA689A60FB681B687A68DA6000BF143751
:10375000BD465DF8047B704780B485B000AF7860EB
:103760007B681B68DBB2103B144AA2FB03231B09D6
:10377000FB60134AFB6813441B781A467B68DA65C2
:10378000FB68032B09D97B681B6823F47F7323F044
:1037900003031A1D7B689A6507E07B681B6823F4A6
:1037A0007F7323F003037A6893657B689B6D1846EB
:1037B0001437BD465DF8047B704700BFABAAAAAAC8
:1037C000FC92000880B485B000AF78600023FB73E2
:1037D0007B689B6ABB607B689B69002B1FD1BB68C1
:1037E000032B56D801A252F823F000BFFD37000882
:1037F0000F380008FD370008933800087B68DB6A43
:1038000003F08073002B46D00123FB7343E07B68F9
:10381000DB6AB3F1C07F40D10123FB733DE07B68DD
:103820009B69B3F5005F21D1BB68032B37D801A298
:1038300052F823F0453800084B3800084538000896
:103840005D3800080123FB7330E07B68DB6A03F01E
:103850008073002B25D00123FB7322E07B68DB6A99
:10386000B3F1C07F1FD10123FB731CE0BB68022BA7
:1038700003D9BB68032B03D018E00123FB7315E0C9
:103880007B68DB6A03F08073002B0ED00123FB738F
:103890000BE000BF0AE000BF08E000BF06E000BF89
:1038A00004E000BF02E000BF00E000BFFB7B184661
:1038B0001437BD465DF8047B704700BF80B489B003
:1038C00000AF7860396000237B6100233B610023F7
:1038D000BB610023FB616BE10122FB6902FA03F388
:1038E0007B613B681B687A6913403B613A697B697D
:1038F0009A4240F05A813B685B6803F00303012B56
:1039000005D03B685B6803F00303022B30D17B6872
:103910009B68BB61FB695B00032202FA03F3DB4394
:10392000BA691340BB613B68DA68FB695B0002FA65
:1039300003F3BA691343BB617B68BA699A607B6819
:103940005B68BB610122FB6902FA03F3DB43BA69DE
:103950001340BB613B685B681B0903F00102FB6914
:1039600002FA03F3BA691343BB617B68BA695A6010
:103970003B685B6803F00303032B17D07B68DB68AD
:10398000BB61FB695B00032202FA03F3DB43BA6904
:103990001340BB613B689A68FB695B0002FA03F362
:1039A000BA691343BB617B68BA69DA603B685B68DC
:1039B00003F00303022B23D1FB69DA087B6808328A
:1039C00053F82230BB61FB6903F007039B000F2211
:1039D00002FA03F3DB43BA691340BB613B681A691F
:1039E000FB6903F007039B0002FA03F3BA69134370
:1039F000BB61FB69DA087B680832B96943F82210B9
:103A00007B681B68BB61FB695B00032202FA03F35E
:103A1000DB43BA691340BB613B685B6803F0030298
:103A2000FB695B0002FA03F3BA691343BB617B686D
:103A3000BA691A603B685B6803F44033002B00F0FE
:103A4000B4800023FB60604B5B6C5F4A43F48043AF
:103A500053645D4B5B6C03F48043FB60FB685B4A23
:103A6000FB699B08023352F82330BB61FB6903F00A
:103A700003039B000F2202FA03F3DB43BA691340EE
:103A8000BB617B68524A93422BD07B68514A934278
:103A900025D07B68504A93421FD07B684F4A93429F
:103AA00019D07B684E4A934213D07B684D4A9342AB
:103AB0000DD07B684C4A934207D07B684B4A9342B7
:103AC00001D107230EE008230CE006230AE00523BA
:103AD00008E0042306E0032304E0022302E00123BC
:103AE00000E00023FA6902F0030292009340BA69F1
:103AF0001343BB613549FB699B080233BA6941F83E
:103B000023203B4B9B68BB613B69DB43BA69134095
:103B1000BB613B685B6803F48013002B03D0BA6978
:103B20003B691343BB61324ABB699360304BDB682E
:103B3000BB613B69DB43BA691340BB613B685B68AF
:103B400003F40013002B03D0BA693B691343BB6134
:103B5000274ABB69D360264B5B68BB613B69DB438B
:103B6000BA691340BB613B685B6803F40033002B08
:103B700003D0BA693B691343BB611D4ABB695360FB
:103B80001B4B1B68BB613B69DB43BA691340BB61DC
:103B90003B685B6803F48033002B03D0BA693B6950
:103BA0001343BB61124ABB691360FB690133FB61BC
:103BB000FB690F2B7FF690AE00BF00BF2437BD46D8
:103BC0005DF8047B704700BF0038024000380140B8
:103BD000000002400004024000080240000C0240C5
:103BE000001002400014024000180240001C024075
:103BF000003C014080B483B000AF78600B467B800E
:103C000013467B707B78002B03D07A887B689A619F
:103C100003E07B881A047B689A6100BF0C37BD46BD
:103C20005DF8047B704780B485B000AF78600B46C8
:103C30007B807B685B69FB607A88FB6813401A04B1
:103C4000FB68D9437B880B401A437B689A6100BFAD
:103C50001437BD465DF8047B7047000080B582B024
:103C600000AF0346FB80084B5A69FB881340002BCA
:103C700006D0054AFB885361FB881846FDF7D8FE3D
:103C800000BF0837BD4680BD003C014080B586B00E
:103C900000AF78607B68002B01D1012367E27B686D
:103CA0001B6803F00103002B75D0884B9B6803F061
:103CB0000C03042B0CD0854B9B6803F00C03082BE2
:103CC00012D1824B5B6803F48003B3F5800F0BD1F4
:103CD0007E4B1B6803F40033002B5BD07B685B6872
:103CE000002B57D1012342E27B685B68B3F5803F2C
:103CF00006D1764B1B68754A43F4803313601DE090
:103D00007B685B68B3F5A02F0CD1704B1B686F4AC2
:103D100043F4802313606D4B1B686C4A43F480337B
:103D200013600BE0694B1B68684A23F4803313600F
:103D3000664B1B68654A23F4802313607B685B68CD
:103D4000002B13D0FEF724FB386108E0FEF720FBC0
:103D500002463B69D31A642B01D9032307E25B4B6C
:103D60001B6803F40033002BF0D014E0FEF710FBC7
:103D7000386108E0FEF70CFB02463B69D31A642B5E
:103D800001D90323F3E1514B1B6803F40033002BEB
:103D9000F0D100E000BF7B681B6803F00203002B3A
:103DA00063D04A4B9B6803F00C03002B0BD0474BAE
:103DB0009B6803F00C03082B1CD1444B5B6803F495
:103DC0008003002B16D1414B1B6803F00203002B2C
:103DD00005D07B68DB68012B01D00123C7E13B4B99
:103DE0001B6823F0F8027B681B69DB00374913432B
:103DF0000B603AE07B68DB68002B20D0344B01225B
:103E00001A60FEF7C5FA386108E0FEF7C1FA02460B
:103E10003B69D31A022B01D90323A8E12B4B1B6862
:103E200003F00203002BF0D0284B1B6823F0F802AC
:103E30007B681B69DB00254913430B6015E0244BAD
:103E400000221A60FEF7A4FA386108E0FEF7A0FA33
:103E500002463B69D31A022B01D9032387E11B4B8E
:103E60001B6803F00203002BF0D17B681B6803F092
:103E70000803002B36D07B685B69002B16D0154BEE
:103E800001221A60FEF784FA386108E0FEF780FA32
:103E900002463B69D31A022B01D9032367E10B4B7E
:103EA0005B6F03F00203002BF0D01BE0094B0022F4
:103EB0001A60FEF76DFA38610EE0FEF769FA024605
:103EC0003B69D31A022B07D9032350E10038024083
:103ED00000004742800E4742884B5B6F03F00203AD
:103EE000002BEAD17B681B6803F00403002B00F071
:103EF00097800023FB75814B1B6C03F08053002BD4
:103F00000FD10023BB607D4B1B6C7C4A43F0805378
:103F100013647A4B1B6C03F08053BB60BB680123B6
:103F2000FB75774B1B6803F48073002B18D1744B1F
:103F30001B68734A43F480731360FEF729FA3861F3
:103F400008E0FEF725FA02463B69D31A022B01D995
:103F500003230CE16A4B1B6803F48073002BF0D041
:103F60007B689B68012B06D1644B1B6F634A43F04F
:103F7000010313671CE07B689B68052B0CD15F4B2A
:103F80001B6F5E4A43F0040313675C4B1B6F5B4A75
:103F900043F0010313670BE0584B1B6F574A23F0A4
:103FA00001031367554B1B6F544A23F00403136737
:103FB0007B689B68002B15D0FEF7EAF938610AE0B0
:103FC000FEF7E6F902463B69D31A41F28832934282
:103FD00001D90323CBE0494B1B6F03F00203002BF5
:103FE000EED014E0FEF7D4F938610AE0FEF7D0F91C
:103FF00002463B69D31A41F28832934201D9032326
:10400000B5E03E4B1B6F03F00203002BEED1FB7DAE
:10401000012B05D1394B1B6C384A23F080531364B4
:104020007B689B69002B00F0A180344B9B6803F0F8
:104030000C03082B5CD07B689B69022B41D1314B70
:1040400000221A60FEF7A4F9386108E0FEF7A0F933
:1040500002463B69D31A022B01D9032387E0274B81
:104060001B6803F00073002BF0D17B68DA697B6872
:104070001B6A1A437B685B6A9B011A437B689B6AD5
:104080005B08013B1B041A437B68DB6A1B061B4968
:1040900013434B601B4B01221A60FEF779F938611C
:1040A00008E0FEF775F902463B69D31A022B01D9E5
:1040B00003235CE0114B1B6803F00073002BF0D06E
:1040C00054E0104B00221A60FEF762F9386108E0F4
:1040D000FEF75EF902463B69D31A022B01D903238E
:1040E00045E0064B1B6803F00073002BF0D13DE068
:1040F0007B689B69012B07D1012338E0003802401F
:1041000000700040600047421B4B5B68FB607B68AF
:104110009B69012B28D0FB6803F480027B68DB6974
:104120009A4221D1FB6803F03F027B681B6A9A42E6
:104130001AD1FA6847F6C07313407A68526A92013E
:10414000934211D1FB6803F440327B689B6A5B08A1
:10415000013B1B049A4207D1FB6803F070627B6845
:10416000DB6A1B069A4201D0012300E000231846B7
:104170001837BD4680BD00BF0038024080B584B00E
:1041800000AF786039607B68002B01D10123CCE05F
:10419000684B1B6803F007033A689A420CD9654BD9
:1041A0003A68D2B21A70634B1B6803F007033A688F
:1041B0009A4201D00123B8E07B681B6803F0020338
:1041C000002B20D07B681B6803F00403002B05D074
:1041D000594B9B68584A43F4E05393607B681B68D3
:1041E00003F00803002B05D0534B9B68524A43F45D
:1041F00060439360504B9B6823F0F0027B689B68A0
:104200004D4913438B607B681B6803F00103002B4F
:1042100044D07B685B68012B07D1474B1B6803F4D4
:104220000033002B19D101237FE07B685B68022BF0
:1042300003D07B685B68032B07D13F4B1B6803F0FF
:104240000073002B09D101236FE03B4B1B6803F087
:104250000203002B01D1012367E0374B9B6823F059
:1042600003027B685B68344913438B60FEF790F868
:10427000F8600AE0FEF78CF80246FB68D31A41F2B8
:104280008832934201D903234FE02B4B9B6803F004
:104290000C027B685B689B009A42EBD1254B1B6844
:1042A00003F007033A689A420CD2224B3A68D2B222
:1042B0001A70204B1B6803F007033A689A4201D03A
:1042C000012332E07B681B6803F00403002B08D055
:1042D000194B9B6823F4E0527B68DB681649134353
:1042E0008B607B681B6803F00803002B09D0124B1E
:1042F0009B6823F460427B681B69DB000E49134313
:104300008B6000F021F802460B4B9B681B0903F001
:104310000F030A49CB5C22FA03F3094A1360094BE5
:104320001B681846FDF7F0FF002318461037BD46FE
:1043300080BD00BF003C024000380240E49200080B
:10434000180000201C0000202DE9B04F90B000AFF5
:1043500000237B630023FB6300233B630023BB63D9
:10436000594B9B6803F00C03082B0DD0082B00F26F
:10437000A180002B02D0042B03D09BE0534BBB63E6
:104380009BE0534BBB6398E04F4B5B6803F03F03EC
:104390007B634D4B5B6803F48003002B28D04A4BB2
:1043A0005B689B0900223B627A623B6AC3F30800A8
:1043B0000021474B03FB01F2002300FB03F31344EE
:1043C000434AA0FB0212FA620A46BA62FA6A13442E
:1043D000FB627B6B0022BB61FA61D7E90623D7E958
:1043E0000A01FCF7E1FB02460B461346FB6353E070
:1043F000354B5B689B0900223B617A613B69C3F3E3
:10440000080A4FF0000B52465B464FF000004FF099
:104410000001590141EAD261500102460B46B2EB5C
:104420000A0863EB0B094FF000024FF000034FEA5C
:10443000891343EA98634FEA8812B2EB080463EBEE
:1044400009054FF000024FF00003EB0043EA5473FC
:10445000E20014461D4614EB0A033B6045EB0B03D8
:104460007B604FF000024FF00003D7E9004529467A
:104470008B02214643EA915321468A02104619468F
:104480007B6B0022BB60FA60D7E90223FCF78CFB50
:1044900002460B461346FB630B4B5B681B0C03F099
:1044A000030301335B003B63FA6B3B6BB2FBF3F33B
:1044B000BB6302E0054BBB6300BFBB6B18464037D4
:1044C000BD46BDE8B08F00BF003802400024F400B4
:1044D000001BB70080B400AF034B1B681846BD46F5
:1044E0005DF8047B704700BF1800002080B500AF66
:1044F000FFF7F0FF0246054B9B689B0A03F007039A
:104500000349CB5C22FA03F3184680BD0038024011
:10451000F492000880B500AFFFF7DCFF0246054BC0
:104520009B685B0B03F007030349CB5C22FA03F3A0
:10453000184680BD00380240F492000880B582B071
:1045400000AF78607B68002B01D1012341E07B68DC
:1045500093F83D30DBB2002B06D17B68002283F854
:104560003C207868FDF774FD7B68022283F83D20CB
:104570007B681A687B6804331946104600F002FC19
:104580007B68012283F846207B68012283F83E2065
:104590007B68012283F83F207B68012283F840205A
:1045A0007B68012283F841207B68012283F8422046
:1045B0007B68012283F843207B68012283F8442032
:1045C0007B68012283F845207B68012283F83D2027
:1045D000002318460837BD4680BD000080B485B072
:1045E00000AF78607B6893F83D30DBB2012B01D0DF
:1045F000012346E07B68022283F83D207B681B682C
:10460000234A934222D07B681B68B3F1804F1DD0B0
:104610007B681B681F4A934218D07B681B681E4A40
:10462000934213D07B681B681C4A93420ED07B6870
:104630001B681B4A934209D07B681B68194A934246
:1046400004D07B681B68184A934211D17B681B68B1
:104650009B6803F00703FB60FB68062B10D07B68A8
:104660001B681A687B681B6842F001021A6007E049
:104670007B681B681A687B681B6842F001021A603D
:10468000002318461437BD465DF8047B704700BF11
:10469000000001400004004000080040000C004001
:1046A00000040140004001400018004080B485B083
:1046B00000AF78607B6893F83D30DBB2012B01D00E
:1046C00001234EE07B68022283F83D207B681B6853
:1046D000DA687B681B6842F00102DA607B681B685D
:1046E000234A934222D07B681B68B3F1804F1DD0D0
:1046F0007B681B681F4A934218D07B681B681E4A60
:10470000934213D07B681B681C4A93420ED07B688F
:104710001B681B4A934209D07B681B68194A934265
:1047200004D07B681B68184A934211D17B681B68D0
:104730009B6803F00703FB60FB68062B10D07B68C7
:104740001B681A687B681B6842F001021A6007E068
:104750007B681B681A687B681B6842F001021A605C
:10476000002318461437BD465DF8047B704700BF30
:10477000000001400004004000080040000C004020
:1047800000040140004001400018004080B582B0A4
:1047900000AF78607B68002B01D1012341E07B688A
:1047A00093F83D30DBB2002B06D17B68002283F802
:1047B0003C20786800F039F87B68022283F83D20BD
:1047C0007B681A687B6804331946104600F0DAFAF1
:1047D0007B68012283F846207B68012283F83E2013
:1047E0007B68012283F83F207B68012283F8402008
:1047F0007B68012283F841207B68012283F84220F4
:104800007B68012283F843207B68012283F84420DF
:104810007B68012283F845207B68012283F83D20D4
:10482000002318460837BD4680BD80B483B000AF72
:10483000786000BF0C37BD465DF8047B704780B5DB
:1048400084B000AF78607B681B68DB68FB607B68C6
:104850001B681B69BB60BB6803F00203002B20D000
:10486000FB6803F00203002B1BD07B681B686FF012
:1048700002021A617B6801221A777B681B689B69B8
:1048800003F00303002B03D0786800F05CFA05E026
:10489000786800F04EFA786800F05FFA7B680022D2
:1048A0001A77BB6803F00403002B20D0FB6803F0E9
:1048B0000403002B1BD07B681B686FF004021A6195
:1048C0007B6802221A777B681B689B6903F440733C
:1048D000002B03D0786800F036FA05E0786800F025
:1048E00028FA786800F039FA7B6800221A77BB68EA
:1048F00003F00803002B20D0FB6803F00803002B13
:104900001BD07B681B686FF008021A617B68042269
:104910001A777B681B68DB6903F00303002B03D065
:10492000786800F010FA05E0786800F002FA78681C
:1049300000F013FA7B6800221A77BB6803F01003BB
:10494000002B20D0FB6803F01003002B1BD07B68EA
:104950001B686FF010021A617B6808221A777B6867
:104960001B68DB6903F44073002B03D0786800F008
:10497000EAF905E0786800F0DCF9786800F0EDF914
:104980007B6800221A77BB6803F00103002B0CD070
:10499000FB6803F00103002B07D07B681B686FF0F6
:1049A00001021A617868FDF76FF8BB6803F08003B5
:1049B000002B0CD0FB6803F08003002B07D07B6832
:1049C0001B686FF080021A61786800F0A3FDBB6875
:1049D00003F04003002B0CD0FB6803F04003002BD6
:1049E00007D07B681B686FF040021A61786800F09E
:1049F000BEF9BB6803F02003002B0CD0FB6803F06A
:104A00002003002B07D07B681B686FF020021A611F
:104A1000786800F075FD00BF1037BD4680BD00000E
:104A200080B586B000AFF860B9607A600023FB758E
:104A3000FB6893F83C30012B01D10223AEE0FB6808
:104A4000012283F83C207B680C2B00F29F8001A29E
:104A500052F823F0894A00088D4B00088D4B00085E
:104A60008D4B0008C94A00088D4B00088D4B00088B
:104A70008D4B00080B4B00088D4B00088D4B000838
:104A80008D4B00084B4B0008FB681B68B968184643
:104A900000F01EFAFB681B689A69FB681B6842F00D
:104AA00008029A61FB681B689A69FB681B6822F020
:104AB00004029A61FB681B689969BB681A69FB6804
:104AC0001B680A439A6164E0FB681B68B968184672
:104AD00000F06EFAFB681B689A69FB681B6842F479
:104AE00000629A61FB681B689A69FB681B6822F484
:104AF00080629A61FB681B689969BB681B691A022E
:104B0000FB681B680A439A6143E0FB681B68B9684D
:104B1000184600F0C3FAFB681B68DA69FB681B687B
:104B200042F00802DA61FB681B68DA69FB681B68FF
:104B300022F00402DA61FB681B68D969BB681A6954
:104B4000FB681B680A43DA6123E0FB681B68B968ED
:104B5000184600F017FBFB681B68DA69FB681B68E6
:104B600042F40062DA61FB681B68DA69FB681B6863
:104B700022F48062DA61FB681B68D969BB681B6933
:104B80001A02FB681B680A43DA6102E00123FB7525
:104B900000BFFB68002283F83C20FB7D18461837D5
:104BA000BD4680BD80B584B000AF78603960002319
:104BB000FB737B6893F83C30012B01D10223B4E0F6
:104BC0007B68012283F83C207B68022283F83D2029
:104BD0007B681B689B68BB60BB6823F07703BB6086
:104BE000BB6823F47F43BB607B681B68BA689A602C
:104BF0003B681B68B3F5005F3ED0B3F5005F00F281
:104C00008780B3F5805F00F08680B3F5805F7FD842
:104C1000702B1AD0702B7BD8602B50D0602B77D89C
:104C2000502B3CD0502B73D8402B58D0402B6FD8F2
:104C3000302B64D0302B6BD8202B60D0202B67D842
:104C4000002B5CD0102B5AD062E07B6818683B6860
:104C500099683B685A683B68DB6800F063FB7B68D7
:104C60001B689B68BB60BB6843F07703BB607B68D5
:104C70001B68BA689A604FE07B6818683B6899685F
:104C80003B685A683B68DB6800F04CFB7B681B683C
:104C90009A687B681B6842F480429A603CE07B68BB
:104CA00018683B6859683B68DB681A4600F0C0FA30
:104CB0007B681B685021184600F019FB2CE07B68CC
:104CC00018683B6859683B68DB681A4600F0DFFAF1
:104CD0007B681B686021184600F009FB1CE07B68BC
:104CE00018683B6859683B68DB681A4600F0A0FA10
:104CF0007B681B684021184600F0F9FA0CE07B68DD
:104D00001A683B681B681946104600F0F0FA03E089
:104D10000123FB7300E000BF7B68012283F83D2084
:104D20007B68002283F83C20FB7B18461037BD4689
:104D300080BD80B483B000AF786000BF0C37BD4643
:104D40005DF8047B704780B483B000AF786000BF2B
:104D50000C37BD465DF8047B704780B483B000AF6C
:104D6000786000BF0C37BD465DF8047B704780B4A7
:104D700083B000AF786000BF0C37BD465DF8047BA0
:104D80007047000080B485B000AF786039607B6800
:104D90001B68FB607B68434A934213D07B68B3F186
:104DA000804F0FD07B68404A93420BD07B683F4ACC
:104DB000934207D07B683E4A934203D07B683D4ACA
:104DC000934208D1FB6823F07003FB603B685B688B
:104DD000FA681343FB607B68324A93422BD07B68AE
:104DE000B3F1804F27D07B682F4A934223D07B6852
:104DF0002E4A93421FD07B682D4A93421BD07B687A
:104E00002C4A934217D07B682B4A934213D07B687D
:104E10002A4A93420FD07B68294A93420BD07B6881
:104E2000284A934207D07B68274A934203D07B6885
:104E3000264A934208D1FB6823F44073FB603B6829
:104E4000DB68FA681343FB60FB6823F080023B6871
:104E50005B691343FB603B689A687B68DA623B6876
:104E60001A687B689A627B680E4A934203D07B681B
:104E7000104A934203D13B681A697B681A637B68C6
:104E80001B6843F004027B681A607B6801225A6148
:104E90007B68FA681A6000BF1437BD465DF8047B72
:104EA000704700BF000001400004004000080040BF
:104EB000000C00400004014000400140004401405B
:104EC0000048014000180040001C00400020004045
:104ED00080B487B000AF786039607B681B6A7B6103
:104EE0007B681B6A23F001027B681A627B685B683F
:104EF0003B617B689B69FB60FB6823F07003FB6090
:104F0000FB6823F00303FB603B681B68FA681343EC
:104F1000FB607B6923F002037B613B689B687A69D5
:104F200013437B617B68204A934203D07B681F4A0E
:104F300093420CD17B6923F008037B613B68DB68FB
:104F40007A6913437B617B6923F004037B617B688F
:104F5000154A934203D07B68144A934211D13B69AE
:104F600023F480733B613B6923F400733B613B682E
:104F70005B693A6913433B613B689B693A69134338
:104F80003B617B683A695A607B68FA689A613B6862
:104F90005A687B685A637B687A691A6200BF1C375B
:104FA000BD465DF8047B70470000014000040140ED
:104FB00080B487B000AF786039607B681B6A7B6122
:104FC0007B681B6A23F010027B681A627B685B684F
:104FD0003B617B689B69FB60FB6823F4E043FB60FB
:104FE000FB6823F44073FB603B681B681B02FA6894
:104FF0001343FB607B6923F020037B613B689B6864
:105000001B017A6913437B617B68224A934203D078
:105010007B68214A93420DD17B6923F080037B6139
:105020003B68DB681B017A6913437B617B6923F072
:1050300040037B617B68174A934203D07B68164A22
:10504000934213D13B6923F480633B613B6923F4B2
:1050500000633B613B685B699B003A6913433B61BA
:105060003B689B699B003A6913433B617B683A69E3
:105070005A607B68FA689A613B685A687B689A63F1
:105080007B687A691A6200BF1C37BD465DF8047BF5
:10509000704700BF000001400004014080B487B0A9
:1050A00000AF786039607B681B6A7B617B681B6A34
:1050B00023F480727B681A627B685B683B617B6863
:1050C000DB69FB60FB6823F07003FB60FB6823F087
:1050D0000303FB603B681B68FA681343FB607B6952
:1050E00023F400737B613B689B681B027A6913435E
:1050F0007B617B68214A934203D07B68204A9342BC
:105100000DD17B6923F400637B613B68DB681B0284
:105110007A6913437B617B6923F480637B617B68DD
:10512000164A934203D07B68154A934213D13B69D8
:1051300023F480533B613B6923F400533B613B689C
:105140005B691B013A6913433B613B689B691B0127
:105150003A6913433B617B683A695A607B68FA6835
:10516000DA613B685A687B68DA637B687A691A623D
:1051700000BF1C37BD465DF8047B7047000001404E
:105180000004014080B487B000AF786039607B686C
:105190001B6A3B617B681B6A23F480527B681A623E
:1051A0007B685B687B617B68DB69FB60FB6823F481
:1051B000E043FB60FB6823F44073FB603B681B68C3
:1051C0001B02FA681343FB603B6923F400533B6105
:1051D0003B689B681B033A6913433B617B68124A37
:1051E000934203D07B68114A934209D17B6923F42F
:1051F00080437B613B685B699B017A6913437B61F8
:105200007B687A695A607B68FA68DA613B685A6839
:105210007B681A647B683A691A6200BF1C37BD4616
:105220005DF8047B704700BF0000014000040140AE
:1052300080B487B000AFF860B9607A60FB681B6A21
:105240007B61FB681B6A23F00102FB681A62FB6842
:105250009B693B613B6923F0F0033B617B681B0169
:105260003A6913433B617B6923F00A037B617A69E6
:10527000BB6813437B61FB683A699A61FB687A6992
:105280001A6200BF1C37BD465DF8047B704780B4CE
:1052900087B000AFF860B9607A60FB681B6A7B6119
:1052A000FB681B6A23F01002FB681A62FB689B69AB
:1052B0003B613B6923F470433B617B681B033A69A4
:1052C00013433B617B6923F0A0037B61BB681B0137
:1052D0007A6913437B61FB683A699A61FB687A6972
:1052E0001A6200BF1C37BD465DF8047B704780B46E
:1052F00085B000AF786039607B689B68FB60FB68B5
:1053000023F07003FB603A68FB68134343F0070324
:10531000FB607B68FA689A6000BF1437BD465DF891
:10532000047B704780B487B000AFF860B9607A60E2
:105330003B60FB689B687B617B6923F47F437B61F7
:105340003B681A027B681A43BB6813437A691343AC
:105350007B61FB687A699A6000BF1C37BD465DF8C7
:10536000047B704780B485B000AF786039607B689B
:1053700093F83C30012B01D102235AE07B680122D3
:1053800083F83C207B68022283F83D207B681B6801
:105390005B68FB607B681B689B68BB60FB6823F0F5
:1053A0007003FB603B681B68FA681343FB607B6813
:1053B0001B68FA685A607B681B68214A934222D0B6
:1053C0007B681B68B3F1804F1DD07B681B681D4A4A
:1053D000934218D07B681B681B4A934213D07B68AA
:1053E0001B681A4A93420ED07B681B68184A934286
:1053F00009D07B681B68174A934204D07B681B68FE
:10540000154A93420CD1BB6823F08003BB603B6814
:105410005B68BA681343BB607B681B68BA689A60B4
:105420007B68012283F83D207B68002283F83C20C2
:10543000002318461437BD465DF8047B704700BF53
:10544000000001400004004000080040000C004043
:1054500000040140004001400018004080B485B0C5
:1054600000AF786039600023FB607B6893F83C30C4
:10547000012B01D102233DE07B68012283F83C200F
:10548000FB6823F0FF023B68DB681343FB60FB68AB
:1054900023F440723B689B681343FB60FB6823F472
:1054A00080623B685B681343FB60FB6823F4006227
:1054B0003B681B681343FB60FB6823F480523B6826
:1054C0001B691343FB60FB6823F400523B685B6974
:1054D0001343FB60FB6823F480423B68DB691343A2
:1054E000FB607B681B68FA685A647B68002283F85B
:1054F0003C20002318461437BD465DF8047B7047F6
:1055000080B483B000AF786000BF0C37BD465DF853
:10551000047B704780B483B000AF786000BF0C3765
:10552000BD465DF8047B704780B582B000AF7860FF
:105530007B68002B01D1012342E07B6893F8413066
:10554000DBB2002B06D17B68002283F8402078680C
:10555000FCF746FE7B68242283F841207B681B68A9
:10556000DA687B681B6822F40052DA60786800F021
:10557000D3FD7B681B681A697B681B6822F4904224
:105580001A617B681B685A697B681B6822F02A02D3
:105590005A617B681B68DA687B681B6842F40052BA
:1055A000DA607B6800225A647B68202283F84120FD
:1055B0007B68202283F842207B6800225A63002304
:1055C00018460837BD4680BD80B58AB002AFF86086
:1055D000B9603B601346FB8000237B61FB6893F856
:1055E0004130DBB2202B75D1BB68002B02D0FB8889
:1055F000002B01D101236EE0FB6800225A64FB6896
:10560000212283F84120FCF7C3FE7861FB68FA8809
:105610009A84FB68FA88DA84FB689B68B3F5805F3C
:1056200008D1FB681B69002B04D10023FB61BB6818
:10563000BB6103E0BB68FB610023BB612EE03B68FC
:1056400000937B6900228021F86800F037FB034655
:10565000002B05D0FB68202283F8412003233AE089
:10566000FB69002B0BD1BB691B881A46FB681B68C2
:10567000C2F308025A60BB690233BB6107E0FB69F1
:105680001A78FB681B685A60FB690133FB61FB6891
:10569000DB8C9BB2013B9AB2FB68DA84FB68DB8C43
:1056A0009BB2002BCBD13B6800937B690022402149
:1056B000F86800F003FB0346002B05D0FB682022AE
:1056C00083F84120032306E0FB68202283F8412071
:1056D000002300E0022318462037BD4680BD80B578
:1056E00084B000AFF860B9601346FB80FB6893F8A4
:1056F0004230DBB2202B12D1BB68002B02D0FB88DA
:10570000002B01D101230BE0FB6800221A63FB8808
:105710001A46B968F86800F02AFB034600E0022345
:1057200018461037BD4680BD80B5BAB000AF78606E
:105730007B681B681B68C7F8E4307B681B68DB6804
:10574000C7F8E0307B681B685B69C7F8DC30002372
:10575000C7F8D8300023C7F8D430D7F8E43003F0C6
:105760000F03C7F8D830D7F8D830002B0FD1D7F8AF
:10577000E43003F02003002B09D0D7F8E03003F029
:105780002003002B03D0786800F007FC73E2D7F801
:10579000D830002B00F0DE80D7F8DC3003F00103B6
:1057A000002B06D1D7F8E03003F49073002B00F003
:1057B000D180D7F8E43003F00103002B0BD0D7F8E9
:1057C000E03003F48073002B05D07B685B6C43F002
:1057D00001027B685A64D7F8E43003F00403002B1D
:1057E0000BD0D7F8DC3003F00103002B05D07B6829
:1057F0005B6C43F002027B685A64D7F8E43003F034
:105800000203002B0BD0D7F8DC3003F00103002B90
:1058100005D07B685B6C43F004027B685A64D7F860
:10582000E43003F00803002B11D0D7F8E03003F088
:105830002003002B05D1D7F8DC3003F00103002B47
:1058400005D07B685B6C43F008027B685A647B6818
:105850005B6C002B00F00A82D7F8E43003F02003E1
:10586000002B08D0D7F8E03003F02003002B02D043
:10587000786800F092FB7B681B685B6903F040036B
:10588000402B0CBF01230023DBB2C7F8D4307B6868
:105890005B6C03F00803002B03D1D7F8D430002B46
:1058A0004FD0786800F09DFA7B681B685B6903F055
:1058B0004003402B41D17B681B681433C7F89C30F0
:1058C000D7F89C3053E8003FC7F89830D7F89830A5
:1058D00023F04003C7F8D0307B681B681433D7F837
:1058E000D020C7F8A820C7F8A430D7F8A410D7F85C
:1058F000A82041E80023C7F8A030D7F8A030002B3B
:10590000D9D17B68DB6B002B13D07B68DB6B8A4AB9
:105910001A657B68DB6B1846FDF744FD0346002BD8
:1059200016D07B68DB6B1B6D7A68D26B104698478C
:105930000EE0786800F0ACF90AE0786800F0A8F9A9
:1059400006E0786800F0A4F97B6800225A648DE1D3
:1059500000BF8BE17B681B6B012B40F06781D7F8A0
:10596000E43003F01003002B00F06081D7F8E03042
:1059700003F01003002B00F059810023BB607B680B
:105980001B681B68BB607B681B685B68BB60BB688F
:105990007B681B685B6903F04003402B40F0CE80BE
:1059A0007B68DB6B1B685B68A7F8BE30B7F8BE305E
:1059B000002B00F0A9807B689B8DB7F8BE209A422F
:1059C00080F0A2807B68B7F8BE20DA857B68DB6B4D
:1059D000DB69B3F5807F00F088807B681B680C333F
:1059E000C7F88830D7F8883053E8003FC7F88430CC
:1059F000D7F8843023F48073C7F8B8307B681B680D
:105A00000C33D7F8B820C7F89420C7F89030D7F8EF
:105A10009010D7F8942041E80023C7F88C30D7F8CD
:105A20008C30002BD9D17B681B6814337B677B6F6C
:105A300053E8003F3B673B6F23F00103C7F8B430E6
:105A40007B681B681433D7F8B420C7F88020FB6745
:105A5000F96FD7F8802041E80023BB67BB6F002BAC
:105A6000E1D17B681B6814333B663B6E53E8003F13
:105A7000FB65FB6D23F04003C7F8B0307B681B6803
:105A80001433D7F8B020FA66BB66B96EFA6E41E8F7
:105A900000237B667B6E002BE3D17B68202283F89A
:105AA00042207B6800221A637B681B680C33FB640E
:105AB000FB6C53E8003FBB64BB6C23F01003C7F8DA
:105AC000AC307B681B680C33D7F8AC20BA657B65BB
:105AD000796DBA6D41E800233B653B6D002BE3D146
