:020000040800F2
:10000000000002200D280008091F0008111F000829
:10001000191F0008211F0008291F00080000000008
:10002000000000000000000000000000311F000878
:100030003F1F0008000000004D1F00085B1F000864
:100040005D2800085D2800085D2800085D2800087C
:100050005D2800085D280008671F0008751F00085C
:10006000831F0008911F00085D2800085D28000814
:100070005D2800085D2800085D2800085D2800084C
:100080005D2800085D2800085D2800085D2800083C
:100090005D2800085D2800085D2800085D2800082C
:1000A0005D2800085D2800085D2800085D2800081C
:1000B0005D2800085D2800085D2800085D2800080C
:1000C0005D2800085D2800085D2800085D280008FC
:1000D0005D2800085D2800085D280008A11F0008B1
:1000E0005D2800085D2800085D2800085D280008DC
:1000F0005D2800085D2800085D2800085D280008CC
:100100005D280008B51F00085D2800085D2800086C
:100110005D2800085D280008C91F0008E51F0008C9
:10012000F91F00085D2800080D20000821200008A4
:100130005D28000800000000000000005D280008A5
:100140005D2800085D2800085D28000835200008AB
:100150005D280008492000085D2800085D28000887
:100160005D2800085D2800085D2800085D2800085B
:100170005D2800085D280008000000000000000065
:080180005D2800085D2800085D
:1001900010B5054C237833B9044B13B10448AFF3C1
:1001A00000800123237010BD0C020020000000001D
:1001B0006C5A010808B5034B1BB103490348AFF360
:1001C000008008BD00000000100200206C5A0108E9
:1001D00001F0FF01102A2BDB10F0070F08D010F8F8
:1001E000013B013A8B422DD010F0070F42B3F6D1FC
:1001F000F0B441EA012141EA014122F007047FF015
:1002000000070023F0E80256083C85EA010586EA6B
:10021000010685FA47F5A3FA87F586FA47F6A5FAA7
:1002200087F68EB9EED1F0BC01F0FF0102F00702B3
:1002300032B110F8013B013A83EA010313B1F8D15E
:100240000020704701387047002D06BF354603383F
:10025000073815F0010F07D1013015F4807F02BF78
:10026000013015F4C03F0130F0BC0138704700BFC9
:10027000034613F8012B002AFBD1181A01387047E6
:1002800081F0004102E000BF83F0004330B54FEA47
:1002900041044FEA430594EA050F08BF90EA020FB4
:1002A0001FBF54EA000C55EA020C7FEA645C7FEA47
:1002B000655C00F0E2804FEA5454D4EB5555B8BF6A
:1002C0006D420CDD2C4480EA020281EA030382EADB
:1002D000000083EA010180EA020281EA0303362D6D
:1002E00088BF30BD11F0004F4FEA01314FF4801C40
:1002F0004CEA113102D0404261EB410113F0004F52
:100300004FEA03334CEA133302D0524263EB430308
:1003100094EA050F00F0A780A4F10104D5F1200EA6
:100320000DDB02FA0EFC22FA05F2801841F1000101
:1003300003FA0EF2801843FA05F359410EE0A5F1D5
:1003400020050EF1200E012A03FA0EFC28BF4CF006
:10035000020C43FA05F3C01851EBE37101F00045BC
:1003600007D54FF0000EDCF1000C7EEB00006EEBC9
:100370000101B1F5801F1BD3B1F5001F0CD3490853
:100380005FEA30004FEA3C0C04F101044FEA4452AA
:1003900012F5800F80F09A80BCF1004F08BF5FEA31
:1003A000500C50F1000041EB045141EA050130BD11
:1003B0005FEA4C0C404141EB0101013C28BFB1F523
:1003C000801FE9D291F0000F04BF01460020B1FA6E
:1003D00081F308BF2033A3F10B03B3F120020CDA41
:1003E0000C3208DD02F1140CC2F10C0201FA0CF01F
:1003F00021FA02F10CE002F11402D8BFC2F1200C84
:1004000001FA02F120FA0CFCDCBF41EA0C01904039
:10041000E41AA2BF01EB0451294330BD6FEA040482
:100420001F3C1CDA0C340EDC04F11404C4F120026D
:1004300020FA04F001FA02F340EA030021FA04F37F
:1004400045EA030130BDC4F10C04C4F1200220FAD6
:1004500002F001FA04F340EA0300294630BD21FA14
:1004600004F0294630BD94F0000F83F4801306BFDA
:1004700081F480110134013D4EE77FEA645C18BFCE
:100480007FEA655C29D094EA050F08BF90EA020F65
:1004900005D054EA000C04BF1946104630BD91EA5D
:1004A000030F1EBF0021002030BD5FEA545C05D160
:1004B0004000494128BF41F0004130BD14F580049F
:1004C0003CBF01F5801130BD01F0004545F0FE4113
:1004D00041F470014FF0000030BD7FEA645C1ABF48
:1004E000194610467FEA655C1CBF0B46024650EA7F
:1004F000013406BF52EA033591EA030F41F40021AB
:1005000030BD00BF90F0000F04BF0021704730B530
:100510004FF4806404F132044FF000054FF0000105
:1005200050E700BF90F0000F04BF0021704730B5C6
:100530004FF4806404F1320410F0004548BF40429B
:100540004FF000013EE700BF42004FEAE2014FEAF0
:1005500031014FEA02701FBF12F07F4393F07F4FCB
:1005600081F06051704732F07F4208BF704793F0CE
:100570007F4F04BF41F40021704730B54FF46074E1
:1005800001F0004521F000411CE700BF50EA0102E4
:1005900008BF704730B54FF000050AE050EA01028D
:1005A00008BF704730B511F0004502D5404261EBFD
:1005B00041014FF4806404F132045FEA915C3FF43E
:1005C000D8AE4FF003025FEADC0C18BF03325FEADB
:1005D000DC0C18BF033202EBDC02C2F1200300FA8C
:1005E00003FC20FA02F001FA03FE40EA0E0021FAB1
:1005F00002F11444BDE600BF70B54FF0FF0C4CF49F
:10060000E06C1CEA11541DBF1CEA135594EA0C0F50
:1006100095EA0C0F00F0DEF82C4481EA030621EA8B
:100620004C5123EA4C5350EA013518BF52EA0335C6
:1006300041F4801143F4801338D0A0FB02CE4FF078
:100640000005E1FB02E506F00042E0FB03E54FF0A8
:100650000006E1FB03569CF0000F18BF4EF0010EA0
:10066000A4F1FF04B6F5007F64F5407404D25FEA9C
:100670004E0E6D4146EB060642EAC62141EA55514F
:100680004FEAC52040EA5E504FEACE2EB4F1FD0C91
:1006900088BFBCF5E06F1ED8BEF1004F08BF5FEA0F
:1006A000500E50F1000041EB045170BD06F00046C1
:1006B00046EA010140EA020081EA0301B4EB5C046E
:1006C000C2BFD4EB0C0541EA045170BD41F4801166
:1006D0004FF0000E013C00F3AB8014F1360FDEBF8B
:1006E000002001F0004170BDC4F10004203C35DA67
:1006F0000C341BDC04F11404C4F1200500FA05F3EA
:1007000020FA04F001FA05F240EA020001F000428A
:1007100021F0004110EBD37021FA04F642EB060100
:100720005EEA430E08BF20EAD37070BDC4F10C042A
:10073000C4F1200500FA04F320FA05F001FA04F2EE
:1007400040EA020001F0004110EBD37041F10001DA
:100750005EEA430E08BF20EAD37070BDC4F12005E5
:1007600000FA05F24EEA020E20FA04F301FA05F24D
:1007700043EA020321FA04F001F0004121FA04F2F5
:1007800020EA020000EBD3705EEA430E08BF20EAC5
:10079000D37070BD94F0000F0FD101F000464000FF
:1007A00041EB010111F4801F08BF013CF7D041EA81
:1007B000060195F0000F18BF704703F00046520085
:1007C00043EB030313F4801F08BF013DF7D043EA56
:1007D0000603704794EA0C0F0CEA135518BF95EA0C
:1007E0000C0F0CD050EA410618BF52EA4306D1D193
:1007F00081EA030101F000414FF0000070BD50EAB2
:10080000410606BF1046194652EA430619D094EA3B
:100810000C0F02D150EA013613D195EA0C0F05D125
:1008200052EA03361CBF104619460AD181EA030179
:1008300001F0004141F0FE4141F470014FF0000031
:1008400070BD41F0FE4141F4780170BD70B54FF0CC
:10085000FF0C4CF4E06C1CEA11541DBF1CEA13554C
:1008600094EA0C0F95EA0C0F00F0A7F8A4EB05042E
:1008700081EA030E52EA03354FEA013100F0888025
:100880004FEA03334FF0805545EA131343EA1263EE
:100890004FEA022245EA111545EA10654FEA0026A3
:1008A0000EF000419D4208BF964244F1FD0404F55C
:1008B000407402D25B084FEA3202B61A65EB0305B8
:1008C0005B084FEA32024FF480104FF4002CB6EB75
:1008D000020E75EB030E22BFB61A754640EA0C00F5
:1008E0005B084FEA3202B6EB020E75EB030E22BF35
:1008F000B61A754640EA5C005B084FEA3202B6EB76
:10090000020E75EB030E22BFB61A754640EA9C0034
:100910005B084FEA3202B6EB020E75EB030E22BF04
:10092000B61A754640EADC0055EA060E18D04FEAC2
:10093000051545EA16754FEA06164FEAC30343EA62
:1009400052734FEAC2025FEA1C1CC0D111F4801F2F
:100950000BD141EA00014FF000004FF0004CB6E728
:1009600011F4801F04BF01430020B4F1FD0C88BFC7
:10097000BCF5E06F3FF6AFAEB5EB030C04BFB6EBD2
:10098000020C5FEA500C50F1000041EB045170BDC5
:100990000EF0004E4EEA113114EB5C04C2BFD4EBF2
:1009A0000C0541EA045170BD41F480114FF0000E76
:1009B000013C90E645EA060E8DE60CEA135594EAF2
:1009C0000C0F08BF95EA0C0F3FF43BAF94EA0C0FF5
:1009D0000AD150EA01347FF434AF95EA0C0F7FF46A
:1009E00025AF104619462CE795EA0C0F06D152EABE
:1009F00003353FF4FDAE1046194622E750EA4106A2
:100A000018BF52EA43067FF4C5AE50EA41047FF4B2
:100A10000DAF52EA43057FF4EBAE12E74FF0FF3C17
:100A200006E000BF4FF0010C02E000BF4FF0010CE8
:100A30004DF804CD4FEA410C7FEA6C5C4FEA430C61
:100A400018BF7FEA6C5C1BD001B050EA410C0CBFB0
:100A500052EA430C91EA030F02BF90EA020F002012
:100A6000704710F1000F91EA030F58BF994208BF79
:100A700090422CBFD8176FEAE37040F00100704736
:100A80004FEA410C7FEA6C5C02D150EA013C07D18D
:100A90004FEA430C7FEA6C5CD6D152EA033CD3D0D8
:100AA0005DF8040B704700BF8446104662468C46D2
:100AB0001946634600E000BF01B5FFF7B7FF002805
:100AC00048BF10F1000F01BD4DF808EDFFF7F4FF2E
:100AD0000CBF012000205DF808FB00BF4DF808EDB9
:100AE000FFF7EAFF34BF012000205DF808FB00BFDC
:100AF0004DF808EDFFF7E0FF94BF012000205DF8FE
:100B000008FB00BF4DF808EDFFF7CEFF94BF0120B2
:100B100000205DF808FB00BF4DF808EDFFF7C4FFAB
:100B200034BF012000205DF808FB00BF4FEA410CF4
:100B30007FEA6C5C02D150EA013C0AD14FEA430CD7
:100B40007FEA6C5C02D152EA033C02D14FF0000014
:100B500070474FF0010070474FEA410212F5001252
:100B600015D211D56FF47873B3EB625212D94FEAF4
:100B7000C12343F0004343EA505311F0004F23FADE
:100B800002F018BF404270474FF00000704750EA33
:100B9000013005D111F0004008BF6FF000407047F0
:100BA0004FF00000704700BF53B94AB9002908BF91
:100BB00000281CBF4FF0FF314FF0FF3000F088B924
:100BC000ADF1080C6DE904CE00F006F8DDF804E0A4
:100BD000DDE9022304B070472DE9F047089D8E46F9
:100BE00004468846002B4AD18A42174662D9B2FA97
:100BF00082F64EB1C6F1200301FA06F820FA03F39B
:100C0000B74043EA0808B4404FEA174E1FFA87FC82
:100C1000B8FBFEF1230C0EFB118843EA084301FBED
:100C20000CF29A4209D9FB1801F1FF3080F0EA80FA
:100C30009A4240F2E78002393B449A1AA3B2B2FBCF
:100C4000FEF00EFB102243EA024300FB0CFC9C4525
:100C500009D9FB1800F1FF3280F0D6809C4540F2A4
:100C6000D3803B44023840EA0140A3EB0C0300214F
:100C70001DB1F3400022C5E90032BDE8F0878B4288
:100C800005D90DB1C5E9000100210846F5E7B3FA21
:100C900083F1002946D1734502D3824200F20581D7
:100CA000841A6EEB030201209046002DE5D0C5E9C1
:100CB0000048E2E7002A00F09080B2FA82F6002EA7
:100CC00040F0A4808A1A030C4FEA174E80B2BCB2DF
:100CD0000121B2FBFEFC0EFB1C2243EA024304FB93
:100CE0000CF29A4207D9FB180CF1FF3802D29A4253
:100CF00000F2E080C4469B1AB3FBFEF20EFB1233F7
:100D000040EA034302FB04F49C4207D9FB1802F1BA
:100D1000FF3002D29C4200F2CA8002461B1B42EA0C
:100D20000C40A5E7C1F120068B4022FA06F71F43CD
:100D30000EFA01F420FA06F32EFA06FE4FEA1749DE
:100D4000234300FA01F81FFA87FCBEFBF9F01C0CE4
:100D500009FB10EE44EA0E4400FB0CFEA64502FA25
:100D600001F209D93C1900F1FF3A80F09C80A645B8
:100D700040F2998002383C44A4EB0E041FFA83FE33
:100D8000B4FBF9F309FB13444EEA044403FB0CFCE7
:100D9000A44508D93C1903F1FF3E80F08280A445A8
:100DA0007FD9023B3C4443EA0040A4EB0C04A0FB87
:100DB00002EC64457346E14662D35FD05DB1B8EBA7
:100DC000030264EB090404FA06F622FA01F31E4357
:100DD000CC40C5E9006400214FE7B1FBF2FC010CF7
:100DE00041EA0E4180B240EA01423B4638463C4669
:100DF000B846BE462026B1FBF7F1A2EB080241EA55
:100E00000C4166E7014618E710462CE7C6F12002C0
:100E10002EFA02F3B740B14020FA02F24FEA174E21
:100E20000A43B3FBFEF8BCB20EFB1833110C41EAC7
:100E3000034108FB04F9B04089454FEA104380B2F2
:100E40003ED9791808F1FF3C01D289451FD8A1EBA2
:100E50000901B1FBFEF909FB04F80EFB191192B26E
:100E600042EA0142424529D2BA1809F1FF31C4D2FF
:100E70004245C2D2A9F102013A44BEE7F0459DD2F3
:100E8000BEEB02036CEB070C0138E14696E7A7EBDB
:100E900009094944A8F1020CB1FBFEF909FB04F869
:100EA000DBE773467FE7504666E70846FDE63B44CE
:100EB000023A33E7ACF1020C3B441CE749469CE79D
:100EC000A1EB0901C446B1FBFEF909FB04F8C4E734
:100ED000704700BF80B582B000AF03460A46FB7181
:100EE0001346BB71344807F08BF8344B344A1A6010
:100EF000324B344A5A60314B00221A72BB79012BB3
:100F000006D92E4B1B7A43F00803DAB22B4B1A7228
:100F10002A4ABB79D372322001F014FD00224FF42B
:100F20000041294802F034FF00224FF48041264856
:100F300002F02EFF032000F039F9042001F002FD39
:100F4000032000F033F9642000F0D4F8032000F00F
:100F50002DF9962000F0CEF8022000F027F9642049
:100F600000F0C8F8154B1B7A43F02003DBB218469B
:100F700000F0A2F8114B00225A72104B5B7A43F03A
:100F80000803DBB2184600F097F800F01FF80320C2
:100F900001F0D8FC094B02229A72084B9B7A43F06D
:100FA0000403DBB2184600F087F800F045F800BFF4
:100FB0000837BD4680BD00BF9005002028020020F4
:100FC0000000002010000020000C024080B500AF9F
:100FD000012000F071F8022001F0B4FC00BF80BDD8
:100FE00080B584B000AF03460A46FB711346BB715F
:100FF0000F4BFB600F4BDB7ABA799A4203D90D4B4A
:10100000DB7A013BBB71BB7910333B4413F8042CF2
:10101000FB791344DBB25BB263F07F035BB2DBB2FC
:10102000184600F049F800BF1037BD4680BD00BF2C
:10103000004014542802002080B500AF084B5B7AB2
:1010400043F00403DAB2064B5A72054B5B7A43F065
:101050000803DBB2184600F02FF800BF80BD00BFC8
:101060002802002080B582B000AF786006E07B687F
:101070005A1C7A601B78184600F02CF87B681B78A5
:10108000002BF4D100BF00BF0837BD4680BD80B53E
:1010900082B000AF03463A60FB710B46BB71BA7970
:1010A000FB7911461846FFF79BFF3868FFF7DAFF18
:1010B00000BF0837BD4680BD80B582B000AF034693
:1010C000FB71FB790021184600F02EF800BF0837AD
:1010D000BD4680BD80B582B000AF0346FB71FB7991
:1010E0000121184600F020F8012318460837BD46B4
:1010F00080BD000080B483B000AF0346FB80094B85
:101100001B6800225A6200BF064B1B685A6AFB88A4
:101110009A42F9D300BF00BF0C37BD465DF8047B8F
:10112000704700BF9005002080B582B000AF034635
:101130000A46FB711346BB71BB791A464FF4004156
:10114000084802F025FEFB791B09DBB2184600F0C7
:101150002DF8FB79184600F029F800BF0837BD4686
:1011600080BD00BF000C024080B500AF00224FF4EC
:1011700080410D4802F00CFE0120FFF7BBFF012269
:101180004FF48041084802F003FE0120FFF7B2FF50
:1011900000224FF48041044802F0FAFD3220FFF7AC
:1011A000A9FF00BF80BD00BF000C024080B584B025
:1011B00000AF0346FB710023FB7319E0114B1A6863
:1011C000FB7B9B00134418680E4B5A68FB7B5B004B
:1011D00013441988FA79FB7B42FA03F3DBB203F07C
:1011E0000103DBB21A4602F0D3FDFB7B0133FB7334
:1011F000FB7B032BE2D9FFF7B7FF00BF1037BD46DB
:1012000080BD00BF2802002080B584B000AF3B46FF
:1012100000221A605A609A60DA602F4B2F4A1A60D7
:101220002D4B4FF480325A602B4B00229A602A4B90
:1012300001221A61284B01221A76274B002283F8DB
:101240002020254B0022DA62234B254A9A62224B4A
:101250000022DA60204B0322DA611F4B012283F85F
:1012600030201D4B01225A611B4801F08FFB0346C1
:10127000002B01D000F000FD02233B6001237B60C6
:101280000423BB603B461946134801F0C3FB0346E9
:10129000002B01D000F0F0FC03233B6002237B60B5
:1012A0003B4619460C4801F0B5FB0346002B01D024
:1012B00000F0E2FC04233B6003237B603B461946BD
:1012C000054801F0A7FB0346002B01D000F0D4FC39
:1012D00000BF1037BD4680BD340200200020014011
:1012E0000100000F80B584B000AF3B4600221A60B9
:1012F0005A609A60DA60214B214A1A601F4B4FF402
:1013000080325A601D4B00229A601C4B00221A61E9
:101310001A4B01221A76194B002283F82020174B12
:101320000022DA62154B174A9A62144B0022DA60E7
:10133000124B0122DA61114B012283F830200F4B4E
:1013400001225A610D4801F021FB0346002B01D018
:1013500000F092FC0E233B6001237B600423BB6002
:101360003B461946054801F055FB0346002B01D0CA
:1013700000F082FC00BF1037BD4680BD7C0200201B
:10138000002101400100000F80B58CB000AF7860F3
:1013900007F11C0300221A605A609A60DA601A6131
:1013A0007B681B685E4A934258D10023BB615D4B4A
:1013B0005B6C5C4A43F4807353645A4B5B6C03F47C
:1013C0008073BB61BB6900237B61564B1B6B554A25
:1013D00043F001031363534B1B6B03F001037B6169
:1013E0007B691C23FB6103233B6200237B6207F1C3
:1013F0001C0319464C4802F02FFB4C4B4C4A1A6018
:101400004A4B00225A60494B00229A60474B002207
:10141000DA60464B4FF480621A61444B4FF400622D
:101420005A61424B4FF400529A61404B4FF4807224
:10143000DA613E4B00221A623C4B00225A623B4862
:1014400001F0FCFE0346002B01D000F015FC7B6888
:10145000364A9A63354A7B6893635CE07B681B6815
:10146000344A934257D100233B612E4B5B6C2D4A8B
:1014700043F4007353642B4B5B6C03F400733B61C8
:101480003B690023FB60274B1B6B264A43F0040398
:101490001363244B1B6B03F00403FB60FB681023F6
:1014A000FB6103233B6200237B6207F11C031946A7
:1014B000214802F0D1FA214B214A1A601F4B4FF00C
:1014C00000725A601D4B00229A601C4B0022DA60A9
:1014D0001A4B00221A61194B4FF400625A61174BE4
:1014E0004FF400529A61154B4FF48072DA61134B3E
:1014F00000221A62114B00225A62104801F09EFE2F
:101500000346002B01D000F0B7FB7B680B4A9A63BF
:101510000A4A7B68936300BF3037BD4680BD00BF79
:10152000002001400038024000000240C4020020B8
:101530001064024000210140000802402403002002
:101540004064024080B582B000AF3B4600221A6082
:101550005A600F4B0F4A1A600D4801F08AFD03468E
:10156000002B01D000F088FB00233B6000237B6050
:101570003B4610221946064801F0FDFD0346002BAC
:1015800001D000F079FB00BF0837BD4680BD00BF29
:10159000840300200074004080B58AB000AF7860FA
:1015A00007F1140300221A605A609A60DA601A6127
:1015B0007B681B68174A934227D100233B61164B77
:1015C0001B6C154A43F000531364134B1B6C03F060
:1015D00000533B613B690023FB600F4B1B6B0E4AC2
:1015E00043F0010313630C4B1B6B03F00103FB601F
:1015F000FB6820237B610323BB610023FB6107F1B0
:1016000014031946054802F027FA00BF2837BD46E3
:1016100080BD00BF0074004000380240000002405E
:1016200080B582B000AF00237B60184B1B6B174A5C
:1016300043F480031363154B1B6B03F480037B603F
:101640007B6800220021382001F0DDFC382001F009
:10165000F6FC002200213A2001F0D5FC3A2001F0EE
:10166000EEFC002200213B2001F0CDFC3B2001F0EC
:10167000E6FC00220021452001F0C5FC452001F0D8
:10168000DEFC00BF0837BD4680BD00BF0038024009
:1016900080B58CB000AF07F11C0300221A605A60BD
:1016A0009A60DA601A610023BB615C4B1B6B5B4A7A
:1016B00043F080031363594B1B6B03F08003BB6142
:1016C000BB6900237B61554B1B6B544A43F00403F9
:1016D0001363524B1B6B03F004037B617B69002394
:1016E0003B614E4B1B6B4D4A43F0010313634B4B65
:1016F0001B6B03F001033B613B690023FB60474B1D
:101700001B6B464A43F010031363444B1B6B03F0FF
:101710001003FB60FB680023BB60404B1B6B3F4A20
:1017200043F0020313633D4B1B6B03F00203BB60EA
:10173000BB6800237B60394B1B6B384A43F00803BE
:101740001363364B1B6B03F008037B607B6800223E
:101750004FF47C41324802F01BFB00224FF48071B1
:10176000304802F015FB002230212F4802F010FB18
:101770000723FB614FF404133B6200237B6207F1F4
:101780001C031946294802F067F90823FB614FF44E
:1017900088133B6200237B6207F11C031946234830
:1017A00002F05AF94FF47C43FB6101233B620023B2
:1017B0007B620023BB6207F11C031946184802F044
:1017C0004BF9C023FB6100233B6200237B6207F1DE
:1017D0001C031946154802F03FF94FF48073FB6172
:1017E00001233B6200237B620023BB6207F11C03E1
:1017F00019460C4802F030F93023FB6101233B62AB
:1018000000237B620023BB6207F11C0319460648D4
:1018100002F022F900BF3037BD4680BD00380240DB
:10182000000C024000000240000402400008024098
:1018300080B584B000AFF860B9607A607B689AB216
:101840000A23B968034807F0D1FB7B6818461037B4
:10185000BD4680BD68060020B0B58AB000AF00F07C
:10186000FFFF00F0EFF8FFF713FFFFF7D9FE00F0DE
:101870005BFF00F0C7FDFFF7C7FCFFF763FEFFF754
:1018800031FD00F0A7FC00F00BFE00F03FFE00F081
:1018900043FD0AF0AFFA10F091FF00F0FDF900F0FF
:1018A0003BF95A4806F014FC14210420FFF712FB00
:1018B000FFF78CFB564B07F108041D460FCD0FC4F4
:1018C0002B68238007F11A0300221A605A609A607D
:1018D0009A8101224F49504810F0A4F803461A4655
:1018E0004E4B1A704D4B1B78002B0CD14B4B1B7879
:1018F0001A464B494B4811F07BFF4A4A0021002011
:10190000FFF7C5FB0BE0454B1B781A464649454897
:1019100011F06EFF434A00210020FFF7B8FB4FF49F
:10192000FA6001F00FF8FFF751FB06223F494048EB
:1019300010F0BEF803461A46384B1A70374B1B7826
:10194000002B15D13B1D07F108012022384810F06B
:10195000D6FB7B681A463749324811F049FF314AB5
:1019600000210020FFF793FB314810F0DAFD0BE077
:101970002A4B1B781A4630492A4811F039FF294A68
:1019800000210020FFF783FB4FF4FA6000F0DAFF3C
:10199000FFF71CFB01222549254810F089F8034672
:1019A0001A461E4B1A701D4B1B78002B1ED13B464E
:1019B00007F1080120221E4810F042FA07F108033F
:1019C0001A461E49174811F013FF164A002100203D
:1019D000FFF75DFB3B681A461649124811F008FFF5
:1019E000104A01210020FFF752FB0BE00B4B1B7844
:1019F0001A4613490B4811F0FBFE0A4A0021002049
:101A0000FFF745FB10F000FFFCE700BFD805002002
:101A1000E85A0108B8060020BC060020B4060020E1
:101A2000885A0108A0030020985A0108AC5A0108FE
:101A3000F4160020BC5A0108C85A0108D45A0108FB
:101A4000D85A010880B594B000AF07F120033022C6
:101A50000021184611F0B0FF07F10C0300221A60B4
:101A60005A609A60DA601A610023BB60284B1B6CD5
:101A7000274A43F080531364254B1B6C03F08053BB
:101A8000BB60BB6800237B60224B1B68214A43F488
:101A9000804313601F4B1B6803F480437B607B68AB
:101AA00001233B624FF480337B620223BB634FF41C
:101AB0008003FB6306233B64A8237B640223BB648F
:101AC0000723FB6407F12003184604F0BFFA03461E
:101AD000002B01D000F0D0F80F23FB6002233B6104
:101AE00000237B614FF4A053BB614FF48053FB6133
:101AF00007F10C030521184604F020FD0346002BD6
:101B000001D000F0B9F800BF5037BD4680BD00BF1E
:101B1000003802400070004080B500AF0022002174
:101B2000062001F070FA062001F089FA0022002157
:101B3000072001F068FA072001F081FA0022002155
:101B4000082001F060FA082001F079FA0022002153
:101B5000272001F058FA272001F071FA0022002115
:101B6000362001F050FA362001F069FA00220021F7
:101B7000372001F048FA372001F061FA00220021F5
:101B8000092001F040FA092001F059FA00BF80BD98
:101B900080B582B000AF0346FB80FB88012B07D1E4
:101BA0002021154802F00DF9144B01221A701FE094
:101BB000FB88022B07D1124B01221A7020210E48FC
:101BC00002F0FFF814E0FB88042B07D10D4B012233
:101BD0001A702021084802F0F4F809E0FB88082B6D
:101BE00006D1094B01221A702021034802F0E9F8BE
:101BF00000BF0837BD4680BD000402409A030020A4
:101C00009B0300209C0300209D03002080B582B030
:101C100000AF78607B681B68094A93420BD10122B0
:101C20000849094807F06DFA4FF47A730122054913
:101C3000054807F0DBF900BF0837BD4680BD00BF8F
:101C400000480040980300206806002080B483B05C
:101C500000AF78607B681B68054A934202D1054B50
:101C600001221A7000BF0C37BD465DF8047B704737
:101C7000001000409903002080B500AF72B600BF8D
:101C80001021044802F09DF84FF47A7000F05AFEDB
:101C900000BFF5E70004024080B400AF0C4B0D4AD2
:101CA0001A600B4B00225A60094B00229A60084BC5
:101CB0000022DA60064B00221A61054B00225A61AD
:101CC000034B00229A6100BFBD465DF8047B70475C
:101CD000B8030020002C014080B58AB000AF7860C6
:101CE00007F1140300221A605A609A60DA601A61E0
:101CF0007B681B68684A934240F0C98000233B61BF
:101D0000664B5B6C654A43F400635364634B5B6CE6
:101D100003F400633B613B690023FB605F4B1B6B7B
:101D20005E4A43F0040313635C4B1B6B03F0040334
:101D3000FB60FB680023BB60584B1B6B574A43F0AA
:101D400008031363554B1B6B03F00803BB60BB68B0
:101D50004FF4F8537B610223BB610023FB61032333
:101D60003B620C237B6207F1140319464C4801F0D7
:101D700073FE04237B610223BB610023FB61032309
:101D80003B620C237B6207F114031946454801F0BE
:101D900063FE454B454A1A60434B4FF000625A6060
:101DA000414B00229A60404B0022DA603E4B4FF4D8
:101DB00080621A613C4B4FF480525A613A4B4FF4A7
:101DC00080429A61384B2022DA61374B00221A6236
:101DD000354B04225A62344B03229A62324B4FF441
:101DE0000002DA62304B4FF400121A632E4801F001
:101DF00025FA0346002B01D0FFF73EFF7B682A4AF5
:101E00001A64294A7B689363294B2A4A1A60284B33
:101E10004FF000625A60264B40229A60244B002209
:101E2000DA60234B4FF480621A61214B4FF48052E9
:101E30005A611F4B4FF480429A611D4B2022DA6198
:101E40001B4B00221A621A4B04225A62184B0322BF
:101E50009A62174B4FF40002DA62154B4FF40012EE
:101E60001A63134801F0EAF90346002B01D0FFF78B
:101E700003FF7B680E4ADA630D4A7B689363002296
:101E80000021312001F0BFF8312001F0D8F800BF67
:101E90002837BD4680BD00BF002C014000380240FD
:101EA00000080240000C02403C040020586402403C
:101EB0009C040020A064024080B483B000AF0023E3
:101EC0007B60104B5B6C0F4A43F4804353640D4BB3
:101ED0005B6C03F480437B607B6800233B60094BB1
:101EE0001B6C084A43F080531364064B1B6C03F0D1
:101EF00080533B603B6800BF0C37BD465DF8047BF8
:101F0000704700BF0038024080B400AF00BFFDE75B
:101F100080B400AF00BFFDE780B400AF00BFFDE7B5
:101F200080B400AF00BFFDE780B400AF00BFFDE7A5
:101F300080B400AF00BFBD465DF8047B704780B43D
:101F400000AF00BFBD465DF8047B704780B400AFB2
:101F500000BFBD465DF8047B704780B500AF00F060
:101F6000D1FC00BF80BD80B500AF012001F044FF6F
:101F700000BF80BD80B500AF022001F03DFF00BF73
:101F800080BD80B500AF042001F036FF00BF80BDEA
:101F900080B500AF082001F02FFF00BF80BD00001A
:101FA00080B500AF024807F0D1F800BF80BD00BF88
:101FB0006806002080B500AF024804F00FFF00BFA4
:101FC00080BD00BFB803002080B500AF034801F01A
:101FD00072F8034806F045F900BF80BD8403002075
:101FE000D805002080B500AF024806F03AF900BFDE
:101FF00080BD00BF2006002080B500AF024801F080
:10200000B5FA00BF80BD00BFC402002080B500AF9C
:10201000024801F0ABFA00BF80BD00BF24030020DE
:1020200080B500AF024801F0A1FA00BF80BD00BF3B
:102030003C04002080B500AF024802F0B3F900BFB5
:1020400080BD00BF4C2D002080B500AF024801F0DC
:102050008DFA00BF80BD00BF9C04002080B400AF9B
:1020600001231846BD465DF8047B704780B582B0F9
:1020700000AF7860396011F0B7FC034616221A6091
:102080004FF0FF3318460837BD4680BD80B582B09B
:1020900000AF78604FF0FF317868FFF7E7FF00BFCF
:1020A000FDE780B586B000AFF860B9607A600023C4
:1020B0007B610AE0AFF300800146BB685A1CBA603E
:1020C000CAB21A707B6901337B617A697B689A4274
:1020D000F0DB7B6818461837BD4680BD80B483B0FE
:1020E00000AF78604FF0FF3318460C37BD465DF8FF
:1020F000047B704780B483B000AF786039603B6880
:102100004FF400525A60002318460C37BD465DF864
:10211000047B704780B483B000AF78600123184619
:102120000C37BD465DF8047B704780B485B000AFC6
:10213000F860B9607A60002318461437BD465DF830
:10214000047B704780B586B000AF7860144A154BA9
:10215000D31A7B617B693B61134B1B68002B02D157
:10216000114B124A1A60104B1A687B6813443A6983
:102170009A4207D211F038FC03460C221A604FF045
:10218000FF3309E0084B1B68FB60074B1A687B684C
:102190001344054A1360FB6818461837BD4680BDD6
:1021A0000000022000040000FC040020783200201F
:1021B00080B400AF064BD3F88830054A43F470036F
:1021C000C2F8883000BFBD465DF8047B704700BF91
:1021D00000ED00E080B596B000AF07F148030022A3
:1021E0001A605A609A60DA6007F1400300221A60B0
:1021F0005A6007F1240300221A605A609A60DA607C
:102200001A615A619A613B1D20220021184611F083
:10221000D3FB3F4B3F4A1A603D4BA7225A603C4BD1
:1022200000229A603A4B40F2E732DA60384B0022E3
:102230001A61374B00225A61354B00229A613448AB
:1022400005F08EFE0346002B01D0FFF715FD4FF47D
:102250008053BB6407F1480319462D4806F0B4F9D2
:102260000346002B01D0FFF707FD294805F0A0FF2A
:102270000346002B01D0FFF7FFFC00233B64002343
:102280007B6407F140031946214806F07DFD0346B3
:10229000002B01D0FFF7F0FC60237B624FF4FA7350
:1022A000BB620023FB6200233B6300237B630023AC
:1022B000BB630023FB6307F1240300221946144883
:1022C00006F0C0F80346002B01D0FFF7D5FC002331
:1022D0007B600023BB600023FB6000233B61002385
:1022E0007B614FF40053BB6100233B623B1D1946E9
:1022F000074806F0C5FD0346002B01D0FFF7BCFCE4
:10230000034800F0B1F900BF5837BD4680BD00BF9B
:10231000000500200000014080B58EB000AF07F13D
:10232000280300221A605A609A60DA6007F12003DD
:1023300000221A605A603B1D00221A605A609A609F
:10234000DA601A615A619A612D4B4FF080421A602F
:102350002B4BA7225A602A4B00229A60284B42F24C
:102360000F72DA60264B00221A61254B00229A6117
:10237000234805F0F5FD0346002B01D0FFF77CFC58
:102380004FF48053BB6207F1280319461C4806F03E
:102390001BF90346002B01D0FFF76EFC184805F02F
:1023A00007FF0346002B01D0FFF766FC00233B62CA
:1023B00000237B6207F120031946114806F0E4FC74
:1023C0000346002B01D0FFF757FC60237B6064239A
:1023D000BB600023FB6000237B613B1D0422194688
:1023E000074806F02FF80346002B01D0FFF744FC06
:1023F000034800F039F900BF3837BD4680BD00BF43
:102400004805002080B586B000AF07F10803002220
:102410001A605A609A60DA603B4600221A605A607D
:102420001D4B1E4A1A601C4B53225A601A4B002245
:102430009A60194B4FF6FF72DA60174B00221A614F
:10244000154B00229A61144805F08AFD0346002BC3
:1024500001D0FFF711FC4FF48053BB6007F1080374
:1024600019460D4806F0B0F80346002B01D0FFF7DF
:1024700003FC00233B6000237B603B461946064873
:1024800006F082FC0346002B01D0FFF7F5FB00BFEE
:102490001837BD4680BD00BF9005002000080040F1
:1024A00080B582B000AF3B4600221A605A60154BDF
:1024B000154A1A60134B42F2CF025A60114B0022A8
:1024C0009A60104B42F20F72DA600E4B00229A6152
:1024D0000C4805F045FD0346002B01D0FFF7CCFB6F
:1024E00000233B6000237B603B461946054806F00D
:1024F0004BFC0346002B01D0FFF7BEFB00BF0837A3
:10250000BD4680BDD80500200010004080B582B0D7
:1025100000AF3B4600221A605A60154B154A1A60FC
:10252000134B41F267025A60114B00229A60104B24
:1025300042F20F72DA600E4B00229A610C4805F0ED
:102540000FFD0346002B01D0FFF796FB00233B60F5
:1025500000237B603B461946054806F015FC034600
:10256000002B01D0FFF788FB00BF0837BD4680BDB8
:10257000200600200014004080B489B000AF7860CD
:102580007B681B68334A93420ED10023FB61324BB8
:102590005B6C314A43F0010353642F4B5B6C03F0D7
:1025A0000103FB61FB694EE07B681B68B3F1804F60
:1025B0000ED10023BB61284B1B6C274A43F001035B
:1025C0001364254B1B6C03F00103BB61BB693AE04C
:1025D0007B681B68214A93420ED100237B611E4B0E
:1025E0001B6C1D4A43F0040313641B4B1B6C03F06C
:1025F00004037B617B6926E07B681B68184A934271
:102600000ED100233B61144B1B6C134A43F01003A3
:102610001364114B1B6C03F010033B613B6912E028
:102620007B681B680F4A93420DD10023FB600A4B65
:102630001B6C094A43F020031364074B1B6C03F027
:102640002003FB60FB6800BF2437BD465DF8047BB8
:10265000704700BF00000140003802400008004001
:10266000001000400014004080B58AB000AF7860D0
:1026700007F1140300221A605A609A60DA601A6146
:102680007B681B68244A93421FD100233B61234B84
:102690001B6B224A43F010031363204B1B6B03F0A8
:1026A00010033B613B694FF400737B610223BB6104
:1026B0000023FB6100233B6201237B6207F11403CB
:1026C0001946174801F0C8F922E07B681B68B3F18E
:1026D000804F1DD10023FB60104B1B6B0F4A43F052
:1026E000020313630D4B1B6B03F00203FB60FB68DB
:1026F00008237B610223BB610023FB6100233B6253
:1027000001237B6207F114031946064801F0A4F97E
:1027100000BF2837BD4680BD0000014000380240A0
:10272000001002400004024080B500AF114B124A75
:102730001A60104B4FF4E1325A600E4B00229A603F
:102740000C4B0022DA600B4B00221A61094B0C2261
:102750005A61084B00229A61064B0022DA61054853
:1027600006F0F4FB0346002B01D0FFF785FA00BF0B
:1027700080BD00BF680600200048004080B58AB0D8
:1027800000AF786007F1140300221A605A609A6063
:10279000DA601A617B681B68194A93422CD10023C6
:1027A0003B61184B1B6C174A43F480231364154B91
:1027B0001B6C03F480233B613B690023FB60114BDE
:1027C0001B6B104A43F0020313630E4B1B6B03F0A9
:1027D0000203FB60FB684FF440637B610223BB6133
:1027E0000023FB6103233B6207237B6207F1140391
:1027F0001946054801F030F900BF2837BD4680BDB5
:10280000004800400038024000040240DFF834D0A5
:10281000FFF7CEFC0C480D490D4A002302E0D458C6
:10282000C4500433C4188C42F9D30A4A0A4C00231A
:1028300001E013600432A242FBD311F0DBF8FFF792
:102840000BF8704700000220000000200C0200205E
:10285000646301080C02002078320020FEE70000CB
:1028600080B500AF0E4B1B680D4A43F40073136034
:102870000B4B1B680A4A43F480631360084B1B68C8
:10288000074A43F480731360032000F0B1FB0F206C
:1028900000F008F8FFF710FB0023184680BD00BFCA
:1028A000003C024080B582B000AF7860124B1A68DD
:1028B000124B1B7819464FF47A73B3FBF1F3B2FB5A
:1028C000F3F3184600F0C9FB0346002B01D00123A7
:1028D0000EE07B680F2B0AD8002279684FF0FF309A
:1028E00000F091FB064A7B681360002300E001239F
:1028F00018460837BD4680BD180000202000002083
:102900001C00002080B400AF064B1B781A46064B13
:102910001B681344044A136000BFBD465DF8047B86
:10292000704700BF20000020B006002080B400AF38
:10293000034B1B681846BD465DF8047B704700BF1B
:10294000B006002080B584B000AF7860FFF7EEFFDE
:10295000B8607B68FB60FB68B3F1FF3F05D00A4BB2
:102960001B781A46FB681344FB6000BFFFF7DEFFCD
:102970000246BB68D31AFA689A42F7D800BF00BF74
:102980001037BD4680BD00BF2000002080B584B058
:1029900000AF78600023FB737B68002B01D101231B
:1029A00033E07B681B6C002B09D17868FEF7ECFCE8
:1029B0007B6800225A647B68002283F83C207B6895
:1029C0001B6C03F01003002B18D17B681B6C23F4E5
:1029D000885323F0020343F002027B681A6478688C
:1029E00000F03AF97B6800225A647B681B6C23F084
:1029F000030343F001027B681A6401E00123FB73C7
:102A00007B68002283F83C20FB7B18461037BD46CC
:102A100080BD000080B485B000AF786039600023CD
:102A2000BB607B6893F83C30012B01D1022305E1A8
:102A30007B68012283F83C203B681B68092B25D961
:102A40007B681B68D9683B681B689BB21A461346B3
:102A50005B0013441E3B072202FA03F3DA437B6850
:102A60001B680A40DA607B681B68D9683B689A6813
:102A70003B681B689BB2184603465B0003441E3B41
:102A80009A407B681B680A43DA6022E07B681B6817
:102A900019693B681B689BB21A4613465B001344D6
:102AA000072202FA03F3DA437B681B680A401A61C3
:102AB0007B681B6819693B689A683B681B689BB216
:102AC000184603465B0003449A407B681B680A4330
:102AD0001A613B685B68062B24D87B681B68596BBE
:102AE0003B685A6813469B001344053B1F2202FAB9
:102AF00003F3DA437B681B680A405A637B681B68F0
:102B0000596B3B681B689BB218463B685A68134672
:102B10009B001344053B00FA03F27B681B680A43E1
:102B20005A634CE03B685B680C2B24D87B681B68BD
:102B3000196B3B685A6813469B001344233B1F22C2
:102B400002FA03F3DA437B681B680A401A637B6866
:102B50001B68196B3B681B689BB218463B685A6838
:102B600013469B001344233B00FA03F27B681B6867
:102B70000A431A6323E07B681B68D96A3B685A687A
:102B800013469B001344413B1F2202FA03F3DA432E
:102B90007B681B680A40DA627B681B68D96A3B68FD
:102BA0001B689BB218463B685A6813469B00134447
:102BB000413B00FA03F27B681B680A43DA62224B4E
:102BC000FB607B681B68214A934209D13B681B6804
:102BD000122B05D1FB685B6843F48002FB685A60E6
:102BE0007B681B68194A934223D13B681B68102BF2
:102BF00003D03B681B68112B1BD1FB685B6843F457
:102C00000002FB685A603B681B68102B11D1104B07
:102C10001B68104AA2FB03239A0C13469B00134423
:102C20005B00BB6002E0BB68013BBB60BB68002B84
:102C3000F9D17B68002283F83C2000231846143722
:102C4000BD465DF8047B7047002301400020014031
:102C50001800002083DE1B4380B485B000AF78608D
:102C6000794BFB60FB685B6823F44032FB685A6079
:102C7000FB685A687B685B681A43FB685A607B682C
:102C80001B685A687B681B6822F480725A607B68F4
:102C90001B6859687B681B691A027B681B680A43BA
:102CA0005A607B681B685A687B681B6822F0407218
:102CB0005A607B681B6859687B689A687B681B68E8
:102CC0000A435A607B681B689A687B681B6822F419
:102CD00000629A607B681B6899687B68DA687B6829
:102CE0001B680A439A607B689B6A584A934222D0C9
:102CF0007B681B689A687B681B6822F070629A6028
:102D00007B681B6899687B689A6A7B681B680A43C2
:102D10009A607B681B689A687B681B6822F0405247
:102D20009A607B681B6899687B68DA6A7B681B68B5
:102D30000A439A600FE07B681B689A687B681B688F
:102D400022F070629A607B681B689A687B681B68D7
:102D500022F040529A607B681B689A687B681B6807
:102D600022F002029A607B681B6899687B681B7E70
:102D70005A007B681B680A439A607B6893F820308E
:102D8000002B1BD07B681B685A687B681B6842F469
:102D900000625A607B681B685A687B681B6822F473
:102DA00060425A607B681B6859687B685B6A013BBC
:102DB0005A037B681B680A435A6007E07B681B68FC
:102DC0005A687B681B6822F400625A607B681B6843
:102DD000DA6A7B681B6822F47002DA627B681B681F
:102DE000D96A7B68DB69013B1A057B681B680A436B
:102DF000DA627B681B689A687B681B6822F4007241
:102E00009A607B681B6899687B6893F830305A0237
:102E10007B681B680A439A607B681B689A687B68BA
:102E20001B6822F480629A607B681B6899687B68E3
:102E30005B699A027B681B680A439A6000BF14377B
:102E4000BD465DF8047B7047002301400100000F80
:102E500080B485B000AF78607B6803F00703FB6047
:102E60000C4BDB68BB60BA684FF6FF031340BB60D6
:102E7000FB681A02BB68134343F0BF6343F400339B
:102E8000BB60044ABB68D36000BF1437BD465DF821
:102E9000047B704700ED00E080B400AF044BDB68BA
:102EA0001B0A03F007031846BD465DF8047B704714
:102EB00000ED00E080B483B000AF0346FB7197F9EA
:102EC0000730002B0BDBFB7903F01F02074997F952
:102ED00007305B09012000FA02F241F8232000BF0D
:102EE0000C37BD465DF8047B704700BF00E100E091
:102EF00080B483B000AF03463960FB7197F90730A7
:102F0000002B0ADB3B68DAB20C4997F90730120153
:102F1000D2B20B4483F800230AE03B68DAB20849D6
:102F2000FB7903F00F03043B1201D2B20B441A7673
:102F300000BF0C37BD465DF8047B704700E100E040
:102F400000ED00E080B489B000AFF860B9607A604D
:102F5000FB6803F00703FB61FB69C3F10703042B64
:102F600028BF0423BB61FB690433062B02D9FB692C
:102F7000033B00E000237B614FF0FF32BB6902FAA4
:102F800003F3DA43BB681A407B699A404FF0FF3184
:102F90007B6901FA03F3D9437B680B40134318465E
:102FA0002437BD465DF8047B7047000080B582B0D1
:102FB00000AF78607B68013BB3F1807F01D30123D0
:102FC0000FE00A4A7B68013B53600F214FF0FF304E
:102FD000FFF78EFF054B00229A60044B07221A6010
:102FE000002318460837BD4680BD00BF10E000E052
:102FF00080B582B000AF78607868FFF729FF00BF26
:103000000837BD4680BD80B586B000AF0346B960C5
:103010007A60FB7300237B61FFF73EFF78617A687B
:10302000B9687869FFF78EFF024697F90F301146AD
:103030001846FFF75DFF00BF1837BD4680BD80B55D
:1030400082B000AF0346FB7197F907301846FFF7CF
:1030500031FF00BF0837BD4680BD80B582B000AFEC
:1030600078607868FFF7A2FF034618460837BD4628
:1030700080BD80B582B000AF78607B68002B01D145
:10308000012314E07B681B79DBB2002B05D17B6840
:1030900000225A717868FEF77FFA7B6802221A7163
:1030A0007B6800221A617B6801221A71002318468E
:1030B0000837BD4680BD80B584B000AF78607B68BE
:1030C0001B681B68FB607B681B685B6BBB60FB68F5
:1030D00003F40053002B1DD0BB6803F40053002BF6
:1030E00018D07B6804221A717B681B6943F00102C7
:1030F0007B681A617B681B684FF400525A637B68D7
:103100001B681A687B681B6822F480521A60786812
:1031100000F027F8FB6803F00053002B1DD0BB68BC
:1031200003F00053002B18D07B6804221A717B68CF
:103130001B6943F002027B681A617B681B684FF0D1
:1031400000525A637B681B681A687B681B6822F010
:1031500080521A60786800F067F800BF1037BD46EB
:1031600080BD80B483B000AF786000BF0C37BD462F
:103170005DF8047B704780B489B000AFF860B96037
:103180007A600023FB77FB68002B02D0BB68002B22
:1031900001D1012342E0FB685B79012B01D10223BD
:1031A0003CE0FB6801225A71FB6802221A71FB683D
:1031B0001B681B68BB617B6803F0100340F6FE725E
:1031C00002FA03F3DB43BA691340BB61BB681A68B8
:1031D000BB685B6813437B617B6803F010037A690B
:1031E00002FA03F3BA691343BB61FB681B68BA694F
:1031F0001A60FB681B6819687B6803F01003C02223
:1032000002FA03F3DA43FB681B680A401A60FB68A2
:1032100001221A71FB6800225A71FB7F184624377D
:10322000BD465DF8047B704780B483B000AF786022
:1032300000BF0C37BD465DF8047B704780B586B093
:1032400000AF786000237B61FFF770FB38617B681B
:10325000002B01D1012399E07B68022283F83520FD
:103260007B68002283F834207B681B681A687B68BF
:103270001B6822F001021A600FE0FFF757FB0246BD
:103280003B69D31A052B08D97B6820225A657B68D5
:10329000032283F83520032378E07B681B681B68D2
:1032A00003F00103002BE8D17B681B681B687B617E
:1032B0007A69384B13407B617B685A687B689B68EE
:1032C0001A437B68DB681A437B681B691A437B6877
:1032D0005B691A437B689B691A437B68DB691A4305
:1032E0007B681B6A13437A6913437B617B685B6A63
:1032F000042B07D17B68DA6A7B681B6B13437A69FE
:1033000013437B617B681B687A691A607B681B6862
:103310005B697B617B6923F007037B617B685B6A88
:103320007A6913437B617B685B6A042B17D17B68E6
:103330009B6A7A6913437B617B68DB6A002B0ED042
:10334000786800F00DFB0346002B08D07B68402214
:103350005A657B68012283F83520012316E07B68DB
:103360001B687A695A61786800F0C4FA0346FB600A
:103370007B68DB6D3F229A40FB689A607B68002285
:103380005A657B68012283F83520002318461837D8
:10339000BD4680BD3F8010F080B586B000AFF860BC
:1033A000B9607A603B600023FB75FB689B6D3B61F5
:1033B000FB6893F83430012B01D1022340E0FB6815
:1033C000012283F83420FB6893F83530DBB2012BFF
:1033D0002FD1FB68022283F83520FB6800225A6552
:1033E0003B687A68B968F86800F056FAFB68DB6DEC
:1033F0003F229A403B699A60FB681B681A68FB6829
:103400001B6842F016021A60FB681B6C002B07D089
:10341000FB681B681A68FB681B6842F008021A60A8
:10342000FB681B681A68FB681B6842F001021A609F
:1034300005E0FB68002283F834200223FB75FB7D46
:1034400018461837BD4680BD80B584B000AF78609F
:103450007B689B6DFB60FFF769FAB8607B6893F847
:103460003530DBB2022B08D07B6880225A657B683E
:10347000002283F83420012352E07B681B681A681D
:103480007B681B6822F016021A607B681B685A6909
:103490007B681B6822F080025A617B681B6C002BE2
:1034A00003D17B689B6C002B07D07B681B681A6874
:1034B0007B681B6822F008021A607B681B681A6828
:1034C0007B681B6822F001021A6013E0FFF72EFAF6
:1034D0000246BB68D31A052B0CD97B6820225A659B
:1034E0007B68032283F835207B68002283F8342030
:1034F000032315E07B681B681B6803F00103002BA6
:10350000E4D17B68DB6D3F229A40FB689A607B6860
:10351000012283F835207B68002283F834200023C1
:1035200018461037BD4680BD80B483B000AF7860C8
:103530007B6893F83530DBB2022B04D07B688022A5
:103540005A6501230CE07B68052283F835207B68EF
:103550001B681A687B681B6822F001021A6000234E
:1035600018460C37BD465DF8047B704780B586B0C1
:1035700000AF78600023BB608E4B1B688E4AA2FBB5
:1035800003239B0A7B617B689B6D3B613B691B68E6
:10359000FB607B68DB6D08229A40FB681340002BC0
:1035A0001AD07B681B681B6803F00403002B13D040
:1035B0007B681B681A687B681B6822F004021A602B
:1035C0007B68DB6D08229A403B699A607B685B6D83
:1035D00043F001027B685A657B68DB6D01229A40EB
:1035E000FB681340002B12D07B681B685B6903F0FB
:1035F0008003002B0BD07B68DB6D01229A403B6976
:103600009A607B685B6D43F002027B685A657B6859
:10361000DB6D04229A40FB681340002B12D07B68BC
:103620001B681B6803F00203002B0BD07B68DB6D6B
:1036300004229A403B699A607B685B6D43F0040208
:103640007B685A657B68DB6D10229A40FB681340EB
:10365000002B43D07B681B681B6803F00803002B1A
:103660003CD07B68DB6D10229A403B699A607B6896
:103670001B681B6803F48023002B18D07B681B6831
:103680001B6803F40023002B08D17B681B6C002B04
:1036900024D07B681B6C786898471FE07B689B6C24
:1036A000002B1BD07B689B6C7868984716E07B6882
:1036B0001B681B6803F48073002B07D17B681B68B1
:1036C0001A687B681B6822F008021A607B681B6C12
:1036D000002B03D07B681B6C786898477B68DB6D98
:1036E00020229A40FB681340002B00F08F807B68FB
:1036F0001B681B6803F01003002B00F087807B68B9
:10370000DB6D20229A403B699A607B6893F83530E4
:10371000DBB2052B36D17B681B681A687B681B6897
:1037200022F016021A607B681B685A697B681B6866
:1037300022F080025A617B681B6C002B03D17B68EE
:103740009B6C002B07D07B681B681A687B681B6822
:1037500022F008021A607B68DB6D3F229A403B69C9
:103760009A607B68012283F835207B68002283F809
:1037700034207B681B6D002B7ED07B681B6D7868C6
:10378000984779E07B681B681B6803F48023002B53
:103790001DD07B681B681B6803F40023002B0DD130
:1037A0007B685B6C002B31D07B685B6C78689847DA
:1037B0002CE000BF18000020B5814E1B7B68DB6B3E
:1037C000002B23D07B68DB6B786898471EE07B6812
:1037D0001B681B6803F48073002B0FD17B681B6888
:1037E0001A687B681B6822F010021A607B6801224D
:1037F00083F835207B68002283F834207B68DB6BFC
:10380000002B03D07B68DB6B786898477B685B6D27
:10381000002B32D07B685B6D03F00103002B22D0BC
:103820007B68052283F835207B681B681A687B68F3
:103830001B6822F001021A60BB680133BB607A6921
:103840009A4207D37B681B681B6803F00103002BB7
:10385000F2D100E000BF7B68012283F835207B684D
:10386000002283F834207B68DB6C002B05D07B685A
:10387000DB6C7868984700E000BF1837BD4680BD14
:1038800080B483B000AF78607B685B6D18460C37FE
:10389000BD465DF8047B704780B485B000AFF8602A
:1038A000B9607A603B60FB681B681A68FB681B683C
:1038B00022F480221A60FB681B683A685A60FB6831
:1038C0009B68402B08D1FB681B687A689A60FB688C
:1038D0001B68BA68DA6007E0FB681B68BA689A6020
:1038E000FB681B687A68DA6000BF1437BD465DF874
:1038F000047B704780B485B000AF78607B681B683C
:10390000DBB2103B144AA2FB03231B09FB60134AE2
:10391000FB6813441B781A467B68DA65FB68032B47
:1039200009D97B681B6823F47F7323F003031A1DF6
:103930007B689A6507E07B681B6823F47F7323F03C
:1039400003037A6893657B689B6D18461437BD4600
:103950005DF8047B704700BFABAAAAAA6C5B0108A4
:1039600080B485B000AF78600023FB737B689B6AEE
:10397000BB607B689B69002B1FD1BB68032B56D8AB
:1039800001A252F823F000BF99390008AB390008B2
:10399000993900082F3A00087B68DB6A03F08073CE
:1039A000002B46D00123FB7343E07B68DB6AB3F155
:1039B000C07F40D10123FB733DE07B689B69B3F579
:1039C000005F21D1BB68032B37D801A252F823F046
:1039D000E1390008E7390008E1390008F939000841
:1039E0000123FB7330E07B68DB6A03F08073002BFC
:1039F00025D00123FB7322E07B68DB6AB3F1C07F33
:103A00001FD10123FB731CE0BB68022B03D9BB68E9
:103A1000032B03D018E00123FB7315E07B68DB6AFE
:103A200003F08073002B0ED00123FB730BE000BF6B
:103A30000AE000BF08E000BF06E000BF04E000BFEE
:103A400002E000BF00E000BFFB7B18461437BD4614
:103A50005DF8047B704700BF80B489B000AF786028
:103A6000396000237B6100233B610023BB6100239D
:103A7000FB616BE10122FB6902FA03F37B613B68A6
:103A80001B687A6913403B613A697B699A4240F04E
:103A90005A813B685B6803F00303012B05D03B6848
:103AA0005B6803F00303022B30D17B689B68BB612A
:103AB000FB695B00032202FA03F3DB43BA6913409C
:103AC000BB613B68DA68FB695B0002FA03F3BA6921
:103AD0001343BB617B68BA699A607B685B68BB61B2
:103AE0000122FB6902FA03F3DB43BA691340BB61AD
:103AF0003B685B681B0903F00102FB6902FA03F3F0
:103B0000BA691343BB617B68BA695A603B685B68FA
:103B100003F00303032B17D07B68DB68BB61FB69F1
:103B20005B00032202FA03F3DB43BA691340BB6173
:103B30003B689A68FB695B0002FA03F3BA691343B6
:103B4000BB617B68BA69DA603B685B6803F00303BA
:103B5000022B23D1FB69DA087B68083253F8223044
:103B6000BB61FB6903F007039B000F2202FA03F31A
:103B7000DB43BA691340BB613B681A69FB6903F018
:103B800007039B0002FA03F3BA691343BB61FB69A5
:103B9000DA087B680832B96943F822107B681B6831
:103BA000BB61FB695B00032202FA03F3DB43BA69E2
:103BB0001340BB613B685B6803F00302FB695B0079
:103BC00002FA03F3BA691343BB617B68BA691A60EE
:103BD0003B685B6803F44033002B00F0B4800023A3
:103BE000FB60604B5B6C5F4A43F4804353645D4B06
:103BF0005B6C03F48043FB60FB685B4AFB699B08DA
:103C0000023352F82330BB61FB6903F003039B00CE
:103C10000F2202FA03F3DB43BA691340BB617B68EE
:103C2000524A93422BD07B68514A934225D07B68FD
:103C3000504A93421FD07B684F4A934219D07B6809
:103C40004E4A934213D07B684D4A93420DD07B6815
:103C50004C4A934207D07B684B4A934201D10723D9
:103C60000EE008230CE006230AE0052308E0042305
:103C700006E0032304E0022302E0012300E0002326
:103C8000FA6902F0030292009340BA691343BB61E0
:103C90003549FB699B080233BA6941F823203B4B45
:103CA0009B68BB613B69DB43BA691340BB613B68FE
:103CB0005B6803F48013002B03D0BA693B6913439C
:103CC000BB61324ABB699360304BDB68BB613B69C7
:103CD000DB43BA691340BB613B685B6803F40013C4
:103CE000002B03D0BA693B691343BB61274ABB6908
:103CF000D360264B5B68BB613B69DB43BA69134009
:103D0000BB613B685B6803F40033002B03D0BA69E6
:103D10003B691343BB611D4ABB6953601B4B1B6866
:103D2000BB613B69DB43BA691340BB613B685B68BD
:103D300003F48033002B03D0BA693B691343BB61A2
:103D4000124ABB691360FB690133FB61FB690F2BEE
:103D50007FF690AE00BF00BF2437BD465DF8047B00
:103D6000704700BF003802400038014000000240A8
:103D70000004024000080240000C02400010024013
:103D80000014024000180240001C0240003C0140A8
:103D900080B483B000AF78600B467B8013467B70A5
:103DA0007B78002B03D07A887B689A6103E07B885C
:103DB0001A047B689A6100BF0C37BD465DF8047B2E
:103DC000704780B485B000AF78600B467B807B681D
:103DD0005B69FB607A88FB6813401A04FB68D9436F
:103DE0007B880B401A437B689A6100BF1437BD463D
:103DF0005DF8047B7047000080B582B000AF0346D9
:103E0000FB80084B5A69FB881340002B06D0054AFB
:103E1000FB885361FB881846FDF7BAFE00BF0837E0
:103E2000BD4680BD003C014080B586B002AF7860E1
:103E30007B68002B01D1012359E07B681B68FB6084
:103E40007B6893F8D533DBB2002B06D17B68002268
:103E500083F8D42378680EF00FFD7B68032283F883
:103E6000D523FB68B3F1A04F02D17B6800229A7181
:103E70007B681B68184606F0BEFE7B6818687B6886
:103E80001A7C8DF8002004330ECB06F03FFE03466B
:103E9000002B05D07B68022283F8D523012326E07E
:103EA0007B681B680121184606F0B6FE0346002B0E
:103EB00005D07B68022283F8D523012317E07B68B5
:103EC00018687B681A7C8DF8002004330ECB07F04D
:103ED0005FF80346002B05D07B68022283F8D523C8
:103EE000012304E07B68012283F8D52300231846D0
:103EF0001037BD4680BD90B58BB004AF78600846E2
:103F000011461A460346FB700B46BB7013467B7086
:103F10003B8E7B617B6893F8D433012B01D1022364
:103F20009DE07B68012283F8D423FA7879681346F0
:103F30001B019B1A9B000B44193300221A70FA785C
:103F4000796813461B019B1A9B000B4414337A7843
:103F50001A70FA78796813461B019B1A9B000B4470
:103F60001533FA781A70FA78796813461B019B1A90
:103F70009B000B44263397F82C201A70FA78BB78F4
:103F800003F07F03D8B2796813461B019B1A9B008C
:103F90000B44163302461A70FB781946786800F015
:103FA000A5FB97F90230002B0ADAFA7879681346F4
:103FB0001B019B1A9B000B44173301221A7009E066
:103FC000FA78796813461B019B1A9B000B44173340
:103FD00000221A707B681B68184607F03DF93861AB
:103FE00097F82C30012B0BD197F82830012B07D1F3
:103FF0003B69002B04D17B69BC2B01D9BC237B61BD
:10400000FA78796813461B019B1A9B000B441833FE
:1040100097F828201A70FA787B6998B27968134665
:104020001B019B1A9B000B44283302461A807B68B5
:1040300018687B699BB27C78BA78F978029397F814
:104040002C30019397F828300093234607F02CF981
:104050000346FB737B68002283F8D423FB7B18465E
:104060001C37BD4690BD000080B582B000AF7860BF
:10407000084611461A460346FB700B46BB701346B2
:104080007B70FA78796813461B019B1A9B000B44DE
:104090001733BA781A70FA78796813461B019B1A9D
:1040A0009B000B4426337A781A703B7C002B14D18A
:1040B000FA78796813461B019B1A9B000B442A333C
:1040C00003221A70FA78796813461B019B1A9B0029
:1040D0000B4419333A7F1A7009E0FA78796813466D
:1040E0001B019B1A9B000B442A3302221A707B7817
:1040F000032B00F2028101A252F823F00D410008C7
:10410000E5420008D14100085B4200083B7C012BDE
:1041100040F0F580BB78002B2DD13B8B002B09D1D3
:10412000FA78796813461B019B1A9B000B443D33B8
:1041300001221A70FA78796813461B019B1A9B00BA
:104140000B443D331B78002B0AD1FA78796813466B
:104150001B019B1A9B000B442A3300221A70CEE0ED
:10416000FA78796813461B019B1A9B000B442A338B
:1041700002221A70C3E0FA78796813461B019B1A71
:104180009B000B441A331B78012B40F0B880FA785F
:10419000796813461B019B1A9B000B443C331B7828
:1041A000002B0AD1FA78796813461B019B1A9B00F1
:1041B0000B442A3300221A70A1E0FA78796813467A
:1041C0001B019B1A9B000B442A3302221A7096E0B3
:1041D000BB78002B20D1FA78796813461B019B1A13
:1041E0009B000B443D331B78002B0AD1FA78796889
:1041F00013461B019B1A9B000B442A3300221A70A2
:104200007EE0FA78796813461B019B1A9B000B44E9
:104210002A3302221A7073E0FA78796813461B0178
:104220009B1A9B000B443C331B78002B0AD1FA7875
:10423000796813461B019B1A9B000B442A3300220A
:104240001A705DE0FA78796813461B019B1A9B008F
:104250000B442A3302221A7052E0BB78002B20D183
:10426000FA78796813461B019B1A9B000B443D3377
:104270001B78002B0AD1FA78796813461B019B1A28
:104280009B000B442A3300221A7039E0FA787968CF
:1042900013461B019B1A9B000B442A3302221A70FF
:1042A0002EE0FA78796813461B019B1A9B000B4499
:1042B0003C331B78002B0AD1FA78796813461B012E
:1042C0009B1A9B000B442A3300221A7018E0FA78DC
:1042D000796813461B019B1A9B000B442A33022268
:1042E0001A700DE0FA78796813461B019B1A9B003F
:1042F0000B442A3300221A7002E000BF00E000BF26
:10430000FA78796813461B019B1A9B000B442C33E7
:104310007A691A60FA78398B786813461B019B1A00
:104320009B00034434331960FA78796813461B0103
:104330009B1A9B000B444C3300221A70FA78796860
:1043400013461B019B1A9B000B44383300221A6052
:10435000FA78796813461B019B1A9B000B441533AE
:10436000FA781A70FA78796813461B019B1A9B0039
:104370000B444D3300221A707B681868FA78134694
:104380001B019B1A9B0010337A681344191D7B682C
:104390009B791A4607F0B4F8034618460837BD461D
:1043A00080BD00BF80B586B000AF78607B681B68B9
:1043B0003B613B69FB607B681B68184606F0A2FD09
:1043C0000346012B40F0FB807B681B68184606F013
:1043D00065FD0346002B00F0F1807B681B681846E2
:1043E00006F05CFD034603F40013B3F5001F04D18F
:1043F0007B681B684FF400125A617B681B68184683
:1044000006F04CFD034603F48013B3F5801F04D17E
:104410007B681B684FF480125A617B681B681846E2
:1044200006F03CFD034603F08063B3F1806F04D1D6
:104430007B681B684FF080625A617B681B68184676
:1044400006F02CFD034603F00203022B03D17B6828
:104450001B6802225A617B681B68184606F01EFD25
:10446000034603F00053B3F1005F20D17B681B6863
:104470004FF000525A61FB6803F588631B6803F034
:104480000103002B13D11021386906F011FC3869A3
:1044900006F040FC7B685B7A022B05D17B681B68C9
:1044A0000121184606F038FE78680EF063FA7B6842
:1044B0001B68184606F0F2FC034603F08073B3F164
:1044C000807F02D1786801F04DFD7B681B6818463B
:1044D00006F0E4FC034603F00803082B06D17868D5
:1044E0000EF02CFA7B681B6808225A617B681B68F7
:1044F000184606F0D3FC034603F00073B3F1007FC7
:1045000039D17B681B68184607F074FAB86000233D
:104510007B6125E07B6903F00F03BA6822FA03F39D
:1045200003F00103002B18D07B695A01FB68134488
:1045300003F5A0631B6803F40043B3F5004F06D1F5
:104540007B69DBB21946786800F005F905E07B6904
:10455000DBB21946786800F067FF7B6901337B6145
:104560007B685B791A467B699342D3D37B681B686F
:104570004FF000725A617B681B68184606F08EFC8B
:10458000034603F01003102B01D1012300E00023A8
:10459000002B14D07B681B689A697B681B6822F02B
:1045A00010029A61786801F0FEFB7B681B689A69CB
:1045B0007B681B6842F010029A6100E000BF183768
:1045C000BD4680BD80B582B000AF78607B6893F84F
:1045D000D433012B01D1022313E07B68012283F83D
:1045E000D4237B681B680121184606F0FCFD7B681C
:1045F0001B68184606F0EEFA7B68002283F8D42385
:10460000002318460837BD4680BD80B582B000AF94
:1046100078607B6893F8D433012B01D102230DE03D
:104620007B68012283F8D4237B681B68184607F057
:104630004FFB7B68002283F8D423002318460837F9
:10464000BD4680BD80B582B000AF78607B681B68D6
:10465000184606F09EFD034618460837BD4680BD45
:1046600080B483B000AF78600B46FB70FA7879684D
:1046700013461B019B1A9B000B444C331B781846B6
:104680000C37BD465DF8047B704780B483B000AF43
:1046900078600B46FB70FA78796813461B019B1A09
:1046A0009B000B4438331B6818460C37BD465DF839
:1046B000047B704780B582B000AF78607B681B6870
:1046C000184606F0E0FD034618460837BD4680BD93
:1046D00080B582B000AF78607B681B68184606F032
:1046E000BBFD034618460837BD4680BD80B483B085
:1046F00000AF78600B46FB70FA78796813461B01AF
:104700009B1A9B000B441A3300221A70FA787968BE
:1047100013461B019B1A9B000B441B3300221A708B
:10472000FA78796813461B019B1A9B000B442533CA
:1047300000221A70FA78796813461B019B1A9B00B5
:104740000B44243300221A70002318460C37BD4650
:104750005DF8047B704780B586B000AF78600B468B
:10476000FB707B681B687B617B693B617B681B68B6
:10477000FA781146184606F0A4FB034603F004033A
:10478000042B1AD1FB785A013B69134403F5A0634B
:104790001A4604239360FA78796813461B019B1A22
:1047A0009B000B444D3307221A707B681B68FA7814
:1047B0001146184607F02FF99EE07B681B68FA78CF
:1047C0001146184606F07DFB034603F48073B3F5EB
:1047D000807F1BD1FB785A013B69134403F5A0632A
:1047E0001A464FF480739360FA78796813461B0178
:1047F0009B1A9B000B444D3308221A707B681B6880
:10480000FA781146184607F006F975E07B681B68D0
:10481000FA781146184606F054FB034603F00803E5
:10482000082B1AD1FB785A013B69134403F5A063A6
:104830001A4608239360FA78796813461B019B1A7D
:104840009B000B444D3306221A707B681B68FA7874
:104850001146184607F0DFF84EE07B681B68FA78CF
:104860001146184606F02DFB034603F48063B3F5AA
:10487000806F1BD1FB785A013B69134403F5A06399
:104880001A464FF480639360FA78796813461B01E7
:104890009B1A9B000B444D3309221A707B681B68DE
:1048A000FA781146184607F0B6F825E07B681B68D1
:1048B000FA781146184606F004FB034603F080031D
:1048C000802B19D1FB785A013B69134403F5A0638F
:1048D0001A4680239360FA78796813461B019B1A65
:1048E0009B000B444D3307221A707B681B68FA78D3
:1048F0001146184607F08FF87B681B68FA78114656
:10490000184606F0DEFA034603F40073B3F5007FA1
:1049100012D17B681B68FA781146184607F07BF8BD
:10492000FB785A013B69134403F5A0631A464FF420
:104930000073936000F075BD7B681B68FA781146C0
:10494000184606F0BEFA034603F00103012B40F0BF
:104950002881FB785A013B69134403F5A0631A468A
:1049600020239360FA78796813461B019B1A9B00F9
:104970000B441B331B78012B19D1FA787968134645
:104980001B019B1A9B000B441B3300221A70FB78FF
:104990005A013B69134403F5A0635B68FA7851013F
:1049A0003A690A4402F5A06223F4803353607B68BD
:1049B0009B79002B1BD0FA78796813461B019B1A50
:1049C0009B000B4430331968FB785A013B69134450
:1049D00003F5A0631B69C3F31203FA78C91A786858
:1049E00013461B019B1A9B00034438331960FA7865
:1049F000796813461B019B1A9B000B444D3301221F
:104A00001A70FA78796813461B019B1A9B000B44B5
:104A1000443300221A60FB785A013B69134403F5C2
:104A2000A0631A4601239360FA78796813461B0144
:104A30009B1A9B000B4426331B78002B0AD0FA7874
:104A4000796813461B019B1A9B000B4426331B7885
:104A5000022B10D17B681B68FA781146184606F0C5
:104A6000DAFFFB785A013B69134403F5A0631A4649
:104A7000102393603DE0FA78796813461B019B1A76
:104A80009B000B4426331B78032B0AD0FA787968F5
:104A900013461B019B1A9B000B4426331B78012BEA
:104AA00027D1FB785A013B69134403F5A0631B68C7
:104AB000FA7851013A690A4402F5A06243F00053C2
:104AC0001360FA78796813461B019B1A9B000B440C
:104AD0004C3301221A70FA78796813461B019B1A2D
:104AE0009B000B444C331A78FB78194678680DF01C
:104AF0004FFF7B689B79012B3BD1FA78796813468D
:104B00001B019B1A9B000B4438331968FA787868AC
:104B100013461B019B1A9B00034428331B880B443C
:104B2000591EFA78786813461B019B1A9B000344B0
:104B300028331B88B1FBF3F303F00103002B00F0D3
:104B40007084FA78796813461B019B1A9B000B440A
:104B50003C331B78FA7883F00103D8B279681346A6
:104B60001B019B1A9B000B443C3302461A7000F059
:104B700058BCFA78796813461B019B1A9B000B44BA
:104B80003C331B78FA7883F00103D8B27968134676
:104B90001B019B1A9B000B443C3302461A7000F029
:104BA00040BC7B681B68FA781146184606F089F904
:104BB000034603F02003202B31D1FB785A013B69D7
:104BC000134403F5A0631A4620239360FA787968AA
:104BD00013461B019B1A9B000B441A331B78012BB5
:104BE00040F01F84FA78796813461B019B1A9B00DA
:104BF0000B441B3301221A70FA78796813461B01A3
:104C00009B1A9B000B444D3303221A707B681B6870
:104C1000FA781146184606F0FEFE00F002BC7B68EA
:104C20001B68FA781146184606F04BF9034603F064
:104C30000203022B40F00583FB785A013B691344C1
:104C400003F5A0631A4602239360FA787968134645
:104C50001B019B1A9B000B444D331B78012B14D175
:104C6000FA78796813461B019B1A9B000B444D335D
:104C700002221A70FA78796813461B019B1A9B006E
:104C80000B444C3301221A70CCE2FA78796813464F
:104C90001B019B1A9B000B444D331B78062B14D130
:104CA000FA78796813461B019B1A9B000B444D331D
:104CB00002221A70FA78796813461B019B1A9B002E
:104CC0000B444C3305221A70ACE2FA78796813462B
:104CD0001B019B1A9B000B444D331B78072B0BD0F9
:104CE000FA78796813461B019B1A9B000B444D33DD
:104CF0001B78092B40F0A680FA78796813461B01CF
:104D00009B1A9B000B444D3302221A70FA78796883
:104D100013461B019B1A9B000B4444331B68591C10
:104D2000786813461B019B1A9B00034444331960A7
:104D3000FA78796813461B019B1A9B000B44443395
:104D40001B68022B43D9FA78796813461B019B1A1A
:104D50009B000B44443300221A60FA7879681346AA
:104D60001B019B1A9B000B441A331B78012B23D188
:104D7000FA78796813461B019B1A9B000B441B337E
:104D800000221A70FA78796813461B019B1A9B005F
:104D90000B441C3300221A70FB785A013B69134400
:104DA00003F5A0635B68FA7851013A690A4402F599
:104DB000A06223F480335360FA78796813461B01AC
:104DC0009B1A9B000B444C3304221A7029E2FA7898
:104DD000796813461B019B1A9B000B444C3302223B
:104DE0001A70FA78796813461B019B1A9B000B44D2
:104DF00026331B78002B0BD0FA78796813461B01F9
:104E00009B1A9B000B4426331B78022B40F009822F
:104E1000FB785A013B69134403F5A0631B68FB60F0
:104E2000FB6823F08043FB60FB6843F00043FB60BA
:104E3000FB785A013B69134403F5A0631A46FB68EB
:104E40001360EEE1FA78796813461B019B1A9B0008
:104E50000B444D331B78052B40F0C880FA787968F5
:104E600013461B019B1A9B000B444D3302221A7000
:104E7000FA78796813461B019B1A9B000B441B337D
:104E80001B78012B40F0CE81FA78796813461B011C
:104E90009B1A9B000B4426331B78032B6BD1FA78AB
:104EA000796813461B019B1A9B000B4448331B680F
:104EB000591C786813461B019B1A9B000344483316
:104EC0001960FA78796813461B019B1A9B000B4402
:104ED00048331B68022B43D9FA78796813461B01C3
:104EE0009B1A9B000B44483300221A60FA787968B9
:104EF00013461B019B1A9B000B441B3300221A70A4
:104F0000FA78796813461B019B1A9B000B444433C3
:104F10001B68022B09D8FA78796813461B019B1A83
:104F20009B000B441C3301221A70FB785A013B6929
:104F3000134403F5A0635B68FA7851013A690A44A7
:104F400002F5A06223F480335360FA78796813463F
:104F50001B019B1A9B000B444C3304221A7014E073
:104F6000FA78796813461B019B1A9B000B444C335B
:104F700002221A7009E0FA78796813461B019B1A1D
:104F80009B000B444C3302221A70FA78796813465E
:104F90001B019B1A9B000B4426331B78002B0BD064
:104FA000FA78796813461B019B1A9B000B44263341
:104FB0001B78022B40F03681FB785A013B69134481
:104FC00003F5A0631B68FB60FB6823F08043FB6074
:104FD000FB6843F00043FB60FB785A013B691344D4
:104FE00003F5A0631A46FB6813601BE1FA78796841
:104FF00013461B019B1A9B000B444D331B78032B5C
:1050000040F08180FA78796813461B019B1A9B0057
:105010000B444D3302221A70FA78796813461B014B
:105020009B1A9B000B441B331B78012B40F0FA802A
:10503000FA78796813461B019B1A9B000B444C338A
:1050400002221A70FB785A013B69134403F5A063EE
:105050005B68FA7851013A690A4402F5A06243F4A8
:1050600080335360FB785A013B69134403F5A06316
:10507000DB68FA7851013A690A4402F5A06243F00C
:105080004003D360FB785A013B69134403F5A063E6
:10509000DB68FA7851013A690A4402F5A06223F00C
:1050A0002003D360FA78796813461B019B1A9B0092
:1050B0000B4426331B78002B0BD0FA787968134603
:1050C0001B019B1A9B000B4426331B78022B40F0DC
:1050D000A980FB785A013B69134403F5A0631B6860
:1050E000FB60FB6823F08043FB60FB6843F00043F8
:1050F000FB60FB785A013B69134403F5A0631A4631
:10510000FB6813608EE0FA78796813461B019B1ADE
:105110009B000B444D331B78042B43D1FA787968FC
:1051200013461B019B1A9B000B444D3302221A703D
:10513000FA78796813461B019B1A9B000B444C3389
:1051400002221A70FA78796813461B019B1A9B0099
:105150000B4426331B78002B0AD0FA787968134663
:105160001B019B1A9B000B4426331B78022B59D141
:10517000FB785A013B69134403F5A0631B68FB608D
:10518000FB6823F08043FB60FB6843F00043FB6057
:10519000FB785A013B69134403F5A0631A46FB6888
:1051A00013603FE0FA78796813461B019B1A9B0055
:1051B0000B444D331B78082B26D1FA7879681346B7
:1051C0001B019B1A9B000B444D3302221A70FA7884
:1051D000796813461B019B1A9B000B4444331B68E0
:1051E000591C786813461B019B1A9B0003444433E7
:1051F0001960FA78796813461B019B1A9B000B44CF
:105200004C3304221A700DE0FA78796813461B01BA
:105210009B1A9B000B444D331B78022B00F000813E
:1052200000E000BFFA78796813461B019B1A9B00C7
:105230000B444C331A78FB78194678680DF0A8FBBC
:10524000EFE07B681B68FA781146184605F039FED6
:10525000034603F04003402B2FD1FB785A013B69F2
:10526000134403F5A0631A4640239360FA787968E3
:1052700013461B019B1A9B000B444D3305221A70E9
:10528000FA78796813461B019B1A9B000B441A336A
:105290001B78002B09D1FA78796813461B019B1AF9
:1052A0009B000B44443300221A607B681B68FA7829
:1052B0001146184606F0AFFBB3E07B681B68FA782E
:1052C0001146184605F0FDFD034603F01003102BB0
:1052D00040F0A780FA78796813461B019B1A9B005F
:1052E0000B4426331B78032B1BD1FA7879681346BD
:1052F0001B019B1A9B000B44443300221A60FA786E
:10530000796813461B019B1A9B000B444D33042202
:105310001A707B681B68FA781146184606F07BFB0A
:105320003FE0FA78796813461B019B1A9B000B44F7
:1053300026331B78002B0AD0FA78796813461B01B4
:105340009B1A9B000B4426331B78022B29D1FA7839
:10535000796813461B019B1A9B000B4444330022BF
:105360001A607B689B79002B0AD0FA78796813461B
:105370001B019B1A9B000B441B331B78012B10D184
:10538000FA78796813461B019B1A9B000B444D3336
:1053900004221A707B681B68FA781146184606F0DA
:1053A0003AFBFA78796813461B019B1A9B000B4461
:1053B0001B331B78012B29D1FA78796813461B011E
:1053C0009B1A9B000B441B3300221A70FB785A0176
:1053D0003B69134403F5A0635B68FA7851013A69AD
:1053E0000A4402F5A06223F480335360FB785A012B
:1053F0003B69134403F5A063DB68FA7851013A690D
:105400000A4402F5A06243F02003D360FB785A01FE
:105410003B69134403F5A0631A461023936000E030
:1054200000BF1837BD4680BD80B586B000AF78603C
:105430000B46FB707B681B687B617B693B617B680B
:105440001B68FA781146184605F03BFD034603F049
:105450000403042B1BD1FB785A013B69134403F569
:10546000A0631A4604239360FA78796813461B01F7
:105470009B1A9B000B444D3307221A707B681B68F4
:10548000FA781146184606F0C6FA00F089BC7B6827
:105490001B68FA781146184605F013FD034603F021
:1054A0002003202B40F08280FB785A013B69134493
:1054B00003F5A0631A4620239360FA7879681346AF
:1054C0001B019B1A9B000B4419331B78012B24D121
:1054D000FA78796813461B019B1A9B000B44193319
:1054E00000221A70FA78796813461B019B1A9B00F8
:1054F0000B444C3302221A70FA78796813461B0168
:105500009B1A9B000B444D3303221A707B681B6867
:10551000FA781146184606F07EFAFA78796813464A
:105520001B019B1A9B000B441A331B78012B40F084
:105530003784FA78796813461B019B1A9B000B4449
:105540001B331B78002B40F02B84FA7879681346C4
:105550001B019B1A9B000B4426331B78012B09D09F
:10556000FA78796813461B019B1A9B000B441B3386
:1055700001221A70FA78796813461B019B1A9B0066
:105580000B444D3303221A707B681B68FA7811466E
:10559000184606F040FAFA78796813461B019B1A00
:1055A0009B000B44443300221A60F9E37B681B68BC
:1055B000FA781146184605F084FC034603F400739C
:1055C000B3F5007F11D1FB785A013B69134403F511
:1055D000A0631A464FF4007393607B681B68FA78E7
:1055E0001146184606F017FADAE37B681B68FA786A
:1055F0001146184605F065FC034603F00103012B34
:1056000068D1FA78796813461B019B1A9B000B44FA
:10561000443300221A607B681B68FA7811461846EA
:1056200005F04FFC034603F04003402B12D1FA78FB
:10563000796813461B019B1A9B000B441933012206
:105640001A70FB785A013B69134403F5A0631A46AC
:1056500040239360FA78796813461B019B1A9B00DC
:105660000B441B331B78002B19D0FA78796813464A
:105670001B019B1A9B000B441B3300221A70FB7802
:105680005A013B69134403F5A0635B68FA78510142
:105690003A690A4402F5A06223F480335360FB7830
:1056A0005A013B69134403F5A0631A460123936032
:1056B000FA78796813461B019B1A9B000B444D3303
:1056C00001221A707B681B68FA781146184606F0AA
:1056D000A2F965E37B681B68FA781146184605F065
:1056E000F0FB034603F04003402B39D1FA78796888
:1056F00013461B019B1A9B000B444D3305221A7065
:10570000FA78796813461B019B1A9B000B441A33E5
:105710001B78002B09D1FA78796813461B019B1A74
:105720009B000B44193301221A70FA7879681346EA
:105730001B019B1A9B000B44443300221A607B68B8
:105740001B68FA781146184606F065F9FB785A018D
:105750003B69134403F5A0631A46402393601FE39B
:105760007B681B68FA781146184605F0AAFB0346C9
:1057700003F00803082B1AD1FB785A013B69134444
:1057800003F5A0631A4608239360FA7879681346F4
:105790001B019B1A9B000B444D3306221A707B6839
:1057A0001B68FA781146184606F035F9F8E27B686E
:1057B0001B68FA781146184605F083FB034603F090
:1057C0001003102B44D1FA78796813461B019B1AF9
:1057D0009B000B44443300221A60FA787968134620
:1057E0001B019B1A9B000B444D3304221A70FA785C
:1057F000796813461B019B1A9B000B4419331B78D5
:10580000002B14D1FA78796813461B019B1A9B0070
:105810000B4418331B78002B09D1FA7879681346AA
:105820001B019B1A9B000B44193301221A707B68E1
:105830001B68FA781146184606F0EDF8FB785A0115
:105840003B69134403F5A0631A4610239360A7E253
:105850007B681B68FA781146184605F032FB034650
:1058600003F08003802B40F083807B689B79002BC2
:1058700011D1FA78796813461B019B1A9B000B44DF
:105880004D3307221A707B681B68FA781146184658
:1058900006F0C1F862E0FA78796813461B019B1A9A
:1058A0009B000B4444331B68591C786813461B014A
:1058B0009B1A9B00034444331960FA7879681346B5
:1058C0001B019B1A9B000B4444331B68022B22D9FB
:1058D000FA78796813461B019B1A9B000B444433EA
:1058E00000221A60FA78796813461B019B1A9B0004
:1058F0000B444C3304221A70FA78796813461B0162
:105900009B1A9B000B444C331A78FB781946786835
:105910000DF03EF822E0FA78796813461B019B1AD5
:105920009B000B444C3302221A70FB785A013B69EE
:10593000134403F5A0631B68FB60FB6823F08043FE
:10594000FB60FB6843F00043FB60FB785A013B6956
:10595000134403F5A0631A46FB681360FB785A01F1
:105960003B69134403F5A0631A468023936017E252
:105970007B681B68FA781146184605F0A2FA0346C0
:1059800003F48063B3F5806F1BD1FA78796813460E
:105990001B019B1A9B000B444D3309221A707B6834
:1059A0001B68FA781146184606F035F8FB785A015C
:1059B0003B69134403F5A0631A464FF48063936078
:1059C000EEE17B681B68FA781146184605F079FA13
:1059D000034603F00203022B40F0DF81FB785A01FB
:1059E0003B69134403F5A0631A4602239360FA78D7
:1059F000796813461B019B1A9B000B444D331B789F
:105A0000012B40F09380FA78796813461B019B1AAA
:105A10009B000B444D3302221A70FA7879681346C2
:105A20001B019B1A9B000B444C3301221A70FA781D
:105A3000796813461B019B1A9B000B4426331B7885
:105A4000022B0BD0FA78796813461B019B1A9B0036
:105A50000B4426331B78032B40F090817B689B79A5
:105A6000002B15D1FA78796813461B019B1A9B000D
:105A70000B443D331B78FA7883F00103D8B2796880
:105A800013461B019B1A9B000B443D3302461A70C0
:105A90007B689B79012B40F07181FA787968134615
:105AA0001B019B1A9B000B4434331B68002B00F036
:105AB0006581FA78796813461B019B1A9B000B4499
:105AC00034331968FA78786813461B019B1A9B00D7
:105AD000034428331B880B44591EFA787868134610
